{"contracts/AccessManager.sol":{"AccessManager":{"abi":[{"inputs":[{"internalType":"address","name":"initialAdmin","type":"address"}],"stateMutability":"nonpayable","type":"constructor"},{"inputs":[{"internalType":"bytes32","name":"operationId","type":"bytes32"}],"name":"AccessManagerAlreadyScheduled","type":"error"},{"inputs":[],"name":"AccessManagerBadConfirmation","type":"error"},{"inputs":[{"internalType":"bytes32","name":"operationId","type":"bytes32"}],"name":"AccessManagerExpired","type":"error"},{"inputs":[{"internalType":"address","name":"initialAdmin","type":"address"}],"name":"AccessManagerInvalidInitialAdmin","type":"error"},{"inputs":[{"internalType":"address","name":"account","type":"address"}],"name":"AccessManagerLockedAccount","type":"error"},{"inputs":[{"internalType":"uint64","name":"roleId","type":"uint64"}],"name":"AccessManagerLockedRole","type":"error"},{"inputs":[{"internalType":"bytes32","name":"operationId","type":"bytes32"}],"name":"AccessManagerNotReady","type":"error"},{"inputs":[{"internalType":"bytes32","name":"operationId","type":"bytes32"}],"name":"AccessManagerNotScheduled","type":"error"},{"inputs":[{"internalType":"address","name":"msgsender","type":"address"},{"internalType":"uint64","name":"roleId","type":"uint64"}],"name":"AccessManagerUnauthorizedAccount","type":"error"},{"inputs":[{"internalType":"address","name":"caller","type":"address"},{"internalType":"address","name":"target","type":"address"},{"internalType":"bytes4","name":"selector","type":"bytes4"}],"name":"AccessManagerUnauthorizedCall","type":"error"},{"inputs":[{"internalType":"address","name":"msgsender","type":"address"},{"internalType":"address","name":"caller","type":"address"},{"internalType":"address","name":"target","type":"address"},{"internalType":"bytes4","name":"selector","type":"bytes4"}],"name":"AccessManagerUnauthorizedCancel","type":"error"},{"inputs":[{"internalType":"address","name":"target","type":"address"}],"name":"AccessManagerUnauthorizedConsume","type":"error"},{"inputs":[{"internalType":"address","name":"target","type":"address"}],"name":"AddressEmptyCode","type":"error"},{"inputs":[{"internalType":"address","name":"account","type":"address"}],"name":"AddressInsufficientBalance","type":"error"},{"inputs":[],"name":"FailedInnerCall","type":"error"},{"inputs":[{"internalType":"uint8","name":"bits","type":"uint8"},{"internalType":"uint256","name":"value","type":"uint256"}],"name":"SafeCastOverflowedUintDowncast","type":"error"},{"anonymous":false,"inputs":[{"indexed":true,"internalType":"bytes32","name":"operationId","type":"bytes32"},{"indexed":true,"internalType":"uint32","name":"nonce","type":"uint32"}],"name":"OperationCanceled","type":"event"},{"anonymous":false,"inputs":[{"indexed":true,"internalType":"bytes32","name":"operationId","type":"bytes32"},{"indexed":true,"internalType":"uint32","name":"nonce","type":"uint32"}],"name":"OperationExecuted","type":"event"},{"anonymous":false,"inputs":[{"indexed":true,"internalType":"bytes32","name":"operationId","type":"bytes32"},{"indexed":true,"internalType":"uint32","name":"nonce","type":"uint32"},{"indexed":false,"internalType":"uint48","name":"schedule","type":"uint48"},{"indexed":false,"internalType":"address","name":"caller","type":"address"},{"indexed":false,"internalType":"address","name":"target","type":"address"},{"indexed":false,"internalType":"bytes","name":"data","type":"bytes"}],"name":"OperationScheduled","type":"event"},{"anonymous":false,"inputs":[{"indexed":true,"internalType":"uint64","name":"roleId","type":"uint64"},{"indexed":true,"internalType":"uint64","name":"admin","type":"uint64"}],"name":"RoleAdminChanged","type":"event"},{"anonymous":false,"inputs":[{"indexed":true,"internalType":"uint64","name":"roleId","type":"uint64"},{"indexed":false,"internalType":"uint32","name":"delay","type":"uint32"},{"indexed":false,"internalType":"uint48","name":"since","type":"uint48"}],"name":"RoleGrantDelayChanged","type":"event"},{"anonymous":false,"inputs":[{"indexed":true,"internalType":"uint64","name":"roleId","type":"uint64"},{"indexed":true,"internalType":"address","name":"account","type":"address"},{"indexed":false,"internalType":"uint32","name":"delay","type":"uint32"},{"indexed":false,"internalType":"uint48","name":"since","type":"uint48"},{"indexed":false,"internalType":"bool","name":"newMember","type":"bool"}],"name":"RoleGranted","type":"event"},{"anonymous":false,"inputs":[{"indexed":true,"internalType":"uint64","name":"roleId","type":"uint64"},{"indexed":true,"internalType":"uint64","name":"guardian","type":"uint64"}],"name":"RoleGuardianChanged","type":"event"},{"anonymous":false,"inputs":[{"indexed":true,"internalType":"uint64","name":"roleId","type":"uint64"},{"indexed":false,"internalType":"string","name":"label","type":"string"}],"name":"RoleLabel","type":"event"},{"anonymous":false,"inputs":[{"indexed":true,"internalType":"uint64","name":"roleId","type":"uint64"},{"indexed":true,"internalType":"address","name":"account","type":"address"}],"name":"RoleRevoked","type":"event"},{"anonymous":false,"inputs":[{"indexed":true,"internalType":"address","name":"target","type":"address"},{"indexed":false,"internalType":"uint32","name":"delay","type":"uint32"},{"indexed":false,"internalType":"uint48","name":"since","type":"uint48"}],"name":"TargetAdminDelayUpdated","type":"event"},{"anonymous":false,"inputs":[{"indexed":true,"internalType":"address","name":"target","type":"address"},{"indexed":false,"internalType":"bool","name":"closed","type":"bool"}],"name":"TargetClosed","type":"event"},{"anonymous":false,"inputs":[{"indexed":true,"internalType":"address","name":"target","type":"address"},{"indexed":false,"internalType":"bytes4","name":"selector","type":"bytes4"},{"indexed":true,"internalType":"uint64","name":"roleId","type":"uint64"}],"name":"TargetFunctionRoleUpdated","type":"event"},{"inputs":[],"name":"ADMIN_ROLE","outputs":[{"internalType":"uint64","name":"","type":"uint64"}],"stateMutability":"view","type":"function"},{"inputs":[],"name":"PUBLIC_ROLE","outputs":[{"internalType":"uint64","name":"","type":"uint64"}],"stateMutability":"view","type":"function"},{"inputs":[{"internalType":"address","name":"caller","type":"address"},{"internalType":"address","name":"target","type":"address"},{"internalType":"bytes4","name":"selector","type":"bytes4"}],"name":"canCall","outputs":[{"internalType":"bool","name":"immediate","type":"bool"},{"internalType":"uint32","name":"delay","type":"uint32"}],"stateMutability":"view","type":"function"},{"inputs":[{"internalType":"address","name":"caller","type":"address"},{"internalType":"address","name":"target","type":"address"},{"internalType":"bytes","name":"data","type":"bytes"}],"name":"cancel","outputs":[{"internalType":"uint32","name":"","type":"uint32"}],"stateMutability":"nonpayable","type":"function"},{"inputs":[{"internalType":"address","name":"caller","type":"address"},{"internalType":"bytes","name":"data","type":"bytes"}],"name":"consumeScheduledOp","outputs":[],"stateMutability":"nonpayable","type":"function"},{"inputs":[{"internalType":"address","name":"target","type":"address"},{"internalType":"bytes","name":"data","type":"bytes"}],"name":"execute","outputs":[{"internalType":"uint32","name":"","type":"uint32"}],"stateMutability":"payable","type":"function"},{"inputs":[],"name":"expiration","outputs":[{"internalType":"uint32","name":"","type":"uint32"}],"stateMutability":"view","type":"function"},{"inputs":[{"internalType":"uint64","name":"roleId","type":"uint64"},{"internalType":"address","name":"account","type":"address"}],"name":"getAccess","outputs":[{"internalType":"uint48","name":"since","type":"uint48"},{"internalType":"uint32","name":"currentDelay","type":"uint32"},{"internalType":"uint32","name":"pendingDelay","type":"uint32"},{"internalType":"uint48","name":"effect","type":"uint48"}],"stateMutability":"view","type":"function"},{"inputs":[{"internalType":"bytes32","name":"id","type":"bytes32"}],"name":"getNonce","outputs":[{"internalType":"uint32","name":"","type":"uint32"}],"stateMutability":"view","type":"function"},{"inputs":[{"internalType":"uint64","name":"roleId","type":"uint64"}],"name":"getRoleAdmin","outputs":[{"internalType":"uint64","name":"","type":"uint64"}],"stateMutability":"view","type":"function"},{"inputs":[{"internalType":"uint64","name":"roleId","type":"uint64"}],"name":"getRoleGrantDelay","outputs":[{"internalType":"uint32","name":"","type":"uint32"}],"stateMutability":"view","type":"function"},{"inputs":[{"internalType":"uint64","name":"roleId","type":"uint64"}],"name":"getRoleGuardian","outputs":[{"internalType":"uint64","name":"","type":"uint64"}],"stateMutability":"view","type":"function"},{"inputs":[{"internalType":"bytes32","name":"id","type":"bytes32"}],"name":"getSchedule","outputs":[{"internalType":"uint48","name":"","type":"uint48"}],"stateMutability":"view","type":"function"},{"inputs":[{"internalType":"address","name":"target","type":"address"}],"name":"getTargetAdminDelay","outputs":[{"internalType":"uint32","name":"","type":"uint32"}],"stateMutability":"view","type":"function"},{"inputs":[{"internalType":"address","name":"target","type":"address"},{"internalType":"bytes4","name":"selector","type":"bytes4"}],"name":"getTargetFunctionRole","outputs":[{"internalType":"uint64","name":"","type":"uint64"}],"stateMutability":"view","type":"function"},{"inputs":[{"internalType":"uint64","name":"roleId","type":"uint64"},{"internalType":"address","name":"account","type":"address"},{"internalType":"uint32","name":"executionDelay","type":"uint32"}],"name":"grantRole","outputs":[],"stateMutability":"nonpayable","type":"function"},{"inputs":[{"internalType":"uint64","name":"roleId","type":"uint64"},{"internalType":"address","name":"account","type":"address"}],"name":"hasRole","outputs":[{"internalType":"bool","name":"isMember","type":"bool"},{"internalType":"uint32","name":"executionDelay","type":"uint32"}],"stateMutability":"view","type":"function"},{"inputs":[{"internalType":"address","name":"caller","type":"address"},{"internalType":"address","name":"target","type":"address"},{"internalType":"bytes","name":"data","type":"bytes"}],"name":"hashOperation","outputs":[{"internalType":"bytes32","name":"","type":"bytes32"}],"stateMutability":"view","type":"function"},{"inputs":[{"internalType":"address","name":"target","type":"address"}],"name":"isTargetClosed","outputs":[{"internalType":"bool","name":"","type":"bool"}],"stateMutability":"view","type":"function"},{"inputs":[{"internalType":"uint64","name":"roleId","type":"uint64"},{"internalType":"string","name":"label","type":"string"}],"name":"labelRole","outputs":[],"stateMutability":"nonpayable","type":"function"},{"inputs":[],"name":"minSetback","outputs":[{"internalType":"uint32","name":"","type":"uint32"}],"stateMutability":"view","type":"function"},{"inputs":[{"internalType":"bytes[]","name":"data","type":"bytes[]"}],"name":"multicall","outputs":[{"internalType":"bytes[]","name":"results","type":"bytes[]"}],"stateMutability":"nonpayable","type":"function"},{"inputs":[{"internalType":"uint64","name":"roleId","type":"uint64"},{"internalType":"address","name":"callerConfirmation","type":"address"}],"name":"renounceRole","outputs":[],"stateMutability":"nonpayable","type":"function"},{"inputs":[{"internalType":"uint64","name":"roleId","type":"uint64"},{"internalType":"address","name":"account","type":"address"}],"name":"revokeRole","outputs":[],"stateMutability":"nonpayable","type":"function"},{"inputs":[{"internalType":"address","name":"target","type":"address"},{"internalType":"bytes","name":"data","type":"bytes"},{"internalType":"uint48","name":"when","type":"uint48"}],"name":"schedule","outputs":[{"internalType":"bytes32","name":"operationId","type":"bytes32"},{"internalType":"uint32","name":"nonce","type":"uint32"}],"stateMutability":"nonpayable","type":"function"},{"inputs":[{"internalType":"uint64","name":"roleId","type":"uint64"},{"internalType":"uint32","name":"newDelay","type":"uint32"}],"name":"setGrantDelay","outputs":[],"stateMutability":"nonpayable","type":"function"},{"inputs":[{"internalType":"uint64","name":"roleId","type":"uint64"},{"internalType":"uint64","name":"admin","type":"uint64"}],"name":"setRoleAdmin","outputs":[],"stateMutability":"nonpayable","type":"function"},{"inputs":[{"internalType":"uint64","name":"roleId","type":"uint64"},{"internalType":"uint64","name":"guardian","type":"uint64"}],"name":"setRoleGuardian","outputs":[],"stateMutability":"nonpayable","type":"function"},{"inputs":[{"internalType":"address","name":"target","type":"address"},{"internalType":"uint32","name":"newDelay","type":"uint32"}],"name":"setTargetAdminDelay","outputs":[],"stateMutability":"nonpayable","type":"function"},{"inputs":[{"internalType":"address","name":"target","type":"address"},{"internalType":"bool","name":"closed","type":"bool"}],"name":"setTargetClosed","outputs":[],"stateMutability":"nonpayable","type":"function"},{"inputs":[{"internalType":"address","name":"target","type":"address"},{"internalType":"bytes4[]","name":"selectors","type":"bytes4[]"},{"internalType":"uint64","name":"roleId","type":"uint64"}],"name":"setTargetFunctionRole","outputs":[],"stateMutability":"nonpayable","type":"function"},{"inputs":[{"internalType":"address","name":"target","type":"address"},{"internalType":"address","name":"newAuthority","type":"address"}],"name":"updateAuthority","outputs":[],"stateMutability":"nonpayable","type":"function"}],"evm":{"bytecode":{"linkReferences":{},"object":"60806040523480156200001157600080fd5b506040516200504f3803806200504f8339818101604052810190620000379190620007d1565b600073ffffffffffffffffffffffffffffffffffffffff168173ffffffffffffffffffffffffffffffffffffffff1603620000ac5760006040517f0813ada2000000000000000000000000000000000000000000000000000000008152600401620000a3919062000814565b60405180910390fd5b620000c2600082600080620000ca60201b60201c565b505062000a62565b600067ffffffffffffffff80168567ffffffffffffffff16036200012757846040517f1871a90c0000000000000000000000000000000000000000000000000000000081526004016200011e919062000856565b60405180910390fd5b600080600160008867ffffffffffffffff1667ffffffffffffffff16815260200190815260200160002060000160008773ffffffffffffffffffffffffffffffffffffffff1673ffffffffffffffffffffffffffffffffffffffff16815260200190815260200160002060000160009054906101000a900465ffffffffffff1665ffffffffffff1614905060008115620002f9578463ffffffff16620001d2620004b660201b60201c565b620001de9190620008b4565b905060405180604001604052808265ffffffffffff168152602001620002108663ffffffff16620004ce60201b60201c565b6dffffffffffffffffffffffffffff16815250600160008967ffffffffffffffff1667ffffffffffffffff16815260200190815260200160002060000160008873ffffffffffffffffffffffffffffffffffffffff1673ffffffffffffffffffffffffffffffffffffffff16815260200190815260200160002060008201518160000160006101000a81548165ffffffffffff021916908365ffffffffffff16021790555060208201518160000160066101000a8154816dffffffffffffffffffffffffffff02191690836dffffffffffffffffffffffffffff1602179055509050506200044a565b620003a5846000600160008b67ffffffffffffffff1667ffffffffffffffff16815260200190815260200160002060000160008a73ffffffffffffffffffffffffffffffffffffffff1673ffffffffffffffffffffffffffffffffffffffff16815260200190815260200160002060000160069054906101000a90046dffffffffffffffffffffffffffff166dffffffffffffffffffffffffffff16620004de60201b9092919060201c565b600160008a67ffffffffffffffff1667ffffffffffffffff16815260200190815260200160002060000160008973ffffffffffffffffffffffffffffffffffffffff1673ffffffffffffffffffffffffffffffffffffffff16815260200190815260200160002060000160068294508391906101000a8154816dffffffffffffffffffffffffffff02191690836dffffffffffffffffffffffffffff16021790555050505b8573ffffffffffffffffffffffffffffffffffffffff168767ffffffffffffffff167ff98448b987f1428e0e230e1f3c6e2ce15b5693eaf31827fbd0b1ec4b424ae7cf868486604051620004a19392919062000944565b60405180910390a38192505050949350505050565b6000620004c9426200059660201b60201c565b905090565b60008163ffffffff169050919050565b600080600062000504866dffffffffffffffffffffffffffff16620005f360201b60201c565b90506000620005508563ffffffff168763ffffffff168463ffffffff16116200052f5760006200053e565b87846200053d919062000981565b5b63ffffffff166200062460201b60201c565b90508063ffffffff1662000569620004b660201b60201c565b620005759190620008b4565b92506200058a8287856200063f60201b60201c565b93505050935093915050565b600065ffffffffffff8016821115620005eb576030826040517f6dfcc650000000000000000000000000000000000000000000000000000000008152600401620005e292919062000a35565b60405180910390fd5b819050919050565b60008062000617836dffffffffffffffffffffffffffff166200068b60201b60201c565b5050905080915050919050565b600081831162000635578162000637565b825b905092915050565b60008263ffffffff1660208563ffffffff166dffffffffffffffffffffffffffff16901b60408465ffffffffffff166dffffffffffffffffffffffffffff16901b171790509392505050565b6000806000620006b184620006a5620004b660201b60201c565b620006be60201b60201c565b9250925092509193909250565b600080600080600080620006e8886dffffffffffffffffffffffffffff166200072560201b60201c565b9250925092508665ffffffffffff168165ffffffffffff161115620007105782828262000715565b816000805b9550955095505050509250925092565b6000806000808490508092506020816dffffffffffffffffffffffffffff16901c93506040816dffffffffffffffffffffffffffff16901c9150509193909250565b600080fd5b600073ffffffffffffffffffffffffffffffffffffffff82169050919050565b600062000799826200076c565b9050919050565b620007ab816200078c565b8114620007b757600080fd5b50565b600081519050620007cb81620007a0565b92915050565b600060208284031215620007ea57620007e962000767565b5b6000620007fa84828501620007ba565b91505092915050565b6200080e816200078c565b82525050565b60006020820190506200082b600083018462000803565b92915050565b600067ffffffffffffffff82169050919050565b620008508162000831565b82525050565b60006020820190506200086d600083018462000845565b92915050565b600065ffffffffffff82169050919050565b7f4e487b7100000000000000000000000000000000000000000000000000000000600052601160045260246000fd5b6000620008c18262000873565b9150620008ce8362000873565b9250828201905065ffffffffffff811115620008ef57620008ee62000885565b5b92915050565b600063ffffffff82169050919050565b6200091081620008f5565b82525050565b620009218162000873565b82525050565b60008115159050919050565b6200093e8162000927565b82525050565b60006060820190506200095b600083018662000905565b6200096a602083018562000916565b62000979604083018462000933565b949350505050565b60006200098e82620008f5565b91506200099b83620008f5565b9250828203905063ffffffff811115620009ba57620009b962000885565b5b92915050565b6000819050919050565b600060ff82169050919050565b6000819050919050565b600062000a02620009fc620009f684620009c0565b620009d7565b620009ca565b9050919050565b62000a1481620009e1565b82525050565b6000819050919050565b62000a2f8162000a1a565b82525050565b600060408201905062000a4c600083018562000a09565b62000a5b602083018462000a24565b9392505050565b6145dd8062000a726000396000f3fe6080604052600436106101e35760003560e01c80636d5115bd11610102578063b700961311610095578063d22b598911610064578063d22b59891461077c578063d6bb62c6146107a5578063f801a698146107e2578063fe0776f514610820576101e3565b8063b7009613146106ac578063b7d2b162146106ea578063cc1b6c8114610713578063d1f856ee1461073e576101e3565b8063a166aa89116100d1578063a166aa89146105cc578063a64d95ce14610609578063abd9bd2a14610632578063ac9650d81461066f576101e3565b80636d5115bd1461051257806375b238fc1461054f578063853551b81461057a57806394c7d7ee146105a3576101e3565b806330cae1871161017a5780634665096d116101495780634665096d146104445780634c1da1e21461046f57806352962952146104ac578063530dd456146104d5576101e3565b806330cae187146103765780633adc277a1461039f5780633ca7c02a146103dc5780634136a33c14610407576101e3565b806318ff183c116101b657806318ff183c146102b45780631cff79cd146102dd57806325c471a01461030d5780633078f11414610336576101e3565b806308d6122d146101e85780630b0a93ba1461021157806312be87271461024e578063167bd3951461028b575b600080fd5b3480156101f457600080fd5b5061020f600480360381019061020a9190613406565b610849565b005b34801561021d57600080fd5b506102386004803603810190610233919061347a565b6108a3565b60405161024591906134b6565b60405180910390f35b34801561025a57600080fd5b506102756004803603810190610270919061347a565b6108eb565b60405161028291906134f0565b60405180910390f35b34801561029757600080fd5b506102b260048036038101906102ad9190613543565b610951565b005b3480156102c057600080fd5b506102db60048036038101906102d69190613583565b610967565b005b6102f760048036038101906102f29190613619565b6109de565b60405161030491906134f0565b60405180910390f35b34801561031957600080fd5b50610334600480360381019061032f91906136a5565b610b31565b005b34801561034257600080fd5b5061035d600480360381019061035891906136f8565b610b53565b60405161036d9493929190613759565b60405180910390f35b34801561038257600080fd5b5061039d6004803603810190610398919061379e565b610c2a565b005b3480156103ab57600080fd5b506103c660048036038101906103c19190613814565b610c40565b6040516103d39190613841565b60405180910390f35b3480156103e857600080fd5b506103f1610c8c565b6040516103fe91906134b6565b60405180910390f35b34801561041357600080fd5b5061042e60048036038101906104299190613814565b610c98565b60405161043b91906134f0565b60405180910390f35b34801561045057600080fd5b50610459610cc8565b60405161046691906134f0565b60405180910390f35b34801561047b57600080fd5b506104966004803603810190610491919061385c565b610cd3565b6040516104a391906134f0565b60405180910390f35b3480156104b857600080fd5b506104d360048036038101906104ce919061379e565b610d50565b005b3480156104e157600080fd5b506104fc60048036038101906104f7919061347a565b610d66565b60405161050991906134b6565b60405180910390f35b34801561051e57600080fd5b50610539600480360381019061053491906138e1565b610dae565b60405161054691906134b6565b60405180910390f35b34801561055b57600080fd5b50610564610e5d565b60405161057191906134b6565b60405180910390f35b34801561058657600080fd5b506105a1600480360381019061059c9190613977565b610e62565b005b3480156105af57600080fd5b506105ca60048036038101906105c59190613619565b610f2b565b005b3480156105d857600080fd5b506105f360048036038101906105ee919061385c565b611049565b60405161060091906139e6565b60405180910390f35b34801561061557600080fd5b50610630600480360381019061062b9190613a01565b6110a1565b005b34801561063e57600080fd5b5061065960048036038101906106549190613a41565b6110b7565b6040516106669190613ac4565b60405180910390f35b34801561067b57600080fd5b5061069660048036038101906106919190613b35565b6110f0565b6040516106a39190613cd4565b60405180910390f35b3480156106b857600080fd5b506106d360048036038101906106ce9190613cf6565b6112d4565b6040516106e1929190613d49565b60405180910390f35b3480156106f657600080fd5b50610711600480360381019061070c91906136f8565b611381565b005b34801561071f57600080fd5b50610728611398565b60405161073591906134f0565b60405180910390f35b34801561074a57600080fd5b50610765600480360381019061076091906136f8565b6113a3565b604051610773929190613d49565b60405180910390f35b34801561078857600080fd5b506107a3600480360381019061079e9190613d72565b611420565b005b3480156107b157600080fd5b506107cc60048036038101906107c79190613a41565b611436565b6040516107d991906134f0565b60405180910390f35b3480156107ee57600080fd5b5061080960048036038101906108049190613dde565b611629565b604051610817929190613e52565b60405180910390f35b34801561082c57600080fd5b50610847600480360381019061084291906136f8565b61180d565b005b610851611888565b60005b8383905081101561089c576108918585858481811061087657610875613e7b565b5b905060200201602081019061088b9190613eaa565b84611935565b806001019050610854565b5050505050565b6000600160008367ffffffffffffffff1667ffffffffffffffff16815260200190815260200160002060010160089054906101000a900467ffffffffffffffff169050919050565b600061094a600160008467ffffffffffffffff1667ffffffffffffffff16815260200190815260200160002060010160109054906101000a90046dffffffffffffffffffffffffffff166dffffffffffffffffffffffffffff16611a4a565b9050919050565b610959611888565b6109638282611a73565b5050565b61096f611888565b8173ffffffffffffffffffffffffffffffffffffffff16637a9e5e4b826040518263ffffffff1660e01b81526004016109a89190613ee6565b600060405180830381600087803b1580156109c257600080fd5b505af11580156109d6573d6000803e3d6000fd5b505050505050565b6000806109e9611b8e565b90506000806109fa83888888611b96565b9150915081158015610a12575060008163ffffffff16145b15610a61578287610a238888611c16565b6040517f81c6f24b000000000000000000000000000000000000000000000000000000008152600401610a5893929190613f10565b60405180910390fd5b6000610a6f848989896110b7565b90506000808363ffffffff16141580610a9957506000610a8e83610c40565b65ffffffffffff1614155b15610aaa57610aa782611c3f565b90505b60006003549050610ac48a610abf8b8b611c16565b611df5565b600381905550610b198a8a8a8080601f016020809104026020016040519081016040528093929190818152602001838380828437600081840152601f19601f8201169050808301925050505050505034611e28565b50806003819055508196505050505050509392505050565b610b39611888565b610b4d8383610b47866108eb565b84611ef5565b50505050565b6000806000806000600160008867ffffffffffffffff1667ffffffffffffffff16815260200190815260200160002060000160008773ffffffffffffffffffffffffffffffffffffffff1673ffffffffffffffffffffffffffffffffffffffff16815260200190815260200160002090508060000160009054906101000a900465ffffffffffff169450610c148160000160069054906101000a90046dffffffffffffffffffffffffffff166dffffffffffffffffffffffffffff166122c6565b8094508195508296505050505092959194509250565b610c32611888565b610c3c82826122e9565b5050565b6000806002600084815260200190815260200160002060000160009054906101000a900465ffffffffffff169050610c77816123f8565b610c815780610c84565b60005b915050919050565b67ffffffffffffffff81565b60006002600083815260200190815260200160002060000160069054906101000a900463ffffffff169050919050565b600062093a80905090565b6000610d496000808473ffffffffffffffffffffffffffffffffffffffff1673ffffffffffffffffffffffffffffffffffffffff16815260200190815260200160002060010160009054906101000a90046dffffffffffffffffffffffffffff166dffffffffffffffffffffffffffff16611a4a565b9050919050565b610d58611888565b610d628282612434565b5050565b6000600160008367ffffffffffffffff1667ffffffffffffffff16815260200190815260200160002060010160009054906101000a900467ffffffffffffffff169050919050565b60008060008473ffffffffffffffffffffffffffffffffffffffff1673ffffffffffffffffffffffffffffffffffffffff1681526020019081526020016000206000016000837bffffffffffffffffffffffffffffffffffffffffffffffffffffffff19167bffffffffffffffffffffffffffffffffffffffffffffffffffffffff1916815260200190815260200160002060009054906101000a900467ffffffffffffffff16905092915050565b600081565b610e6a611888565b600067ffffffffffffffff168367ffffffffffffffff161480610ea0575067ffffffffffffffff80168367ffffffffffffffff16145b15610ee257826040517f1871a90c000000000000000000000000000000000000000000000000000000008152600401610ed991906134b6565b60405180910390fd5b8267ffffffffffffffff167f1256f5b5ecb89caec12db449738f2fbcd1ba5806cf38f35413f4e5c15bf6a4508383604051610f1e929190613f94565b60405180910390a2505050565b6000610f35611b8e565b9050638fb3603760e01b7bffffffffffffffffffffffffffffffffffffffffffffffffffffffff19168173ffffffffffffffffffffffffffffffffffffffff16638fb360376040518163ffffffff1660e01b8152600401602060405180830381865afa158015610fa9573d6000803e3d6000fd5b505050506040513d601f19601f82011682018060405250810190610fcd9190613fcd565b7bffffffffffffffffffffffffffffffffffffffffffffffffffffffff19161461102e57806040517f320ff7480000000000000000000000000000000000000000000000000000000081526004016110259190613ee6565b60405180910390fd5b61104261103d858386866110b7565b611c3f565b5050505050565b60008060008373ffffffffffffffffffffffffffffffffffffffff1673ffffffffffffffffffffffffffffffffffffffff168152602001908152602001600020600101600e9054906101000a900460ff169050919050565b6110a9611888565b6110b38282612543565b5050565b6000848484846040516020016110d09493929190614038565b604051602081830303815290604052805190602001209050949350505050565b606060006110fc611b8e565b73ffffffffffffffffffffffffffffffffffffffff163373ffffffffffffffffffffffffffffffffffffffff161461119f576000366111396126ba565b600036905061114891906140b1565b908092611157939291906140ef565b8080601f016020809104026020016040519081016040528093929190818152602001838380828437600081840152601f19601f820116905080830192505050505050506111ee565b600067ffffffffffffffff8111156111ba576111b961412a565b5b6040519080825280601f01601f1916602001820160405280156111ec5781602001600182028036833780820191505090505b505b90508383905067ffffffffffffffff81111561120d5761120c61412a565b5b60405190808252806020026020018201604052801561124057816020015b606081526020019060019003908161122b5790505b50915060005b848490508110156112cc576112a13086868481811061126857611267613e7b565b5b905060200281019061127a9190614168565b8560405160200161128d9392919061422c565b6040516020818303038152906040526126bf565b8382815181106112b4576112b3613e7b565b5b60200260200101819052508080600101915050611246565b505092915050565b6000806112e084611049565b156112f15760008091509150611379565b3073ffffffffffffffffffffffffffffffffffffffff168573ffffffffffffffffffffffffffffffffffffffff16036113395761132e8484612743565b600091509150611379565b60006113458585610dae565b905060008061135483896113a3565b915091508161136557600080611371565b60008163ffffffff1614815b945094505050505b935093915050565b611389611888565b611393828261275b565b505050565b600062069780905090565b60008067ffffffffffffffff80168467ffffffffffffffff16036113ce576001600091509150611419565b6000806113db8686610b53565b50509150915060008265ffffffffffff161415801561141157506113fd612947565b65ffffffffffff168265ffffffffffff1611155b819350935050505b9250929050565b611428611888565b6114328282612957565b5050565b600080611441611b8e565b9050600061144f8585611c16565b9050600061145f888888886110b7565b905060006002600083815260200190815260200160002060000160009054906101000a900465ffffffffffff1665ffffffffffff16036114d657806040517f60a299b00000000000000000000000000000000000000000000000000000000081526004016114cd9190613ac4565b60405180910390fd5b8273ffffffffffffffffffffffffffffffffffffffff168873ffffffffffffffffffffffffffffffffffffffff16146115905760006115166000856113a3565b509050600061153661153061152b8b87610dae565b6108a3565b866113a3565b50905081158015611545575080155b1561158d57848a8a866040517f3fe2751c0000000000000000000000000000000000000000000000000000000081526004016115849493929190614252565b60405180910390fd5b50505b6002600082815260200190815260200160002060000160006101000a81549065ffffffffffff021916905560006002600083815260200190815260200160002060000160069054906101000a900463ffffffff1690508063ffffffff16827fbd9ac67a6e2f6463b80927326310338bcbb4bdb7936ce1365ea3e01067e7b9f760405160405180910390a380945050505050949350505050565b6000806000611636611b8e565b9050600061164682898989611b96565b91505060008163ffffffff1661165a612947565b6116649190614297565b905060008263ffffffff16148061169e575060008665ffffffffffff1611801561169d57508065ffffffffffff168665ffffffffffff16105b5b156116ed5782896116af8a8a611c16565b6040517f81c6f24b0000000000000000000000000000000000000000000000000000000081526004016116e493929190613f10565b60405180910390fd5b6117078665ffffffffffff168265ffffffffffff16612ab0565b9550611715838a8a8a6110b7565b945061172085612ac9565b60016002600087815260200190815260200160002060000160069054906101000a900463ffffffff16019350856002600087815260200190815260200160002060000160006101000a81548165ffffffffffff021916908365ffffffffffff160217905550836002600087815260200190815260200160002060000160066101000a81548163ffffffff021916908363ffffffff1602179055508363ffffffff16857f82a2da5dee54ea8021c6545b4444620291e07ee83be6dd57edb175062715f3b488868d8d8d6040516117f99594939291906142d1565b60405180910390a350505094509492505050565b611815611b8e565b73ffffffffffffffffffffffffffffffffffffffff168173ffffffffffffffffffffffffffffffffffffffff1614611879576040517f5f159e6300000000000000000000000000000000000000000000000000000000815260040160405180910390fd5b611883828261275b565b505050565b6000611892611b8e565b90506000806118a8836118a3612b5b565b612b68565b91509150816119305760008163ffffffff16036119145760006118d16118cc612b5b565b612c56565b5091505083816040517ff07e038f00000000000000000000000000000000000000000000000000000000815260040161190b92919061431f565b60405180910390fd5b61192e6119298430611924612b5b565b6110b7565b611c3f565b505b505050565b806000808573ffffffffffffffffffffffffffffffffffffffff1673ffffffffffffffffffffffffffffffffffffffff1681526020019081526020016000206000016000847bffffffffffffffffffffffffffffffffffffffffffffffffffffffff19167bffffffffffffffffffffffffffffffffffffffffffffffffffffffff1916815260200190815260200160002060006101000a81548167ffffffffffffffff021916908367ffffffffffffffff1602179055508067ffffffffffffffff168373ffffffffffffffffffffffffffffffffffffffff167f9ea6790c7dadfd01c9f8b9762b3682607af2c7e79e05a9f9fdf5580dde94915184604051611a3d9190614348565b60405180910390a3505050565b600080611a66836dffffffffffffffffffffffffffff166122c6565b5050905080915050919050565b3073ffffffffffffffffffffffffffffffffffffffff168273ffffffffffffffffffffffffffffffffffffffff1603611ae357816040517f5a068bc8000000000000000000000000000000000000000000000000000000008152600401611ada9190613ee6565b60405180910390fd5b806000808473ffffffffffffffffffffffffffffffffffffffff1673ffffffffffffffffffffffffffffffffffffffff168152602001908152602001600020600101600e6101000a81548160ff0219169083151502179055508173ffffffffffffffffffffffffffffffffffffffff167f90d4e7bb7e5d933792b3562e1741306f8be94837e1348dacef9b6f1df56eb13882604051611b8291906139e6565b60405180910390a25050565b600033905090565b6000803073ffffffffffffffffffffffffffffffffffffffff168573ffffffffffffffffffffffffffffffffffffffff1603611be057611bd7868585612b68565b91509150611c0d565b60048484905010611c0457611bff8686611bfa8787611c16565b6112d4565b611c08565b6000805b915091505b94509492505050565b60008282600090600492611c2c939291906140ef565b90611c37919061437b565b905092915050565b6000806002600084815260200190815260200160002060000160009054906101000a900465ffffffffffff16905060006002600085815260200190815260200160002060000160069054906101000a900463ffffffff16905060008265ffffffffffff1603611ce557836040517f60a299b0000000000000000000000000000000000000000000000000000000008152600401611cdc9190613ac4565b60405180910390fd5b611ced612947565b65ffffffffffff168265ffffffffffff161115611d4157836040517f18cb6b7a000000000000000000000000000000000000000000000000000000008152600401611d389190613ac4565b60405180910390fd5b611d4a826123f8565b15611d8c57836040517f78a5d6e4000000000000000000000000000000000000000000000000000000008152600401611d839190613ac4565b60405180910390fd5b6002600085815260200190815260200160002060000160006101000a81549065ffffffffffff02191690558063ffffffff16847f76a2a46953689d4861a5d3f6ed883ad7e6af674a21f8e162707159fc9dde614d60405160405180910390a38092505050919050565b60008282604051602001611e0a9291906143da565b60405160208183030381529060405280519060200120905092915050565b606081471015611e6f57306040517fcd786059000000000000000000000000000000000000000000000000000000008152600401611e669190613ee6565b60405180910390fd5b6000808573ffffffffffffffffffffffffffffffffffffffff168486604051611e989190614403565b60006040518083038185875af1925050503d8060008114611ed5576040519150601f19603f3d011682016040523d82523d6000602084013e611eda565b606091505b5091509150611eea86838361303e565b925050509392505050565b600067ffffffffffffffff80168567ffffffffffffffff1603611f4f57846040517f1871a90c000000000000000000000000000000000000000000000000000000008152600401611f4691906134b6565b60405180910390fd5b600080600160008867ffffffffffffffff1667ffffffffffffffff16815260200190815260200160002060000160008773ffffffffffffffffffffffffffffffffffffffff1673ffffffffffffffffffffffffffffffffffffffff16815260200190815260200160002060000160009054906101000a900465ffffffffffff1665ffffffffffff161490506000811561210d578463ffffffff16611ff1612947565b611ffb9190614297565b905060405180604001604052808265ffffffffffff1681526020016120258663ffffffff166130cd565b6dffffffffffffffffffffffffffff16815250600160008967ffffffffffffffff1667ffffffffffffffff16815260200190815260200160002060000160008873ffffffffffffffffffffffffffffffffffffffff1673ffffffffffffffffffffffffffffffffffffffff16815260200190815260200160002060008201518160000160006101000a81548165ffffffffffff021916908365ffffffffffff16021790555060208201518160000160066101000a8154816dffffffffffffffffffffffffffff02191690836dffffffffffffffffffffffffffff16021790555090505061225c565b6121b7846000600160008b67ffffffffffffffff1667ffffffffffffffff16815260200190815260200160002060000160008a73ffffffffffffffffffffffffffffffffffffffff1673ffffffffffffffffffffffffffffffffffffffff16815260200190815260200160002060000160069054906101000a90046dffffffffffffffffffffffffffff166dffffffffffffffffffffffffffff166130dd9092919063ffffffff16565b600160008a67ffffffffffffffff1667ffffffffffffffff16815260200190815260200160002060000160008973ffffffffffffffffffffffffffffffffffffffff1673ffffffffffffffffffffffffffffffffffffffff16815260200190815260200160002060000160068294508391906101000a8154816dffffffffffffffffffffffffffff02191690836dffffffffffffffffffffffffffff16021790555050505b8573ffffffffffffffffffffffffffffffffffffffff168767ffffffffffffffff167ff98448b987f1428e0e230e1f3c6e2ce15b5693eaf31827fbd0b1ec4b424ae7cf8684866040516122b19392919061441a565b60405180910390a38192505050949350505050565b60008060006122dc846122d7612947565b61316f565b9250925092509193909250565b600067ffffffffffffffff168267ffffffffffffffff16148061231f575067ffffffffffffffff80168267ffffffffffffffff16145b1561236157816040517f1871a90c00000000000000000000000000000000000000000000000000000000815260040161235891906134b6565b60405180910390fd5b80600160008467ffffffffffffffff1667ffffffffffffffff16815260200190815260200160002060010160006101000a81548167ffffffffffffffff021916908367ffffffffffffffff1602179055508067ffffffffffffffff168267ffffffffffffffff167f1fd6dd7631312dfac2205b52913f99de03b4d7e381d5d27d3dbfe0713e6e634060405160405180910390a35050565b6000612402612947565b65ffffffffffff16612412610cc8565b63ffffffff16836124239190614297565b65ffffffffffff1611159050919050565b600067ffffffffffffffff168267ffffffffffffffff16148061246a575067ffffffffffffffff80168267ffffffffffffffff16145b156124ac57816040517f1871a90c0000000000000000000000000000000000000000000000000000000081526004016124a391906134b6565b60405180910390fd5b80600160008467ffffffffffffffff1667ffffffffffffffff16815260200190815260200160002060010160086101000a81548167ffffffffffffffff021916908367ffffffffffffffff1602179055508067ffffffffffffffff168267ffffffffffffffff167f7a8059630b897b5de4c08ade69f8b90c3ead1f8596d62d10b6c4d14a0afb4ae260405160405180910390a35050565b67ffffffffffffffff80168267ffffffffffffffff160361259b57816040517f1871a90c00000000000000000000000000000000000000000000000000000000815260040161259291906134b6565b60405180910390fd5b600061260d826125a9611398565b600160008767ffffffffffffffff1667ffffffffffffffff16815260200190815260200160002060010160109054906101000a90046dffffffffffffffffffffffffffff166dffffffffffffffffffffffffffff166130dd9092919063ffffffff16565b600160008667ffffffffffffffff1667ffffffffffffffff16815260200190815260200160002060010160108294508391906101000a8154816dffffffffffffffffffffffffffff02191690836dffffffffffffffffffffffffffff16021790555050508267ffffffffffffffff167ffeb69018ee8b8fd50ea86348f1267d07673379f72cffdeccec63853ee8ce8b4883836040516126ad929190614451565b60405180910390a2505050565b600090565b60606000808473ffffffffffffffffffffffffffffffffffffffff16846040516126e99190614403565b600060405180830381855af49150503d8060008114612724576040519150601f19603f3d011682016040523d82523d6000602084013e612729565b606091505b509150915061273985838361303e565b9250505092915050565b600061274f8383611df5565b60035414905092915050565b600067ffffffffffffffff80168367ffffffffffffffff16036127b557826040517f1871a90c0000000000000000000000000000000000000000000000000000000081526004016127ac91906134b6565b60405180910390fd5b6000600160008567ffffffffffffffff1667ffffffffffffffff16815260200190815260200160002060000160008473ffffffffffffffffffffffffffffffffffffffff1673ffffffffffffffffffffffffffffffffffffffff16815260200190815260200160002060000160009054906101000a900465ffffffffffff1665ffffffffffff160361284a5760009050612941565b600160008467ffffffffffffffff1667ffffffffffffffff16815260200190815260200160002060000160008373ffffffffffffffffffffffffffffffffffffffff1673ffffffffffffffffffffffffffffffffffffffff168152602001908152602001600020600080820160006101000a81549065ffffffffffff02191690556000820160066101000a8154906dffffffffffffffffffffffffffff021916905550508173ffffffffffffffffffffffffffffffffffffffff168367ffffffffffffffff167ff229baa593af28c41b1d16b748cd7688f0c83aaf92d4be41c44005defe84c16660405160405180910390a3600190505b92915050565b6000612952426131cc565b905090565b60006129e082612965611398565b6000808773ffffffffffffffffffffffffffffffffffffffff1673ffffffffffffffffffffffffffffffffffffffff16815260200190815260200160002060010160009054906101000a90046dffffffffffffffffffffffffffff166dffffffffffffffffffffffffffff166130dd9092919063ffffffff16565b6000808673ffffffffffffffffffffffffffffffffffffffff1673ffffffffffffffffffffffffffffffffffffffff16815260200190815260200160002060010160008294508391906101000a8154816dffffffffffffffffffffffffffff02191690836dffffffffffffffffffffffffffff16021790555050508273ffffffffffffffffffffffffffffffffffffffff167fa56b76017453f399ec2327ba00375dbfb1fd070ff854341ad6191e6a2e2de19c8383604051612aa3929190614451565b60405180910390a2505050565b6000818311612abf5781612ac1565b825b905092915050565b60006002600083815260200190815260200160002060000160009054906101000a900465ffffffffffff16905060008165ffffffffffff1614158015612b155750612b13816123f8565b155b15612b5757816040517f813e9459000000000000000000000000000000000000000000000000000000008152600401612b4e9190613ac4565b60405180910390fd5b5050565b3660008036915091509091565b6000806004848490501015612b835760008091509150612c4e565b3073ffffffffffffffffffffffffffffffffffffffff168573ffffffffffffffffffffffffffffffffffffffff1603612bd457612bc930612bc48686611c16565b612743565b600091509150612c4e565b6000806000612be38787612c56565b92509250925082612bfd5760008094509450505050612c4e565b600080612c0a848b6113a3565b9150915081612c2457600080965096505050505050612c4e565b612c3a8363ffffffff168263ffffffff16612ab0565b955060008663ffffffff1614965050505050505b935093915050565b60008060006004858590501015612c77576000806000925092509250613037565b6000612c838686611c16565b905063853551b860e01b7bffffffffffffffffffffffffffffffffffffffffffffffffffffffff1916817bffffffffffffffffffffffffffffffffffffffffffffffffffffffff19161480612d1c57506330cae18760e01b7bffffffffffffffffffffffffffffffffffffffffffffffffffffffff1916817bffffffffffffffffffffffffffffffffffffffffffffffffffffffff1916145b80612d6b5750635296295260e01b7bffffffffffffffffffffffffffffffffffffffffffffffffffffffff1916817bffffffffffffffffffffffffffffffffffffffffffffffffffffffff1916145b80612dba575063a64d95ce60e01b7bffffffffffffffffffffffffffffffffffffffffffffffffffffffff1916817bffffffffffffffffffffffffffffffffffffffffffffffffffffffff1916145b80612e09575063d22b598960e01b7bffffffffffffffffffffffffffffffffffffffffffffffffffffffff1916817bffffffffffffffffffffffffffffffffffffffffffffffffffffffff1916145b15612e1f57600160008093509350935050613037565b6318ff183c60e01b7bffffffffffffffffffffffffffffffffffffffffffffffffffffffff1916817bffffffffffffffffffffffffffffffffffffffffffffffffffffffff19161480612eb6575063167bd39560e01b7bffffffffffffffffffffffffffffffffffffffffffffffffffffffff1916817bffffffffffffffffffffffffffffffffffffffffffffffffffffffff1916145b80612f0557506308d6122d60e01b7bffffffffffffffffffffffffffffffffffffffffffffffffffffffff1916817bffffffffffffffffffffffffffffffffffffffffffffffffffffffff1916145b15612f4f5760008686600490602492612f20939291906140ef565b810190612f2d91906144b8565b90506000612f3a82610cd3565b90506001600082955095509550505050613037565b6325c471a060e01b7bffffffffffffffffffffffffffffffffffffffffffffffffffffffff1916817bffffffffffffffffffffffffffffffffffffffffffffffffffffffff19161480612fe6575063b7d2b16260e01b7bffffffffffffffffffffffffffffffffffffffffffffffffffffffff1916817bffffffffffffffffffffffffffffffffffffffffffffffffffffffff1916145b1561302a5760008686600490602492613001939291906140ef565b81019061300e919061347a565b9050600161301b82610d66565b60009450945094505050613037565b6000806000935093509350505b9250925092565b6060826130535761304e82613226565b6130c5565b6000825114801561307b575060008473ffffffffffffffffffffffffffffffffffffffff163b145b156130bd57836040517f9996b3150000000000000000000000000000000000000000000000000000000081526004016130b49190613ee6565b60405180910390fd5b8190506130c6565b5b9392505050565b60008163ffffffff169050919050565b60008060006130fb866dffffffffffffffffffffffffffff16611a4a565b9050600061313b8563ffffffff168763ffffffff168463ffffffff1611613123576000613130565b878461312f91906144e5565b5b63ffffffff16612ab0565b90508063ffffffff1661314c612947565b6131569190614297565b925061316382878561326b565b93505050935093915050565b600080600080600080613191886dffffffffffffffffffffffffffff166132b7565b9250925092508665ffffffffffff168165ffffffffffff1611156131b7578282826131bc565b816000805b9550955095505050509250925092565b600065ffffffffffff801682111561321e576030826040517f6dfcc65000000000000000000000000000000000000000000000000000000000815260040161321592919061457e565b60405180910390fd5b819050919050565b6000815111156132395780518082602001fd5b6040517f1425ea4200000000000000000000000000000000000000000000000000000000815260040160405180910390fd5b60008263ffffffff1660208563ffffffff166dffffffffffffffffffffffffffff16901b60408465ffffffffffff166dffffffffffffffffffffffffffff16901b171790509392505050565b6000806000808490508092506020816dffffffffffffffffffffffffffff16901c93506040816dffffffffffffffffffffffffffff16901c9150509193909250565b600080fd5b600080fd5b600073ffffffffffffffffffffffffffffffffffffffff82169050919050565b600061332e82613303565b9050919050565b61333e81613323565b811461334957600080fd5b50565b60008135905061335b81613335565b92915050565b600080fd5b600080fd5b600080fd5b60008083601f84011261338657613385613361565b5b8235905067ffffffffffffffff8111156133a3576133a2613366565b5b6020830191508360208202830111156133bf576133be61336b565b5b9250929050565b600067ffffffffffffffff82169050919050565b6133e3816133c6565b81146133ee57600080fd5b50565b600081359050613400816133da565b92915050565b600080600080606085870312156134205761341f6132f9565b5b600061342e8782880161334c565b945050602085013567ffffffffffffffff81111561344f5761344e6132fe565b5b61345b87828801613370565b9350935050604061346e878288016133f1565b91505092959194509250565b6000602082840312156134905761348f6132f9565b5b600061349e848285016133f1565b91505092915050565b6134b0816133c6565b82525050565b60006020820190506134cb60008301846134a7565b92915050565b600063ffffffff82169050919050565b6134ea816134d1565b82525050565b600060208201905061350560008301846134e1565b92915050565b60008115159050919050565b6135208161350b565b811461352b57600080fd5b50565b60008135905061353d81613517565b92915050565b6000806040838503121561355a576135596132f9565b5b60006135688582860161334c565b92505060206135798582860161352e565b9150509250929050565b6000806040838503121561359a576135996132f9565b5b60006135a88582860161334c565b92505060206135b98582860161334c565b9150509250929050565b60008083601f8401126135d9576135d8613361565b5b8235905067ffffffffffffffff8111156135f6576135f5613366565b5b6020830191508360018202830111156136125761361161336b565b5b9250929050565b600080600060408486031215613632576136316132f9565b5b60006136408682870161334c565b935050602084013567ffffffffffffffff811115613661576136606132fe565b5b61366d868287016135c3565b92509250509250925092565b613682816134d1565b811461368d57600080fd5b50565b60008135905061369f81613679565b92915050565b6000806000606084860312156136be576136bd6132f9565b5b60006136cc868287016133f1565b93505060206136dd8682870161334c565b92505060406136ee86828701613690565b9150509250925092565b6000806040838503121561370f5761370e6132f9565b5b600061371d858286016133f1565b925050602061372e8582860161334c565b9150509250929050565b600065ffffffffffff82169050919050565b61375381613738565b82525050565b600060808201905061376e600083018761374a565b61377b60208301866134e1565b61378860408301856134e1565b613795606083018461374a565b95945050505050565b600080604083850312156137b5576137b46132f9565b5b60006137c3858286016133f1565b92505060206137d4858286016133f1565b9150509250929050565b6000819050919050565b6137f1816137de565b81146137fc57600080fd5b50565b60008135905061380e816137e8565b92915050565b60006020828403121561382a576138296132f9565b5b6000613838848285016137ff565b91505092915050565b6000602082019050613856600083018461374a565b92915050565b600060208284031215613872576138716132f9565b5b60006138808482850161334c565b91505092915050565b60007fffffffff0000000000000000000000000000000000000000000000000000000082169050919050565b6138be81613889565b81146138c957600080fd5b50565b6000813590506138db816138b5565b92915050565b600080604083850312156138f8576138f76132f9565b5b60006139068582860161334c565b9250506020613917858286016138cc565b9150509250929050565b60008083601f84011261393757613936613361565b5b8235905067ffffffffffffffff81111561395457613953613366565b5b6020830191508360018202830111156139705761396f61336b565b5b9250929050565b6000806000604084860312156139905761398f6132f9565b5b600061399e868287016133f1565b935050602084013567ffffffffffffffff8111156139bf576139be6132fe565b5b6139cb86828701613921565b92509250509250925092565b6139e08161350b565b82525050565b60006020820190506139fb60008301846139d7565b92915050565b60008060408385031215613a1857613a176132f9565b5b6000613a26858286016133f1565b9250506020613a3785828601613690565b9150509250929050565b60008060008060608587031215613a5b57613a5a6132f9565b5b6000613a698782880161334c565b9450506020613a7a8782880161334c565b935050604085013567ffffffffffffffff811115613a9b57613a9a6132fe565b5b613aa7878288016135c3565b925092505092959194509250565b613abe816137de565b82525050565b6000602082019050613ad96000830184613ab5565b92915050565b60008083601f840112613af557613af4613361565b5b8235905067ffffffffffffffff811115613b1257613b11613366565b5b602083019150836020820283011115613b2e57613b2d61336b565b5b9250929050565b60008060208385031215613b4c57613b4b6132f9565b5b600083013567ffffffffffffffff811115613b6a57613b696132fe565b5b613b7685828601613adf565b92509250509250929050565b600081519050919050565b600082825260208201905092915050565b6000819050602082019050919050565b600081519050919050565b600082825260208201905092915050565b60005b83811015613be8578082015181840152602081019050613bcd565b60008484015250505050565b6000601f19601f8301169050919050565b6000613c1082613bae565b613c1a8185613bb9565b9350613c2a818560208601613bca565b613c3381613bf4565b840191505092915050565b6000613c4a8383613c05565b905092915050565b6000602082019050919050565b6000613c6a82613b82565b613c748185613b8d565b935083602082028501613c8685613b9e565b8060005b85811015613cc25784840389528151613ca38582613c3e565b9450613cae83613c52565b925060208a01995050600181019050613c8a565b50829750879550505050505092915050565b60006020820190508181036000830152613cee8184613c5f565b905092915050565b600080600060608486031215613d0f57613d0e6132f9565b5b6000613d1d8682870161334c565b9350506020613d2e8682870161334c565b9250506040613d3f868287016138cc565b9150509250925092565b6000604082019050613d5e60008301856139d7565b613d6b60208301846134e1565b9392505050565b60008060408385031215613d8957613d886132f9565b5b6000613d978582860161334c565b9250506020613da885828601613690565b9150509250929050565b613dbb81613738565b8114613dc657600080fd5b50565b600081359050613dd881613db2565b92915050565b60008060008060608587031215613df857613df76132f9565b5b6000613e068782880161334c565b945050602085013567ffffffffffffffff811115613e2757613e266132fe565b5b613e33878288016135c3565b93509350506040613e4687828801613dc9565b91505092959194509250565b6000604082019050613e676000830185613ab5565b613e7460208301846134e1565b9392505050565b7f4e487b7100000000000000000000000000000000000000000000000000000000600052603260045260246000fd5b600060208284031215613ec057613ebf6132f9565b5b6000613ece848285016138cc565b91505092915050565b613ee081613323565b82525050565b6000602082019050613efb6000830184613ed7565b92915050565b613f0a81613889565b82525050565b6000606082019050613f256000830186613ed7565b613f326020830185613ed7565b613f3f6040830184613f01565b949350505050565b600082825260208201905092915050565b82818337600083830152505050565b6000613f738385613f47565b9350613f80838584613f58565b613f8983613bf4565b840190509392505050565b60006020820190508181036000830152613faf818486613f67565b90509392505050565b600081519050613fc7816138b5565b92915050565b600060208284031215613fe357613fe26132f9565b5b6000613ff184828501613fb8565b91505092915050565b600082825260208201905092915050565b60006140178385613ffa565b9350614024838584613f58565b61402d83613bf4565b840190509392505050565b600060608201905061404d6000830187613ed7565b61405a6020830186613ed7565b818103604083015261406d81848661400b565b905095945050505050565b6000819050919050565b7f4e487b7100000000000000000000000000000000000000000000000000000000600052601160045260246000fd5b60006140bc82614078565b91506140c783614078565b92508282039050818111156140df576140de614082565b5b92915050565b600080fd5b600080fd5b60008085851115614103576141026140e5565b5b83861115614114576141136140ea565b5b6001850283019150848603905094509492505050565b7f4e487b7100000000000000000000000000000000000000000000000000000000600052604160045260246000fd5b600080fd5b600080fd5b600080fd5b6000808335600160200384360303811261418557614184614159565b5b80840192508235915067ffffffffffffffff8211156141a7576141a661415e565b5b6020830192506001820236038313156141c3576141c2614163565b5b509250929050565b600081905092915050565b60006141e283856141cb565b93506141ef838584613f58565b82840190509392505050565b600061420682613bae565b61421081856141cb565b9350614220818560208601613bca565b80840191505092915050565b60006142398285876141d6565b915061424582846141fb565b9150819050949350505050565b60006080820190506142676000830187613ed7565b6142746020830186613ed7565b6142816040830185613ed7565b61428e6060830184613f01565b95945050505050565b60006142a282613738565b91506142ad83613738565b9250828201905065ffffffffffff8111156142cb576142ca614082565b5b92915050565b60006080820190506142e6600083018861374a565b6142f36020830187613ed7565b6143006040830186613ed7565b818103606083015261431381848661400b565b90509695505050505050565b60006040820190506143346000830185613ed7565b61434160208301846134a7565b9392505050565b600060208201905061435d6000830184613f01565b92915050565b600082905092915050565b600082821b905092915050565b60006143878383614363565b826143928135613889565b925060048210156143d2576143cd7fffffffff000000000000000000000000000000000000000000000000000000008360040360080261436e565b831692505b505092915050565b60006040820190506143ef6000830185613ed7565b6143fc6020830184613f01565b9392505050565b600061440f82846141fb565b915081905092915050565b600060608201905061442f60008301866134e1565b61443c602083018561374a565b61444960408301846139d7565b949350505050565b600060408201905061446660008301856134e1565b614473602083018461374a565b9392505050565b600061448582613303565b9050919050565b6144958161447a565b81146144a057600080fd5b50565b6000813590506144b28161448c565b92915050565b6000602082840312156144ce576144cd6132f9565b5b60006144dc848285016144a3565b91505092915050565b60006144f0826134d1565b91506144fb836134d1565b9250828203905063ffffffff81111561451757614516614082565b5b92915050565b6000819050919050565b600060ff82169050919050565b6000819050919050565b600061455961455461454f8461451d565b614534565b614527565b9050919050565b6145698161453e565b82525050565b61457881614078565b82525050565b60006040820190506145936000830185614560565b6145a0602083018461456f565b939250505056fea2646970667358221220d0d19d16637010efd99455af13e49c9ee2f07c1344b6306b2aef9234aeda1fdf64736f6c63430008180033","opcodes":"PUSH1 0x80 PUSH1 0x40 MSTORE CALLVALUE DUP1 ISZERO PUSH3 0x11 JUMPI PUSH1 0x0 DUP1 REVERT JUMPDEST POP PUSH1 0x40 MLOAD PUSH3 0x504F CODESIZE SUB DUP1 PUSH3 0x504F DUP4 CODECOPY DUP2 DUP2 ADD PUSH1 0x40 MSTORE DUP2 ADD SWAP1 PUSH3 0x37 SWAP2 SWAP1 PUSH3 0x7D1 JUMP JUMPDEST PUSH1 0x0 PUSH20 0xFFFFFFFFFFFFFFFFFFFFFFFFFFFFFFFFFFFFFFFF AND DUP2 PUSH20 0xFFFFFFFFFFFFFFFFFFFFFFFFFFFFFFFFFFFFFFFF AND SUB PUSH3 0xAC JUMPI PUSH1 0x0 PUSH1 0x40 MLOAD PUSH32 0x813ADA200000000000000000000000000000000000000000000000000000000 DUP2 MSTORE PUSH1 0x4 ADD PUSH3 0xA3 SWAP2 SWAP1 PUSH3 0x814 JUMP JUMPDEST PUSH1 0x40 MLOAD DUP1 SWAP2 SUB SWAP1 REVERT JUMPDEST PUSH3 0xC2 PUSH1 0x0 DUP3 PUSH1 0x0 DUP1 PUSH3 0xCA PUSH1 0x20 SHL PUSH1 0x20 SHR JUMP JUMPDEST POP POP PUSH3 0xA62 JUMP JUMPDEST PUSH1 0x0 PUSH8 0xFFFFFFFFFFFFFFFF DUP1 AND DUP6 PUSH8 0xFFFFFFFFFFFFFFFF AND SUB PUSH3 0x127 JUMPI DUP5 PUSH1 0x40 MLOAD PUSH32 0x1871A90C00000000000000000000000000000000000000000000000000000000 DUP2 MSTORE PUSH1 0x4 ADD PUSH3 0x11E SWAP2 SWAP1 PUSH3 0x856 JUMP JUMPDEST PUSH1 0x40 MLOAD DUP1 SWAP2 SUB SWAP1 REVERT JUMPDEST PUSH1 0x0 DUP1 PUSH1 0x1 PUSH1 0x0 DUP9 PUSH8 0xFFFFFFFFFFFFFFFF AND PUSH8 0xFFFFFFFFFFFFFFFF AND DUP2 MSTORE PUSH1 0x20 ADD SWAP1 DUP2 MSTORE PUSH1 0x20 ADD PUSH1 0x0 KECCAK256 PUSH1 0x0 ADD PUSH1 0x0 DUP8 PUSH20 0xFFFFFFFFFFFFFFFFFFFFFFFFFFFFFFFFFFFFFFFF AND PUSH20 0xFFFFFFFFFFFFFFFFFFFFFFFFFFFFFFFFFFFFFFFF AND DUP2 MSTORE PUSH1 0x20 ADD SWAP1 DUP2 MSTORE PUSH1 0x20 ADD PUSH1 0x0 KECCAK256 PUSH1 0x0 ADD PUSH1 0x0 SWAP1 SLOAD SWAP1 PUSH2 0x100 EXP SWAP1 DIV PUSH6 0xFFFFFFFFFFFF AND PUSH6 0xFFFFFFFFFFFF AND EQ SWAP1 POP PUSH1 0x0 DUP2 ISZERO PUSH3 0x2F9 JUMPI DUP5 PUSH4 0xFFFFFFFF AND PUSH3 0x1D2 PUSH3 0x4B6 PUSH1 0x20 SHL PUSH1 0x20 SHR JUMP JUMPDEST PUSH3 0x1DE SWAP2 SWAP1 PUSH3 0x8B4 JUMP JUMPDEST SWAP1 POP PUSH1 0x40 MLOAD DUP1 PUSH1 0x40 ADD PUSH1 0x40 MSTORE DUP1 DUP3 PUSH6 0xFFFFFFFFFFFF AND DUP2 MSTORE PUSH1 0x20 ADD PUSH3 0x210 DUP7 PUSH4 0xFFFFFFFF AND PUSH3 0x4CE PUSH1 0x20 SHL PUSH1 0x20 SHR JUMP JUMPDEST PUSH14 0xFFFFFFFFFFFFFFFFFFFFFFFFFFFF AND DUP2 MSTORE POP PUSH1 0x1 PUSH1 0x0 DUP10 PUSH8 0xFFFFFFFFFFFFFFFF AND PUSH8 0xFFFFFFFFFFFFFFFF AND DUP2 MSTORE PUSH1 0x20 ADD SWAP1 DUP2 MSTORE PUSH1 0x20 ADD PUSH1 0x0 KECCAK256 PUSH1 0x0 ADD PUSH1 0x0 DUP9 PUSH20 0xFFFFFFFFFFFFFFFFFFFFFFFFFFFFFFFFFFFFFFFF AND PUSH20 0xFFFFFFFFFFFFFFFFFFFFFFFFFFFFFFFFFFFFFFFF AND DUP2 MSTORE PUSH1 0x20 ADD SWAP1 DUP2 MSTORE PUSH1 0x20 ADD PUSH1 0x0 KECCAK256 PUSH1 0x0 DUP3 ADD MLOAD DUP2 PUSH1 0x0 ADD PUSH1 0x0 PUSH2 0x100 EXP DUP2 SLOAD DUP2 PUSH6 0xFFFFFFFFFFFF MUL NOT AND SWAP1 DUP4 PUSH6 0xFFFFFFFFFFFF AND MUL OR SWAP1 SSTORE POP PUSH1 0x20 DUP3 ADD MLOAD DUP2 PUSH1 0x0 ADD PUSH1 0x6 PUSH2 0x100 EXP DUP2 SLOAD DUP2 PUSH14 0xFFFFFFFFFFFFFFFFFFFFFFFFFFFF MUL NOT AND SWAP1 DUP4 PUSH14 0xFFFFFFFFFFFFFFFFFFFFFFFFFFFF AND MUL OR SWAP1 SSTORE POP SWAP1 POP POP PUSH3 0x44A JUMP JUMPDEST PUSH3 0x3A5 DUP5 PUSH1 0x0 PUSH1 0x1 PUSH1 0x0 DUP12 PUSH8 0xFFFFFFFFFFFFFFFF AND PUSH8 0xFFFFFFFFFFFFFFFF AND DUP2 MSTORE PUSH1 0x20 ADD SWAP1 DUP2 MSTORE PUSH1 0x20 ADD PUSH1 0x0 KECCAK256 PUSH1 0x0 ADD PUSH1 0x0 DUP11 PUSH20 0xFFFFFFFFFFFFFFFFFFFFFFFFFFFFFFFFFFFFFFFF AND PUSH20 0xFFFFFFFFFFFFFFFFFFFFFFFFFFFFFFFFFFFFFFFF AND DUP2 MSTORE PUSH1 0x20 ADD SWAP1 DUP2 MSTORE PUSH1 0x20 ADD PUSH1 0x0 KECCAK256 PUSH1 0x0 ADD PUSH1 0x6 SWAP1 SLOAD SWAP1 PUSH2 0x100 EXP SWAP1 DIV PUSH14 0xFFFFFFFFFFFFFFFFFFFFFFFFFFFF AND PUSH14 0xFFFFFFFFFFFFFFFFFFFFFFFFFFFF AND PUSH3 0x4DE PUSH1 0x20 SHL SWAP1 SWAP3 SWAP2 SWAP1 PUSH1 0x20 SHR JUMP JUMPDEST PUSH1 0x1 PUSH1 0x0 DUP11 PUSH8 0xFFFFFFFFFFFFFFFF AND PUSH8 0xFFFFFFFFFFFFFFFF AND DUP2 MSTORE PUSH1 0x20 ADD SWAP1 DUP2 MSTORE PUSH1 0x20 ADD PUSH1 0x0 KECCAK256 PUSH1 0x0 ADD PUSH1 0x0 DUP10 PUSH20 0xFFFFFFFFFFFFFFFFFFFFFFFFFFFFFFFFFFFFFFFF AND PUSH20 0xFFFFFFFFFFFFFFFFFFFFFFFFFFFFFFFFFFFFFFFF AND DUP2 MSTORE PUSH1 0x20 ADD SWAP1 DUP2 MSTORE PUSH1 0x20 ADD PUSH1 0x0 KECCAK256 PUSH1 0x0 ADD PUSH1 0x6 DUP3 SWAP5 POP DUP4 SWAP2 SWAP1 PUSH2 0x100 EXP DUP2 SLOAD DUP2 PUSH14 0xFFFFFFFFFFFFFFFFFFFFFFFFFFFF MUL NOT AND SWAP1 DUP4 PUSH14 0xFFFFFFFFFFFFFFFFFFFFFFFFFFFF AND MUL OR SWAP1 SSTORE POP POP POP JUMPDEST DUP6 PUSH20 0xFFFFFFFFFFFFFFFFFFFFFFFFFFFFFFFFFFFFFFFF AND DUP8 PUSH8 0xFFFFFFFFFFFFFFFF AND PUSH32 0xF98448B987F1428E0E230E1F3C6E2CE15B5693EAF31827FBD0B1EC4B424AE7CF DUP7 DUP5 DUP7 PUSH1 0x40 MLOAD PUSH3 0x4A1 SWAP4 SWAP3 SWAP2 SWAP1 PUSH3 0x944 JUMP JUMPDEST PUSH1 0x40 MLOAD DUP1 SWAP2 SUB SWAP1 LOG3 DUP2 SWAP3 POP POP POP SWAP5 SWAP4 POP POP POP POP JUMP JUMPDEST PUSH1 0x0 PUSH3 0x4C9 TIMESTAMP PUSH3 0x596 PUSH1 0x20 SHL PUSH1 0x20 SHR JUMP JUMPDEST SWAP1 POP SWAP1 JUMP JUMPDEST PUSH1 0x0 DUP2 PUSH4 0xFFFFFFFF AND SWAP1 POP SWAP2 SWAP1 POP JUMP JUMPDEST PUSH1 0x0 DUP1 PUSH1 0x0 PUSH3 0x504 DUP7 PUSH14 0xFFFFFFFFFFFFFFFFFFFFFFFFFFFF AND PUSH3 0x5F3 PUSH1 0x20 SHL PUSH1 0x20 SHR JUMP JUMPDEST SWAP1 POP PUSH1 0x0 PUSH3 0x550 DUP6 PUSH4 0xFFFFFFFF AND DUP8 PUSH4 0xFFFFFFFF AND DUP5 PUSH4 0xFFFFFFFF AND GT PUSH3 0x52F JUMPI PUSH1 0x0 PUSH3 0x53E JUMP JUMPDEST DUP8 DUP5 PUSH3 0x53D SWAP2 SWAP1 PUSH3 0x981 JUMP JUMPDEST JUMPDEST PUSH4 0xFFFFFFFF AND PUSH3 0x624 PUSH1 0x20 SHL PUSH1 0x20 SHR JUMP JUMPDEST SWAP1 POP DUP1 PUSH4 0xFFFFFFFF AND PUSH3 0x569 PUSH3 0x4B6 PUSH1 0x20 SHL PUSH1 0x20 SHR JUMP JUMPDEST PUSH3 0x575 SWAP2 SWAP1 PUSH3 0x8B4 JUMP JUMPDEST SWAP3 POP PUSH3 0x58A DUP3 DUP8 DUP6 PUSH3 0x63F PUSH1 0x20 SHL PUSH1 0x20 SHR JUMP JUMPDEST SWAP4 POP POP POP SWAP4 POP SWAP4 SWAP2 POP POP JUMP JUMPDEST PUSH1 0x0 PUSH6 0xFFFFFFFFFFFF DUP1 AND DUP3 GT ISZERO PUSH3 0x5EB JUMPI PUSH1 0x30 DUP3 PUSH1 0x40 MLOAD PUSH32 0x6DFCC65000000000000000000000000000000000000000000000000000000000 DUP2 MSTORE PUSH1 0x4 ADD PUSH3 0x5E2 SWAP3 SWAP2 SWAP1 PUSH3 0xA35 JUMP JUMPDEST PUSH1 0x40 MLOAD DUP1 SWAP2 SUB SWAP1 REVERT JUMPDEST DUP2 SWAP1 POP SWAP2 SWAP1 POP JUMP JUMPDEST PUSH1 0x0 DUP1 PUSH3 0x617 DUP4 PUSH14 0xFFFFFFFFFFFFFFFFFFFFFFFFFFFF AND PUSH3 0x68B PUSH1 0x20 SHL PUSH1 0x20 SHR JUMP JUMPDEST POP POP SWAP1 POP DUP1 SWAP2 POP POP SWAP2 SWAP1 POP JUMP JUMPDEST PUSH1 0x0 DUP2 DUP4 GT PUSH3 0x635 JUMPI DUP2 PUSH3 0x637 JUMP JUMPDEST DUP3 JUMPDEST SWAP1 POP SWAP3 SWAP2 POP POP JUMP JUMPDEST PUSH1 0x0 DUP3 PUSH4 0xFFFFFFFF AND PUSH1 0x20 DUP6 PUSH4 0xFFFFFFFF AND PUSH14 0xFFFFFFFFFFFFFFFFFFFFFFFFFFFF AND SWAP1 SHL PUSH1 0x40 DUP5 PUSH6 0xFFFFFFFFFFFF AND PUSH14 0xFFFFFFFFFFFFFFFFFFFFFFFFFFFF AND SWAP1 SHL OR OR SWAP1 POP SWAP4 SWAP3 POP POP POP JUMP JUMPDEST PUSH1 0x0 DUP1 PUSH1 0x0 PUSH3 0x6B1 DUP5 PUSH3 0x6A5 PUSH3 0x4B6 PUSH1 0x20 SHL PUSH1 0x20 SHR JUMP JUMPDEST PUSH3 0x6BE PUSH1 0x20 SHL PUSH1 0x20 SHR JUMP JUMPDEST SWAP3 POP SWAP3 POP SWAP3 POP SWAP2 SWAP4 SWAP1 SWAP3 POP JUMP JUMPDEST PUSH1 0x0 DUP1 PUSH1 0x0 DUP1 PUSH1 0x0 DUP1 PUSH3 0x6E8 DUP9 PUSH14 0xFFFFFFFFFFFFFFFFFFFFFFFFFFFF AND PUSH3 0x725 PUSH1 0x20 SHL PUSH1 0x20 SHR JUMP JUMPDEST SWAP3 POP SWAP3 POP SWAP3 POP DUP7 PUSH6 0xFFFFFFFFFFFF AND DUP2 PUSH6 0xFFFFFFFFFFFF AND GT ISZERO PUSH3 0x710 JUMPI DUP3 DUP3 DUP3 PUSH3 0x715 JUMP JUMPDEST DUP2 PUSH1 0x0 DUP1 JUMPDEST SWAP6 POP SWAP6 POP SWAP6 POP POP POP POP SWAP3 POP SWAP3 POP SWAP3 JUMP JUMPDEST PUSH1 0x0 DUP1 PUSH1 0x0 DUP1 DUP5 SWAP1 POP DUP1 SWAP3 POP PUSH1 0x20 DUP2 PUSH14 0xFFFFFFFFFFFFFFFFFFFFFFFFFFFF AND SWAP1 SHR SWAP4 POP PUSH1 0x40 DUP2 PUSH14 0xFFFFFFFFFFFFFFFFFFFFFFFFFFFF AND SWAP1 SHR SWAP2 POP POP SWAP2 SWAP4 SWAP1 SWAP3 POP JUMP JUMPDEST PUSH1 0x0 DUP1 REVERT JUMPDEST PUSH1 0x0 PUSH20 0xFFFFFFFFFFFFFFFFFFFFFFFFFFFFFFFFFFFFFFFF DUP3 AND SWAP1 POP SWAP2 SWAP1 POP JUMP JUMPDEST PUSH1 0x0 PUSH3 0x799 DUP3 PUSH3 0x76C JUMP JUMPDEST SWAP1 POP SWAP2 SWAP1 POP JUMP JUMPDEST PUSH3 0x7AB DUP2 PUSH3 0x78C JUMP JUMPDEST DUP2 EQ PUSH3 0x7B7 JUMPI PUSH1 0x0 DUP1 REVERT JUMPDEST POP JUMP JUMPDEST PUSH1 0x0 DUP2 MLOAD SWAP1 POP PUSH3 0x7CB DUP2 PUSH3 0x7A0 JUMP JUMPDEST SWAP3 SWAP2 POP POP JUMP JUMPDEST PUSH1 0x0 PUSH1 0x20 DUP3 DUP5 SUB SLT ISZERO PUSH3 0x7EA JUMPI PUSH3 0x7E9 PUSH3 0x767 JUMP JUMPDEST JUMPDEST PUSH1 0x0 PUSH3 0x7FA DUP5 DUP3 DUP6 ADD PUSH3 0x7BA JUMP JUMPDEST SWAP2 POP POP SWAP3 SWAP2 POP POP JUMP JUMPDEST PUSH3 0x80E DUP2 PUSH3 0x78C JUMP JUMPDEST DUP3 MSTORE POP POP JUMP JUMPDEST PUSH1 0x0 PUSH1 0x20 DUP3 ADD SWAP1 POP PUSH3 0x82B PUSH1 0x0 DUP4 ADD DUP5 PUSH3 0x803 JUMP JUMPDEST SWAP3 SWAP2 POP POP JUMP JUMPDEST PUSH1 0x0 PUSH8 0xFFFFFFFFFFFFFFFF DUP3 AND SWAP1 POP SWAP2 SWAP1 POP JUMP JUMPDEST PUSH3 0x850 DUP2 PUSH3 0x831 JUMP JUMPDEST DUP3 MSTORE POP POP JUMP JUMPDEST PUSH1 0x0 PUSH1 0x20 DUP3 ADD SWAP1 POP PUSH3 0x86D PUSH1 0x0 DUP4 ADD DUP5 PUSH3 0x845 JUMP JUMPDEST SWAP3 SWAP2 POP POP JUMP JUMPDEST PUSH1 0x0 PUSH6 0xFFFFFFFFFFFF DUP3 AND SWAP1 POP SWAP2 SWAP1 POP JUMP JUMPDEST PUSH32 0x4E487B7100000000000000000000000000000000000000000000000000000000 PUSH1 0x0 MSTORE PUSH1 0x11 PUSH1 0x4 MSTORE PUSH1 0x24 PUSH1 0x0 REVERT JUMPDEST PUSH1 0x0 PUSH3 0x8C1 DUP3 PUSH3 0x873 JUMP JUMPDEST SWAP2 POP PUSH3 0x8CE DUP4 PUSH3 0x873 JUMP JUMPDEST SWAP3 POP DUP3 DUP3 ADD SWAP1 POP PUSH6 0xFFFFFFFFFFFF DUP2 GT ISZERO PUSH3 0x8EF JUMPI PUSH3 0x8EE PUSH3 0x885 JUMP JUMPDEST JUMPDEST SWAP3 SWAP2 POP POP JUMP JUMPDEST PUSH1 0x0 PUSH4 0xFFFFFFFF DUP3 AND SWAP1 POP SWAP2 SWAP1 POP JUMP JUMPDEST PUSH3 0x910 DUP2 PUSH3 0x8F5 JUMP JUMPDEST DUP3 MSTORE POP POP JUMP JUMPDEST PUSH3 0x921 DUP2 PUSH3 0x873 JUMP JUMPDEST DUP3 MSTORE POP POP JUMP JUMPDEST PUSH1 0x0 DUP2 ISZERO ISZERO SWAP1 POP SWAP2 SWAP1 POP JUMP JUMPDEST PUSH3 0x93E DUP2 PUSH3 0x927 JUMP JUMPDEST DUP3 MSTORE POP POP JUMP JUMPDEST PUSH1 0x0 PUSH1 0x60 DUP3 ADD SWAP1 POP PUSH3 0x95B PUSH1 0x0 DUP4 ADD DUP7 PUSH3 0x905 JUMP JUMPDEST PUSH3 0x96A PUSH1 0x20 DUP4 ADD DUP6 PUSH3 0x916 JUMP JUMPDEST PUSH3 0x979 PUSH1 0x40 DUP4 ADD DUP5 PUSH3 0x933 JUMP JUMPDEST SWAP5 SWAP4 POP POP POP POP JUMP JUMPDEST PUSH1 0x0 PUSH3 0x98E DUP3 PUSH3 0x8F5 JUMP JUMPDEST SWAP2 POP PUSH3 0x99B DUP4 PUSH3 0x8F5 JUMP JUMPDEST SWAP3 POP DUP3 DUP3 SUB SWAP1 POP PUSH4 0xFFFFFFFF DUP2 GT ISZERO PUSH3 0x9BA JUMPI PUSH3 0x9B9 PUSH3 0x885 JUMP JUMPDEST JUMPDEST SWAP3 SWAP2 POP POP JUMP JUMPDEST PUSH1 0x0 DUP2 SWAP1 POP SWAP2 SWAP1 POP JUMP JUMPDEST PUSH1 0x0 PUSH1 0xFF DUP3 AND SWAP1 POP SWAP2 SWAP1 POP JUMP JUMPDEST PUSH1 0x0 DUP2 SWAP1 POP SWAP2 SWAP1 POP JUMP JUMPDEST PUSH1 0x0 PUSH3 0xA02 PUSH3 0x9FC PUSH3 0x9F6 DUP5 PUSH3 0x9C0 JUMP JUMPDEST PUSH3 0x9D7 JUMP JUMPDEST PUSH3 0x9CA JUMP JUMPDEST SWAP1 POP SWAP2 SWAP1 POP JUMP JUMPDEST PUSH3 0xA14 DUP2 PUSH3 0x9E1 JUMP JUMPDEST DUP3 MSTORE POP POP JUMP JUMPDEST PUSH1 0x0 DUP2 SWAP1 POP SWAP2 SWAP1 POP JUMP JUMPDEST PUSH3 0xA2F DUP2 PUSH3 0xA1A JUMP JUMPDEST DUP3 MSTORE POP POP JUMP JUMPDEST PUSH1 0x0 PUSH1 0x40 DUP3 ADD SWAP1 POP PUSH3 0xA4C PUSH1 0x0 DUP4 ADD DUP6 PUSH3 0xA09 JUMP JUMPDEST PUSH3 0xA5B PUSH1 0x20 DUP4 ADD DUP5 PUSH3 0xA24 JUMP JUMPDEST SWAP4 SWAP3 POP POP POP JUMP JUMPDEST PUSH2 0x45DD DUP1 PUSH3 0xA72 PUSH1 0x0 CODECOPY PUSH1 0x0 RETURN INVALID PUSH1 0x80 PUSH1 0x40 MSTORE PUSH1 0x4 CALLDATASIZE LT PUSH2 0x1E3 JUMPI PUSH1 0x0 CALLDATALOAD PUSH1 0xE0 SHR DUP1 PUSH4 0x6D5115BD GT PUSH2 0x102 JUMPI DUP1 PUSH4 0xB7009613 GT PUSH2 0x95 JUMPI DUP1 PUSH4 0xD22B5989 GT PUSH2 0x64 JUMPI DUP1 PUSH4 0xD22B5989 EQ PUSH2 0x77C JUMPI DUP1 PUSH4 0xD6BB62C6 EQ PUSH2 0x7A5 JUMPI DUP1 PUSH4 0xF801A698 EQ PUSH2 0x7E2 JUMPI DUP1 PUSH4 0xFE0776F5 EQ PUSH2 0x820 JUMPI PUSH2 0x1E3 JUMP JUMPDEST DUP1 PUSH4 0xB7009613 EQ PUSH2 0x6AC JUMPI DUP1 PUSH4 0xB7D2B162 EQ PUSH2 0x6EA JUMPI DUP1 PUSH4 0xCC1B6C81 EQ PUSH2 0x713 JUMPI DUP1 PUSH4 0xD1F856EE EQ PUSH2 0x73E JUMPI PUSH2 0x1E3 JUMP JUMPDEST DUP1 PUSH4 0xA166AA89 GT PUSH2 0xD1 JUMPI DUP1 PUSH4 0xA166AA89 EQ PUSH2 0x5CC JUMPI DUP1 PUSH4 0xA64D95CE EQ PUSH2 0x609 JUMPI DUP1 PUSH4 0xABD9BD2A EQ PUSH2 0x632 JUMPI DUP1 PUSH4 0xAC9650D8 EQ PUSH2 0x66F JUMPI PUSH2 0x1E3 JUMP JUMPDEST DUP1 PUSH4 0x6D5115BD EQ PUSH2 0x512 JUMPI DUP1 PUSH4 0x75B238FC EQ PUSH2 0x54F JUMPI DUP1 PUSH4 0x853551B8 EQ PUSH2 0x57A JUMPI DUP1 PUSH4 0x94C7D7EE EQ PUSH2 0x5A3 JUMPI PUSH2 0x1E3 JUMP JUMPDEST DUP1 PUSH4 0x30CAE187 GT PUSH2 0x17A JUMPI DUP1 PUSH4 0x4665096D GT PUSH2 0x149 JUMPI DUP1 PUSH4 0x4665096D EQ PUSH2 0x444 JUMPI DUP1 PUSH4 0x4C1DA1E2 EQ PUSH2 0x46F JUMPI DUP1 PUSH4 0x52962952 EQ PUSH2 0x4AC JUMPI DUP1 PUSH4 0x530DD456 EQ PUSH2 0x4D5 JUMPI PUSH2 0x1E3 JUMP JUMPDEST DUP1 PUSH4 0x30CAE187 EQ PUSH2 0x376 JUMPI DUP1 PUSH4 0x3ADC277A EQ PUSH2 0x39F JUMPI DUP1 PUSH4 0x3CA7C02A EQ PUSH2 0x3DC JUMPI DUP1 PUSH4 0x4136A33C EQ PUSH2 0x407 JUMPI PUSH2 0x1E3 JUMP JUMPDEST DUP1 PUSH4 0x18FF183C GT PUSH2 0x1B6 JUMPI DUP1 PUSH4 0x18FF183C EQ PUSH2 0x2B4 JUMPI DUP1 PUSH4 0x1CFF79CD EQ PUSH2 0x2DD JUMPI DUP1 PUSH4 0x25C471A0 EQ PUSH2 0x30D JUMPI DUP1 PUSH4 0x3078F114 EQ PUSH2 0x336 JUMPI PUSH2 0x1E3 JUMP JUMPDEST DUP1 PUSH4 0x8D6122D EQ PUSH2 0x1E8 JUMPI DUP1 PUSH4 0xB0A93BA EQ PUSH2 0x211 JUMPI DUP1 PUSH4 0x12BE8727 EQ PUSH2 0x24E JUMPI DUP1 PUSH4 0x167BD395 EQ PUSH2 0x28B JUMPI JUMPDEST PUSH1 0x0 DUP1 REVERT JUMPDEST CALLVALUE DUP1 ISZERO PUSH2 0x1F4 JUMPI PUSH1 0x0 DUP1 REVERT JUMPDEST POP PUSH2 0x20F PUSH1 0x4 DUP1 CALLDATASIZE SUB DUP2 ADD SWAP1 PUSH2 0x20A SWAP2 SWAP1 PUSH2 0x3406 JUMP JUMPDEST PUSH2 0x849 JUMP JUMPDEST STOP JUMPDEST CALLVALUE DUP1 ISZERO PUSH2 0x21D JUMPI PUSH1 0x0 DUP1 REVERT JUMPDEST POP PUSH2 0x238 PUSH1 0x4 DUP1 CALLDATASIZE SUB DUP2 ADD SWAP1 PUSH2 0x233 SWAP2 SWAP1 PUSH2 0x347A JUMP JUMPDEST PUSH2 0x8A3 JUMP JUMPDEST PUSH1 0x40 MLOAD PUSH2 0x245 SWAP2 SWAP1 PUSH2 0x34B6 JUMP JUMPDEST PUSH1 0x40 MLOAD DUP1 SWAP2 SUB SWAP1 RETURN JUMPDEST CALLVALUE DUP1 ISZERO PUSH2 0x25A JUMPI PUSH1 0x0 DUP1 REVERT JUMPDEST POP PUSH2 0x275 PUSH1 0x4 DUP1 CALLDATASIZE SUB DUP2 ADD SWAP1 PUSH2 0x270 SWAP2 SWAP1 PUSH2 0x347A JUMP JUMPDEST PUSH2 0x8EB JUMP JUMPDEST PUSH1 0x40 MLOAD PUSH2 0x282 SWAP2 SWAP1 PUSH2 0x34F0 JUMP JUMPDEST PUSH1 0x40 MLOAD DUP1 SWAP2 SUB SWAP1 RETURN JUMPDEST CALLVALUE DUP1 ISZERO PUSH2 0x297 JUMPI PUSH1 0x0 DUP1 REVERT JUMPDEST POP PUSH2 0x2B2 PUSH1 0x4 DUP1 CALLDATASIZE SUB DUP2 ADD SWAP1 PUSH2 0x2AD SWAP2 SWAP1 PUSH2 0x3543 JUMP JUMPDEST PUSH2 0x951 JUMP JUMPDEST STOP JUMPDEST CALLVALUE DUP1 ISZERO PUSH2 0x2C0 JUMPI PUSH1 0x0 DUP1 REVERT JUMPDEST POP PUSH2 0x2DB PUSH1 0x4 DUP1 CALLDATASIZE SUB DUP2 ADD SWAP1 PUSH2 0x2D6 SWAP2 SWAP1 PUSH2 0x3583 JUMP JUMPDEST PUSH2 0x967 JUMP JUMPDEST STOP JUMPDEST PUSH2 0x2F7 PUSH1 0x4 DUP1 CALLDATASIZE SUB DUP2 ADD SWAP1 PUSH2 0x2F2 SWAP2 SWAP1 PUSH2 0x3619 JUMP JUMPDEST PUSH2 0x9DE JUMP JUMPDEST PUSH1 0x40 MLOAD PUSH2 0x304 SWAP2 SWAP1 PUSH2 0x34F0 JUMP JUMPDEST PUSH1 0x40 MLOAD DUP1 SWAP2 SUB SWAP1 RETURN JUMPDEST CALLVALUE DUP1 ISZERO PUSH2 0x319 JUMPI PUSH1 0x0 DUP1 REVERT JUMPDEST POP PUSH2 0x334 PUSH1 0x4 DUP1 CALLDATASIZE SUB DUP2 ADD SWAP1 PUSH2 0x32F SWAP2 SWAP1 PUSH2 0x36A5 JUMP JUMPDEST PUSH2 0xB31 JUMP JUMPDEST STOP JUMPDEST CALLVALUE DUP1 ISZERO PUSH2 0x342 JUMPI PUSH1 0x0 DUP1 REVERT JUMPDEST POP PUSH2 0x35D PUSH1 0x4 DUP1 CALLDATASIZE SUB DUP2 ADD SWAP1 PUSH2 0x358 SWAP2 SWAP1 PUSH2 0x36F8 JUMP JUMPDEST PUSH2 0xB53 JUMP JUMPDEST PUSH1 0x40 MLOAD PUSH2 0x36D SWAP5 SWAP4 SWAP3 SWAP2 SWAP1 PUSH2 0x3759 JUMP JUMPDEST PUSH1 0x40 MLOAD DUP1 SWAP2 SUB SWAP1 RETURN JUMPDEST CALLVALUE DUP1 ISZERO PUSH2 0x382 JUMPI PUSH1 0x0 DUP1 REVERT JUMPDEST POP PUSH2 0x39D PUSH1 0x4 DUP1 CALLDATASIZE SUB DUP2 ADD SWAP1 PUSH2 0x398 SWAP2 SWAP1 PUSH2 0x379E JUMP JUMPDEST PUSH2 0xC2A JUMP JUMPDEST STOP JUMPDEST CALLVALUE DUP1 ISZERO PUSH2 0x3AB JUMPI PUSH1 0x0 DUP1 REVERT JUMPDEST POP PUSH2 0x3C6 PUSH1 0x4 DUP1 CALLDATASIZE SUB DUP2 ADD SWAP1 PUSH2 0x3C1 SWAP2 SWAP1 PUSH2 0x3814 JUMP JUMPDEST PUSH2 0xC40 JUMP JUMPDEST PUSH1 0x40 MLOAD PUSH2 0x3D3 SWAP2 SWAP1 PUSH2 0x3841 JUMP JUMPDEST PUSH1 0x40 MLOAD DUP1 SWAP2 SUB SWAP1 RETURN JUMPDEST CALLVALUE DUP1 ISZERO PUSH2 0x3E8 JUMPI PUSH1 0x0 DUP1 REVERT JUMPDEST POP PUSH2 0x3F1 PUSH2 0xC8C JUMP JUMPDEST PUSH1 0x40 MLOAD PUSH2 0x3FE SWAP2 SWAP1 PUSH2 0x34B6 JUMP JUMPDEST PUSH1 0x40 MLOAD DUP1 SWAP2 SUB SWAP1 RETURN JUMPDEST CALLVALUE DUP1 ISZERO PUSH2 0x413 JUMPI PUSH1 0x0 DUP1 REVERT JUMPDEST POP PUSH2 0x42E PUSH1 0x4 DUP1 CALLDATASIZE SUB DUP2 ADD SWAP1 PUSH2 0x429 SWAP2 SWAP1 PUSH2 0x3814 JUMP JUMPDEST PUSH2 0xC98 JUMP JUMPDEST PUSH1 0x40 MLOAD PUSH2 0x43B SWAP2 SWAP1 PUSH2 0x34F0 JUMP JUMPDEST PUSH1 0x40 MLOAD DUP1 SWAP2 SUB SWAP1 RETURN JUMPDEST CALLVALUE DUP1 ISZERO PUSH2 0x450 JUMPI PUSH1 0x0 DUP1 REVERT JUMPDEST POP PUSH2 0x459 PUSH2 0xCC8 JUMP JUMPDEST PUSH1 0x40 MLOAD PUSH2 0x466 SWAP2 SWAP1 PUSH2 0x34F0 JUMP JUMPDEST PUSH1 0x40 MLOAD DUP1 SWAP2 SUB SWAP1 RETURN JUMPDEST CALLVALUE DUP1 ISZERO PUSH2 0x47B JUMPI PUSH1 0x0 DUP1 REVERT JUMPDEST POP PUSH2 0x496 PUSH1 0x4 DUP1 CALLDATASIZE SUB DUP2 ADD SWAP1 PUSH2 0x491 SWAP2 SWAP1 PUSH2 0x385C JUMP JUMPDEST PUSH2 0xCD3 JUMP JUMPDEST PUSH1 0x40 MLOAD PUSH2 0x4A3 SWAP2 SWAP1 PUSH2 0x34F0 JUMP JUMPDEST PUSH1 0x40 MLOAD DUP1 SWAP2 SUB SWAP1 RETURN JUMPDEST CALLVALUE DUP1 ISZERO PUSH2 0x4B8 JUMPI PUSH1 0x0 DUP1 REVERT JUMPDEST POP PUSH2 0x4D3 PUSH1 0x4 DUP1 CALLDATASIZE SUB DUP2 ADD SWAP1 PUSH2 0x4CE SWAP2 SWAP1 PUSH2 0x379E JUMP JUMPDEST PUSH2 0xD50 JUMP JUMPDEST STOP JUMPDEST CALLVALUE DUP1 ISZERO PUSH2 0x4E1 JUMPI PUSH1 0x0 DUP1 REVERT JUMPDEST POP PUSH2 0x4FC PUSH1 0x4 DUP1 CALLDATASIZE SUB DUP2 ADD SWAP1 PUSH2 0x4F7 SWAP2 SWAP1 PUSH2 0x347A JUMP JUMPDEST PUSH2 0xD66 JUMP JUMPDEST PUSH1 0x40 MLOAD PUSH2 0x509 SWAP2 SWAP1 PUSH2 0x34B6 JUMP JUMPDEST PUSH1 0x40 MLOAD DUP1 SWAP2 SUB SWAP1 RETURN JUMPDEST CALLVALUE DUP1 ISZERO PUSH2 0x51E JUMPI PUSH1 0x0 DUP1 REVERT JUMPDEST POP PUSH2 0x539 PUSH1 0x4 DUP1 CALLDATASIZE SUB DUP2 ADD SWAP1 PUSH2 0x534 SWAP2 SWAP1 PUSH2 0x38E1 JUMP JUMPDEST PUSH2 0xDAE JUMP JUMPDEST PUSH1 0x40 MLOAD PUSH2 0x546 SWAP2 SWAP1 PUSH2 0x34B6 JUMP JUMPDEST PUSH1 0x40 MLOAD DUP1 SWAP2 SUB SWAP1 RETURN JUMPDEST CALLVALUE DUP1 ISZERO PUSH2 0x55B JUMPI PUSH1 0x0 DUP1 REVERT JUMPDEST POP PUSH2 0x564 PUSH2 0xE5D JUMP JUMPDEST PUSH1 0x40 MLOAD PUSH2 0x571 SWAP2 SWAP1 PUSH2 0x34B6 JUMP JUMPDEST PUSH1 0x40 MLOAD DUP1 SWAP2 SUB SWAP1 RETURN JUMPDEST CALLVALUE DUP1 ISZERO PUSH2 0x586 JUMPI PUSH1 0x0 DUP1 REVERT JUMPDEST POP PUSH2 0x5A1 PUSH1 0x4 DUP1 CALLDATASIZE SUB DUP2 ADD SWAP1 PUSH2 0x59C SWAP2 SWAP1 PUSH2 0x3977 JUMP JUMPDEST PUSH2 0xE62 JUMP JUMPDEST STOP JUMPDEST CALLVALUE DUP1 ISZERO PUSH2 0x5AF JUMPI PUSH1 0x0 DUP1 REVERT JUMPDEST POP PUSH2 0x5CA PUSH1 0x4 DUP1 CALLDATASIZE SUB DUP2 ADD SWAP1 PUSH2 0x5C5 SWAP2 SWAP1 PUSH2 0x3619 JUMP JUMPDEST PUSH2 0xF2B JUMP JUMPDEST STOP JUMPDEST CALLVALUE DUP1 ISZERO PUSH2 0x5D8 JUMPI PUSH1 0x0 DUP1 REVERT JUMPDEST POP PUSH2 0x5F3 PUSH1 0x4 DUP1 CALLDATASIZE SUB DUP2 ADD SWAP1 PUSH2 0x5EE SWAP2 SWAP1 PUSH2 0x385C JUMP JUMPDEST PUSH2 0x1049 JUMP JUMPDEST PUSH1 0x40 MLOAD PUSH2 0x600 SWAP2 SWAP1 PUSH2 0x39E6 JUMP JUMPDEST PUSH1 0x40 MLOAD DUP1 SWAP2 SUB SWAP1 RETURN JUMPDEST CALLVALUE DUP1 ISZERO PUSH2 0x615 JUMPI PUSH1 0x0 DUP1 REVERT JUMPDEST POP PUSH2 0x630 PUSH1 0x4 DUP1 CALLDATASIZE SUB DUP2 ADD SWAP1 PUSH2 0x62B SWAP2 SWAP1 PUSH2 0x3A01 JUMP JUMPDEST PUSH2 0x10A1 JUMP JUMPDEST STOP JUMPDEST CALLVALUE DUP1 ISZERO PUSH2 0x63E JUMPI PUSH1 0x0 DUP1 REVERT JUMPDEST POP PUSH2 0x659 PUSH1 0x4 DUP1 CALLDATASIZE SUB DUP2 ADD SWAP1 PUSH2 0x654 SWAP2 SWAP1 PUSH2 0x3A41 JUMP JUMPDEST PUSH2 0x10B7 JUMP JUMPDEST PUSH1 0x40 MLOAD PUSH2 0x666 SWAP2 SWAP1 PUSH2 0x3AC4 JUMP JUMPDEST PUSH1 0x40 MLOAD DUP1 SWAP2 SUB SWAP1 RETURN JUMPDEST CALLVALUE DUP1 ISZERO PUSH2 0x67B JUMPI PUSH1 0x0 DUP1 REVERT JUMPDEST POP PUSH2 0x696 PUSH1 0x4 DUP1 CALLDATASIZE SUB DUP2 ADD SWAP1 PUSH2 0x691 SWAP2 SWAP1 PUSH2 0x3B35 JUMP JUMPDEST PUSH2 0x10F0 JUMP JUMPDEST PUSH1 0x40 MLOAD PUSH2 0x6A3 SWAP2 SWAP1 PUSH2 0x3CD4 JUMP JUMPDEST PUSH1 0x40 MLOAD DUP1 SWAP2 SUB SWAP1 RETURN JUMPDEST CALLVALUE DUP1 ISZERO PUSH2 0x6B8 JUMPI PUSH1 0x0 DUP1 REVERT JUMPDEST POP PUSH2 0x6D3 PUSH1 0x4 DUP1 CALLDATASIZE SUB DUP2 ADD SWAP1 PUSH2 0x6CE SWAP2 SWAP1 PUSH2 0x3CF6 JUMP JUMPDEST PUSH2 0x12D4 JUMP JUMPDEST PUSH1 0x40 MLOAD PUSH2 0x6E1 SWAP3 SWAP2 SWAP1 PUSH2 0x3D49 JUMP JUMPDEST PUSH1 0x40 MLOAD DUP1 SWAP2 SUB SWAP1 RETURN JUMPDEST CALLVALUE DUP1 ISZERO PUSH2 0x6F6 JUMPI PUSH1 0x0 DUP1 REVERT JUMPDEST POP PUSH2 0x711 PUSH1 0x4 DUP1 CALLDATASIZE SUB DUP2 ADD SWAP1 PUSH2 0x70C SWAP2 SWAP1 PUSH2 0x36F8 JUMP JUMPDEST PUSH2 0x1381 JUMP JUMPDEST STOP JUMPDEST CALLVALUE DUP1 ISZERO PUSH2 0x71F JUMPI PUSH1 0x0 DUP1 REVERT JUMPDEST POP PUSH2 0x728 PUSH2 0x1398 JUMP JUMPDEST PUSH1 0x40 MLOAD PUSH2 0x735 SWAP2 SWAP1 PUSH2 0x34F0 JUMP JUMPDEST PUSH1 0x40 MLOAD DUP1 SWAP2 SUB SWAP1 RETURN JUMPDEST CALLVALUE DUP1 ISZERO PUSH2 0x74A JUMPI PUSH1 0x0 DUP1 REVERT JUMPDEST POP PUSH2 0x765 PUSH1 0x4 DUP1 CALLDATASIZE SUB DUP2 ADD SWAP1 PUSH2 0x760 SWAP2 SWAP1 PUSH2 0x36F8 JUMP JUMPDEST PUSH2 0x13A3 JUMP JUMPDEST PUSH1 0x40 MLOAD PUSH2 0x773 SWAP3 SWAP2 SWAP1 PUSH2 0x3D49 JUMP JUMPDEST PUSH1 0x40 MLOAD DUP1 SWAP2 SUB SWAP1 RETURN JUMPDEST CALLVALUE DUP1 ISZERO PUSH2 0x788 JUMPI PUSH1 0x0 DUP1 REVERT JUMPDEST POP PUSH2 0x7A3 PUSH1 0x4 DUP1 CALLDATASIZE SUB DUP2 ADD SWAP1 PUSH2 0x79E SWAP2 SWAP1 PUSH2 0x3D72 JUMP JUMPDEST PUSH2 0x1420 JUMP JUMPDEST STOP JUMPDEST CALLVALUE DUP1 ISZERO PUSH2 0x7B1 JUMPI PUSH1 0x0 DUP1 REVERT JUMPDEST POP PUSH2 0x7CC PUSH1 0x4 DUP1 CALLDATASIZE SUB DUP2 ADD SWAP1 PUSH2 0x7C7 SWAP2 SWAP1 PUSH2 0x3A41 JUMP JUMPDEST PUSH2 0x1436 JUMP JUMPDEST PUSH1 0x40 MLOAD PUSH2 0x7D9 SWAP2 SWAP1 PUSH2 0x34F0 JUMP JUMPDEST PUSH1 0x40 MLOAD DUP1 SWAP2 SUB SWAP1 RETURN JUMPDEST CALLVALUE DUP1 ISZERO PUSH2 0x7EE JUMPI PUSH1 0x0 DUP1 REVERT JUMPDEST POP PUSH2 0x809 PUSH1 0x4 DUP1 CALLDATASIZE SUB DUP2 ADD SWAP1 PUSH2 0x804 SWAP2 SWAP1 PUSH2 0x3DDE JUMP JUMPDEST PUSH2 0x1629 JUMP JUMPDEST PUSH1 0x40 MLOAD PUSH2 0x817 SWAP3 SWAP2 SWAP1 PUSH2 0x3E52 JUMP JUMPDEST PUSH1 0x40 MLOAD DUP1 SWAP2 SUB SWAP1 RETURN JUMPDEST CALLVALUE DUP1 ISZERO PUSH2 0x82C JUMPI PUSH1 0x0 DUP1 REVERT JUMPDEST POP PUSH2 0x847 PUSH1 0x4 DUP1 CALLDATASIZE SUB DUP2 ADD SWAP1 PUSH2 0x842 SWAP2 SWAP1 PUSH2 0x36F8 JUMP JUMPDEST PUSH2 0x180D JUMP JUMPDEST STOP JUMPDEST PUSH2 0x851 PUSH2 0x1888 JUMP JUMPDEST PUSH1 0x0 JUMPDEST DUP4 DUP4 SWAP1 POP DUP2 LT ISZERO PUSH2 0x89C JUMPI PUSH2 0x891 DUP6 DUP6 DUP6 DUP5 DUP2 DUP2 LT PUSH2 0x876 JUMPI PUSH2 0x875 PUSH2 0x3E7B JUMP JUMPDEST JUMPDEST SWAP1 POP PUSH1 0x20 MUL ADD PUSH1 0x20 DUP2 ADD SWAP1 PUSH2 0x88B SWAP2 SWAP1 PUSH2 0x3EAA JUMP JUMPDEST DUP5 PUSH2 0x1935 JUMP JUMPDEST DUP1 PUSH1 0x1 ADD SWAP1 POP PUSH2 0x854 JUMP JUMPDEST POP POP POP POP POP JUMP JUMPDEST PUSH1 0x0 PUSH1 0x1 PUSH1 0x0 DUP4 PUSH8 0xFFFFFFFFFFFFFFFF AND PUSH8 0xFFFFFFFFFFFFFFFF AND DUP2 MSTORE PUSH1 0x20 ADD SWAP1 DUP2 MSTORE PUSH1 0x20 ADD PUSH1 0x0 KECCAK256 PUSH1 0x1 ADD PUSH1 0x8 SWAP1 SLOAD SWAP1 PUSH2 0x100 EXP SWAP1 DIV PUSH8 0xFFFFFFFFFFFFFFFF AND SWAP1 POP SWAP2 SWAP1 POP JUMP JUMPDEST PUSH1 0x0 PUSH2 0x94A PUSH1 0x1 PUSH1 0x0 DUP5 PUSH8 0xFFFFFFFFFFFFFFFF AND PUSH8 0xFFFFFFFFFFFFFFFF AND DUP2 MSTORE PUSH1 0x20 ADD SWAP1 DUP2 MSTORE PUSH1 0x20 ADD PUSH1 0x0 KECCAK256 PUSH1 0x1 ADD PUSH1 0x10 SWAP1 SLOAD SWAP1 PUSH2 0x100 EXP SWAP1 DIV PUSH14 0xFFFFFFFFFFFFFFFFFFFFFFFFFFFF AND PUSH14 0xFFFFFFFFFFFFFFFFFFFFFFFFFFFF AND PUSH2 0x1A4A JUMP JUMPDEST SWAP1 POP SWAP2 SWAP1 POP JUMP JUMPDEST PUSH2 0x959 PUSH2 0x1888 JUMP JUMPDEST PUSH2 0x963 DUP3 DUP3 PUSH2 0x1A73 JUMP JUMPDEST POP POP JUMP JUMPDEST PUSH2 0x96F PUSH2 0x1888 JUMP JUMPDEST DUP2 PUSH20 0xFFFFFFFFFFFFFFFFFFFFFFFFFFFFFFFFFFFFFFFF AND PUSH4 0x7A9E5E4B DUP3 PUSH1 0x40 MLOAD DUP3 PUSH4 0xFFFFFFFF AND PUSH1 0xE0 SHL DUP2 MSTORE PUSH1 0x4 ADD PUSH2 0x9A8 SWAP2 SWAP1 PUSH2 0x3EE6 JUMP JUMPDEST PUSH1 0x0 PUSH1 0x40 MLOAD DUP1 DUP4 SUB DUP2 PUSH1 0x0 DUP8 DUP1 EXTCODESIZE ISZERO DUP1 ISZERO PUSH2 0x9C2 JUMPI PUSH1 0x0 DUP1 REVERT JUMPDEST POP GAS CALL ISZERO DUP1 ISZERO PUSH2 0x9D6 JUMPI RETURNDATASIZE PUSH1 0x0 DUP1 RETURNDATACOPY RETURNDATASIZE PUSH1 0x0 REVERT JUMPDEST POP POP POP POP POP POP JUMP JUMPDEST PUSH1 0x0 DUP1 PUSH2 0x9E9 PUSH2 0x1B8E JUMP JUMPDEST SWAP1 POP PUSH1 0x0 DUP1 PUSH2 0x9FA DUP4 DUP9 DUP9 DUP9 PUSH2 0x1B96 JUMP JUMPDEST SWAP2 POP SWAP2 POP DUP2 ISZERO DUP1 ISZERO PUSH2 0xA12 JUMPI POP PUSH1 0x0 DUP2 PUSH4 0xFFFFFFFF AND EQ JUMPDEST ISZERO PUSH2 0xA61 JUMPI DUP3 DUP8 PUSH2 0xA23 DUP9 DUP9 PUSH2 0x1C16 JUMP JUMPDEST PUSH1 0x40 MLOAD PUSH32 0x81C6F24B00000000000000000000000000000000000000000000000000000000 DUP2 MSTORE PUSH1 0x4 ADD PUSH2 0xA58 SWAP4 SWAP3 SWAP2 SWAP1 PUSH2 0x3F10 JUMP JUMPDEST PUSH1 0x40 MLOAD DUP1 SWAP2 SUB SWAP1 REVERT JUMPDEST PUSH1 0x0 PUSH2 0xA6F DUP5 DUP10 DUP10 DUP10 PUSH2 0x10B7 JUMP JUMPDEST SWAP1 POP PUSH1 0x0 DUP1 DUP4 PUSH4 0xFFFFFFFF AND EQ ISZERO DUP1 PUSH2 0xA99 JUMPI POP PUSH1 0x0 PUSH2 0xA8E DUP4 PUSH2 0xC40 JUMP JUMPDEST PUSH6 0xFFFFFFFFFFFF AND EQ ISZERO JUMPDEST ISZERO PUSH2 0xAAA JUMPI PUSH2 0xAA7 DUP3 PUSH2 0x1C3F JUMP JUMPDEST SWAP1 POP JUMPDEST PUSH1 0x0 PUSH1 0x3 SLOAD SWAP1 POP PUSH2 0xAC4 DUP11 PUSH2 0xABF DUP12 DUP12 PUSH2 0x1C16 JUMP JUMPDEST PUSH2 0x1DF5 JUMP JUMPDEST PUSH1 0x3 DUP2 SWAP1 SSTORE POP PUSH2 0xB19 DUP11 DUP11 DUP11 DUP1 DUP1 PUSH1 0x1F ADD PUSH1 0x20 DUP1 SWAP2 DIV MUL PUSH1 0x20 ADD PUSH1 0x40 MLOAD SWAP1 DUP2 ADD PUSH1 0x40 MSTORE DUP1 SWAP4 SWAP3 SWAP2 SWAP1 DUP2 DUP2 MSTORE PUSH1 0x20 ADD DUP4 DUP4 DUP1 DUP3 DUP5 CALLDATACOPY PUSH1 0x0 DUP2 DUP5 ADD MSTORE PUSH1 0x1F NOT PUSH1 0x1F DUP3 ADD AND SWAP1 POP DUP1 DUP4 ADD SWAP3 POP POP POP POP POP POP POP CALLVALUE PUSH2 0x1E28 JUMP JUMPDEST POP DUP1 PUSH1 0x3 DUP2 SWAP1 SSTORE POP DUP2 SWAP7 POP POP POP POP POP POP POP SWAP4 SWAP3 POP POP POP JUMP JUMPDEST PUSH2 0xB39 PUSH2 0x1888 JUMP JUMPDEST PUSH2 0xB4D DUP4 DUP4 PUSH2 0xB47 DUP7 PUSH2 0x8EB JUMP JUMPDEST DUP5 PUSH2 0x1EF5 JUMP JUMPDEST POP POP POP POP JUMP JUMPDEST PUSH1 0x0 DUP1 PUSH1 0x0 DUP1 PUSH1 0x0 PUSH1 0x1 PUSH1 0x0 DUP9 PUSH8 0xFFFFFFFFFFFFFFFF AND PUSH8 0xFFFFFFFFFFFFFFFF AND DUP2 MSTORE PUSH1 0x20 ADD SWAP1 DUP2 MSTORE PUSH1 0x20 ADD PUSH1 0x0 KECCAK256 PUSH1 0x0 ADD PUSH1 0x0 DUP8 PUSH20 0xFFFFFFFFFFFFFFFFFFFFFFFFFFFFFFFFFFFFFFFF AND PUSH20 0xFFFFFFFFFFFFFFFFFFFFFFFFFFFFFFFFFFFFFFFF AND DUP2 MSTORE PUSH1 0x20 ADD SWAP1 DUP2 MSTORE PUSH1 0x20 ADD PUSH1 0x0 KECCAK256 SWAP1 POP DUP1 PUSH1 0x0 ADD PUSH1 0x0 SWAP1 SLOAD SWAP1 PUSH2 0x100 EXP SWAP1 DIV PUSH6 0xFFFFFFFFFFFF AND SWAP5 POP PUSH2 0xC14 DUP2 PUSH1 0x0 ADD PUSH1 0x6 SWAP1 SLOAD SWAP1 PUSH2 0x100 EXP SWAP1 DIV PUSH14 0xFFFFFFFFFFFFFFFFFFFFFFFFFFFF AND PUSH14 0xFFFFFFFFFFFFFFFFFFFFFFFFFFFF AND PUSH2 0x22C6 JUMP JUMPDEST DUP1 SWAP5 POP DUP2 SWAP6 POP DUP3 SWAP7 POP POP POP POP POP SWAP3 SWAP6 SWAP2 SWAP5 POP SWAP3 POP JUMP JUMPDEST PUSH2 0xC32 PUSH2 0x1888 JUMP JUMPDEST PUSH2 0xC3C DUP3 DUP3 PUSH2 0x22E9 JUMP JUMPDEST POP POP JUMP JUMPDEST PUSH1 0x0 DUP1 PUSH1 0x2 PUSH1 0x0 DUP5 DUP2 MSTORE PUSH1 0x20 ADD SWAP1 DUP2 MSTORE PUSH1 0x20 ADD PUSH1 0x0 KECCAK256 PUSH1 0x0 ADD PUSH1 0x0 SWAP1 SLOAD SWAP1 PUSH2 0x100 EXP SWAP1 DIV PUSH6 0xFFFFFFFFFFFF AND SWAP1 POP PUSH2 0xC77 DUP2 PUSH2 0x23F8 JUMP JUMPDEST PUSH2 0xC81 JUMPI DUP1 PUSH2 0xC84 JUMP JUMPDEST PUSH1 0x0 JUMPDEST SWAP2 POP POP SWAP2 SWAP1 POP JUMP JUMPDEST PUSH8 0xFFFFFFFFFFFFFFFF DUP2 JUMP JUMPDEST PUSH1 0x0 PUSH1 0x2 PUSH1 0x0 DUP4 DUP2 MSTORE PUSH1 0x20 ADD SWAP1 DUP2 MSTORE PUSH1 0x20 ADD PUSH1 0x0 KECCAK256 PUSH1 0x0 ADD PUSH1 0x6 SWAP1 SLOAD SWAP1 PUSH2 0x100 EXP SWAP1 DIV PUSH4 0xFFFFFFFF AND SWAP1 POP SWAP2 SWAP1 POP JUMP JUMPDEST PUSH1 0x0 PUSH3 0x93A80 SWAP1 POP SWAP1 JUMP JUMPDEST PUSH1 0x0 PUSH2 0xD49 PUSH1 0x0 DUP1 DUP5 PUSH20 0xFFFFFFFFFFFFFFFFFFFFFFFFFFFFFFFFFFFFFFFF AND PUSH20 0xFFFFFFFFFFFFFFFFFFFFFFFFFFFFFFFFFFFFFFFF AND DUP2 MSTORE PUSH1 0x20 ADD SWAP1 DUP2 MSTORE PUSH1 0x20 ADD PUSH1 0x0 KECCAK256 PUSH1 0x1 ADD PUSH1 0x0 SWAP1 SLOAD SWAP1 PUSH2 0x100 EXP SWAP1 DIV PUSH14 0xFFFFFFFFFFFFFFFFFFFFFFFFFFFF AND PUSH14 0xFFFFFFFFFFFFFFFFFFFFFFFFFFFF AND PUSH2 0x1A4A JUMP JUMPDEST SWAP1 POP SWAP2 SWAP1 POP JUMP JUMPDEST PUSH2 0xD58 PUSH2 0x1888 JUMP JUMPDEST PUSH2 0xD62 DUP3 DUP3 PUSH2 0x2434 JUMP JUMPDEST POP POP JUMP JUMPDEST PUSH1 0x0 PUSH1 0x1 PUSH1 0x0 DUP4 PUSH8 0xFFFFFFFFFFFFFFFF AND PUSH8 0xFFFFFFFFFFFFFFFF AND DUP2 MSTORE PUSH1 0x20 ADD SWAP1 DUP2 MSTORE PUSH1 0x20 ADD PUSH1 0x0 KECCAK256 PUSH1 0x1 ADD PUSH1 0x0 SWAP1 SLOAD SWAP1 PUSH2 0x100 EXP SWAP1 DIV PUSH8 0xFFFFFFFFFFFFFFFF AND SWAP1 POP SWAP2 SWAP1 POP JUMP JUMPDEST PUSH1 0x0 DUP1 PUSH1 0x0 DUP5 PUSH20 0xFFFFFFFFFFFFFFFFFFFFFFFFFFFFFFFFFFFFFFFF AND PUSH20 0xFFFFFFFFFFFFFFFFFFFFFFFFFFFFFFFFFFFFFFFF AND DUP2 MSTORE PUSH1 0x20 ADD SWAP1 DUP2 MSTORE PUSH1 0x20 ADD PUSH1 0x0 KECCAK256 PUSH1 0x0 ADD PUSH1 0x0 DUP4 PUSH28 0xFFFFFFFFFFFFFFFFFFFFFFFFFFFFFFFFFFFFFFFFFFFFFFFFFFFFFFFF NOT AND PUSH28 0xFFFFFFFFFFFFFFFFFFFFFFFFFFFFFFFFFFFFFFFFFFFFFFFFFFFFFFFF NOT AND DUP2 MSTORE PUSH1 0x20 ADD SWAP1 DUP2 MSTORE PUSH1 0x20 ADD PUSH1 0x0 KECCAK256 PUSH1 0x0 SWAP1 SLOAD SWAP1 PUSH2 0x100 EXP SWAP1 DIV PUSH8 0xFFFFFFFFFFFFFFFF AND SWAP1 POP SWAP3 SWAP2 POP POP JUMP JUMPDEST PUSH1 0x0 DUP2 JUMP JUMPDEST PUSH2 0xE6A PUSH2 0x1888 JUMP JUMPDEST PUSH1 0x0 PUSH8 0xFFFFFFFFFFFFFFFF AND DUP4 PUSH8 0xFFFFFFFFFFFFFFFF AND EQ DUP1 PUSH2 0xEA0 JUMPI POP PUSH8 0xFFFFFFFFFFFFFFFF DUP1 AND DUP4 PUSH8 0xFFFFFFFFFFFFFFFF AND EQ JUMPDEST ISZERO PUSH2 0xEE2 JUMPI DUP3 PUSH1 0x40 MLOAD PUSH32 0x1871A90C00000000000000000000000000000000000000000000000000000000 DUP2 MSTORE PUSH1 0x4 ADD PUSH2 0xED9 SWAP2 SWAP1 PUSH2 0x34B6 JUMP JUMPDEST PUSH1 0x40 MLOAD DUP1 SWAP2 SUB SWAP1 REVERT JUMPDEST DUP3 PUSH8 0xFFFFFFFFFFFFFFFF AND PUSH32 0x1256F5B5ECB89CAEC12DB449738F2FBCD1BA5806CF38F35413F4E5C15BF6A450 DUP4 DUP4 PUSH1 0x40 MLOAD PUSH2 0xF1E SWAP3 SWAP2 SWAP1 PUSH2 0x3F94 JUMP JUMPDEST PUSH1 0x40 MLOAD DUP1 SWAP2 SUB SWAP1 LOG2 POP POP POP JUMP JUMPDEST PUSH1 0x0 PUSH2 0xF35 PUSH2 0x1B8E JUMP JUMPDEST SWAP1 POP PUSH4 0x8FB36037 PUSH1 0xE0 SHL PUSH28 0xFFFFFFFFFFFFFFFFFFFFFFFFFFFFFFFFFFFFFFFFFFFFFFFFFFFFFFFF NOT AND DUP2 PUSH20 0xFFFFFFFFFFFFFFFFFFFFFFFFFFFFFFFFFFFFFFFF AND PUSH4 0x8FB36037 PUSH1 0x40 MLOAD DUP2 PUSH4 0xFFFFFFFF AND PUSH1 0xE0 SHL DUP2 MSTORE PUSH1 0x4 ADD PUSH1 0x20 PUSH1 0x40 MLOAD DUP1 DUP4 SUB DUP2 DUP7 GAS STATICCALL ISZERO DUP1 ISZERO PUSH2 0xFA9 JUMPI RETURNDATASIZE PUSH1 0x0 DUP1 RETURNDATACOPY RETURNDATASIZE PUSH1 0x0 REVERT JUMPDEST POP POP POP POP PUSH1 0x40 MLOAD RETURNDATASIZE PUSH1 0x1F NOT PUSH1 0x1F DUP3 ADD AND DUP3 ADD DUP1 PUSH1 0x40 MSTORE POP DUP2 ADD SWAP1 PUSH2 0xFCD SWAP2 SWAP1 PUSH2 0x3FCD JUMP JUMPDEST PUSH28 0xFFFFFFFFFFFFFFFFFFFFFFFFFFFFFFFFFFFFFFFFFFFFFFFFFFFFFFFF NOT AND EQ PUSH2 0x102E JUMPI DUP1 PUSH1 0x40 MLOAD PUSH32 0x320FF74800000000000000000000000000000000000000000000000000000000 DUP2 MSTORE PUSH1 0x4 ADD PUSH2 0x1025 SWAP2 SWAP1 PUSH2 0x3EE6 JUMP JUMPDEST PUSH1 0x40 MLOAD DUP1 SWAP2 SUB SWAP1 REVERT JUMPDEST PUSH2 0x1042 PUSH2 0x103D DUP6 DUP4 DUP7 DUP7 PUSH2 0x10B7 JUMP JUMPDEST PUSH2 0x1C3F JUMP JUMPDEST POP POP POP POP POP JUMP JUMPDEST PUSH1 0x0 DUP1 PUSH1 0x0 DUP4 PUSH20 0xFFFFFFFFFFFFFFFFFFFFFFFFFFFFFFFFFFFFFFFF AND PUSH20 0xFFFFFFFFFFFFFFFFFFFFFFFFFFFFFFFFFFFFFFFF AND DUP2 MSTORE PUSH1 0x20 ADD SWAP1 DUP2 MSTORE PUSH1 0x20 ADD PUSH1 0x0 KECCAK256 PUSH1 0x1 ADD PUSH1 0xE SWAP1 SLOAD SWAP1 PUSH2 0x100 EXP SWAP1 DIV PUSH1 0xFF AND SWAP1 POP SWAP2 SWAP1 POP JUMP JUMPDEST PUSH2 0x10A9 PUSH2 0x1888 JUMP JUMPDEST PUSH2 0x10B3 DUP3 DUP3 PUSH2 0x2543 JUMP JUMPDEST POP POP JUMP JUMPDEST PUSH1 0x0 DUP5 DUP5 DUP5 DUP5 PUSH1 0x40 MLOAD PUSH1 0x20 ADD PUSH2 0x10D0 SWAP5 SWAP4 SWAP3 SWAP2 SWAP1 PUSH2 0x4038 JUMP JUMPDEST PUSH1 0x40 MLOAD PUSH1 0x20 DUP2 DUP4 SUB SUB DUP2 MSTORE SWAP1 PUSH1 0x40 MSTORE DUP1 MLOAD SWAP1 PUSH1 0x20 ADD KECCAK256 SWAP1 POP SWAP5 SWAP4 POP POP POP POP JUMP JUMPDEST PUSH1 0x60 PUSH1 0x0 PUSH2 0x10FC PUSH2 0x1B8E JUMP JUMPDEST PUSH20 0xFFFFFFFFFFFFFFFFFFFFFFFFFFFFFFFFFFFFFFFF AND CALLER PUSH20 0xFFFFFFFFFFFFFFFFFFFFFFFFFFFFFFFFFFFFFFFF AND EQ PUSH2 0x119F JUMPI PUSH1 0x0 CALLDATASIZE PUSH2 0x1139 PUSH2 0x26BA JUMP JUMPDEST PUSH1 0x0 CALLDATASIZE SWAP1 POP PUSH2 0x1148 SWAP2 SWAP1 PUSH2 0x40B1 JUMP JUMPDEST SWAP1 DUP1 SWAP3 PUSH2 0x1157 SWAP4 SWAP3 SWAP2 SWAP1 PUSH2 0x40EF JUMP JUMPDEST DUP1 DUP1 PUSH1 0x1F ADD PUSH1 0x20 DUP1 SWAP2 DIV MUL PUSH1 0x20 ADD PUSH1 0x40 MLOAD SWAP1 DUP2 ADD PUSH1 0x40 MSTORE DUP1 SWAP4 SWAP3 SWAP2 SWAP1 DUP2 DUP2 MSTORE PUSH1 0x20 ADD DUP4 DUP4 DUP1 DUP3 DUP5 CALLDATACOPY PUSH1 0x0 DUP2 DUP5 ADD MSTORE PUSH1 0x1F NOT PUSH1 0x1F DUP3 ADD AND SWAP1 POP DUP1 DUP4 ADD SWAP3 POP POP POP POP POP POP POP PUSH2 0x11EE JUMP JUMPDEST PUSH1 0x0 PUSH8 0xFFFFFFFFFFFFFFFF DUP2 GT ISZERO PUSH2 0x11BA JUMPI PUSH2 0x11B9 PUSH2 0x412A JUMP JUMPDEST JUMPDEST PUSH1 0x40 MLOAD SWAP1 DUP1 DUP3 MSTORE DUP1 PUSH1 0x1F ADD PUSH1 0x1F NOT AND PUSH1 0x20 ADD DUP3 ADD PUSH1 0x40 MSTORE DUP1 ISZERO PUSH2 0x11EC JUMPI DUP2 PUSH1 0x20 ADD PUSH1 0x1 DUP3 MUL DUP1 CALLDATASIZE DUP4 CALLDATACOPY DUP1 DUP3 ADD SWAP2 POP POP SWAP1 POP JUMPDEST POP JUMPDEST SWAP1 POP DUP4 DUP4 SWAP1 POP PUSH8 0xFFFFFFFFFFFFFFFF DUP2 GT ISZERO PUSH2 0x120D JUMPI PUSH2 0x120C PUSH2 0x412A JUMP JUMPDEST JUMPDEST PUSH1 0x40 MLOAD SWAP1 DUP1 DUP3 MSTORE DUP1 PUSH1 0x20 MUL PUSH1 0x20 ADD DUP3 ADD PUSH1 0x40 MSTORE DUP1 ISZERO PUSH2 0x1240 JUMPI DUP2 PUSH1 0x20 ADD JUMPDEST PUSH1 0x60 DUP2 MSTORE PUSH1 0x20 ADD SWAP1 PUSH1 0x1 SWAP1 SUB SWAP1 DUP2 PUSH2 0x122B JUMPI SWAP1 POP JUMPDEST POP SWAP2 POP PUSH1 0x0 JUMPDEST DUP5 DUP5 SWAP1 POP DUP2 LT ISZERO PUSH2 0x12CC JUMPI PUSH2 0x12A1 ADDRESS DUP7 DUP7 DUP5 DUP2 DUP2 LT PUSH2 0x1268 JUMPI PUSH2 0x1267 PUSH2 0x3E7B JUMP JUMPDEST JUMPDEST SWAP1 POP PUSH1 0x20 MUL DUP2 ADD SWAP1 PUSH2 0x127A SWAP2 SWAP1 PUSH2 0x4168 JUMP JUMPDEST DUP6 PUSH1 0x40 MLOAD PUSH1 0x20 ADD PUSH2 0x128D SWAP4 SWAP3 SWAP2 SWAP1 PUSH2 0x422C JUMP JUMPDEST PUSH1 0x40 MLOAD PUSH1 0x20 DUP2 DUP4 SUB SUB DUP2 MSTORE SWAP1 PUSH1 0x40 MSTORE PUSH2 0x26BF JUMP JUMPDEST DUP4 DUP3 DUP2 MLOAD DUP2 LT PUSH2 0x12B4 JUMPI PUSH2 0x12B3 PUSH2 0x3E7B JUMP JUMPDEST JUMPDEST PUSH1 0x20 MUL PUSH1 0x20 ADD ADD DUP2 SWAP1 MSTORE POP DUP1 DUP1 PUSH1 0x1 ADD SWAP2 POP POP PUSH2 0x1246 JUMP JUMPDEST POP POP SWAP3 SWAP2 POP POP JUMP JUMPDEST PUSH1 0x0 DUP1 PUSH2 0x12E0 DUP5 PUSH2 0x1049 JUMP JUMPDEST ISZERO PUSH2 0x12F1 JUMPI PUSH1 0x0 DUP1 SWAP2 POP SWAP2 POP PUSH2 0x1379 JUMP JUMPDEST ADDRESS PUSH20 0xFFFFFFFFFFFFFFFFFFFFFFFFFFFFFFFFFFFFFFFF AND DUP6 PUSH20 0xFFFFFFFFFFFFFFFFFFFFFFFFFFFFFFFFFFFFFFFF AND SUB PUSH2 0x1339 JUMPI PUSH2 0x132E DUP5 DUP5 PUSH2 0x2743 JUMP JUMPDEST PUSH1 0x0 SWAP2 POP SWAP2 POP PUSH2 0x1379 JUMP JUMPDEST PUSH1 0x0 PUSH2 0x1345 DUP6 DUP6 PUSH2 0xDAE JUMP JUMPDEST SWAP1 POP PUSH1 0x0 DUP1 PUSH2 0x1354 DUP4 DUP10 PUSH2 0x13A3 JUMP JUMPDEST SWAP2 POP SWAP2 POP DUP2 PUSH2 0x1365 JUMPI PUSH1 0x0 DUP1 PUSH2 0x1371 JUMP JUMPDEST PUSH1 0x0 DUP2 PUSH4 0xFFFFFFFF AND EQ DUP2 JUMPDEST SWAP5 POP SWAP5 POP POP POP POP JUMPDEST SWAP4 POP SWAP4 SWAP2 POP POP JUMP JUMPDEST PUSH2 0x1389 PUSH2 0x1888 JUMP JUMPDEST PUSH2 0x1393 DUP3 DUP3 PUSH2 0x275B JUMP JUMPDEST POP POP POP JUMP JUMPDEST PUSH1 0x0 PUSH3 0x69780 SWAP1 POP SWAP1 JUMP JUMPDEST PUSH1 0x0 DUP1 PUSH8 0xFFFFFFFFFFFFFFFF DUP1 AND DUP5 PUSH8 0xFFFFFFFFFFFFFFFF AND SUB PUSH2 0x13CE JUMPI PUSH1 0x1 PUSH1 0x0 SWAP2 POP SWAP2 POP PUSH2 0x1419 JUMP JUMPDEST PUSH1 0x0 DUP1 PUSH2 0x13DB DUP7 DUP7 PUSH2 0xB53 JUMP JUMPDEST POP POP SWAP2 POP SWAP2 POP PUSH1 0x0 DUP3 PUSH6 0xFFFFFFFFFFFF AND EQ ISZERO DUP1 ISZERO PUSH2 0x1411 JUMPI POP PUSH2 0x13FD PUSH2 0x2947 JUMP JUMPDEST PUSH6 0xFFFFFFFFFFFF AND DUP3 PUSH6 0xFFFFFFFFFFFF AND GT ISZERO JUMPDEST DUP2 SWAP4 POP SWAP4 POP POP POP JUMPDEST SWAP3 POP SWAP3 SWAP1 POP JUMP JUMPDEST PUSH2 0x1428 PUSH2 0x1888 JUMP JUMPDEST PUSH2 0x1432 DUP3 DUP3 PUSH2 0x2957 JUMP JUMPDEST POP POP JUMP JUMPDEST PUSH1 0x0 DUP1 PUSH2 0x1441 PUSH2 0x1B8E JUMP JUMPDEST SWAP1 POP PUSH1 0x0 PUSH2 0x144F DUP6 DUP6 PUSH2 0x1C16 JUMP JUMPDEST SWAP1 POP PUSH1 0x0 PUSH2 0x145F DUP9 DUP9 DUP9 DUP9 PUSH2 0x10B7 JUMP JUMPDEST SWAP1 POP PUSH1 0x0 PUSH1 0x2 PUSH1 0x0 DUP4 DUP2 MSTORE PUSH1 0x20 ADD SWAP1 DUP2 MSTORE PUSH1 0x20 ADD PUSH1 0x0 KECCAK256 PUSH1 0x0 ADD PUSH1 0x0 SWAP1 SLOAD SWAP1 PUSH2 0x100 EXP SWAP1 DIV PUSH6 0xFFFFFFFFFFFF AND PUSH6 0xFFFFFFFFFFFF AND SUB PUSH2 0x14D6 JUMPI DUP1 PUSH1 0x40 MLOAD PUSH32 0x60A299B000000000000000000000000000000000000000000000000000000000 DUP2 MSTORE PUSH1 0x4 ADD PUSH2 0x14CD SWAP2 SWAP1 PUSH2 0x3AC4 JUMP JUMPDEST PUSH1 0x40 MLOAD DUP1 SWAP2 SUB SWAP1 REVERT JUMPDEST DUP3 PUSH20 0xFFFFFFFFFFFFFFFFFFFFFFFFFFFFFFFFFFFFFFFF AND DUP9 PUSH20 0xFFFFFFFFFFFFFFFFFFFFFFFFFFFFFFFFFFFFFFFF AND EQ PUSH2 0x1590 JUMPI PUSH1 0x0 PUSH2 0x1516 PUSH1 0x0 DUP6 PUSH2 0x13A3 JUMP JUMPDEST POP SWAP1 POP PUSH1 0x0 PUSH2 0x1536 PUSH2 0x1530 PUSH2 0x152B DUP12 DUP8 PUSH2 0xDAE JUMP JUMPDEST PUSH2 0x8A3 JUMP JUMPDEST DUP7 PUSH2 0x13A3 JUMP JUMPDEST POP SWAP1 POP DUP2 ISZERO DUP1 ISZERO PUSH2 0x1545 JUMPI POP DUP1 ISZERO JUMPDEST ISZERO PUSH2 0x158D JUMPI DUP5 DUP11 DUP11 DUP7 PUSH1 0x40 MLOAD PUSH32 0x3FE2751C00000000000000000000000000000000000000000000000000000000 DUP2 MSTORE PUSH1 0x4 ADD PUSH2 0x1584 SWAP5 SWAP4 SWAP3 SWAP2 SWAP1 PUSH2 0x4252 JUMP JUMPDEST PUSH1 0x40 MLOAD DUP1 SWAP2 SUB SWAP1 REVERT JUMPDEST POP POP JUMPDEST PUSH1 0x2 PUSH1 0x0 DUP3 DUP2 MSTORE PUSH1 0x20 ADD SWAP1 DUP2 MSTORE PUSH1 0x20 ADD PUSH1 0x0 KECCAK256 PUSH1 0x0 ADD PUSH1 0x0 PUSH2 0x100 EXP DUP2 SLOAD SWAP1 PUSH6 0xFFFFFFFFFFFF MUL NOT AND SWAP1 SSTORE PUSH1 0x0 PUSH1 0x2 PUSH1 0x0 DUP4 DUP2 MSTORE PUSH1 0x20 ADD SWAP1 DUP2 MSTORE PUSH1 0x20 ADD PUSH1 0x0 KECCAK256 PUSH1 0x0 ADD PUSH1 0x6 SWAP1 SLOAD SWAP1 PUSH2 0x100 EXP SWAP1 DIV PUSH4 0xFFFFFFFF AND SWAP1 POP DUP1 PUSH4 0xFFFFFFFF AND DUP3 PUSH32 0xBD9AC67A6E2F6463B80927326310338BCBB4BDB7936CE1365EA3E01067E7B9F7 PUSH1 0x40 MLOAD PUSH1 0x40 MLOAD DUP1 SWAP2 SUB SWAP1 LOG3 DUP1 SWAP5 POP POP POP POP POP SWAP5 SWAP4 POP POP POP POP JUMP JUMPDEST PUSH1 0x0 DUP1 PUSH1 0x0 PUSH2 0x1636 PUSH2 0x1B8E JUMP JUMPDEST SWAP1 POP PUSH1 0x0 PUSH2 0x1646 DUP3 DUP10 DUP10 DUP10 PUSH2 0x1B96 JUMP JUMPDEST SWAP2 POP POP PUSH1 0x0 DUP2 PUSH4 0xFFFFFFFF AND PUSH2 0x165A PUSH2 0x2947 JUMP JUMPDEST PUSH2 0x1664 SWAP2 SWAP1 PUSH2 0x4297 JUMP JUMPDEST SWAP1 POP PUSH1 0x0 DUP3 PUSH4 0xFFFFFFFF AND EQ DUP1 PUSH2 0x169E JUMPI POP PUSH1 0x0 DUP7 PUSH6 0xFFFFFFFFFFFF AND GT DUP1 ISZERO PUSH2 0x169D JUMPI POP DUP1 PUSH6 0xFFFFFFFFFFFF AND DUP7 PUSH6 0xFFFFFFFFFFFF AND LT JUMPDEST JUMPDEST ISZERO PUSH2 0x16ED JUMPI DUP3 DUP10 PUSH2 0x16AF DUP11 DUP11 PUSH2 0x1C16 JUMP JUMPDEST PUSH1 0x40 MLOAD PUSH32 0x81C6F24B00000000000000000000000000000000000000000000000000000000 DUP2 MSTORE PUSH1 0x4 ADD PUSH2 0x16E4 SWAP4 SWAP3 SWAP2 SWAP1 PUSH2 0x3F10 JUMP JUMPDEST PUSH1 0x40 MLOAD DUP1 SWAP2 SUB SWAP1 REVERT JUMPDEST PUSH2 0x1707 DUP7 PUSH6 0xFFFFFFFFFFFF AND DUP3 PUSH6 0xFFFFFFFFFFFF AND PUSH2 0x2AB0 JUMP JUMPDEST SWAP6 POP PUSH2 0x1715 DUP4 DUP11 DUP11 DUP11 PUSH2 0x10B7 JUMP JUMPDEST SWAP5 POP PUSH2 0x1720 DUP6 PUSH2 0x2AC9 JUMP JUMPDEST PUSH1 0x1 PUSH1 0x2 PUSH1 0x0 DUP8 DUP2 MSTORE PUSH1 0x20 ADD SWAP1 DUP2 MSTORE PUSH1 0x20 ADD PUSH1 0x0 KECCAK256 PUSH1 0x0 ADD PUSH1 0x6 SWAP1 SLOAD SWAP1 PUSH2 0x100 EXP SWAP1 DIV PUSH4 0xFFFFFFFF AND ADD SWAP4 POP DUP6 PUSH1 0x2 PUSH1 0x0 DUP8 DUP2 MSTORE PUSH1 0x20 ADD SWAP1 DUP2 MSTORE PUSH1 0x20 ADD PUSH1 0x0 KECCAK256 PUSH1 0x0 ADD PUSH1 0x0 PUSH2 0x100 EXP DUP2 SLOAD DUP2 PUSH6 0xFFFFFFFFFFFF MUL NOT AND SWAP1 DUP4 PUSH6 0xFFFFFFFFFFFF AND MUL OR SWAP1 SSTORE POP DUP4 PUSH1 0x2 PUSH1 0x0 DUP8 DUP2 MSTORE PUSH1 0x20 ADD SWAP1 DUP2 MSTORE PUSH1 0x20 ADD PUSH1 0x0 KECCAK256 PUSH1 0x0 ADD PUSH1 0x6 PUSH2 0x100 EXP DUP2 SLOAD DUP2 PUSH4 0xFFFFFFFF MUL NOT AND SWAP1 DUP4 PUSH4 0xFFFFFFFF AND MUL OR SWAP1 SSTORE POP DUP4 PUSH4 0xFFFFFFFF AND DUP6 PUSH32 0x82A2DA5DEE54EA8021C6545B4444620291E07EE83BE6DD57EDB175062715F3B4 DUP9 DUP7 DUP14 DUP14 DUP14 PUSH1 0x40 MLOAD PUSH2 0x17F9 SWAP6 SWAP5 SWAP4 SWAP3 SWAP2 SWAP1 PUSH2 0x42D1 JUMP JUMPDEST PUSH1 0x40 MLOAD DUP1 SWAP2 SUB SWAP1 LOG3 POP POP POP SWAP5 POP SWAP5 SWAP3 POP POP POP JUMP JUMPDEST PUSH2 0x1815 PUSH2 0x1B8E JUMP JUMPDEST PUSH20 0xFFFFFFFFFFFFFFFFFFFFFFFFFFFFFFFFFFFFFFFF AND DUP2 PUSH20 0xFFFFFFFFFFFFFFFFFFFFFFFFFFFFFFFFFFFFFFFF AND EQ PUSH2 0x1879 JUMPI PUSH1 0x40 MLOAD PUSH32 0x5F159E6300000000000000000000000000000000000000000000000000000000 DUP2 MSTORE PUSH1 0x4 ADD PUSH1 0x40 MLOAD DUP1 SWAP2 SUB SWAP1 REVERT JUMPDEST PUSH2 0x1883 DUP3 DUP3 PUSH2 0x275B JUMP JUMPDEST POP POP POP JUMP JUMPDEST PUSH1 0x0 PUSH2 0x1892 PUSH2 0x1B8E JUMP JUMPDEST SWAP1 POP PUSH1 0x0 DUP1 PUSH2 0x18A8 DUP4 PUSH2 0x18A3 PUSH2 0x2B5B JUMP JUMPDEST PUSH2 0x2B68 JUMP JUMPDEST SWAP2 POP SWAP2 POP DUP2 PUSH2 0x1930 JUMPI PUSH1 0x0 DUP2 PUSH4 0xFFFFFFFF AND SUB PUSH2 0x1914 JUMPI PUSH1 0x0 PUSH2 0x18D1 PUSH2 0x18CC PUSH2 0x2B5B JUMP JUMPDEST PUSH2 0x2C56 JUMP JUMPDEST POP SWAP2 POP POP DUP4 DUP2 PUSH1 0x40 MLOAD PUSH32 0xF07E038F00000000000000000000000000000000000000000000000000000000 DUP2 MSTORE PUSH1 0x4 ADD PUSH2 0x190B SWAP3 SWAP2 SWAP1 PUSH2 0x431F JUMP JUMPDEST PUSH1 0x40 MLOAD DUP1 SWAP2 SUB SWAP1 REVERT JUMPDEST PUSH2 0x192E PUSH2 0x1929 DUP5 ADDRESS PUSH2 0x1924 PUSH2 0x2B5B JUMP JUMPDEST PUSH2 0x10B7 JUMP JUMPDEST PUSH2 0x1C3F JUMP JUMPDEST POP JUMPDEST POP POP POP JUMP JUMPDEST DUP1 PUSH1 0x0 DUP1 DUP6 PUSH20 0xFFFFFFFFFFFFFFFFFFFFFFFFFFFFFFFFFFFFFFFF AND PUSH20 0xFFFFFFFFFFFFFFFFFFFFFFFFFFFFFFFFFFFFFFFF AND DUP2 MSTORE PUSH1 0x20 ADD SWAP1 DUP2 MSTORE PUSH1 0x20 ADD PUSH1 0x0 KECCAK256 PUSH1 0x0 ADD PUSH1 0x0 DUP5 PUSH28 0xFFFFFFFFFFFFFFFFFFFFFFFFFFFFFFFFFFFFFFFFFFFFFFFFFFFFFFFF NOT AND PUSH28 0xFFFFFFFFFFFFFFFFFFFFFFFFFFFFFFFFFFFFFFFFFFFFFFFFFFFFFFFF NOT AND DUP2 MSTORE PUSH1 0x20 ADD SWAP1 DUP2 MSTORE PUSH1 0x20 ADD PUSH1 0x0 KECCAK256 PUSH1 0x0 PUSH2 0x100 EXP DUP2 SLOAD DUP2 PUSH8 0xFFFFFFFFFFFFFFFF MUL NOT AND SWAP1 DUP4 PUSH8 0xFFFFFFFFFFFFFFFF AND MUL OR SWAP1 SSTORE POP DUP1 PUSH8 0xFFFFFFFFFFFFFFFF AND DUP4 PUSH20 0xFFFFFFFFFFFFFFFFFFFFFFFFFFFFFFFFFFFFFFFF AND PUSH32 0x9EA6790C7DADFD01C9F8B9762B3682607AF2C7E79E05A9F9FDF5580DDE949151 DUP5 PUSH1 0x40 MLOAD PUSH2 0x1A3D SWAP2 SWAP1 PUSH2 0x4348 JUMP JUMPDEST PUSH1 0x40 MLOAD DUP1 SWAP2 SUB SWAP1 LOG3 POP POP POP JUMP JUMPDEST PUSH1 0x0 DUP1 PUSH2 0x1A66 DUP4 PUSH14 0xFFFFFFFFFFFFFFFFFFFFFFFFFFFF AND PUSH2 0x22C6 JUMP JUMPDEST POP POP SWAP1 POP DUP1 SWAP2 POP POP SWAP2 SWAP1 POP JUMP JUMPDEST ADDRESS PUSH20 0xFFFFFFFFFFFFFFFFFFFFFFFFFFFFFFFFFFFFFFFF AND DUP3 PUSH20 0xFFFFFFFFFFFFFFFFFFFFFFFFFFFFFFFFFFFFFFFF AND SUB PUSH2 0x1AE3 JUMPI DUP2 PUSH1 0x40 MLOAD PUSH32 0x5A068BC800000000000000000000000000000000000000000000000000000000 DUP2 MSTORE PUSH1 0x4 ADD PUSH2 0x1ADA SWAP2 SWAP1 PUSH2 0x3EE6 JUMP JUMPDEST PUSH1 0x40 MLOAD DUP1 SWAP2 SUB SWAP1 REVERT JUMPDEST DUP1 PUSH1 0x0 DUP1 DUP5 PUSH20 0xFFFFFFFFFFFFFFFFFFFFFFFFFFFFFFFFFFFFFFFF AND PUSH20 0xFFFFFFFFFFFFFFFFFFFFFFFFFFFFFFFFFFFFFFFF AND DUP2 MSTORE PUSH1 0x20 ADD SWAP1 DUP2 MSTORE PUSH1 0x20 ADD PUSH1 0x0 KECCAK256 PUSH1 0x1 ADD PUSH1 0xE PUSH2 0x100 EXP DUP2 SLOAD DUP2 PUSH1 0xFF MUL NOT AND SWAP1 DUP4 ISZERO ISZERO MUL OR SWAP1 SSTORE POP DUP2 PUSH20 0xFFFFFFFFFFFFFFFFFFFFFFFFFFFFFFFFFFFFFFFF AND PUSH32 0x90D4E7BB7E5D933792B3562E1741306F8BE94837E1348DACEF9B6F1DF56EB138 DUP3 PUSH1 0x40 MLOAD PUSH2 0x1B82 SWAP2 SWAP1 PUSH2 0x39E6 JUMP JUMPDEST PUSH1 0x40 MLOAD DUP1 SWAP2 SUB SWAP1 LOG2 POP POP JUMP JUMPDEST PUSH1 0x0 CALLER SWAP1 POP SWAP1 JUMP JUMPDEST PUSH1 0x0 DUP1 ADDRESS PUSH20 0xFFFFFFFFFFFFFFFFFFFFFFFFFFFFFFFFFFFFFFFF AND DUP6 PUSH20 0xFFFFFFFFFFFFFFFFFFFFFFFFFFFFFFFFFFFFFFFF AND SUB PUSH2 0x1BE0 JUMPI PUSH2 0x1BD7 DUP7 DUP6 DUP6 PUSH2 0x2B68 JUMP JUMPDEST SWAP2 POP SWAP2 POP PUSH2 0x1C0D JUMP JUMPDEST PUSH1 0x4 DUP5 DUP5 SWAP1 POP LT PUSH2 0x1C04 JUMPI PUSH2 0x1BFF DUP7 DUP7 PUSH2 0x1BFA DUP8 DUP8 PUSH2 0x1C16 JUMP JUMPDEST PUSH2 0x12D4 JUMP JUMPDEST PUSH2 0x1C08 JUMP JUMPDEST PUSH1 0x0 DUP1 JUMPDEST SWAP2 POP SWAP2 POP JUMPDEST SWAP5 POP SWAP5 SWAP3 POP POP POP JUMP JUMPDEST PUSH1 0x0 DUP3 DUP3 PUSH1 0x0 SWAP1 PUSH1 0x4 SWAP3 PUSH2 0x1C2C SWAP4 SWAP3 SWAP2 SWAP1 PUSH2 0x40EF JUMP JUMPDEST SWAP1 PUSH2 0x1C37 SWAP2 SWAP1 PUSH2 0x437B JUMP JUMPDEST SWAP1 POP SWAP3 SWAP2 POP POP JUMP JUMPDEST PUSH1 0x0 DUP1 PUSH1 0x2 PUSH1 0x0 DUP5 DUP2 MSTORE PUSH1 0x20 ADD SWAP1 DUP2 MSTORE PUSH1 0x20 ADD PUSH1 0x0 KECCAK256 PUSH1 0x0 ADD PUSH1 0x0 SWAP1 SLOAD SWAP1 PUSH2 0x100 EXP SWAP1 DIV PUSH6 0xFFFFFFFFFFFF AND SWAP1 POP PUSH1 0x0 PUSH1 0x2 PUSH1 0x0 DUP6 DUP2 MSTORE PUSH1 0x20 ADD SWAP1 DUP2 MSTORE PUSH1 0x20 ADD PUSH1 0x0 KECCAK256 PUSH1 0x0 ADD PUSH1 0x6 SWAP1 SLOAD SWAP1 PUSH2 0x100 EXP SWAP1 DIV PUSH4 0xFFFFFFFF AND SWAP1 POP PUSH1 0x0 DUP3 PUSH6 0xFFFFFFFFFFFF AND SUB PUSH2 0x1CE5 JUMPI DUP4 PUSH1 0x40 MLOAD PUSH32 0x60A299B000000000000000000000000000000000000000000000000000000000 DUP2 MSTORE PUSH1 0x4 ADD PUSH2 0x1CDC SWAP2 SWAP1 PUSH2 0x3AC4 JUMP JUMPDEST PUSH1 0x40 MLOAD DUP1 SWAP2 SUB SWAP1 REVERT JUMPDEST PUSH2 0x1CED PUSH2 0x2947 JUMP JUMPDEST PUSH6 0xFFFFFFFFFFFF AND DUP3 PUSH6 0xFFFFFFFFFFFF AND GT ISZERO PUSH2 0x1D41 JUMPI DUP4 PUSH1 0x40 MLOAD PUSH32 0x18CB6B7A00000000000000000000000000000000000000000000000000000000 DUP2 MSTORE PUSH1 0x4 ADD PUSH2 0x1D38 SWAP2 SWAP1 PUSH2 0x3AC4 JUMP JUMPDEST PUSH1 0x40 MLOAD DUP1 SWAP2 SUB SWAP1 REVERT JUMPDEST PUSH2 0x1D4A DUP3 PUSH2 0x23F8 JUMP JUMPDEST ISZERO PUSH2 0x1D8C JUMPI DUP4 PUSH1 0x40 MLOAD PUSH32 0x78A5D6E400000000000000000000000000000000000000000000000000000000 DUP2 MSTORE PUSH1 0x4 ADD PUSH2 0x1D83 SWAP2 SWAP1 PUSH2 0x3AC4 JUMP JUMPDEST PUSH1 0x40 MLOAD DUP1 SWAP2 SUB SWAP1 REVERT JUMPDEST PUSH1 0x2 PUSH1 0x0 DUP6 DUP2 MSTORE PUSH1 0x20 ADD SWAP1 DUP2 MSTORE PUSH1 0x20 ADD PUSH1 0x0 KECCAK256 PUSH1 0x0 ADD PUSH1 0x0 PUSH2 0x100 EXP DUP2 SLOAD SWAP1 PUSH6 0xFFFFFFFFFFFF MUL NOT AND SWAP1 SSTORE DUP1 PUSH4 0xFFFFFFFF AND DUP5 PUSH32 0x76A2A46953689D4861A5D3F6ED883AD7E6AF674A21F8E162707159FC9DDE614D PUSH1 0x40 MLOAD PUSH1 0x40 MLOAD DUP1 SWAP2 SUB SWAP1 LOG3 DUP1 SWAP3 POP POP POP SWAP2 SWAP1 POP JUMP JUMPDEST PUSH1 0x0 DUP3 DUP3 PUSH1 0x40 MLOAD PUSH1 0x20 ADD PUSH2 0x1E0A SWAP3 SWAP2 SWAP1 PUSH2 0x43DA JUMP JUMPDEST PUSH1 0x40 MLOAD PUSH1 0x20 DUP2 DUP4 SUB SUB DUP2 MSTORE SWAP1 PUSH1 0x40 MSTORE DUP1 MLOAD SWAP1 PUSH1 0x20 ADD KECCAK256 SWAP1 POP SWAP3 SWAP2 POP POP JUMP JUMPDEST PUSH1 0x60 DUP2 SELFBALANCE LT ISZERO PUSH2 0x1E6F JUMPI ADDRESS PUSH1 0x40 MLOAD PUSH32 0xCD78605900000000000000000000000000000000000000000000000000000000 DUP2 MSTORE PUSH1 0x4 ADD PUSH2 0x1E66 SWAP2 SWAP1 PUSH2 0x3EE6 JUMP JUMPDEST PUSH1 0x40 MLOAD DUP1 SWAP2 SUB SWAP1 REVERT JUMPDEST PUSH1 0x0 DUP1 DUP6 PUSH20 0xFFFFFFFFFFFFFFFFFFFFFFFFFFFFFFFFFFFFFFFF AND DUP5 DUP7 PUSH1 0x40 MLOAD PUSH2 0x1E98 SWAP2 SWAP1 PUSH2 0x4403 JUMP JUMPDEST PUSH1 0x0 PUSH1 0x40 MLOAD DUP1 DUP4 SUB DUP2 DUP6 DUP8 GAS CALL SWAP3 POP POP POP RETURNDATASIZE DUP1 PUSH1 0x0 DUP2 EQ PUSH2 0x1ED5 JUMPI PUSH1 0x40 MLOAD SWAP2 POP PUSH1 0x1F NOT PUSH1 0x3F RETURNDATASIZE ADD AND DUP3 ADD PUSH1 0x40 MSTORE RETURNDATASIZE DUP3 MSTORE RETURNDATASIZE PUSH1 0x0 PUSH1 0x20 DUP5 ADD RETURNDATACOPY PUSH2 0x1EDA JUMP JUMPDEST PUSH1 0x60 SWAP2 POP JUMPDEST POP SWAP2 POP SWAP2 POP PUSH2 0x1EEA DUP7 DUP4 DUP4 PUSH2 0x303E JUMP JUMPDEST SWAP3 POP POP POP SWAP4 SWAP3 POP POP POP JUMP JUMPDEST PUSH1 0x0 PUSH8 0xFFFFFFFFFFFFFFFF DUP1 AND DUP6 PUSH8 0xFFFFFFFFFFFFFFFF AND SUB PUSH2 0x1F4F JUMPI DUP5 PUSH1 0x40 MLOAD PUSH32 0x1871A90C00000000000000000000000000000000000000000000000000000000 DUP2 MSTORE PUSH1 0x4 ADD PUSH2 0x1F46 SWAP2 SWAP1 PUSH2 0x34B6 JUMP JUMPDEST PUSH1 0x40 MLOAD DUP1 SWAP2 SUB SWAP1 REVERT JUMPDEST PUSH1 0x0 DUP1 PUSH1 0x1 PUSH1 0x0 DUP9 PUSH8 0xFFFFFFFFFFFFFFFF AND PUSH8 0xFFFFFFFFFFFFFFFF AND DUP2 MSTORE PUSH1 0x20 ADD SWAP1 DUP2 MSTORE PUSH1 0x20 ADD PUSH1 0x0 KECCAK256 PUSH1 0x0 ADD PUSH1 0x0 DUP8 PUSH20 0xFFFFFFFFFFFFFFFFFFFFFFFFFFFFFFFFFFFFFFFF AND PUSH20 0xFFFFFFFFFFFFFFFFFFFFFFFFFFFFFFFFFFFFFFFF AND DUP2 MSTORE PUSH1 0x20 ADD SWAP1 DUP2 MSTORE PUSH1 0x20 ADD PUSH1 0x0 KECCAK256 PUSH1 0x0 ADD PUSH1 0x0 SWAP1 SLOAD SWAP1 PUSH2 0x100 EXP SWAP1 DIV PUSH6 0xFFFFFFFFFFFF AND PUSH6 0xFFFFFFFFFFFF AND EQ SWAP1 POP PUSH1 0x0 DUP2 ISZERO PUSH2 0x210D JUMPI DUP5 PUSH4 0xFFFFFFFF AND PUSH2 0x1FF1 PUSH2 0x2947 JUMP JUMPDEST PUSH2 0x1FFB SWAP2 SWAP1 PUSH2 0x4297 JUMP JUMPDEST SWAP1 POP PUSH1 0x40 MLOAD DUP1 PUSH1 0x40 ADD PUSH1 0x40 MSTORE DUP1 DUP3 PUSH6 0xFFFFFFFFFFFF AND DUP2 MSTORE PUSH1 0x20 ADD PUSH2 0x2025 DUP7 PUSH4 0xFFFFFFFF AND PUSH2 0x30CD JUMP JUMPDEST PUSH14 0xFFFFFFFFFFFFFFFFFFFFFFFFFFFF AND DUP2 MSTORE POP PUSH1 0x1 PUSH1 0x0 DUP10 PUSH8 0xFFFFFFFFFFFFFFFF AND PUSH8 0xFFFFFFFFFFFFFFFF AND DUP2 MSTORE PUSH1 0x20 ADD SWAP1 DUP2 MSTORE PUSH1 0x20 ADD PUSH1 0x0 KECCAK256 PUSH1 0x0 ADD PUSH1 0x0 DUP9 PUSH20 0xFFFFFFFFFFFFFFFFFFFFFFFFFFFFFFFFFFFFFFFF AND PUSH20 0xFFFFFFFFFFFFFFFFFFFFFFFFFFFFFFFFFFFFFFFF AND DUP2 MSTORE PUSH1 0x20 ADD SWAP1 DUP2 MSTORE PUSH1 0x20 ADD PUSH1 0x0 KECCAK256 PUSH1 0x0 DUP3 ADD MLOAD DUP2 PUSH1 0x0 ADD PUSH1 0x0 PUSH2 0x100 EXP DUP2 SLOAD DUP2 PUSH6 0xFFFFFFFFFFFF MUL NOT AND SWAP1 DUP4 PUSH6 0xFFFFFFFFFFFF AND MUL OR SWAP1 SSTORE POP PUSH1 0x20 DUP3 ADD MLOAD DUP2 PUSH1 0x0 ADD PUSH1 0x6 PUSH2 0x100 EXP DUP2 SLOAD DUP2 PUSH14 0xFFFFFFFFFFFFFFFFFFFFFFFFFFFF MUL NOT AND SWAP1 DUP4 PUSH14 0xFFFFFFFFFFFFFFFFFFFFFFFFFFFF AND MUL OR SWAP1 SSTORE POP SWAP1 POP POP PUSH2 0x225C JUMP JUMPDEST PUSH2 0x21B7 DUP5 PUSH1 0x0 PUSH1 0x1 PUSH1 0x0 DUP12 PUSH8 0xFFFFFFFFFFFFFFFF AND PUSH8 0xFFFFFFFFFFFFFFFF AND DUP2 MSTORE PUSH1 0x20 ADD SWAP1 DUP2 MSTORE PUSH1 0x20 ADD PUSH1 0x0 KECCAK256 PUSH1 0x0 ADD PUSH1 0x0 DUP11 PUSH20 0xFFFFFFFFFFFFFFFFFFFFFFFFFFFFFFFFFFFFFFFF AND PUSH20 0xFFFFFFFFFFFFFFFFFFFFFFFFFFFFFFFFFFFFFFFF AND DUP2 MSTORE PUSH1 0x20 ADD SWAP1 DUP2 MSTORE PUSH1 0x20 ADD PUSH1 0x0 KECCAK256 PUSH1 0x0 ADD PUSH1 0x6 SWAP1 SLOAD SWAP1 PUSH2 0x100 EXP SWAP1 DIV PUSH14 0xFFFFFFFFFFFFFFFFFFFFFFFFFFFF AND PUSH14 0xFFFFFFFFFFFFFFFFFFFFFFFFFFFF AND PUSH2 0x30DD SWAP1 SWAP3 SWAP2 SWAP1 PUSH4 0xFFFFFFFF AND JUMP JUMPDEST PUSH1 0x1 PUSH1 0x0 DUP11 PUSH8 0xFFFFFFFFFFFFFFFF AND PUSH8 0xFFFFFFFFFFFFFFFF AND DUP2 MSTORE PUSH1 0x20 ADD SWAP1 DUP2 MSTORE PUSH1 0x20 ADD PUSH1 0x0 KECCAK256 PUSH1 0x0 ADD PUSH1 0x0 DUP10 PUSH20 0xFFFFFFFFFFFFFFFFFFFFFFFFFFFFFFFFFFFFFFFF AND PUSH20 0xFFFFFFFFFFFFFFFFFFFFFFFFFFFFFFFFFFFFFFFF AND DUP2 MSTORE PUSH1 0x20 ADD SWAP1 DUP2 MSTORE PUSH1 0x20 ADD PUSH1 0x0 KECCAK256 PUSH1 0x0 ADD PUSH1 0x6 DUP3 SWAP5 POP DUP4 SWAP2 SWAP1 PUSH2 0x100 EXP DUP2 SLOAD DUP2 PUSH14 0xFFFFFFFFFFFFFFFFFFFFFFFFFFFF MUL NOT AND SWAP1 DUP4 PUSH14 0xFFFFFFFFFFFFFFFFFFFFFFFFFFFF AND MUL OR SWAP1 SSTORE POP POP POP JUMPDEST DUP6 PUSH20 0xFFFFFFFFFFFFFFFFFFFFFFFFFFFFFFFFFFFFFFFF AND DUP8 PUSH8 0xFFFFFFFFFFFFFFFF AND PUSH32 0xF98448B987F1428E0E230E1F3C6E2CE15B5693EAF31827FBD0B1EC4B424AE7CF DUP7 DUP5 DUP7 PUSH1 0x40 MLOAD PUSH2 0x22B1 SWAP4 SWAP3 SWAP2 SWAP1 PUSH2 0x441A JUMP JUMPDEST PUSH1 0x40 MLOAD DUP1 SWAP2 SUB SWAP1 LOG3 DUP2 SWAP3 POP POP POP SWAP5 SWAP4 POP POP POP POP JUMP JUMPDEST PUSH1 0x0 DUP1 PUSH1 0x0 PUSH2 0x22DC DUP5 PUSH2 0x22D7 PUSH2 0x2947 JUMP JUMPDEST PUSH2 0x316F JUMP JUMPDEST SWAP3 POP SWAP3 POP SWAP3 POP SWAP2 SWAP4 SWAP1 SWAP3 POP JUMP JUMPDEST PUSH1 0x0 PUSH8 0xFFFFFFFFFFFFFFFF AND DUP3 PUSH8 0xFFFFFFFFFFFFFFFF AND EQ DUP1 PUSH2 0x231F JUMPI POP PUSH8 0xFFFFFFFFFFFFFFFF DUP1 AND DUP3 PUSH8 0xFFFFFFFFFFFFFFFF AND EQ JUMPDEST ISZERO PUSH2 0x2361 JUMPI DUP2 PUSH1 0x40 MLOAD PUSH32 0x1871A90C00000000000000000000000000000000000000000000000000000000 DUP2 MSTORE PUSH1 0x4 ADD PUSH2 0x2358 SWAP2 SWAP1 PUSH2 0x34B6 JUMP JUMPDEST PUSH1 0x40 MLOAD DUP1 SWAP2 SUB SWAP1 REVERT JUMPDEST DUP1 PUSH1 0x1 PUSH1 0x0 DUP5 PUSH8 0xFFFFFFFFFFFFFFFF AND PUSH8 0xFFFFFFFFFFFFFFFF AND DUP2 MSTORE PUSH1 0x20 ADD SWAP1 DUP2 MSTORE PUSH1 0x20 ADD PUSH1 0x0 KECCAK256 PUSH1 0x1 ADD PUSH1 0x0 PUSH2 0x100 EXP DUP2 SLOAD DUP2 PUSH8 0xFFFFFFFFFFFFFFFF MUL NOT AND SWAP1 DUP4 PUSH8 0xFFFFFFFFFFFFFFFF AND MUL OR SWAP1 SSTORE POP DUP1 PUSH8 0xFFFFFFFFFFFFFFFF AND DUP3 PUSH8 0xFFFFFFFFFFFFFFFF AND PUSH32 0x1FD6DD7631312DFAC2205B52913F99DE03B4D7E381D5D27D3DBFE0713E6E6340 PUSH1 0x40 MLOAD PUSH1 0x40 MLOAD DUP1 SWAP2 SUB SWAP1 LOG3 POP POP JUMP JUMPDEST PUSH1 0x0 PUSH2 0x2402 PUSH2 0x2947 JUMP JUMPDEST PUSH6 0xFFFFFFFFFFFF AND PUSH2 0x2412 PUSH2 0xCC8 JUMP JUMPDEST PUSH4 0xFFFFFFFF AND DUP4 PUSH2 0x2423 SWAP2 SWAP1 PUSH2 0x4297 JUMP JUMPDEST PUSH6 0xFFFFFFFFFFFF AND GT ISZERO SWAP1 POP SWAP2 SWAP1 POP JUMP JUMPDEST PUSH1 0x0 PUSH8 0xFFFFFFFFFFFFFFFF AND DUP3 PUSH8 0xFFFFFFFFFFFFFFFF AND EQ DUP1 PUSH2 0x246A JUMPI POP PUSH8 0xFFFFFFFFFFFFFFFF DUP1 AND DUP3 PUSH8 0xFFFFFFFFFFFFFFFF AND EQ JUMPDEST ISZERO PUSH2 0x24AC JUMPI DUP2 PUSH1 0x40 MLOAD PUSH32 0x1871A90C00000000000000000000000000000000000000000000000000000000 DUP2 MSTORE PUSH1 0x4 ADD PUSH2 0x24A3 SWAP2 SWAP1 PUSH2 0x34B6 JUMP JUMPDEST PUSH1 0x40 MLOAD DUP1 SWAP2 SUB SWAP1 REVERT JUMPDEST DUP1 PUSH1 0x1 PUSH1 0x0 DUP5 PUSH8 0xFFFFFFFFFFFFFFFF AND PUSH8 0xFFFFFFFFFFFFFFFF AND DUP2 MSTORE PUSH1 0x20 ADD SWAP1 DUP2 MSTORE PUSH1 0x20 ADD PUSH1 0x0 KECCAK256 PUSH1 0x1 ADD PUSH1 0x8 PUSH2 0x100 EXP DUP2 SLOAD DUP2 PUSH8 0xFFFFFFFFFFFFFFFF MUL NOT AND SWAP1 DUP4 PUSH8 0xFFFFFFFFFFFFFFFF AND MUL OR SWAP1 SSTORE POP DUP1 PUSH8 0xFFFFFFFFFFFFFFFF AND DUP3 PUSH8 0xFFFFFFFFFFFFFFFF AND PUSH32 0x7A8059630B897B5DE4C08ADE69F8B90C3EAD1F8596D62D10B6C4D14A0AFB4AE2 PUSH1 0x40 MLOAD PUSH1 0x40 MLOAD DUP1 SWAP2 SUB SWAP1 LOG3 POP POP JUMP JUMPDEST PUSH8 0xFFFFFFFFFFFFFFFF DUP1 AND DUP3 PUSH8 0xFFFFFFFFFFFFFFFF AND SUB PUSH2 0x259B JUMPI DUP2 PUSH1 0x40 MLOAD PUSH32 0x1871A90C00000000000000000000000000000000000000000000000000000000 DUP2 MSTORE PUSH1 0x4 ADD PUSH2 0x2592 SWAP2 SWAP1 PUSH2 0x34B6 JUMP JUMPDEST PUSH1 0x40 MLOAD DUP1 SWAP2 SUB SWAP1 REVERT JUMPDEST PUSH1 0x0 PUSH2 0x260D DUP3 PUSH2 0x25A9 PUSH2 0x1398 JUMP JUMPDEST PUSH1 0x1 PUSH1 0x0 DUP8 PUSH8 0xFFFFFFFFFFFFFFFF AND PUSH8 0xFFFFFFFFFFFFFFFF AND DUP2 MSTORE PUSH1 0x20 ADD SWAP1 DUP2 MSTORE PUSH1 0x20 ADD PUSH1 0x0 KECCAK256 PUSH1 0x1 ADD PUSH1 0x10 SWAP1 SLOAD SWAP1 PUSH2 0x100 EXP SWAP1 DIV PUSH14 0xFFFFFFFFFFFFFFFFFFFFFFFFFFFF AND PUSH14 0xFFFFFFFFFFFFFFFFFFFFFFFFFFFF AND PUSH2 0x30DD SWAP1 SWAP3 SWAP2 SWAP1 PUSH4 0xFFFFFFFF AND JUMP JUMPDEST PUSH1 0x1 PUSH1 0x0 DUP7 PUSH8 0xFFFFFFFFFFFFFFFF AND PUSH8 0xFFFFFFFFFFFFFFFF AND DUP2 MSTORE PUSH1 0x20 ADD SWAP1 DUP2 MSTORE PUSH1 0x20 ADD PUSH1 0x0 KECCAK256 PUSH1 0x1 ADD PUSH1 0x10 DUP3 SWAP5 POP DUP4 SWAP2 SWAP1 PUSH2 0x100 EXP DUP2 SLOAD DUP2 PUSH14 0xFFFFFFFFFFFFFFFFFFFFFFFFFFFF MUL NOT AND SWAP1 DUP4 PUSH14 0xFFFFFFFFFFFFFFFFFFFFFFFFFFFF AND MUL OR SWAP1 SSTORE POP POP POP DUP3 PUSH8 0xFFFFFFFFFFFFFFFF AND PUSH32 0xFEB69018EE8B8FD50EA86348F1267D07673379F72CFFDECCEC63853EE8CE8B48 DUP4 DUP4 PUSH1 0x40 MLOAD PUSH2 0x26AD SWAP3 SWAP2 SWAP1 PUSH2 0x4451 JUMP JUMPDEST PUSH1 0x40 MLOAD DUP1 SWAP2 SUB SWAP1 LOG2 POP POP POP JUMP JUMPDEST PUSH1 0x0 SWAP1 JUMP JUMPDEST PUSH1 0x60 PUSH1 0x0 DUP1 DUP5 PUSH20 0xFFFFFFFFFFFFFFFFFFFFFFFFFFFFFFFFFFFFFFFF AND DUP5 PUSH1 0x40 MLOAD PUSH2 0x26E9 SWAP2 SWAP1 PUSH2 0x4403 JUMP JUMPDEST PUSH1 0x0 PUSH1 0x40 MLOAD DUP1 DUP4 SUB DUP2 DUP6 GAS DELEGATECALL SWAP2 POP POP RETURNDATASIZE DUP1 PUSH1 0x0 DUP2 EQ PUSH2 0x2724 JUMPI PUSH1 0x40 MLOAD SWAP2 POP PUSH1 0x1F NOT PUSH1 0x3F RETURNDATASIZE ADD AND DUP3 ADD PUSH1 0x40 MSTORE RETURNDATASIZE DUP3 MSTORE RETURNDATASIZE PUSH1 0x0 PUSH1 0x20 DUP5 ADD RETURNDATACOPY PUSH2 0x2729 JUMP JUMPDEST PUSH1 0x60 SWAP2 POP JUMPDEST POP SWAP2 POP SWAP2 POP PUSH2 0x2739 DUP6 DUP4 DUP4 PUSH2 0x303E JUMP JUMPDEST SWAP3 POP POP POP SWAP3 SWAP2 POP POP JUMP JUMPDEST PUSH1 0x0 PUSH2 0x274F DUP4 DUP4 PUSH2 0x1DF5 JUMP JUMPDEST PUSH1 0x3 SLOAD EQ SWAP1 POP SWAP3 SWAP2 POP POP JUMP JUMPDEST PUSH1 0x0 PUSH8 0xFFFFFFFFFFFFFFFF DUP1 AND DUP4 PUSH8 0xFFFFFFFFFFFFFFFF AND SUB PUSH2 0x27B5 JUMPI DUP3 PUSH1 0x40 MLOAD PUSH32 0x1871A90C00000000000000000000000000000000000000000000000000000000 DUP2 MSTORE PUSH1 0x4 ADD PUSH2 0x27AC SWAP2 SWAP1 PUSH2 0x34B6 JUMP JUMPDEST PUSH1 0x40 MLOAD DUP1 SWAP2 SUB SWAP1 REVERT JUMPDEST PUSH1 0x0 PUSH1 0x1 PUSH1 0x0 DUP6 PUSH8 0xFFFFFFFFFFFFFFFF AND PUSH8 0xFFFFFFFFFFFFFFFF AND DUP2 MSTORE PUSH1 0x20 ADD SWAP1 DUP2 MSTORE PUSH1 0x20 ADD PUSH1 0x0 KECCAK256 PUSH1 0x0 ADD PUSH1 0x0 DUP5 PUSH20 0xFFFFFFFFFFFFFFFFFFFFFFFFFFFFFFFFFFFFFFFF AND PUSH20 0xFFFFFFFFFFFFFFFFFFFFFFFFFFFFFFFFFFFFFFFF AND DUP2 MSTORE PUSH1 0x20 ADD SWAP1 DUP2 MSTORE PUSH1 0x20 ADD PUSH1 0x0 KECCAK256 PUSH1 0x0 ADD PUSH1 0x0 SWAP1 SLOAD SWAP1 PUSH2 0x100 EXP SWAP1 DIV PUSH6 0xFFFFFFFFFFFF AND PUSH6 0xFFFFFFFFFFFF AND SUB PUSH2 0x284A JUMPI PUSH1 0x0 SWAP1 POP PUSH2 0x2941 JUMP JUMPDEST PUSH1 0x1 PUSH1 0x0 DUP5 PUSH8 0xFFFFFFFFFFFFFFFF AND PUSH8 0xFFFFFFFFFFFFFFFF AND DUP2 MSTORE PUSH1 0x20 ADD SWAP1 DUP2 MSTORE PUSH1 0x20 ADD PUSH1 0x0 KECCAK256 PUSH1 0x0 ADD PUSH1 0x0 DUP4 PUSH20 0xFFFFFFFFFFFFFFFFFFFFFFFFFFFFFFFFFFFFFFFF AND PUSH20 0xFFFFFFFFFFFFFFFFFFFFFFFFFFFFFFFFFFFFFFFF AND DUP2 MSTORE PUSH1 0x20 ADD SWAP1 DUP2 MSTORE PUSH1 0x20 ADD PUSH1 0x0 KECCAK256 PUSH1 0x0 DUP1 DUP3 ADD PUSH1 0x0 PUSH2 0x100 EXP DUP2 SLOAD SWAP1 PUSH6 0xFFFFFFFFFFFF MUL NOT AND SWAP1 SSTORE PUSH1 0x0 DUP3 ADD PUSH1 0x6 PUSH2 0x100 EXP DUP2 SLOAD SWAP1 PUSH14 0xFFFFFFFFFFFFFFFFFFFFFFFFFFFF MUL NOT AND SWAP1 SSTORE POP POP DUP2 PUSH20 0xFFFFFFFFFFFFFFFFFFFFFFFFFFFFFFFFFFFFFFFF AND DUP4 PUSH8 0xFFFFFFFFFFFFFFFF AND PUSH32 0xF229BAA593AF28C41B1D16B748CD7688F0C83AAF92D4BE41C44005DEFE84C166 PUSH1 0x40 MLOAD PUSH1 0x40 MLOAD DUP1 SWAP2 SUB SWAP1 LOG3 PUSH1 0x1 SWAP1 POP JUMPDEST SWAP3 SWAP2 POP POP JUMP JUMPDEST PUSH1 0x0 PUSH2 0x2952 TIMESTAMP PUSH2 0x31CC JUMP JUMPDEST SWAP1 POP SWAP1 JUMP JUMPDEST PUSH1 0x0 PUSH2 0x29E0 DUP3 PUSH2 0x2965 PUSH2 0x1398 JUMP JUMPDEST PUSH1 0x0 DUP1 DUP8 PUSH20 0xFFFFFFFFFFFFFFFFFFFFFFFFFFFFFFFFFFFFFFFF AND PUSH20 0xFFFFFFFFFFFFFFFFFFFFFFFFFFFFFFFFFFFFFFFF AND DUP2 MSTORE PUSH1 0x20 ADD SWAP1 DUP2 MSTORE PUSH1 0x20 ADD PUSH1 0x0 KECCAK256 PUSH1 0x1 ADD PUSH1 0x0 SWAP1 SLOAD SWAP1 PUSH2 0x100 EXP SWAP1 DIV PUSH14 0xFFFFFFFFFFFFFFFFFFFFFFFFFFFF AND PUSH14 0xFFFFFFFFFFFFFFFFFFFFFFFFFFFF AND PUSH2 0x30DD SWAP1 SWAP3 SWAP2 SWAP1 PUSH4 0xFFFFFFFF AND JUMP JUMPDEST PUSH1 0x0 DUP1 DUP7 PUSH20 0xFFFFFFFFFFFFFFFFFFFFFFFFFFFFFFFFFFFFFFFF AND PUSH20 0xFFFFFFFFFFFFFFFFFFFFFFFFFFFFFFFFFFFFFFFF AND DUP2 MSTORE PUSH1 0x20 ADD SWAP1 DUP2 MSTORE PUSH1 0x20 ADD PUSH1 0x0 KECCAK256 PUSH1 0x1 ADD PUSH1 0x0 DUP3 SWAP5 POP DUP4 SWAP2 SWAP1 PUSH2 0x100 EXP DUP2 SLOAD DUP2 PUSH14 0xFFFFFFFFFFFFFFFFFFFFFFFFFFFF MUL NOT AND SWAP1 DUP4 PUSH14 0xFFFFFFFFFFFFFFFFFFFFFFFFFFFF AND MUL OR SWAP1 SSTORE POP POP POP DUP3 PUSH20 0xFFFFFFFFFFFFFFFFFFFFFFFFFFFFFFFFFFFFFFFF AND PUSH32 0xA56B76017453F399EC2327BA00375DBFB1FD070FF854341AD6191E6A2E2DE19C DUP4 DUP4 PUSH1 0x40 MLOAD PUSH2 0x2AA3 SWAP3 SWAP2 SWAP1 PUSH2 0x4451 JUMP JUMPDEST PUSH1 0x40 MLOAD DUP1 SWAP2 SUB SWAP1 LOG2 POP POP POP JUMP JUMPDEST PUSH1 0x0 DUP2 DUP4 GT PUSH2 0x2ABF JUMPI DUP2 PUSH2 0x2AC1 JUMP JUMPDEST DUP3 JUMPDEST SWAP1 POP SWAP3 SWAP2 POP POP JUMP JUMPDEST PUSH1 0x0 PUSH1 0x2 PUSH1 0x0 DUP4 DUP2 MSTORE PUSH1 0x20 ADD SWAP1 DUP2 MSTORE PUSH1 0x20 ADD PUSH1 0x0 KECCAK256 PUSH1 0x0 ADD PUSH1 0x0 SWAP1 SLOAD SWAP1 PUSH2 0x100 EXP SWAP1 DIV PUSH6 0xFFFFFFFFFFFF AND SWAP1 POP PUSH1 0x0 DUP2 PUSH6 0xFFFFFFFFFFFF AND EQ ISZERO DUP1 ISZERO PUSH2 0x2B15 JUMPI POP PUSH2 0x2B13 DUP2 PUSH2 0x23F8 JUMP JUMPDEST ISZERO JUMPDEST ISZERO PUSH2 0x2B57 JUMPI DUP2 PUSH1 0x40 MLOAD PUSH32 0x813E945900000000000000000000000000000000000000000000000000000000 DUP2 MSTORE PUSH1 0x4 ADD PUSH2 0x2B4E SWAP2 SWAP1 PUSH2 0x3AC4 JUMP JUMPDEST PUSH1 0x40 MLOAD DUP1 SWAP2 SUB SWAP1 REVERT JUMPDEST POP POP JUMP JUMPDEST CALLDATASIZE PUSH1 0x0 DUP1 CALLDATASIZE SWAP2 POP SWAP2 POP SWAP1 SWAP2 JUMP JUMPDEST PUSH1 0x0 DUP1 PUSH1 0x4 DUP5 DUP5 SWAP1 POP LT ISZERO PUSH2 0x2B83 JUMPI PUSH1 0x0 DUP1 SWAP2 POP SWAP2 POP PUSH2 0x2C4E JUMP JUMPDEST ADDRESS PUSH20 0xFFFFFFFFFFFFFFFFFFFFFFFFFFFFFFFFFFFFFFFF AND DUP6 PUSH20 0xFFFFFFFFFFFFFFFFFFFFFFFFFFFFFFFFFFFFFFFF AND SUB PUSH2 0x2BD4 JUMPI PUSH2 0x2BC9 ADDRESS PUSH2 0x2BC4 DUP7 DUP7 PUSH2 0x1C16 JUMP JUMPDEST PUSH2 0x2743 JUMP JUMPDEST PUSH1 0x0 SWAP2 POP SWAP2 POP PUSH2 0x2C4E JUMP JUMPDEST PUSH1 0x0 DUP1 PUSH1 0x0 PUSH2 0x2BE3 DUP8 DUP8 PUSH2 0x2C56 JUMP JUMPDEST SWAP3 POP SWAP3 POP SWAP3 POP DUP3 PUSH2 0x2BFD JUMPI PUSH1 0x0 DUP1 SWAP5 POP SWAP5 POP POP POP POP PUSH2 0x2C4E JUMP JUMPDEST PUSH1 0x0 DUP1 PUSH2 0x2C0A DUP5 DUP12 PUSH2 0x13A3 JUMP JUMPDEST SWAP2 POP SWAP2 POP DUP2 PUSH2 0x2C24 JUMPI PUSH1 0x0 DUP1 SWAP7 POP SWAP7 POP POP POP POP POP POP PUSH2 0x2C4E JUMP JUMPDEST PUSH2 0x2C3A DUP4 PUSH4 0xFFFFFFFF AND DUP3 PUSH4 0xFFFFFFFF AND PUSH2 0x2AB0 JUMP JUMPDEST SWAP6 POP PUSH1 0x0 DUP7 PUSH4 0xFFFFFFFF AND EQ SWAP7 POP POP POP POP POP POP JUMPDEST SWAP4 POP SWAP4 SWAP2 POP POP JUMP JUMPDEST PUSH1 0x0 DUP1 PUSH1 0x0 PUSH1 0x4 DUP6 DUP6 SWAP1 POP LT ISZERO PUSH2 0x2C77 JUMPI PUSH1 0x0 DUP1 PUSH1 0x0 SWAP3 POP SWAP3 POP SWAP3 POP PUSH2 0x3037 JUMP JUMPDEST PUSH1 0x0 PUSH2 0x2C83 DUP7 DUP7 PUSH2 0x1C16 JUMP JUMPDEST SWAP1 POP PUSH4 0x853551B8 PUSH1 0xE0 SHL PUSH28 0xFFFFFFFFFFFFFFFFFFFFFFFFFFFFFFFFFFFFFFFFFFFFFFFFFFFFFFFF NOT AND DUP2 PUSH28 0xFFFFFFFFFFFFFFFFFFFFFFFFFFFFFFFFFFFFFFFFFFFFFFFFFFFFFFFF NOT AND EQ DUP1 PUSH2 0x2D1C JUMPI POP PUSH4 0x30CAE187 PUSH1 0xE0 SHL PUSH28 0xFFFFFFFFFFFFFFFFFFFFFFFFFFFFFFFFFFFFFFFFFFFFFFFFFFFFFFFF NOT AND DUP2 PUSH28 0xFFFFFFFFFFFFFFFFFFFFFFFFFFFFFFFFFFFFFFFFFFFFFFFFFFFFFFFF NOT AND EQ JUMPDEST DUP1 PUSH2 0x2D6B JUMPI POP PUSH4 0x52962952 PUSH1 0xE0 SHL PUSH28 0xFFFFFFFFFFFFFFFFFFFFFFFFFFFFFFFFFFFFFFFFFFFFFFFFFFFFFFFF NOT AND DUP2 PUSH28 0xFFFFFFFFFFFFFFFFFFFFFFFFFFFFFFFFFFFFFFFFFFFFFFFFFFFFFFFF NOT AND EQ JUMPDEST DUP1 PUSH2 0x2DBA JUMPI POP PUSH4 0xA64D95CE PUSH1 0xE0 SHL PUSH28 0xFFFFFFFFFFFFFFFFFFFFFFFFFFFFFFFFFFFFFFFFFFFFFFFFFFFFFFFF NOT AND DUP2 PUSH28 0xFFFFFFFFFFFFFFFFFFFFFFFFFFFFFFFFFFFFFFFFFFFFFFFFFFFFFFFF NOT AND EQ JUMPDEST DUP1 PUSH2 0x2E09 JUMPI POP PUSH4 0xD22B5989 PUSH1 0xE0 SHL PUSH28 0xFFFFFFFFFFFFFFFFFFFFFFFFFFFFFFFFFFFFFFFFFFFFFFFFFFFFFFFF NOT AND DUP2 PUSH28 0xFFFFFFFFFFFFFFFFFFFFFFFFFFFFFFFFFFFFFFFFFFFFFFFFFFFFFFFF NOT AND EQ JUMPDEST ISZERO PUSH2 0x2E1F JUMPI PUSH1 0x1 PUSH1 0x0 DUP1 SWAP4 POP SWAP4 POP SWAP4 POP POP PUSH2 0x3037 JUMP JUMPDEST PUSH4 0x18FF183C PUSH1 0xE0 SHL PUSH28 0xFFFFFFFFFFFFFFFFFFFFFFFFFFFFFFFFFFFFFFFFFFFFFFFFFFFFFFFF NOT AND DUP2 PUSH28 0xFFFFFFFFFFFFFFFFFFFFFFFFFFFFFFFFFFFFFFFFFFFFFFFFFFFFFFFF NOT AND EQ DUP1 PUSH2 0x2EB6 JUMPI POP PUSH4 0x167BD395 PUSH1 0xE0 SHL PUSH28 0xFFFFFFFFFFFFFFFFFFFFFFFFFFFFFFFFFFFFFFFFFFFFFFFFFFFFFFFF NOT AND DUP2 PUSH28 0xFFFFFFFFFFFFFFFFFFFFFFFFFFFFFFFFFFFFFFFFFFFFFFFFFFFFFFFF NOT AND EQ JUMPDEST DUP1 PUSH2 0x2F05 JUMPI POP PUSH4 0x8D6122D PUSH1 0xE0 SHL PUSH28 0xFFFFFFFFFFFFFFFFFFFFFFFFFFFFFFFFFFFFFFFFFFFFFFFFFFFFFFFF NOT AND DUP2 PUSH28 0xFFFFFFFFFFFFFFFFFFFFFFFFFFFFFFFFFFFFFFFFFFFFFFFFFFFFFFFF NOT AND EQ JUMPDEST ISZERO PUSH2 0x2F4F JUMPI PUSH1 0x0 DUP7 DUP7 PUSH1 0x4 SWAP1 PUSH1 0x24 SWAP3 PUSH2 0x2F20 SWAP4 SWAP3 SWAP2 SWAP1 PUSH2 0x40EF JUMP JUMPDEST DUP2 ADD SWAP1 PUSH2 0x2F2D SWAP2 SWAP1 PUSH2 0x44B8 JUMP JUMPDEST SWAP1 POP PUSH1 0x0 PUSH2 0x2F3A DUP3 PUSH2 0xCD3 JUMP JUMPDEST SWAP1 POP PUSH1 0x1 PUSH1 0x0 DUP3 SWAP6 POP SWAP6 POP SWAP6 POP POP POP POP PUSH2 0x3037 JUMP JUMPDEST PUSH4 0x25C471A0 PUSH1 0xE0 SHL PUSH28 0xFFFFFFFFFFFFFFFFFFFFFFFFFFFFFFFFFFFFFFFFFFFFFFFFFFFFFFFF NOT AND DUP2 PUSH28 0xFFFFFFFFFFFFFFFFFFFFFFFFFFFFFFFFFFFFFFFFFFFFFFFFFFFFFFFF NOT AND EQ DUP1 PUSH2 0x2FE6 JUMPI POP PUSH4 0xB7D2B162 PUSH1 0xE0 SHL PUSH28 0xFFFFFFFFFFFFFFFFFFFFFFFFFFFFFFFFFFFFFFFFFFFFFFFFFFFFFFFF NOT AND DUP2 PUSH28 0xFFFFFFFFFFFFFFFFFFFFFFFFFFFFFFFFFFFFFFFFFFFFFFFFFFFFFFFF NOT AND EQ JUMPDEST ISZERO PUSH2 0x302A JUMPI PUSH1 0x0 DUP7 DUP7 PUSH1 0x4 SWAP1 PUSH1 0x24 SWAP3 PUSH2 0x3001 SWAP4 SWAP3 SWAP2 SWAP1 PUSH2 0x40EF JUMP JUMPDEST DUP2 ADD SWAP1 PUSH2 0x300E SWAP2 SWAP1 PUSH2 0x347A JUMP JUMPDEST SWAP1 POP PUSH1 0x1 PUSH2 0x301B DUP3 PUSH2 0xD66 JUMP JUMPDEST PUSH1 0x0 SWAP5 POP SWAP5 POP SWAP5 POP POP POP PUSH2 0x3037 JUMP JUMPDEST PUSH1 0x0 DUP1 PUSH1 0x0 SWAP4 POP SWAP4 POP SWAP4 POP POP JUMPDEST SWAP3 POP SWAP3 POP SWAP3 JUMP JUMPDEST PUSH1 0x60 DUP3 PUSH2 0x3053 JUMPI PUSH2 0x304E DUP3 PUSH2 0x3226 JUMP JUMPDEST PUSH2 0x30C5 JUMP JUMPDEST PUSH1 0x0 DUP3 MLOAD EQ DUP1 ISZERO PUSH2 0x307B JUMPI POP PUSH1 0x0 DUP5 PUSH20 0xFFFFFFFFFFFFFFFFFFFFFFFFFFFFFFFFFFFFFFFF AND EXTCODESIZE EQ JUMPDEST ISZERO PUSH2 0x30BD JUMPI DUP4 PUSH1 0x40 MLOAD PUSH32 0x9996B31500000000000000000000000000000000000000000000000000000000 DUP2 MSTORE PUSH1 0x4 ADD PUSH2 0x30B4 SWAP2 SWAP1 PUSH2 0x3EE6 JUMP JUMPDEST PUSH1 0x40 MLOAD DUP1 SWAP2 SUB SWAP1 REVERT JUMPDEST DUP2 SWAP1 POP PUSH2 0x30C6 JUMP JUMPDEST JUMPDEST SWAP4 SWAP3 POP POP POP JUMP JUMPDEST PUSH1 0x0 DUP2 PUSH4 0xFFFFFFFF AND SWAP1 POP SWAP2 SWAP1 POP JUMP JUMPDEST PUSH1 0x0 DUP1 PUSH1 0x0 PUSH2 0x30FB DUP7 PUSH14 0xFFFFFFFFFFFFFFFFFFFFFFFFFFFF AND PUSH2 0x1A4A JUMP JUMPDEST SWAP1 POP PUSH1 0x0 PUSH2 0x313B DUP6 PUSH4 0xFFFFFFFF AND DUP8 PUSH4 0xFFFFFFFF AND DUP5 PUSH4 0xFFFFFFFF AND GT PUSH2 0x3123 JUMPI PUSH1 0x0 PUSH2 0x3130 JUMP JUMPDEST DUP8 DUP5 PUSH2 0x312F SWAP2 SWAP1 PUSH2 0x44E5 JUMP JUMPDEST JUMPDEST PUSH4 0xFFFFFFFF AND PUSH2 0x2AB0 JUMP JUMPDEST SWAP1 POP DUP1 PUSH4 0xFFFFFFFF AND PUSH2 0x314C PUSH2 0x2947 JUMP JUMPDEST PUSH2 0x3156 SWAP2 SWAP1 PUSH2 0x4297 JUMP JUMPDEST SWAP3 POP PUSH2 0x3163 DUP3 DUP8 DUP6 PUSH2 0x326B JUMP JUMPDEST SWAP4 POP POP POP SWAP4 POP SWAP4 SWAP2 POP POP JUMP JUMPDEST PUSH1 0x0 DUP1 PUSH1 0x0 DUP1 PUSH1 0x0 DUP1 PUSH2 0x3191 DUP9 PUSH14 0xFFFFFFFFFFFFFFFFFFFFFFFFFFFF AND PUSH2 0x32B7 JUMP JUMPDEST SWAP3 POP SWAP3 POP SWAP3 POP DUP7 PUSH6 0xFFFFFFFFFFFF AND DUP2 PUSH6 0xFFFFFFFFFFFF AND GT ISZERO PUSH2 0x31B7 JUMPI DUP3 DUP3 DUP3 PUSH2 0x31BC JUMP JUMPDEST DUP2 PUSH1 0x0 DUP1 JUMPDEST SWAP6 POP SWAP6 POP SWAP6 POP POP POP POP SWAP3 POP SWAP3 POP SWAP3 JUMP JUMPDEST PUSH1 0x0 PUSH6 0xFFFFFFFFFFFF DUP1 AND DUP3 GT ISZERO PUSH2 0x321E JUMPI PUSH1 0x30 DUP3 PUSH1 0x40 MLOAD PUSH32 0x6DFCC65000000000000000000000000000000000000000000000000000000000 DUP2 MSTORE PUSH1 0x4 ADD PUSH2 0x3215 SWAP3 SWAP2 SWAP1 PUSH2 0x457E JUMP JUMPDEST PUSH1 0x40 MLOAD DUP1 SWAP2 SUB SWAP1 REVERT JUMPDEST DUP2 SWAP1 POP SWAP2 SWAP1 POP JUMP JUMPDEST PUSH1 0x0 DUP2 MLOAD GT ISZERO PUSH2 0x3239 JUMPI DUP1 MLOAD DUP1 DUP3 PUSH1 0x20 ADD REVERT JUMPDEST PUSH1 0x40 MLOAD PUSH32 0x1425EA4200000000000000000000000000000000000000000000000000000000 DUP2 MSTORE PUSH1 0x4 ADD PUSH1 0x40 MLOAD DUP1 SWAP2 SUB SWAP1 REVERT JUMPDEST PUSH1 0x0 DUP3 PUSH4 0xFFFFFFFF AND PUSH1 0x20 DUP6 PUSH4 0xFFFFFFFF AND PUSH14 0xFFFFFFFFFFFFFFFFFFFFFFFFFFFF AND SWAP1 SHL PUSH1 0x40 DUP5 PUSH6 0xFFFFFFFFFFFF AND PUSH14 0xFFFFFFFFFFFFFFFFFFFFFFFFFFFF AND SWAP1 SHL OR OR SWAP1 POP SWAP4 SWAP3 POP POP POP JUMP JUMPDEST PUSH1 0x0 DUP1 PUSH1 0x0 DUP1 DUP5 SWAP1 POP DUP1 SWAP3 POP PUSH1 0x20 DUP2 PUSH14 0xFFFFFFFFFFFFFFFFFFFFFFFFFFFF AND SWAP1 SHR SWAP4 POP PUSH1 0x40 DUP2 PUSH14 0xFFFFFFFFFFFFFFFFFFFFFFFFFFFF AND SWAP1 SHR SWAP2 POP POP SWAP2 SWAP4 SWAP1 SWAP3 POP JUMP JUMPDEST PUSH1 0x0 DUP1 REVERT JUMPDEST PUSH1 0x0 DUP1 REVERT JUMPDEST PUSH1 0x0 PUSH20 0xFFFFFFFFFFFFFFFFFFFFFFFFFFFFFFFFFFFFFFFF DUP3 AND SWAP1 POP SWAP2 SWAP1 POP JUMP JUMPDEST PUSH1 0x0 PUSH2 0x332E DUP3 PUSH2 0x3303 JUMP JUMPDEST SWAP1 POP SWAP2 SWAP1 POP JUMP JUMPDEST PUSH2 0x333E DUP2 PUSH2 0x3323 JUMP JUMPDEST DUP2 EQ PUSH2 0x3349 JUMPI PUSH1 0x0 DUP1 REVERT JUMPDEST POP JUMP JUMPDEST PUSH1 0x0 DUP2 CALLDATALOAD SWAP1 POP PUSH2 0x335B DUP2 PUSH2 0x3335 JUMP JUMPDEST SWAP3 SWAP2 POP POP JUMP JUMPDEST PUSH1 0x0 DUP1 REVERT JUMPDEST PUSH1 0x0 DUP1 REVERT JUMPDEST PUSH1 0x0 DUP1 REVERT JUMPDEST PUSH1 0x0 DUP1 DUP4 PUSH1 0x1F DUP5 ADD SLT PUSH2 0x3386 JUMPI PUSH2 0x3385 PUSH2 0x3361 JUMP JUMPDEST JUMPDEST DUP3 CALLDATALOAD SWAP1 POP PUSH8 0xFFFFFFFFFFFFFFFF DUP2 GT ISZERO PUSH2 0x33A3 JUMPI PUSH2 0x33A2 PUSH2 0x3366 JUMP JUMPDEST JUMPDEST PUSH1 0x20 DUP4 ADD SWAP2 POP DUP4 PUSH1 0x20 DUP3 MUL DUP4 ADD GT ISZERO PUSH2 0x33BF JUMPI PUSH2 0x33BE PUSH2 0x336B JUMP JUMPDEST JUMPDEST SWAP3 POP SWAP3 SWAP1 POP JUMP JUMPDEST PUSH1 0x0 PUSH8 0xFFFFFFFFFFFFFFFF DUP3 AND SWAP1 POP SWAP2 SWAP1 POP JUMP JUMPDEST PUSH2 0x33E3 DUP2 PUSH2 0x33C6 JUMP JUMPDEST DUP2 EQ PUSH2 0x33EE JUMPI PUSH1 0x0 DUP1 REVERT JUMPDEST POP JUMP JUMPDEST PUSH1 0x0 DUP2 CALLDATALOAD SWAP1 POP PUSH2 0x3400 DUP2 PUSH2 0x33DA JUMP JUMPDEST SWAP3 SWAP2 POP POP JUMP JUMPDEST PUSH1 0x0 DUP1 PUSH1 0x0 DUP1 PUSH1 0x60 DUP6 DUP8 SUB SLT ISZERO PUSH2 0x3420 JUMPI PUSH2 0x341F PUSH2 0x32F9 JUMP JUMPDEST JUMPDEST PUSH1 0x0 PUSH2 0x342E DUP8 DUP3 DUP9 ADD PUSH2 0x334C JUMP JUMPDEST SWAP5 POP POP PUSH1 0x20 DUP6 ADD CALLDATALOAD PUSH8 0xFFFFFFFFFFFFFFFF DUP2 GT ISZERO PUSH2 0x344F JUMPI PUSH2 0x344E PUSH2 0x32FE JUMP JUMPDEST JUMPDEST PUSH2 0x345B DUP8 DUP3 DUP9 ADD PUSH2 0x3370 JUMP JUMPDEST SWAP4 POP SWAP4 POP POP PUSH1 0x40 PUSH2 0x346E DUP8 DUP3 DUP9 ADD PUSH2 0x33F1 JUMP JUMPDEST SWAP2 POP POP SWAP3 SWAP6 SWAP2 SWAP5 POP SWAP3 POP JUMP JUMPDEST PUSH1 0x0 PUSH1 0x20 DUP3 DUP5 SUB SLT ISZERO PUSH2 0x3490 JUMPI PUSH2 0x348F PUSH2 0x32F9 JUMP JUMPDEST JUMPDEST PUSH1 0x0 PUSH2 0x349E DUP5 DUP3 DUP6 ADD PUSH2 0x33F1 JUMP JUMPDEST SWAP2 POP POP SWAP3 SWAP2 POP POP JUMP JUMPDEST PUSH2 0x34B0 DUP2 PUSH2 0x33C6 JUMP JUMPDEST DUP3 MSTORE POP POP JUMP JUMPDEST PUSH1 0x0 PUSH1 0x20 DUP3 ADD SWAP1 POP PUSH2 0x34CB PUSH1 0x0 DUP4 ADD DUP5 PUSH2 0x34A7 JUMP JUMPDEST SWAP3 SWAP2 POP POP JUMP JUMPDEST PUSH1 0x0 PUSH4 0xFFFFFFFF DUP3 AND SWAP1 POP SWAP2 SWAP1 POP JUMP JUMPDEST PUSH2 0x34EA DUP2 PUSH2 0x34D1 JUMP JUMPDEST DUP3 MSTORE POP POP JUMP JUMPDEST PUSH1 0x0 PUSH1 0x20 DUP3 ADD SWAP1 POP PUSH2 0x3505 PUSH1 0x0 DUP4 ADD DUP5 PUSH2 0x34E1 JUMP JUMPDEST SWAP3 SWAP2 POP POP JUMP JUMPDEST PUSH1 0x0 DUP2 ISZERO ISZERO SWAP1 POP SWAP2 SWAP1 POP JUMP JUMPDEST PUSH2 0x3520 DUP2 PUSH2 0x350B JUMP JUMPDEST DUP2 EQ PUSH2 0x352B JUMPI PUSH1 0x0 DUP1 REVERT JUMPDEST POP JUMP JUMPDEST PUSH1 0x0 DUP2 CALLDATALOAD SWAP1 POP PUSH2 0x353D DUP2 PUSH2 0x3517 JUMP JUMPDEST SWAP3 SWAP2 POP POP JUMP JUMPDEST PUSH1 0x0 DUP1 PUSH1 0x40 DUP4 DUP6 SUB SLT ISZERO PUSH2 0x355A JUMPI PUSH2 0x3559 PUSH2 0x32F9 JUMP JUMPDEST JUMPDEST PUSH1 0x0 PUSH2 0x3568 DUP6 DUP3 DUP7 ADD PUSH2 0x334C JUMP JUMPDEST SWAP3 POP POP PUSH1 0x20 PUSH2 0x3579 DUP6 DUP3 DUP7 ADD PUSH2 0x352E JUMP JUMPDEST SWAP2 POP POP SWAP3 POP SWAP3 SWAP1 POP JUMP JUMPDEST PUSH1 0x0 DUP1 PUSH1 0x40 DUP4 DUP6 SUB SLT ISZERO PUSH2 0x359A JUMPI PUSH2 0x3599 PUSH2 0x32F9 JUMP JUMPDEST JUMPDEST PUSH1 0x0 PUSH2 0x35A8 DUP6 DUP3 DUP7 ADD PUSH2 0x334C JUMP JUMPDEST SWAP3 POP POP PUSH1 0x20 PUSH2 0x35B9 DUP6 DUP3 DUP7 ADD PUSH2 0x334C JUMP JUMPDEST SWAP2 POP POP SWAP3 POP SWAP3 SWAP1 POP JUMP JUMPDEST PUSH1 0x0 DUP1 DUP4 PUSH1 0x1F DUP5 ADD SLT PUSH2 0x35D9 JUMPI PUSH2 0x35D8 PUSH2 0x3361 JUMP JUMPDEST JUMPDEST DUP3 CALLDATALOAD SWAP1 POP PUSH8 0xFFFFFFFFFFFFFFFF DUP2 GT ISZERO PUSH2 0x35F6 JUMPI PUSH2 0x35F5 PUSH2 0x3366 JUMP JUMPDEST JUMPDEST PUSH1 0x20 DUP4 ADD SWAP2 POP DUP4 PUSH1 0x1 DUP3 MUL DUP4 ADD GT ISZERO PUSH2 0x3612 JUMPI PUSH2 0x3611 PUSH2 0x336B JUMP JUMPDEST JUMPDEST SWAP3 POP SWAP3 SWAP1 POP JUMP JUMPDEST PUSH1 0x0 DUP1 PUSH1 0x0 PUSH1 0x40 DUP5 DUP7 SUB SLT ISZERO PUSH2 0x3632 JUMPI PUSH2 0x3631 PUSH2 0x32F9 JUMP JUMPDEST JUMPDEST PUSH1 0x0 PUSH2 0x3640 DUP7 DUP3 DUP8 ADD PUSH2 0x334C JUMP JUMPDEST SWAP4 POP POP PUSH1 0x20 DUP5 ADD CALLDATALOAD PUSH8 0xFFFFFFFFFFFFFFFF DUP2 GT ISZERO PUSH2 0x3661 JUMPI PUSH2 0x3660 PUSH2 0x32FE JUMP JUMPDEST JUMPDEST PUSH2 0x366D DUP7 DUP3 DUP8 ADD PUSH2 0x35C3 JUMP JUMPDEST SWAP3 POP SWAP3 POP POP SWAP3 POP SWAP3 POP SWAP3 JUMP JUMPDEST PUSH2 0x3682 DUP2 PUSH2 0x34D1 JUMP JUMPDEST DUP2 EQ PUSH2 0x368D JUMPI PUSH1 0x0 DUP1 REVERT JUMPDEST POP JUMP JUMPDEST PUSH1 0x0 DUP2 CALLDATALOAD SWAP1 POP PUSH2 0x369F DUP2 PUSH2 0x3679 JUMP JUMPDEST SWAP3 SWAP2 POP POP JUMP JUMPDEST PUSH1 0x0 DUP1 PUSH1 0x0 PUSH1 0x60 DUP5 DUP7 SUB SLT ISZERO PUSH2 0x36BE JUMPI PUSH2 0x36BD PUSH2 0x32F9 JUMP JUMPDEST JUMPDEST PUSH1 0x0 PUSH2 0x36CC DUP7 DUP3 DUP8 ADD PUSH2 0x33F1 JUMP JUMPDEST SWAP4 POP POP PUSH1 0x20 PUSH2 0x36DD DUP7 DUP3 DUP8 ADD PUSH2 0x334C JUMP JUMPDEST SWAP3 POP POP PUSH1 0x40 PUSH2 0x36EE DUP7 DUP3 DUP8 ADD PUSH2 0x3690 JUMP JUMPDEST SWAP2 POP POP SWAP3 POP SWAP3 POP SWAP3 JUMP JUMPDEST PUSH1 0x0 DUP1 PUSH1 0x40 DUP4 DUP6 SUB SLT ISZERO PUSH2 0x370F JUMPI PUSH2 0x370E PUSH2 0x32F9 JUMP JUMPDEST JUMPDEST PUSH1 0x0 PUSH2 0x371D DUP6 DUP3 DUP7 ADD PUSH2 0x33F1 JUMP JUMPDEST SWAP3 POP POP PUSH1 0x20 PUSH2 0x372E DUP6 DUP3 DUP7 ADD PUSH2 0x334C JUMP JUMPDEST SWAP2 POP POP SWAP3 POP SWAP3 SWAP1 POP JUMP JUMPDEST PUSH1 0x0 PUSH6 0xFFFFFFFFFFFF DUP3 AND SWAP1 POP SWAP2 SWAP1 POP JUMP JUMPDEST PUSH2 0x3753 DUP2 PUSH2 0x3738 JUMP JUMPDEST DUP3 MSTORE POP POP JUMP JUMPDEST PUSH1 0x0 PUSH1 0x80 DUP3 ADD SWAP1 POP PUSH2 0x376E PUSH1 0x0 DUP4 ADD DUP8 PUSH2 0x374A JUMP JUMPDEST PUSH2 0x377B PUSH1 0x20 DUP4 ADD DUP7 PUSH2 0x34E1 JUMP JUMPDEST PUSH2 0x3788 PUSH1 0x40 DUP4 ADD DUP6 PUSH2 0x34E1 JUMP JUMPDEST PUSH2 0x3795 PUSH1 0x60 DUP4 ADD DUP5 PUSH2 0x374A JUMP JUMPDEST SWAP6 SWAP5 POP POP POP POP POP JUMP JUMPDEST PUSH1 0x0 DUP1 PUSH1 0x40 DUP4 DUP6 SUB SLT ISZERO PUSH2 0x37B5 JUMPI PUSH2 0x37B4 PUSH2 0x32F9 JUMP JUMPDEST JUMPDEST PUSH1 0x0 PUSH2 0x37C3 DUP6 DUP3 DUP7 ADD PUSH2 0x33F1 JUMP JUMPDEST SWAP3 POP POP PUSH1 0x20 PUSH2 0x37D4 DUP6 DUP3 DUP7 ADD PUSH2 0x33F1 JUMP JUMPDEST SWAP2 POP POP SWAP3 POP SWAP3 SWAP1 POP JUMP JUMPDEST PUSH1 0x0 DUP2 SWAP1 POP SWAP2 SWAP1 POP JUMP JUMPDEST PUSH2 0x37F1 DUP2 PUSH2 0x37DE JUMP JUMPDEST DUP2 EQ PUSH2 0x37FC JUMPI PUSH1 0x0 DUP1 REVERT JUMPDEST POP JUMP JUMPDEST PUSH1 0x0 DUP2 CALLDATALOAD SWAP1 POP PUSH2 0x380E DUP2 PUSH2 0x37E8 JUMP JUMPDEST SWAP3 SWAP2 POP POP JUMP JUMPDEST PUSH1 0x0 PUSH1 0x20 DUP3 DUP5 SUB SLT ISZERO PUSH2 0x382A JUMPI PUSH2 0x3829 PUSH2 0x32F9 JUMP JUMPDEST JUMPDEST PUSH1 0x0 PUSH2 0x3838 DUP5 DUP3 DUP6 ADD PUSH2 0x37FF JUMP JUMPDEST SWAP2 POP POP SWAP3 SWAP2 POP POP JUMP JUMPDEST PUSH1 0x0 PUSH1 0x20 DUP3 ADD SWAP1 POP PUSH2 0x3856 PUSH1 0x0 DUP4 ADD DUP5 PUSH2 0x374A JUMP JUMPDEST SWAP3 SWAP2 POP POP JUMP JUMPDEST PUSH1 0x0 PUSH1 0x20 DUP3 DUP5 SUB SLT ISZERO PUSH2 0x3872 JUMPI PUSH2 0x3871 PUSH2 0x32F9 JUMP JUMPDEST JUMPDEST PUSH1 0x0 PUSH2 0x3880 DUP5 DUP3 DUP6 ADD PUSH2 0x334C JUMP JUMPDEST SWAP2 POP POP SWAP3 SWAP2 POP POP JUMP JUMPDEST PUSH1 0x0 PUSH32 0xFFFFFFFF00000000000000000000000000000000000000000000000000000000 DUP3 AND SWAP1 POP SWAP2 SWAP1 POP JUMP JUMPDEST PUSH2 0x38BE DUP2 PUSH2 0x3889 JUMP JUMPDEST DUP2 EQ PUSH2 0x38C9 JUMPI PUSH1 0x0 DUP1 REVERT JUMPDEST POP JUMP JUMPDEST PUSH1 0x0 DUP2 CALLDATALOAD SWAP1 POP PUSH2 0x38DB DUP2 PUSH2 0x38B5 JUMP JUMPDEST SWAP3 SWAP2 POP POP JUMP JUMPDEST PUSH1 0x0 DUP1 PUSH1 0x40 DUP4 DUP6 SUB SLT ISZERO PUSH2 0x38F8 JUMPI PUSH2 0x38F7 PUSH2 0x32F9 JUMP JUMPDEST JUMPDEST PUSH1 0x0 PUSH2 0x3906 DUP6 DUP3 DUP7 ADD PUSH2 0x334C JUMP JUMPDEST SWAP3 POP POP PUSH1 0x20 PUSH2 0x3917 DUP6 DUP3 DUP7 ADD PUSH2 0x38CC JUMP JUMPDEST SWAP2 POP POP SWAP3 POP SWAP3 SWAP1 POP JUMP JUMPDEST PUSH1 0x0 DUP1 DUP4 PUSH1 0x1F DUP5 ADD SLT PUSH2 0x3937 JUMPI PUSH2 0x3936 PUSH2 0x3361 JUMP JUMPDEST JUMPDEST DUP3 CALLDATALOAD SWAP1 POP PUSH8 0xFFFFFFFFFFFFFFFF DUP2 GT ISZERO PUSH2 0x3954 JUMPI PUSH2 0x3953 PUSH2 0x3366 JUMP JUMPDEST JUMPDEST PUSH1 0x20 DUP4 ADD SWAP2 POP DUP4 PUSH1 0x1 DUP3 MUL DUP4 ADD GT ISZERO PUSH2 0x3970 JUMPI PUSH2 0x396F PUSH2 0x336B JUMP JUMPDEST JUMPDEST SWAP3 POP SWAP3 SWAP1 POP JUMP JUMPDEST PUSH1 0x0 DUP1 PUSH1 0x0 PUSH1 0x40 DUP5 DUP7 SUB SLT ISZERO PUSH2 0x3990 JUMPI PUSH2 0x398F PUSH2 0x32F9 JUMP JUMPDEST JUMPDEST PUSH1 0x0 PUSH2 0x399E DUP7 DUP3 DUP8 ADD PUSH2 0x33F1 JUMP JUMPDEST SWAP4 POP POP PUSH1 0x20 DUP5 ADD CALLDATALOAD PUSH8 0xFFFFFFFFFFFFFFFF DUP2 GT ISZERO PUSH2 0x39BF JUMPI PUSH2 0x39BE PUSH2 0x32FE JUMP JUMPDEST JUMPDEST PUSH2 0x39CB DUP7 DUP3 DUP8 ADD PUSH2 0x3921 JUMP JUMPDEST SWAP3 POP SWAP3 POP POP SWAP3 POP SWAP3 POP SWAP3 JUMP JUMPDEST PUSH2 0x39E0 DUP2 PUSH2 0x350B JUMP JUMPDEST DUP3 MSTORE POP POP JUMP JUMPDEST PUSH1 0x0 PUSH1 0x20 DUP3 ADD SWAP1 POP PUSH2 0x39FB PUSH1 0x0 DUP4 ADD DUP5 PUSH2 0x39D7 JUMP JUMPDEST SWAP3 SWAP2 POP POP JUMP JUMPDEST PUSH1 0x0 DUP1 PUSH1 0x40 DUP4 DUP6 SUB SLT ISZERO PUSH2 0x3A18 JUMPI PUSH2 0x3A17 PUSH2 0x32F9 JUMP JUMPDEST JUMPDEST PUSH1 0x0 PUSH2 0x3A26 DUP6 DUP3 DUP7 ADD PUSH2 0x33F1 JUMP JUMPDEST SWAP3 POP POP PUSH1 0x20 PUSH2 0x3A37 DUP6 DUP3 DUP7 ADD PUSH2 0x3690 JUMP JUMPDEST SWAP2 POP POP SWAP3 POP SWAP3 SWAP1 POP JUMP JUMPDEST PUSH1 0x0 DUP1 PUSH1 0x0 DUP1 PUSH1 0x60 DUP6 DUP8 SUB SLT ISZERO PUSH2 0x3A5B JUMPI PUSH2 0x3A5A PUSH2 0x32F9 JUMP JUMPDEST JUMPDEST PUSH1 0x0 PUSH2 0x3A69 DUP8 DUP3 DUP9 ADD PUSH2 0x334C JUMP JUMPDEST SWAP5 POP POP PUSH1 0x20 PUSH2 0x3A7A DUP8 DUP3 DUP9 ADD PUSH2 0x334C JUMP JUMPDEST SWAP4 POP POP PUSH1 0x40 DUP6 ADD CALLDATALOAD PUSH8 0xFFFFFFFFFFFFFFFF DUP2 GT ISZERO PUSH2 0x3A9B JUMPI PUSH2 0x3A9A PUSH2 0x32FE JUMP JUMPDEST JUMPDEST PUSH2 0x3AA7 DUP8 DUP3 DUP9 ADD PUSH2 0x35C3 JUMP JUMPDEST SWAP3 POP SWAP3 POP POP SWAP3 SWAP6 SWAP2 SWAP5 POP SWAP3 POP JUMP JUMPDEST PUSH2 0x3ABE DUP2 PUSH2 0x37DE JUMP JUMPDEST DUP3 MSTORE POP POP JUMP JUMPDEST PUSH1 0x0 PUSH1 0x20 DUP3 ADD SWAP1 POP PUSH2 0x3AD9 PUSH1 0x0 DUP4 ADD DUP5 PUSH2 0x3AB5 JUMP JUMPDEST SWAP3 SWAP2 POP POP JUMP JUMPDEST PUSH1 0x0 DUP1 DUP4 PUSH1 0x1F DUP5 ADD SLT PUSH2 0x3AF5 JUMPI PUSH2 0x3AF4 PUSH2 0x3361 JUMP JUMPDEST JUMPDEST DUP3 CALLDATALOAD SWAP1 POP PUSH8 0xFFFFFFFFFFFFFFFF DUP2 GT ISZERO PUSH2 0x3B12 JUMPI PUSH2 0x3B11 PUSH2 0x3366 JUMP JUMPDEST JUMPDEST PUSH1 0x20 DUP4 ADD SWAP2 POP DUP4 PUSH1 0x20 DUP3 MUL DUP4 ADD GT ISZERO PUSH2 0x3B2E JUMPI PUSH2 0x3B2D PUSH2 0x336B JUMP JUMPDEST JUMPDEST SWAP3 POP SWAP3 SWAP1 POP JUMP JUMPDEST PUSH1 0x0 DUP1 PUSH1 0x20 DUP4 DUP6 SUB SLT ISZERO PUSH2 0x3B4C JUMPI PUSH2 0x3B4B PUSH2 0x32F9 JUMP JUMPDEST JUMPDEST PUSH1 0x0 DUP4 ADD CALLDATALOAD PUSH8 0xFFFFFFFFFFFFFFFF DUP2 GT ISZERO PUSH2 0x3B6A JUMPI PUSH2 0x3B69 PUSH2 0x32FE JUMP JUMPDEST JUMPDEST PUSH2 0x3B76 DUP6 DUP3 DUP7 ADD PUSH2 0x3ADF JUMP JUMPDEST SWAP3 POP SWAP3 POP POP SWAP3 POP SWAP3 SWAP1 POP JUMP JUMPDEST PUSH1 0x0 DUP2 MLOAD SWAP1 POP SWAP2 SWAP1 POP JUMP JUMPDEST PUSH1 0x0 DUP3 DUP3 MSTORE PUSH1 0x20 DUP3 ADD SWAP1 POP SWAP3 SWAP2 POP POP JUMP JUMPDEST PUSH1 0x0 DUP2 SWAP1 POP PUSH1 0x20 DUP3 ADD SWAP1 POP SWAP2 SWAP1 POP JUMP JUMPDEST PUSH1 0x0 DUP2 MLOAD SWAP1 POP SWAP2 SWAP1 POP JUMP JUMPDEST PUSH1 0x0 DUP3 DUP3 MSTORE PUSH1 0x20 DUP3 ADD SWAP1 POP SWAP3 SWAP2 POP POP JUMP JUMPDEST PUSH1 0x0 JUMPDEST DUP4 DUP2 LT ISZERO PUSH2 0x3BE8 JUMPI DUP1 DUP3 ADD MLOAD DUP2 DUP5 ADD MSTORE PUSH1 0x20 DUP2 ADD SWAP1 POP PUSH2 0x3BCD JUMP JUMPDEST PUSH1 0x0 DUP5 DUP5 ADD MSTORE POP POP POP POP JUMP JUMPDEST PUSH1 0x0 PUSH1 0x1F NOT PUSH1 0x1F DUP4 ADD AND SWAP1 POP SWAP2 SWAP1 POP JUMP JUMPDEST PUSH1 0x0 PUSH2 0x3C10 DUP3 PUSH2 0x3BAE JUMP JUMPDEST PUSH2 0x3C1A DUP2 DUP6 PUSH2 0x3BB9 JUMP JUMPDEST SWAP4 POP PUSH2 0x3C2A DUP2 DUP6 PUSH1 0x20 DUP7 ADD PUSH2 0x3BCA JUMP JUMPDEST PUSH2 0x3C33 DUP2 PUSH2 0x3BF4 JUMP JUMPDEST DUP5 ADD SWAP2 POP POP SWAP3 SWAP2 POP POP JUMP JUMPDEST PUSH1 0x0 PUSH2 0x3C4A DUP4 DUP4 PUSH2 0x3C05 JUMP JUMPDEST SWAP1 POP SWAP3 SWAP2 POP POP JUMP JUMPDEST PUSH1 0x0 PUSH1 0x20 DUP3 ADD SWAP1 POP SWAP2 SWAP1 POP JUMP JUMPDEST PUSH1 0x0 PUSH2 0x3C6A DUP3 PUSH2 0x3B82 JUMP JUMPDEST PUSH2 0x3C74 DUP2 DUP6 PUSH2 0x3B8D JUMP JUMPDEST SWAP4 POP DUP4 PUSH1 0x20 DUP3 MUL DUP6 ADD PUSH2 0x3C86 DUP6 PUSH2 0x3B9E JUMP JUMPDEST DUP1 PUSH1 0x0 JUMPDEST DUP6 DUP2 LT ISZERO PUSH2 0x3CC2 JUMPI DUP5 DUP5 SUB DUP10 MSTORE DUP2 MLOAD PUSH2 0x3CA3 DUP6 DUP3 PUSH2 0x3C3E JUMP JUMPDEST SWAP5 POP PUSH2 0x3CAE DUP4 PUSH2 0x3C52 JUMP JUMPDEST SWAP3 POP PUSH1 0x20 DUP11 ADD SWAP10 POP POP PUSH1 0x1 DUP2 ADD SWAP1 POP PUSH2 0x3C8A JUMP JUMPDEST POP DUP3 SWAP8 POP DUP8 SWAP6 POP POP POP POP POP POP SWAP3 SWAP2 POP POP JUMP JUMPDEST PUSH1 0x0 PUSH1 0x20 DUP3 ADD SWAP1 POP DUP2 DUP2 SUB PUSH1 0x0 DUP4 ADD MSTORE PUSH2 0x3CEE DUP2 DUP5 PUSH2 0x3C5F JUMP JUMPDEST SWAP1 POP SWAP3 SWAP2 POP POP JUMP JUMPDEST PUSH1 0x0 DUP1 PUSH1 0x0 PUSH1 0x60 DUP5 DUP7 SUB SLT ISZERO PUSH2 0x3D0F JUMPI PUSH2 0x3D0E PUSH2 0x32F9 JUMP JUMPDEST JUMPDEST PUSH1 0x0 PUSH2 0x3D1D DUP7 DUP3 DUP8 ADD PUSH2 0x334C JUMP JUMPDEST SWAP4 POP POP PUSH1 0x20 PUSH2 0x3D2E DUP7 DUP3 DUP8 ADD PUSH2 0x334C JUMP JUMPDEST SWAP3 POP POP PUSH1 0x40 PUSH2 0x3D3F DUP7 DUP3 DUP8 ADD PUSH2 0x38CC JUMP JUMPDEST SWAP2 POP POP SWAP3 POP SWAP3 POP SWAP3 JUMP JUMPDEST PUSH1 0x0 PUSH1 0x40 DUP3 ADD SWAP1 POP PUSH2 0x3D5E PUSH1 0x0 DUP4 ADD DUP6 PUSH2 0x39D7 JUMP JUMPDEST PUSH2 0x3D6B PUSH1 0x20 DUP4 ADD DUP5 PUSH2 0x34E1 JUMP JUMPDEST SWAP4 SWAP3 POP POP POP JUMP JUMPDEST PUSH1 0x0 DUP1 PUSH1 0x40 DUP4 DUP6 SUB SLT ISZERO PUSH2 0x3D89 JUMPI PUSH2 0x3D88 PUSH2 0x32F9 JUMP JUMPDEST JUMPDEST PUSH1 0x0 PUSH2 0x3D97 DUP6 DUP3 DUP7 ADD PUSH2 0x334C JUMP JUMPDEST SWAP3 POP POP PUSH1 0x20 PUSH2 0x3DA8 DUP6 DUP3 DUP7 ADD PUSH2 0x3690 JUMP JUMPDEST SWAP2 POP POP SWAP3 POP SWAP3 SWAP1 POP JUMP JUMPDEST PUSH2 0x3DBB DUP2 PUSH2 0x3738 JUMP JUMPDEST DUP2 EQ PUSH2 0x3DC6 JUMPI PUSH1 0x0 DUP1 REVERT JUMPDEST POP JUMP JUMPDEST PUSH1 0x0 DUP2 CALLDATALOAD SWAP1 POP PUSH2 0x3DD8 DUP2 PUSH2 0x3DB2 JUMP JUMPDEST SWAP3 SWAP2 POP POP JUMP JUMPDEST PUSH1 0x0 DUP1 PUSH1 0x0 DUP1 PUSH1 0x60 DUP6 DUP8 SUB SLT ISZERO PUSH2 0x3DF8 JUMPI PUSH2 0x3DF7 PUSH2 0x32F9 JUMP JUMPDEST JUMPDEST PUSH1 0x0 PUSH2 0x3E06 DUP8 DUP3 DUP9 ADD PUSH2 0x334C JUMP JUMPDEST SWAP5 POP POP PUSH1 0x20 DUP6 ADD CALLDATALOAD PUSH8 0xFFFFFFFFFFFFFFFF DUP2 GT ISZERO PUSH2 0x3E27 JUMPI PUSH2 0x3E26 PUSH2 0x32FE JUMP JUMPDEST JUMPDEST PUSH2 0x3E33 DUP8 DUP3 DUP9 ADD PUSH2 0x35C3 JUMP JUMPDEST SWAP4 POP SWAP4 POP POP PUSH1 0x40 PUSH2 0x3E46 DUP8 DUP3 DUP9 ADD PUSH2 0x3DC9 JUMP JUMPDEST SWAP2 POP POP SWAP3 SWAP6 SWAP2 SWAP5 POP SWAP3 POP JUMP JUMPDEST PUSH1 0x0 PUSH1 0x40 DUP3 ADD SWAP1 POP PUSH2 0x3E67 PUSH1 0x0 DUP4 ADD DUP6 PUSH2 0x3AB5 JUMP JUMPDEST PUSH2 0x3E74 PUSH1 0x20 DUP4 ADD DUP5 PUSH2 0x34E1 JUMP JUMPDEST SWAP4 SWAP3 POP POP POP JUMP JUMPDEST PUSH32 0x4E487B7100000000000000000000000000000000000000000000000000000000 PUSH1 0x0 MSTORE PUSH1 0x32 PUSH1 0x4 MSTORE PUSH1 0x24 PUSH1 0x0 REVERT JUMPDEST PUSH1 0x0 PUSH1 0x20 DUP3 DUP5 SUB SLT ISZERO PUSH2 0x3EC0 JUMPI PUSH2 0x3EBF PUSH2 0x32F9 JUMP JUMPDEST JUMPDEST PUSH1 0x0 PUSH2 0x3ECE DUP5 DUP3 DUP6 ADD PUSH2 0x38CC JUMP JUMPDEST SWAP2 POP POP SWAP3 SWAP2 POP POP JUMP JUMPDEST PUSH2 0x3EE0 DUP2 PUSH2 0x3323 JUMP JUMPDEST DUP3 MSTORE POP POP JUMP JUMPDEST PUSH1 0x0 PUSH1 0x20 DUP3 ADD SWAP1 POP PUSH2 0x3EFB PUSH1 0x0 DUP4 ADD DUP5 PUSH2 0x3ED7 JUMP JUMPDEST SWAP3 SWAP2 POP POP JUMP JUMPDEST PUSH2 0x3F0A DUP2 PUSH2 0x3889 JUMP JUMPDEST DUP3 MSTORE POP POP JUMP JUMPDEST PUSH1 0x0 PUSH1 0x60 DUP3 ADD SWAP1 POP PUSH2 0x3F25 PUSH1 0x0 DUP4 ADD DUP7 PUSH2 0x3ED7 JUMP JUMPDEST PUSH2 0x3F32 PUSH1 0x20 DUP4 ADD DUP6 PUSH2 0x3ED7 JUMP JUMPDEST PUSH2 0x3F3F PUSH1 0x40 DUP4 ADD DUP5 PUSH2 0x3F01 JUMP JUMPDEST SWAP5 SWAP4 POP POP POP POP JUMP JUMPDEST PUSH1 0x0 DUP3 DUP3 MSTORE PUSH1 0x20 DUP3 ADD SWAP1 POP SWAP3 SWAP2 POP POP JUMP JUMPDEST DUP3 DUP2 DUP4 CALLDATACOPY PUSH1 0x0 DUP4 DUP4 ADD MSTORE POP POP POP JUMP JUMPDEST PUSH1 0x0 PUSH2 0x3F73 DUP4 DUP6 PUSH2 0x3F47 JUMP JUMPDEST SWAP4 POP PUSH2 0x3F80 DUP4 DUP6 DUP5 PUSH2 0x3F58 JUMP JUMPDEST PUSH2 0x3F89 DUP4 PUSH2 0x3BF4 JUMP JUMPDEST DUP5 ADD SWAP1 POP SWAP4 SWAP3 POP POP POP JUMP JUMPDEST PUSH1 0x0 PUSH1 0x20 DUP3 ADD SWAP1 POP DUP2 DUP2 SUB PUSH1 0x0 DUP4 ADD MSTORE PUSH2 0x3FAF DUP2 DUP5 DUP7 PUSH2 0x3F67 JUMP JUMPDEST SWAP1 POP SWAP4 SWAP3 POP POP POP JUMP JUMPDEST PUSH1 0x0 DUP2 MLOAD SWAP1 POP PUSH2 0x3FC7 DUP2 PUSH2 0x38B5 JUMP JUMPDEST SWAP3 SWAP2 POP POP JUMP JUMPDEST PUSH1 0x0 PUSH1 0x20 DUP3 DUP5 SUB SLT ISZERO PUSH2 0x3FE3 JUMPI PUSH2 0x3FE2 PUSH2 0x32F9 JUMP JUMPDEST JUMPDEST PUSH1 0x0 PUSH2 0x3FF1 DUP5 DUP3 DUP6 ADD PUSH2 0x3FB8 JUMP JUMPDEST SWAP2 POP POP SWAP3 SWAP2 POP POP JUMP JUMPDEST PUSH1 0x0 DUP3 DUP3 MSTORE PUSH1 0x20 DUP3 ADD SWAP1 POP SWAP3 SWAP2 POP POP JUMP JUMPDEST PUSH1 0x0 PUSH2 0x4017 DUP4 DUP6 PUSH2 0x3FFA JUMP JUMPDEST SWAP4 POP PUSH2 0x4024 DUP4 DUP6 DUP5 PUSH2 0x3F58 JUMP JUMPDEST PUSH2 0x402D DUP4 PUSH2 0x3BF4 JUMP JUMPDEST DUP5 ADD SWAP1 POP SWAP4 SWAP3 POP POP POP JUMP JUMPDEST PUSH1 0x0 PUSH1 0x60 DUP3 ADD SWAP1 POP PUSH2 0x404D PUSH1 0x0 DUP4 ADD DUP8 PUSH2 0x3ED7 JUMP JUMPDEST PUSH2 0x405A PUSH1 0x20 DUP4 ADD DUP7 PUSH2 0x3ED7 JUMP JUMPDEST DUP2 DUP2 SUB PUSH1 0x40 DUP4 ADD MSTORE PUSH2 0x406D DUP2 DUP5 DUP7 PUSH2 0x400B JUMP JUMPDEST SWAP1 POP SWAP6 SWAP5 POP POP POP POP POP JUMP JUMPDEST PUSH1 0x0 DUP2 SWAP1 POP SWAP2 SWAP1 POP JUMP JUMPDEST PUSH32 0x4E487B7100000000000000000000000000000000000000000000000000000000 PUSH1 0x0 MSTORE PUSH1 0x11 PUSH1 0x4 MSTORE PUSH1 0x24 PUSH1 0x0 REVERT JUMPDEST PUSH1 0x0 PUSH2 0x40BC DUP3 PUSH2 0x4078 JUMP JUMPDEST SWAP2 POP PUSH2 0x40C7 DUP4 PUSH2 0x4078 JUMP JUMPDEST SWAP3 POP DUP3 DUP3 SUB SWAP1 POP DUP2 DUP2 GT ISZERO PUSH2 0x40DF JUMPI PUSH2 0x40DE PUSH2 0x4082 JUMP JUMPDEST JUMPDEST SWAP3 SWAP2 POP POP JUMP JUMPDEST PUSH1 0x0 DUP1 REVERT JUMPDEST PUSH1 0x0 DUP1 REVERT JUMPDEST PUSH1 0x0 DUP1 DUP6 DUP6 GT ISZERO PUSH2 0x4103 JUMPI PUSH2 0x4102 PUSH2 0x40E5 JUMP JUMPDEST JUMPDEST DUP4 DUP7 GT ISZERO PUSH2 0x4114 JUMPI PUSH2 0x4113 PUSH2 0x40EA JUMP JUMPDEST JUMPDEST PUSH1 0x1 DUP6 MUL DUP4 ADD SWAP2 POP DUP5 DUP7 SUB SWAP1 POP SWAP5 POP SWAP5 SWAP3 POP POP POP JUMP JUMPDEST PUSH32 0x4E487B7100000000000000000000000000000000000000000000000000000000 PUSH1 0x0 MSTORE PUSH1 0x41 PUSH1 0x4 MSTORE PUSH1 0x24 PUSH1 0x0 REVERT JUMPDEST PUSH1 0x0 DUP1 REVERT JUMPDEST PUSH1 0x0 DUP1 REVERT JUMPDEST PUSH1 0x0 DUP1 REVERT JUMPDEST PUSH1 0x0 DUP1 DUP4 CALLDATALOAD PUSH1 0x1 PUSH1 0x20 SUB DUP5 CALLDATASIZE SUB SUB DUP2 SLT PUSH2 0x4185 JUMPI PUSH2 0x4184 PUSH2 0x4159 JUMP JUMPDEST JUMPDEST DUP1 DUP5 ADD SWAP3 POP DUP3 CALLDATALOAD SWAP2 POP PUSH8 0xFFFFFFFFFFFFFFFF DUP3 GT ISZERO PUSH2 0x41A7 JUMPI PUSH2 0x41A6 PUSH2 0x415E JUMP JUMPDEST JUMPDEST PUSH1 0x20 DUP4 ADD SWAP3 POP PUSH1 0x1 DUP3 MUL CALLDATASIZE SUB DUP4 SGT ISZERO PUSH2 0x41C3 JUMPI PUSH2 0x41C2 PUSH2 0x4163 JUMP JUMPDEST JUMPDEST POP SWAP3 POP SWAP3 SWAP1 POP JUMP JUMPDEST PUSH1 0x0 DUP2 SWAP1 POP SWAP3 SWAP2 POP POP JUMP JUMPDEST PUSH1 0x0 PUSH2 0x41E2 DUP4 DUP6 PUSH2 0x41CB JUMP JUMPDEST SWAP4 POP PUSH2 0x41EF DUP4 DUP6 DUP5 PUSH2 0x3F58 JUMP JUMPDEST DUP3 DUP5 ADD SWAP1 POP SWAP4 SWAP3 POP POP POP JUMP JUMPDEST PUSH1 0x0 PUSH2 0x4206 DUP3 PUSH2 0x3BAE JUMP JUMPDEST PUSH2 0x4210 DUP2 DUP6 PUSH2 0x41CB JUMP JUMPDEST SWAP4 POP PUSH2 0x4220 DUP2 DUP6 PUSH1 0x20 DUP7 ADD PUSH2 0x3BCA JUMP JUMPDEST DUP1 DUP5 ADD SWAP2 POP POP SWAP3 SWAP2 POP POP JUMP JUMPDEST PUSH1 0x0 PUSH2 0x4239 DUP3 DUP6 DUP8 PUSH2 0x41D6 JUMP JUMPDEST SWAP2 POP PUSH2 0x4245 DUP3 DUP5 PUSH2 0x41FB JUMP JUMPDEST SWAP2 POP DUP2 SWAP1 POP SWAP5 SWAP4 POP POP POP POP JUMP JUMPDEST PUSH1 0x0 PUSH1 0x80 DUP3 ADD SWAP1 POP PUSH2 0x4267 PUSH1 0x0 DUP4 ADD DUP8 PUSH2 0x3ED7 JUMP JUMPDEST PUSH2 0x4274 PUSH1 0x20 DUP4 ADD DUP7 PUSH2 0x3ED7 JUMP JUMPDEST PUSH2 0x4281 PUSH1 0x40 DUP4 ADD DUP6 PUSH2 0x3ED7 JUMP JUMPDEST PUSH2 0x428E PUSH1 0x60 DUP4 ADD DUP5 PUSH2 0x3F01 JUMP JUMPDEST SWAP6 SWAP5 POP POP POP POP POP JUMP JUMPDEST PUSH1 0x0 PUSH2 0x42A2 DUP3 PUSH2 0x3738 JUMP JUMPDEST SWAP2 POP PUSH2 0x42AD DUP4 PUSH2 0x3738 JUMP JUMPDEST SWAP3 POP DUP3 DUP3 ADD SWAP1 POP PUSH6 0xFFFFFFFFFFFF DUP2 GT ISZERO PUSH2 0x42CB JUMPI PUSH2 0x42CA PUSH2 0x4082 JUMP JUMPDEST JUMPDEST SWAP3 SWAP2 POP POP JUMP JUMPDEST PUSH1 0x0 PUSH1 0x80 DUP3 ADD SWAP1 POP PUSH2 0x42E6 PUSH1 0x0 DUP4 ADD DUP9 PUSH2 0x374A JUMP JUMPDEST PUSH2 0x42F3 PUSH1 0x20 DUP4 ADD DUP8 PUSH2 0x3ED7 JUMP JUMPDEST PUSH2 0x4300 PUSH1 0x40 DUP4 ADD DUP7 PUSH2 0x3ED7 JUMP JUMPDEST DUP2 DUP2 SUB PUSH1 0x60 DUP4 ADD MSTORE PUSH2 0x4313 DUP2 DUP5 DUP7 PUSH2 0x400B JUMP JUMPDEST SWAP1 POP SWAP7 SWAP6 POP POP POP POP POP POP JUMP JUMPDEST PUSH1 0x0 PUSH1 0x40 DUP3 ADD SWAP1 POP PUSH2 0x4334 PUSH1 0x0 DUP4 ADD DUP6 PUSH2 0x3ED7 JUMP JUMPDEST PUSH2 0x4341 PUSH1 0x20 DUP4 ADD DUP5 PUSH2 0x34A7 JUMP JUMPDEST SWAP4 SWAP3 POP POP POP JUMP JUMPDEST PUSH1 0x0 PUSH1 0x20 DUP3 ADD SWAP1 POP PUSH2 0x435D PUSH1 0x0 DUP4 ADD DUP5 PUSH2 0x3F01 JUMP JUMPDEST SWAP3 SWAP2 POP POP JUMP JUMPDEST PUSH1 0x0 DUP3 SWAP1 POP SWAP3 SWAP2 POP POP JUMP JUMPDEST PUSH1 0x0 DUP3 DUP3 SHL SWAP1 POP SWAP3 SWAP2 POP POP JUMP JUMPDEST PUSH1 0x0 PUSH2 0x4387 DUP4 DUP4 PUSH2 0x4363 JUMP JUMPDEST DUP3 PUSH2 0x4392 DUP2 CALLDATALOAD PUSH2 0x3889 JUMP JUMPDEST SWAP3 POP PUSH1 0x4 DUP3 LT ISZERO PUSH2 0x43D2 JUMPI PUSH2 0x43CD PUSH32 0xFFFFFFFF00000000000000000000000000000000000000000000000000000000 DUP4 PUSH1 0x4 SUB PUSH1 0x8 MUL PUSH2 0x436E JUMP JUMPDEST DUP4 AND SWAP3 POP JUMPDEST POP POP SWAP3 SWAP2 POP POP JUMP JUMPDEST PUSH1 0x0 PUSH1 0x40 DUP3 ADD SWAP1 POP PUSH2 0x43EF PUSH1 0x0 DUP4 ADD DUP6 PUSH2 0x3ED7 JUMP JUMPDEST PUSH2 0x43FC PUSH1 0x20 DUP4 ADD DUP5 PUSH2 0x3F01 JUMP JUMPDEST SWAP4 SWAP3 POP POP POP JUMP JUMPDEST PUSH1 0x0 PUSH2 0x440F DUP3 DUP5 PUSH2 0x41FB JUMP JUMPDEST SWAP2 POP DUP2 SWAP1 POP SWAP3 SWAP2 POP POP JUMP JUMPDEST PUSH1 0x0 PUSH1 0x60 DUP3 ADD SWAP1 POP PUSH2 0x442F PUSH1 0x0 DUP4 ADD DUP7 PUSH2 0x34E1 JUMP JUMPDEST PUSH2 0x443C PUSH1 0x20 DUP4 ADD DUP6 PUSH2 0x374A JUMP JUMPDEST PUSH2 0x4449 PUSH1 0x40 DUP4 ADD DUP5 PUSH2 0x39D7 JUMP JUMPDEST SWAP5 SWAP4 POP POP POP POP JUMP JUMPDEST PUSH1 0x0 PUSH1 0x40 DUP3 ADD SWAP1 POP PUSH2 0x4466 PUSH1 0x0 DUP4 ADD DUP6 PUSH2 0x34E1 JUMP JUMPDEST PUSH2 0x4473 PUSH1 0x20 DUP4 ADD DUP5 PUSH2 0x374A JUMP JUMPDEST SWAP4 SWAP3 POP POP POP JUMP JUMPDEST PUSH1 0x0 PUSH2 0x4485 DUP3 PUSH2 0x3303 JUMP JUMPDEST SWAP1 POP SWAP2 SWAP1 POP JUMP JUMPDEST PUSH2 0x4495 DUP2 PUSH2 0x447A JUMP JUMPDEST DUP2 EQ PUSH2 0x44A0 JUMPI PUSH1 0x0 DUP1 REVERT JUMPDEST POP JUMP JUMPDEST PUSH1 0x0 DUP2 CALLDATALOAD SWAP1 POP PUSH2 0x44B2 DUP2 PUSH2 0x448C JUMP JUMPDEST SWAP3 SWAP2 POP POP JUMP JUMPDEST PUSH1 0x0 PUSH1 0x20 DUP3 DUP5 SUB SLT ISZERO PUSH2 0x44CE JUMPI PUSH2 0x44CD PUSH2 0x32F9 JUMP JUMPDEST JUMPDEST PUSH1 0x0 PUSH2 0x44DC DUP5 DUP3 DUP6 ADD PUSH2 0x44A3 JUMP JUMPDEST SWAP2 POP POP SWAP3 SWAP2 POP POP JUMP JUMPDEST PUSH1 0x0 PUSH2 0x44F0 DUP3 PUSH2 0x34D1 JUMP JUMPDEST SWAP2 POP PUSH2 0x44FB DUP4 PUSH2 0x34D1 JUMP JUMPDEST SWAP3 POP DUP3 DUP3 SUB SWAP1 POP PUSH4 0xFFFFFFFF DUP2 GT ISZERO PUSH2 0x4517 JUMPI PUSH2 0x4516 PUSH2 0x4082 JUMP JUMPDEST JUMPDEST SWAP3 SWAP2 POP POP JUMP JUMPDEST PUSH1 0x0 DUP2 SWAP1 POP SWAP2 SWAP1 POP JUMP JUMPDEST PUSH1 0x0 PUSH1 0xFF DUP3 AND SWAP1 POP SWAP2 SWAP1 POP JUMP JUMPDEST PUSH1 0x0 DUP2 SWAP1 POP SWAP2 SWAP1 POP JUMP JUMPDEST PUSH1 0x0 PUSH2 0x4559 PUSH2 0x4554 PUSH2 0x454F DUP5 PUSH2 0x451D JUMP JUMPDEST PUSH2 0x4534 JUMP JUMPDEST PUSH2 0x4527 JUMP JUMPDEST SWAP1 POP SWAP2 SWAP1 POP JUMP JUMPDEST PUSH2 0x4569 DUP2 PUSH2 0x453E JUMP JUMPDEST DUP3 MSTORE POP POP JUMP JUMPDEST PUSH2 0x4578 DUP2 PUSH2 0x4078 JUMP JUMPDEST DUP3 MSTORE POP POP JUMP JUMPDEST PUSH1 0x0 PUSH1 0x40 DUP3 ADD SWAP1 POP PUSH2 0x4593 PUSH1 0x0 DUP4 ADD DUP6 PUSH2 0x4560 JUMP JUMPDEST PUSH2 0x45A0 PUSH1 0x20 DUP4 ADD DUP5 PUSH2 0x456F JUMP JUMPDEST SWAP4 SWAP3 POP POP POP JUMP INVALID LOG2 PUSH5 0x6970667358 0x22 SLT KECCAK256 0xD0 0xD1 SWAP14 AND PUSH4 0x7010EFD9 SWAP5 SSTORE 0xAF SGT 0xE4 SWAP13 SWAP15 0xE2 CREATE PUSH29 0x1344B6306B2AEF9234AEDA1FDF64736F6C634300081800330000000000 "},"methodIdentifiers":{"ADMIN_ROLE()":"75b238fc","PUBLIC_ROLE()":"3ca7c02a","canCall(address,address,bytes4)":"b7009613","cancel(address,address,bytes)":"d6bb62c6","consumeScheduledOp(address,bytes)":"94c7d7ee","execute(address,bytes)":"1cff79cd","expiration()":"4665096d","getAccess(uint64,address)":"3078f114","getNonce(bytes32)":"4136a33c","getRoleAdmin(uint64)":"530dd456","getRoleGrantDelay(uint64)":"12be8727","getRoleGuardian(uint64)":"0b0a93ba","getSchedule(bytes32)":"3adc277a","getTargetAdminDelay(address)":"4c1da1e2","getTargetFunctionRole(address,bytes4)":"6d5115bd","grantRole(uint64,address,uint32)":"25c471a0","hasRole(uint64,address)":"d1f856ee","hashOperation(address,address,bytes)":"abd9bd2a","isTargetClosed(address)":"a166aa89","labelRole(uint64,string)":"853551b8","minSetback()":"cc1b6c81","multicall(bytes[])":"ac9650d8","renounceRole(uint64,address)":"fe0776f5","revokeRole(uint64,address)":"b7d2b162","schedule(address,bytes,uint48)":"f801a698","setGrantDelay(uint64,uint32)":"a64d95ce","setRoleAdmin(uint64,uint64)":"30cae187","setRoleGuardian(uint64,uint64)":"52962952","setTargetAdminDelay(address,uint32)":"d22b5989","setTargetClosed(address,bool)":"167bd395","setTargetFunctionRole(address,bytes4[],uint64)":"08d6122d","updateAuthority(address,address)":"18ff183c"}},"storageLayout":{"storage":[{"astId":6684,"contract":"contracts/AccessManager.sol:AccessManager","label":"_targets","offset":0,"slot":"0","type":"t_mapping(t_address,t_struct(TargetConfig)6641_storage)"},{"astId":6689,"contract":"contracts/AccessManager.sol:AccessManager","label":"_roles","offset":0,"slot":"1","type":"t_mapping(t_uint64,t_struct(Role)6660_storage)"},{"astId":6694,"contract":"contracts/AccessManager.sol:AccessManager","label":"_schedules","offset":0,"slot":"2","type":"t_mapping(t_bytes32,t_struct(Schedule)6665_storage)"},{"astId":6696,"contract":"contracts/AccessManager.sol:AccessManager","label":"_executionId","offset":0,"slot":"3","type":"t_bytes32"}],"types":{"t_address":{"encoding":"inplace","label":"address","numberOfBytes":"20"},"t_bool":{"encoding":"inplace","label":"bool","numberOfBytes":"1"},"t_bytes32":{"encoding":"inplace","label":"bytes32","numberOfBytes":"32"},"t_bytes4":{"encoding":"inplace","label":"bytes4","numberOfBytes":"4"},"t_mapping(t_address,t_struct(Access)6647_storage)":{"encoding":"mapping","key":"t_address","label":"mapping(address => struct AccessManager.Access)","numberOfBytes":"32","value":"t_struct(Access)6647_storage"},"t_mapping(t_address,t_struct(TargetConfig)6641_storage)":{"encoding":"mapping","key":"t_address","label":"mapping(address => struct AccessManager.TargetConfig)","numberOfBytes":"32","value":"t_struct(TargetConfig)6641_storage"},"t_mapping(t_bytes32,t_struct(Schedule)6665_storage)":{"encoding":"mapping","key":"t_bytes32","label":"mapping(bytes32 => struct AccessManager.Schedule)","numberOfBytes":"32","value":"t_struct(Schedule)6665_storage"},"t_mapping(t_bytes4,t_uint64)":{"encoding":"mapping","key":"t_bytes4","label":"mapping(bytes4 => uint64)","numberOfBytes":"32","value":"t_uint64"},"t_mapping(t_uint64,t_struct(Role)6660_storage)":{"encoding":"mapping","key":"t_uint64","label":"mapping(uint64 => struct AccessManager.Role)","numberOfBytes":"32","value":"t_struct(Role)6660_storage"},"t_struct(Access)6647_storage":{"encoding":"inplace","label":"struct AccessManager.Access","members":[{"astId":6643,"contract":"contracts/AccessManager.sol:AccessManager","label":"since","offset":0,"slot":"0","type":"t_uint48"},{"astId":6646,"contract":"contracts/AccessManager.sol:AccessManager","label":"delay","offset":6,"slot":"0","type":"t_userDefinedValueType(Delay)6375"}],"numberOfBytes":"32"},"t_struct(Role)6660_storage":{"encoding":"inplace","label":"struct AccessManager.Role","members":[{"astId":6652,"contract":"contracts/AccessManager.sol:AccessManager","label":"members","offset":0,"slot":"0","type":"t_mapping(t_address,t_struct(Access)6647_storage)"},{"astId":6654,"contract":"contracts/AccessManager.sol:AccessManager","label":"admin","offset":0,"slot":"1","type":"t_uint64"},{"astId":6656,"contract":"contracts/AccessManager.sol:AccessManager","label":"guardian","offset":8,"slot":"1","type":"t_uint64"},{"astId":6659,"contract":"contracts/AccessManager.sol:AccessManager","label":"grantDelay","offset":16,"slot":"1","type":"t_userDefinedValueType(Delay)6375"}],"numberOfBytes":"64"},"t_struct(Schedule)6665_storage":{"encoding":"inplace","label":"struct AccessManager.Schedule","members":[{"astId":6662,"contract":"contracts/AccessManager.sol:AccessManager","label":"timepoint","offset":0,"slot":"0","type":"t_uint48"},{"astId":6664,"contract":"contracts/AccessManager.sol:AccessManager","label":"nonce","offset":6,"slot":"0","type":"t_uint32"}],"numberOfBytes":"32"},"t_struct(TargetConfig)6641_storage":{"encoding":"inplace","label":"struct AccessManager.TargetConfig","members":[{"astId":6635,"contract":"contracts/AccessManager.sol:AccessManager","label":"allowedRoles","offset":0,"slot":"0","type":"t_mapping(t_bytes4,t_uint64)"},{"astId":6638,"contract":"contracts/AccessManager.sol:AccessManager","label":"adminDelay","offset":0,"slot":"1","type":"t_userDefinedValueType(Delay)6375"},{"astId":6640,"contract":"contracts/AccessManager.sol:AccessManager","label":"closed","offset":14,"slot":"1","type":"t_bool"}],"numberOfBytes":"64"},"t_uint32":{"encoding":"inplace","label":"uint32","numberOfBytes":"4"},"t_uint48":{"encoding":"inplace","label":"uint48","numberOfBytes":"6"},"t_uint64":{"encoding":"inplace","label":"uint64","numberOfBytes":"8"},"t_userDefinedValueType(Delay)6375":{"encoding":"inplace","label":"Time.Delay","numberOfBytes":"14"}}}}}}