{"abi":[{"type":"constructor","inputs":[{"name":"defaultAdmin","type":"address","internalType":"address"}],"stateMutability":"nonpayable"},{"type":"function","name":"ADMIN_ROLE","inputs":[],"outputs":[{"name":"","type":"bytes32","internalType":"bytes32"}],"stateMutability":"view"},{"type":"function","name":"ARTIST_ROLE","inputs":[],"outputs":[{"name":"","type":"bytes32","internalType":"bytes32"}],"stateMutability":"view"},{"type":"function","name":"DEFAULT_ADMIN_ROLE","inputs":[],"outputs":[{"name":"","type":"bytes32","internalType":"bytes32"}],"stateMutability":"view"},{"type":"function","name":"SUBSCRIBER_ROLE","inputs":[],"outputs":[{"name":"","type":"bytes32","internalType":"bytes32"}],"stateMutability":"view"},{"type":"function","name":"addRole","inputs":[{"name":"role","type":"string","internalType":"string"},{"name":"account","type":"address","internalType":"address"}],"outputs":[],"stateMutability":"nonpayable"},{"type":"function","name":"convertStringToBytes32","inputs":[{"name":"str","type":"string","internalType":"string"}],"outputs":[{"name":"","type":"bytes32","internalType":"bytes32"}],"stateMutability":"pure"},{"type":"function","name":"getRole","inputs":[{"name":"account","type":"address","internalType":"address"}],"outputs":[{"name":"","type":"bytes32","internalType":"bytes32"}],"stateMutability":"view"},{"type":"function","name":"getRoleAdmin","inputs":[{"name":"role","type":"bytes32","internalType":"bytes32"}],"outputs":[{"name":"","type":"bytes32","internalType":"bytes32"}],"stateMutability":"view"},{"type":"function","name":"grantRole","inputs":[{"name":"role","type":"bytes32","internalType":"bytes32"},{"name":"account","type":"address","internalType":"address"}],"outputs":[],"stateMutability":"nonpayable"},{"type":"function","name":"hasRole","inputs":[{"name":"role","type":"bytes32","internalType":"bytes32"},{"name":"account","type":"address","internalType":"address"}],"outputs":[{"name":"","type":"bool","internalType":"bool"}],"stateMutability":"view"},{"type":"function","name":"removeRole","inputs":[{"name":"role","type":"bytes32","internalType":"bytes32"},{"name":"account","type":"address","internalType":"address"}],"outputs":[],"stateMutability":"nonpayable"},{"type":"function","name":"renounceRole","inputs":[{"name":"role","type":"bytes32","internalType":"bytes32"},{"name":"callerConfirmation","type":"address","internalType":"address"}],"outputs":[],"stateMutability":"nonpayable"},{"type":"function","name":"revokeRole","inputs":[{"name":"role","type":"bytes32","internalType":"bytes32"},{"name":"account","type":"address","internalType":"address"}],"outputs":[],"stateMutability":"nonpayable"},{"type":"function","name":"roles","inputs":[{"name":"","type":"address","internalType":"address"}],"outputs":[{"name":"","type":"bytes32","internalType":"bytes32"}],"stateMutability":"view"},{"type":"function","name":"supportsInterface","inputs":[{"name":"interfaceId","type":"bytes4","internalType":"bytes4"}],"outputs":[{"name":"","type":"bool","internalType":"bool"}],"stateMutability":"view"},{"type":"event","name":"RoleAdminChanged","inputs":[{"name":"role","type":"bytes32","indexed":true,"internalType":"bytes32"},{"name":"previousAdminRole","type":"bytes32","indexed":true,"internalType":"bytes32"},{"name":"newAdminRole","type":"bytes32","indexed":true,"internalType":"bytes32"}],"anonymous":false},{"type":"event","name":"RoleGranted","inputs":[{"name":"role","type":"bytes32","indexed":true,"internalType":"bytes32"},{"name":"account","type":"address","indexed":true,"internalType":"address"},{"name":"sender","type":"address","indexed":true,"internalType":"address"}],"anonymous":false},{"type":"event","name":"RoleRevoked","inputs":[{"name":"role","type":"bytes32","indexed":true,"internalType":"bytes32"},{"name":"account","type":"address","indexed":true,"internalType":"address"},{"name":"sender","type":"address","indexed":true,"internalType":"address"}],"anonymous":false},{"type":"error","name":"AccessControlBadConfirmation","inputs":[]},{"type":"error","name":"AccessControlUnauthorizedAccount","inputs":[{"name":"account","type":"address","internalType":"address"},{"name":"neededRole","type":"bytes32","internalType":"bytes32"}]}],"bytecode":{"object":"0x608060405234801561001057600080fd5b506040516109cf3803806109cf83398101604081905261002f91610118565b61003a60008261006c565b506100657fa49807205ce4d355092ef5a8a18f56e8913cf4a201fbe287825b095693c217758261006c565b5050610148565b6000828152602081815260408083206001600160a01b038516845290915281205460ff1661010e576000838152602081815260408083206001600160a01b03861684529091529020805460ff191660011790556100c63390565b6001600160a01b0316826001600160a01b0316847f2f8788117e7eff1d82e926ec794901d17c78024a50270940304540a733656f0d60405160405180910390a4506001610112565b5060005b92915050565b60006020828403121561012a57600080fd5b81516001600160a01b038116811461014157600080fd5b9392505050565b610878806101576000396000f3fe608060405234801561001057600080fd5b50600436106100f55760003560e01c806375b238fc11610097578063a966a0df11610066578063a966a0df14610204578063b35511221461022b578063d547741f14610252578063f6ba00071461026557600080fd5b806375b238fc146101b457806391d14854146101c957806399374642146101dc578063a217fddf146101fc57600080fd5b806336568abe116100d357806336568abe14610168578063442767331461017b5780634783f4a61461018e5780636735b3a7146101a157600080fd5b806301ffc9a7146100fa578063248a9ca3146101225780632f2ff15d14610153575b600080fd5b61010d6101083660046105fb565b610278565b60405190151581526020015b60405180910390f35b610145610130366004610625565b60009081526020819052604090206001015490565b604051908152602001610119565b61016661016136600461065a565b6102af565b005b61016661017636600461065a565b6102da565b610145610189366004610686565b610312565b61014561019c3660046106b7565b61034d565b6101666101af366004610770565b610358565b61014560008051602061082383398151915281565b61010d6101d736600461065a565b6103b1565b6101456101ea366004610686565b60016020526000908152604090205481565b610145600081565b6101457f877a78dc988c0ec5f58453b44888a55eb39755c3d5ed8d8ea990912aa3ef29c681565b6101457f3f483399a73bbfbc7e47cea702709b2441abfc4e8152100709ca14556e32130381565b61016661026036600461065a565b6103da565b61016661027336600461065a565b6103ff565b60006001600160e01b03198216637965db0b60e01b14806102a957506301ffc9a760e01b6001600160e01b03198316145b92915050565b6000828152602081905260409020600101546102ca81610421565b6102d4838361042e565b50505050565b6001600160a01b03811633146103035760405163334bd91960e11b815260040160405180910390fd5b61030d82826104c0565b505050565b600060008051602061082383398151915261032c81610421565b6001600160a01b0383166000908152600160205260409020545b9392505050565b60006102a98261052b565b60008051602061082383398151915261037081610421565b6102d484848080601f01602080910402602001604051908101604052809392919081815260200183838082843760009201919091525086925061055b915050565b6000918252602082815260408084206001600160a01b0393909316845291905290205460ff1690565b6000828152602081905260409020600101546103f581610421565b6102d483836104c0565b60008051602061082383398151915261041781610421565b61030d8383610594565b61042b81336105ba565b50565b600061043a83836103b1565b6104b8576000838152602081815260408083206001600160a01b03861684529091529020805460ff191660011790556104703390565b6001600160a01b0316826001600160a01b0316847f2f8788117e7eff1d82e926ec794901d17c78024a50270940304540a733656f0d60405160405180910390a45060016102a9565b5060006102a9565b60006104cc83836103b1565b156104b8576000838152602081815260408083206001600160a01b0386168085529252808320805460ff1916905551339286917ff6391f5c32d9c69d2a47ea670b442974b53935d1edc7fd64eb21e047a839171b9190a45060016102a9565b60008160405160200161053e91906107f3565b604051602081830303815290604052805190602001209050919050565b61056d6105678361034d565b8261042e565b506105778261034d565b6001600160a01b0390911660009081526001602052604090205550565b61059e82826104c0565b506001600160a01b031660009081526001602052604081205550565b6105c482826103b1565b6105f75760405163e2517d3f60e01b81526001600160a01b03821660048201526024810183905260440160405180910390fd5b5050565b60006020828403121561060d57600080fd5b81356001600160e01b03198116811461034657600080fd5b60006020828403121561063757600080fd5b5035919050565b80356001600160a01b038116811461065557600080fd5b919050565b6000806040838503121561066d57600080fd5b8235915061067d6020840161063e565b90509250929050565b60006020828403121561069857600080fd5b6103468261063e565b634e487b7160e01b600052604160045260246000fd5b6000602082840312156106c957600080fd5b813567ffffffffffffffff8111156106e057600080fd5b8201601f810184136106f157600080fd5b803567ffffffffffffffff81111561070b5761070b6106a1565b604051601f8201601f19908116603f0116810167ffffffffffffffff8111828210171561073a5761073a6106a1565b60405281815282820160200186101561075257600080fd5b81602084016020830137600091810160200191909152949350505050565b60008060006040848603121561078557600080fd5b833567ffffffffffffffff81111561079c57600080fd5b8401601f810186136107ad57600080fd5b803567ffffffffffffffff8111156107c457600080fd5b8660208284010111156107d657600080fd5b6020918201945092506107ea90850161063e565b90509250925092565b6000825160005b8181101561081457602081860181015185830152016107fa565b50600092019182525091905056fea49807205ce4d355092ef5a8a18f56e8913cf4a201fbe287825b095693c21775a26469706673582212207b4344ebb7e513e3c89303438c0ae78a8eb10ca2306670bfd4634de8d906b68e64736f6c634300081a0033","linkReferences":{}},"methodIdentifiers":{"ADMIN_ROLE()":"75b238fc","ARTIST_ROLE()":"a966a0df","DEFAULT_ADMIN_ROLE()":"a217fddf","SUBSCRIBER_ROLE()":"b3551122","addRole(string,address)":"6735b3a7","convertStringToBytes32(string)":"4783f4a6","getRole(address)":"44276733","getRoleAdmin(bytes32)":"248a9ca3","grantRole(bytes32,address)":"2f2ff15d","hasRole(bytes32,address)":"91d14854","removeRole(bytes32,address)":"f6ba0007","renounceRole(bytes32,address)":"36568abe","revokeRole(bytes32,address)":"d547741f","roles(address)":"99374642","supportsInterface(bytes4)":"01ffc9a7"},"id":0}