{"abi":[{"type":"function","name":"ADMIN_ROLE","inputs":[],"outputs":[{"name":"","type":"bytes32","internalType":"bytes32"}],"stateMutability":"view"},{"type":"function","name":"DEFAULT_ADMIN_ROLE","inputs":[],"outputs":[{"name":"","type":"bytes32","internalType":"bytes32"}],"stateMutability":"view"},{"type":"function","name":"UPGRADE_INTERFACE_VERSION","inputs":[],"outputs":[{"name":"","type":"string","internalType":"string"}],"stateMutability":"view"},{"type":"function","name":"allowance","inputs":[{"name":"owner","type":"address","internalType":"address"},{"name":"spender","type":"address","internalType":"address"}],"outputs":[{"name":"","type":"uint256","internalType":"uint256"}],"stateMutability":"view"},{"type":"function","name":"approve","inputs":[{"name":"spender","type":"address","internalType":"address"},{"name":"value","type":"uint256","internalType":"uint256"}],"outputs":[{"name":"","type":"bool","internalType":"bool"}],"stateMutability":"nonpayable"},{"type":"function","name":"balanceOf","inputs":[{"name":"account","type":"address","internalType":"address"}],"outputs":[{"name":"","type":"uint256","internalType":"uint256"}],"stateMutability":"view"},{"type":"function","name":"burn","inputs":[{"name":"value","type":"uint256","internalType":"uint256"}],"outputs":[],"stateMutability":"nonpayable"},{"type":"function","name":"burn","inputs":[{"name":"to","type":"address","internalType":"address"},{"name":"amount","type":"uint256","internalType":"uint256"}],"outputs":[],"stateMutability":"nonpayable"},{"type":"function","name":"burnFrom","inputs":[{"name":"account","type":"address","internalType":"address"},{"name":"value","type":"uint256","internalType":"uint256"}],"outputs":[],"stateMutability":"nonpayable"},{"type":"function","name":"claim","inputs":[{"name":"from","type":"address","internalType":"address"},{"name":"to","type":"address","internalType":"address"},{"name":"amount","type":"uint256","internalType":"uint256"}],"outputs":[],"stateMutability":"nonpayable"},{"type":"function","name":"decimals","inputs":[],"outputs":[{"name":"","type":"uint8","internalType":"uint8"}],"stateMutability":"view"},{"type":"function","name":"getRoleAdmin","inputs":[{"name":"role","type":"bytes32","internalType":"bytes32"}],"outputs":[{"name":"","type":"bytes32","internalType":"bytes32"}],"stateMutability":"view"},{"type":"function","name":"grantRole","inputs":[{"name":"role","type":"bytes32","internalType":"bytes32"},{"name":"account","type":"address","internalType":"address"}],"outputs":[],"stateMutability":"nonpayable"},{"type":"function","name":"hasRole","inputs":[{"name":"role","type":"bytes32","internalType":"bytes32"},{"name":"account","type":"address","internalType":"address"}],"outputs":[{"name":"","type":"bool","internalType":"bool"}],"stateMutability":"view"},{"type":"function","name":"initialize","inputs":[{"name":"admin","type":"address","internalType":"address"},{"name":"staffContractAddress","type":"address","internalType":"address"}],"outputs":[],"stateMutability":"nonpayable"},{"type":"function","name":"mint","inputs":[{"name":"account","type":"address","internalType":"address"},{"name":"amount","type":"uint256","internalType":"uint256"}],"outputs":[],"stateMutability":"nonpayable"},{"type":"function","name":"name","inputs":[],"outputs":[{"name":"","type":"string","internalType":"string"}],"stateMutability":"view"},{"type":"function","name":"proxiableUUID","inputs":[],"outputs":[{"name":"","type":"bytes32","internalType":"bytes32"}],"stateMutability":"view"},{"type":"function","name":"renounceRole","inputs":[{"name":"role","type":"bytes32","internalType":"bytes32"},{"name":"callerConfirmation","type":"address","internalType":"address"}],"outputs":[],"stateMutability":"nonpayable"},{"type":"function","name":"revokeRole","inputs":[{"name":"role","type":"bytes32","internalType":"bytes32"},{"name":"account","type":"address","internalType":"address"}],"outputs":[],"stateMutability":"nonpayable"},{"type":"function","name":"supportsInterface","inputs":[{"name":"interfaceId","type":"bytes4","internalType":"bytes4"}],"outputs":[{"name":"","type":"bool","internalType":"bool"}],"stateMutability":"view"},{"type":"function","name":"symbol","inputs":[],"outputs":[{"name":"","type":"string","internalType":"string"}],"stateMutability":"view"},{"type":"function","name":"totalSupply","inputs":[],"outputs":[{"name":"","type":"uint256","internalType":"uint256"}],"stateMutability":"view"},{"type":"function","name":"transfer","inputs":[{"name":"to","type":"address","internalType":"address"},{"name":"value","type":"uint256","internalType":"uint256"}],"outputs":[{"name":"","type":"bool","internalType":"bool"}],"stateMutability":"nonpayable"},{"type":"function","name":"transferFrom","inputs":[{"name":"from","type":"address","internalType":"address"},{"name":"to","type":"address","internalType":"address"},{"name":"value","type":"uint256","internalType":"uint256"}],"outputs":[{"name":"","type":"bool","internalType":"bool"}],"stateMutability":"nonpayable"},{"type":"function","name":"upgradeToAndCall","inputs":[{"name":"newImplementation","type":"address","internalType":"address"},{"name":"data","type":"bytes","internalType":"bytes"}],"outputs":[],"stateMutability":"payable"},{"type":"event","name":"Approval","inputs":[{"name":"owner","type":"address","indexed":true,"internalType":"address"},{"name":"spender","type":"address","indexed":true,"internalType":"address"},{"name":"value","type":"uint256","indexed":false,"internalType":"uint256"}],"anonymous":false},{"type":"event","name":"Initialized","inputs":[{"name":"version","type":"uint64","indexed":false,"internalType":"uint64"}],"anonymous":false},{"type":"event","name":"RoleAdminChanged","inputs":[{"name":"role","type":"bytes32","indexed":true,"internalType":"bytes32"},{"name":"previousAdminRole","type":"bytes32","indexed":true,"internalType":"bytes32"},{"name":"newAdminRole","type":"bytes32","indexed":true,"internalType":"bytes32"}],"anonymous":false},{"type":"event","name":"RoleGranted","inputs":[{"name":"role","type":"bytes32","indexed":true,"internalType":"bytes32"},{"name":"account","type":"address","indexed":true,"internalType":"address"},{"name":"sender","type":"address","indexed":true,"internalType":"address"}],"anonymous":false},{"type":"event","name":"RoleRevoked","inputs":[{"name":"role","type":"bytes32","indexed":true,"internalType":"bytes32"},{"name":"account","type":"address","indexed":true,"internalType":"address"},{"name":"sender","type":"address","indexed":true,"internalType":"address"}],"anonymous":false},{"type":"event","name":"Transfer","inputs":[{"name":"from","type":"address","indexed":true,"internalType":"address"},{"name":"to","type":"address","indexed":true,"internalType":"address"},{"name":"value","type":"uint256","indexed":false,"internalType":"uint256"}],"anonymous":false},{"type":"event","name":"Upgraded","inputs":[{"name":"implementation","type":"address","indexed":true,"internalType":"address"}],"anonymous":false},{"type":"error","name":"AccessControlBadConfirmation","inputs":[]},{"type":"error","name":"AccessControlUnauthorizedAccount","inputs":[{"name":"account","type":"address","internalType":"address"},{"name":"neededRole","type":"bytes32","internalType":"bytes32"}]},{"type":"error","name":"AddressEmptyCode","inputs":[{"name":"target","type":"address","internalType":"address"}]},{"type":"error","name":"ERC1967InvalidImplementation","inputs":[{"name":"implementation","type":"address","internalType":"address"}]},{"type":"error","name":"ERC1967NonPayable","inputs":[]},{"type":"error","name":"ERC20InsufficientAllowance","inputs":[{"name":"spender","type":"address","internalType":"address"},{"name":"allowance","type":"uint256","internalType":"uint256"},{"name":"needed","type":"uint256","internalType":"uint256"}]},{"type":"error","name":"ERC20InsufficientBalance","inputs":[{"name":"sender","type":"address","internalType":"address"},{"name":"balance","type":"uint256","internalType":"uint256"},{"name":"needed","type":"uint256","internalType":"uint256"}]},{"type":"error","name":"ERC20InvalidApprover","inputs":[{"name":"approver","type":"address","internalType":"address"}]},{"type":"error","name":"ERC20InvalidReceiver","inputs":[{"name":"receiver","type":"address","internalType":"address"}]},{"type":"error","name":"ERC20InvalidSender","inputs":[{"name":"sender","type":"address","internalType":"address"}]},{"type":"error","name":"ERC20InvalidSpender","inputs":[{"name":"spender","type":"address","internalType":"address"}]},{"type":"error","name":"FailedInnerCall","inputs":[]},{"type":"error","name":"InvalidInitialization","inputs":[]},{"type":"error","name":"NotInitializing","inputs":[]},{"type":"error","name":"UUPSUnauthorizedCallContext","inputs":[]},{"type":"error","name":"UUPSUnsupportedProxiableUUID","inputs":[{"name":"slot","type":"bytes32","internalType":"bytes32"}]}],"bytecode":{"object":"0x60a060405230608052348015601357600080fd5b5060805161195061003d60003960008181610d8201528181610dab0152610efc01526119506000f3fe6080604052600436106101815760003560e01c806352d1902d116100d1578063996cba681161008a578063a9059cbb11610064578063a9059cbb14610470578063ad3cb1cc14610490578063d547741f146104c1578063dd62ed3e146104e157600080fd5b8063996cba681461041b5780639dc29fac1461043b578063a217fddf1461045b57600080fd5b806352d1902d1461034c57806370a082311461036157806375b238fc146103a457806379cc6790146103c657806391d14854146103e657806395d89b411461040657600080fd5b80632f2ff15d1161013e57806340c10f191161011857806340c10f19146102d957806342966c68146102f9578063485cc955146103195780634f1ef2861461033957600080fd5b80632f2ff15d1461027b578063313ce5671461029d57806336568abe146102b957600080fd5b806301ffc9a71461018657806306fdde03146101bb578063095ea7b3146101dd57806318160ddd146101fd57806323b872dd1461023b578063248a9ca31461025b575b600080fd5b34801561019257600080fd5b506101a66101a1366004611408565b610501565b60405190151581526020015b60405180910390f35b3480156101c757600080fd5b506101d0610538565b6040516101b29190611456565b3480156101e957600080fd5b506101a66101f83660046114a5565b6105fb565b34801561020957600080fd5b507f52c63247e1f47db19d5ce0460030c497f067ca4cebf71ba98eeadabe20bace02545b6040519081526020016101b2565b34801561024757600080fd5b506101a66102563660046114cf565b610613565b34801561026757600080fd5b5061022d61027636600461150c565b610639565b34801561028757600080fd5b5061029b610296366004611525565b61065b565b005b3480156102a957600080fd5b50604051601281526020016101b2565b3480156102c557600080fd5b5061029b6102d4366004611525565b61067d565b3480156102e557600080fd5b5061029b6102f43660046114a5565b6106b5565b34801561030557600080fd5b5061029b61031436600461150c565b6106d7565b34801561032557600080fd5b5061029b610334366004611551565b6106e4565b61029b6103473660046115ea565b61087a565b34801561035857600080fd5b5061022d610899565b34801561036d57600080fd5b5061022d61037c36600461167b565b6001600160a01b0316600090815260008051602061189b833981519152602052604090205490565b3480156103b057600080fd5b5061022d6000805160206118fb83398151915281565b3480156103d257600080fd5b5061029b6103e13660046114a5565b6108b6565b3480156103f257600080fd5b506101a6610401366004611525565b6108cb565b34801561041257600080fd5b506101d0610903565b34801561042757600080fd5b5061029b6104363660046114cf565b610942565b34801561044757600080fd5b5061029b6104563660046114a5565b610a62565b34801561046757600080fd5b5061022d600081565b34801561047c57600080fd5b506101a661048b3660046114a5565b610a84565b34801561049c57600080fd5b506101d0604051806040016040528060058152602001640352e302e360dc1b81525081565b3480156104cd57600080fd5b5061029b6104dc366004611525565b610a92565b3480156104ed57600080fd5b5061022d6104fc366004611551565b610aae565b60006001600160e01b03198216637965db0b60e01b148061053257506301ffc9a760e01b6001600160e01b03198316145b92915050565b7f52c63247e1f47db19d5ce0460030c497f067ca4cebf71ba98eeadabe20bace03805460609160008051602061189b8339815191529161057790611696565b80601f01602080910402602001604051908101604052809291908181526020018280546105a390611696565b80156105f05780601f106105c5576101008083540402835291602001916105f0565b820191906000526020600020905b8154815290600101906020018083116105d357829003601f168201915b505050505091505090565b600033610609818585610af8565b5060019392505050565b600033610621858285610b05565b61062c858585610b65565b60019150505b9392505050565b60009081526000805160206118db833981519152602052604090206001015490565b61066482610639565b61066d81610bc4565b6106778383610bce565b50505050565b6001600160a01b03811633146106a65760405163334bd91960e11b815260040160405180910390fd5b6106b08282610c73565b505050565b6000805160206118fb8339815191526106cd81610bc4565b6106b08383610cef565b6106e13382610d25565b50565b7ff0c57e16840df040f15088dc2f81fe391c3923bec73e23a9662efc9c229c6a008054600160401b810460ff16159067ffffffffffffffff1660008115801561072a5750825b905060008267ffffffffffffffff1660011480156107475750303b155b905081158015610755575080155b156107735760405163f92ee8a960e01b815260040160405180910390fd5b845467ffffffffffffffff19166001178555831561079d57845460ff60401b1916600160401b1785555b6107df6040518060400160405280600581526020016414d3d5539160da1b8152506040518060400160405280600381526020016214d39160ea1b815250610d5b565b6107e7610d6d565b6107ef610d6d565b6107f7610d6d565b61080f6000805160206118fb83398151915288610bce565b50600080546001600160a01b0319166001600160a01b038816179055831561087157845460ff60401b19168555604051600181527fc7f505b2f371ae2175ee4913f4499e1f2633a7b5936321eed1cdaeb6115181d29060200160405180910390a15b50505050505050565b610882610d77565b61088b82610e1c565b6108958282610e34565b5050565b60006108a3610ef1565b506000805160206118bb83398151915290565b6108c1823383610b05565b6108958282610d25565b60009182526000805160206118db833981519152602090815260408084206001600160a01b0393909316845291905290205460ff1690565b7f52c63247e1f47db19d5ce0460030c497f067ca4cebf71ba98eeadabe20bace04805460609160008051602061189b8339815191529161057790611696565b60405165185c9d1a5cdd60d21b602082015260260160408051808303601f1901815290829052805160209091012060005463cb510e9760e01b835233600484015290916001600160a01b039091169063cb510e9790602401600060405180830381865afa1580156109b7573d6000803e3d6000fd5b505050506040513d6000823e601f3d908101601f191682016040526109df91908101906116d0565b6040516020016109ef919061173e565b6040516020818303038152906040528051906020012014610a575760405162461bcd60e51b815260206004820152601760248201527f43616c6c6572206973206e6f7420616e2061727469737400000000000000000060448201526064015b60405180910390fd5b6106b0838383610b65565b6000805160206118fb833981519152610a7a81610bc4565b6106b08383610d25565b600033610609818585610b65565b610a9b82610639565b610aa481610bc4565b6106778383610c73565b6001600160a01b0391821660009081527f52c63247e1f47db19d5ce0460030c497f067ca4cebf71ba98eeadabe20bace016020908152604080832093909416825291909152205490565b6106b08383836001610f3a565b6000610b118484610aae565b905060001981146106775781811015610b5657604051637dc7a0d960e11b81526001600160a01b03841660048201526024810182905260448101839052606401610a4e565b61067784848484036000610f3a565b6001600160a01b038316610b8f57604051634b637e8f60e11b815260006004820152602401610a4e565b6001600160a01b038216610bb95760405163ec442f0560e01b815260006004820152602401610a4e565b6106b0838383611022565b6106e18133611160565b60006000805160206118db833981519152610be984846108cb565b610c69576000848152602082815260408083206001600160a01b03871684529091529020805460ff19166001179055610c1f3390565b6001600160a01b0316836001600160a01b0316857f2f8788117e7eff1d82e926ec794901d17c78024a50270940304540a733656f0d60405160405180910390a46001915050610532565b6000915050610532565b60006000805160206118db833981519152610c8e84846108cb565b15610c69576000848152602082815260408083206001600160a01b0387168085529252808320805460ff1916905551339287917ff6391f5c32d9c69d2a47ea670b442974b53935d1edc7fd64eb21e047a839171b9190a46001915050610532565b6001600160a01b038216610d195760405163ec442f0560e01b815260006004820152602401610a4e565b61089560008383611022565b6001600160a01b038216610d4f57604051634b637e8f60e11b815260006004820152602401610a4e565b61089582600083611022565b610d63611199565b61089582826111e2565b610d75611199565b565b306001600160a01b037f0000000000000000000000000000000000000000000000000000000000000000161480610dfe57507f00000000000000000000000000000000000000000000000000000000000000006001600160a01b0316610df26000805160206118bb833981519152546001600160a01b031690565b6001600160a01b031614155b15610d755760405163703e46dd60e11b815260040160405180910390fd5b6000805160206118fb83398151915261089581610bc4565b816001600160a01b03166352d1902d6040518163ffffffff1660e01b8152600401602060405180830381865afa925050508015610e8e575060408051601f3d908101601f19168201909252610e8b9181019061175a565b60015b610eb657604051634c9c8ce360e01b81526001600160a01b0383166004820152602401610a4e565b6000805160206118bb8339815191528114610ee757604051632a87526960e21b815260048101829052602401610a4e565b6106b08383611233565b306001600160a01b037f00000000000000000000000000000000000000000000000000000000000000001614610d755760405163703e46dd60e11b815260040160405180910390fd5b60008051602061189b8339815191526001600160a01b038516610f735760405163e602df0560e01b815260006004820152602401610a4e565b6001600160a01b038416610f9d57604051634a1406b160e11b815260006004820152602401610a4e565b6001600160a01b0380861660009081526001830160209081526040808320938816835292905220839055811561101b57836001600160a01b0316856001600160a01b03167f8c5be1e5ebec7d5bd14f71427d1e84f3dd0314c0f7b2291e5b200ac8c7c3b9258560405161101291815260200190565b60405180910390a35b5050505050565b60008051602061189b8339815191526001600160a01b03841661105e57818160020160008282546110539190611773565b909155506110d09050565b6001600160a01b038416600090815260208290526040902054828110156110b15760405163391434e360e21b81526001600160a01b03861660048201526024810182905260448101849052606401610a4e565b6001600160a01b03851660009081526020839052604090209083900390555b6001600160a01b0383166110ee57600281018054839003905561110d565b6001600160a01b03831660009081526020829052604090208054830190555b826001600160a01b0316846001600160a01b03167fddf252ad1be2c89b69c2b068fc378daa952ba7f163c4a11628f55a4df523b3ef8460405161115291815260200190565b60405180910390a350505050565b61116a82826108cb565b6108955760405163e2517d3f60e01b81526001600160a01b038216600482015260248101839052604401610a4e565b7ff0c57e16840df040f15088dc2f81fe391c3923bec73e23a9662efc9c229c6a0054600160401b900460ff16610d7557604051631afcd79f60e31b815260040160405180910390fd5b6111ea611199565b60008051602061189b8339815191527f52c63247e1f47db19d5ce0460030c497f067ca4cebf71ba98eeadabe20bace0361122484826117db565b506004810161067783826117db565b61123c82611289565b6040516001600160a01b038316907fbc7cd75a20ee27fd9adebab32041f755214dbc6bffa90cc0225b39da2e5c2d3b90600090a2805115611281576106b082826112ee565b610895611364565b806001600160a01b03163b6000036112bf57604051634c9c8ce360e01b81526001600160a01b0382166004820152602401610a4e565b6000805160206118bb83398151915280546001600160a01b0319166001600160a01b0392909216919091179055565b6060600080846001600160a01b03168460405161130b919061173e565b600060405180830381855af49150503d8060008114611346576040519150601f19603f3d011682016040523d82523d6000602084013e61134b565b606091505b509150915061135b858383611383565b95945050505050565b3415610d755760405163b398979f60e01b815260040160405180910390fd5b60608261139857611393826113df565b610632565b81511580156113af57506001600160a01b0384163b155b156113d857604051639996b31560e01b81526001600160a01b0385166004820152602401610a4e565b5080610632565b8051156113ef5780518082602001fd5b604051630a12f52160e11b815260040160405180910390fd5b60006020828403121561141a57600080fd5b81356001600160e01b03198116811461063257600080fd5b60005b8381101561144d578181015183820152602001611435565b50506000910152565b6020815260008251806020840152611475816040850160208701611432565b601f01601f19169190910160400192915050565b80356001600160a01b03811681146114a057600080fd5b919050565b600080604083850312156114b857600080fd5b6114c183611489565b946020939093013593505050565b6000806000606084860312156114e457600080fd5b6114ed84611489565b92506114fb60208501611489565b929592945050506040919091013590565b60006020828403121561151e57600080fd5b5035919050565b6000806040838503121561153857600080fd5b8235915061154860208401611489565b90509250929050565b6000806040838503121561156457600080fd5b61156d83611489565b915061154860208401611489565b634e487b7160e01b600052604160045260246000fd5b604051601f8201601f1916810167ffffffffffffffff811182821017156115ba576115ba61157b565b604052919050565b600067ffffffffffffffff8211156115dc576115dc61157b565b50601f01601f191660200190565b600080604083850312156115fd57600080fd5b61160683611489565b9150602083013567ffffffffffffffff81111561162257600080fd5b8301601f8101851361163357600080fd5b8035611646611641826115c2565b611591565b81815286602083850101111561165b57600080fd5b816020840160208301376000602083830101528093505050509250929050565b60006020828403121561168d57600080fd5b61063282611489565b600181811c908216806116aa57607f821691505b6020821081036116ca57634e487b7160e01b600052602260045260246000fd5b50919050565b6000602082840312156116e257600080fd5b815167ffffffffffffffff8111156116f957600080fd5b8201601f8101841361170a57600080fd5b8051611718611641826115c2565b81815285602083850101111561172d57600080fd5b61135b826020830160208601611432565b60008251611750818460208701611432565b9190910192915050565b60006020828403121561176c57600080fd5b5051919050565b8082018082111561053257634e487b7160e01b600052601160045260246000fd5b601f8211156106b057806000526020600020601f840160051c810160208510156117bb5750805b601f840160051c820191505b8181101561101b57600081556001016117c7565b815167ffffffffffffffff8111156117f5576117f561157b565b611809816118038454611696565b84611794565b6020601f82116001811461183d57600083156118255750848201515b600019600385901b1c1916600184901b17845561101b565b600084815260208120601f198516915b8281101561186d578785015182556020948501946001909201910161184d565b508482101561188b5786840151600019600387901b60f8161c191681555b50505050600190811b0190555056fe52c63247e1f47db19d5ce0460030c497f067ca4cebf71ba98eeadabe20bace00360894a13ba1a3210667c828492db98dca3e2076cc3735a920a3ca505d382bbc02dd7bc7dec4dceedda775e58dd541e08a116c6c53815c0bd028192f7b626800a49807205ce4d355092ef5a8a18f56e8913cf4a201fbe287825b095693c21775a2646970667358221220b17f39dd8d1fbf22c94659c6c72888710a0d53b6e81e85cb6bee7ba2f9fb97a664736f6c634300081a0033","linkReferences":{}},"methodIdentifiers":{"ADMIN_ROLE()":"75b238fc","DEFAULT_ADMIN_ROLE()":"a217fddf","UPGRADE_INTERFACE_VERSION()":"ad3cb1cc","allowance(address,address)":"dd62ed3e","approve(address,uint256)":"095ea7b3","balanceOf(address)":"70a08231","burn(address,uint256)":"9dc29fac","burn(uint256)":"42966c68","burnFrom(address,uint256)":"79cc6790","claim(address,address,uint256)":"996cba68","decimals()":"313ce567","getRoleAdmin(bytes32)":"248a9ca3","grantRole(bytes32,address)":"2f2ff15d","hasRole(bytes32,address)":"91d14854","initialize(address,address)":"485cc955","mint(address,uint256)":"40c10f19","name()":"06fdde03","proxiableUUID()":"52d1902d","renounceRole(bytes32,address)":"36568abe","revokeRole(bytes32,address)":"d547741f","supportsInterface(bytes4)":"01ffc9a7","symbol()":"95d89b41","totalSupply()":"18160ddd","transfer(address,uint256)":"a9059cbb","transferFrom(address,address,uint256)":"23b872dd","upgradeToAndCall(address,bytes)":"4f1ef286"},"id":2}