{"abi":[{"type":"function","name":"ADMIN_ROLE","inputs":[],"outputs":[{"name":"","type":"bytes32","internalType":"bytes32"}],"stateMutability":"view"},{"type":"function","name":"ARTIST_ROLE","inputs":[],"outputs":[{"name":"","type":"bytes32","internalType":"bytes32"}],"stateMutability":"view"},{"type":"function","name":"DEFAULT_ADMIN_ROLE","inputs":[],"outputs":[{"name":"","type":"bytes32","internalType":"bytes32"}],"stateMutability":"view"},{"type":"function","name":"UPGRADE_INTERFACE_VERSION","inputs":[],"outputs":[{"name":"","type":"string","internalType":"string"}],"stateMutability":"view"},{"type":"function","name":"allowance","inputs":[{"name":"owner","type":"address","internalType":"address"},{"name":"spender","type":"address","internalType":"address"}],"outputs":[{"name":"","type":"uint256","internalType":"uint256"}],"stateMutability":"view"},{"type":"function","name":"approve","inputs":[{"name":"spender","type":"address","internalType":"address"},{"name":"value","type":"uint256","internalType":"uint256"}],"outputs":[{"name":"","type":"bool","internalType":"bool"}],"stateMutability":"nonpayable"},{"type":"function","name":"balanceOf","inputs":[{"name":"account","type":"address","internalType":"address"}],"outputs":[{"name":"","type":"uint256","internalType":"uint256"}],"stateMutability":"view"},{"type":"function","name":"burn","inputs":[{"name":"value","type":"uint256","internalType":"uint256"}],"outputs":[],"stateMutability":"nonpayable"},{"type":"function","name":"burn","inputs":[{"name":"to","type":"address","internalType":"address"},{"name":"amount","type":"uint256","internalType":"uint256"}],"outputs":[],"stateMutability":"nonpayable"},{"type":"function","name":"burnFrom","inputs":[{"name":"account","type":"address","internalType":"address"},{"name":"value","type":"uint256","internalType":"uint256"}],"outputs":[],"stateMutability":"nonpayable"},{"type":"function","name":"claim","inputs":[{"name":"from","type":"address","internalType":"address"},{"name":"to","type":"address","internalType":"address"},{"name":"amount","type":"uint256","internalType":"uint256"}],"outputs":[],"stateMutability":"nonpayable"},{"type":"function","name":"decimals","inputs":[],"outputs":[{"name":"","type":"uint8","internalType":"uint8"}],"stateMutability":"view"},{"type":"function","name":"getRoleAdmin","inputs":[{"name":"role","type":"bytes32","internalType":"bytes32"}],"outputs":[{"name":"","type":"bytes32","internalType":"bytes32"}],"stateMutability":"view"},{"type":"function","name":"grantRole","inputs":[{"name":"role","type":"bytes32","internalType":"bytes32"},{"name":"account","type":"address","internalType":"address"}],"outputs":[],"stateMutability":"nonpayable"},{"type":"function","name":"hasRole","inputs":[{"name":"role","type":"bytes32","internalType":"bytes32"},{"name":"account","type":"address","internalType":"address"}],"outputs":[{"name":"","type":"bool","internalType":"bool"}],"stateMutability":"view"},{"type":"function","name":"initialize","inputs":[{"name":"defaultAdmin","type":"address","internalType":"address"}],"outputs":[],"stateMutability":"nonpayable"},{"type":"function","name":"mint","inputs":[{"name":"account","type":"address","internalType":"address"},{"name":"amount","type":"uint256","internalType":"uint256"}],"outputs":[],"stateMutability":"nonpayable"},{"type":"function","name":"name","inputs":[],"outputs":[{"name":"","type":"string","internalType":"string"}],"stateMutability":"view"},{"type":"function","name":"proxiableUUID","inputs":[],"outputs":[{"name":"","type":"bytes32","internalType":"bytes32"}],"stateMutability":"view"},{"type":"function","name":"renounceRole","inputs":[{"name":"role","type":"bytes32","internalType":"bytes32"},{"name":"callerConfirmation","type":"address","internalType":"address"}],"outputs":[],"stateMutability":"nonpayable"},{"type":"function","name":"revokeRole","inputs":[{"name":"role","type":"bytes32","internalType":"bytes32"},{"name":"account","type":"address","internalType":"address"}],"outputs":[],"stateMutability":"nonpayable"},{"type":"function","name":"supportsInterface","inputs":[{"name":"interfaceId","type":"bytes4","internalType":"bytes4"}],"outputs":[{"name":"","type":"bool","internalType":"bool"}],"stateMutability":"view"},{"type":"function","name":"symbol","inputs":[],"outputs":[{"name":"","type":"string","internalType":"string"}],"stateMutability":"view"},{"type":"function","name":"totalSupply","inputs":[],"outputs":[{"name":"","type":"uint256","internalType":"uint256"}],"stateMutability":"view"},{"type":"function","name":"transfer","inputs":[{"name":"to","type":"address","internalType":"address"},{"name":"value","type":"uint256","internalType":"uint256"}],"outputs":[{"name":"","type":"bool","internalType":"bool"}],"stateMutability":"nonpayable"},{"type":"function","name":"transferFrom","inputs":[{"name":"from","type":"address","internalType":"address"},{"name":"to","type":"address","internalType":"address"},{"name":"value","type":"uint256","internalType":"uint256"}],"outputs":[{"name":"","type":"bool","internalType":"bool"}],"stateMutability":"nonpayable"},{"type":"function","name":"upgradeToAndCall","inputs":[{"name":"newImplementation","type":"address","internalType":"address"},{"name":"data","type":"bytes","internalType":"bytes"}],"outputs":[],"stateMutability":"payable"},{"type":"event","name":"Approval","inputs":[{"name":"owner","type":"address","indexed":true,"internalType":"address"},{"name":"spender","type":"address","indexed":true,"internalType":"address"},{"name":"value","type":"uint256","indexed":false,"internalType":"uint256"}],"anonymous":false},{"type":"event","name":"Initialized","inputs":[{"name":"version","type":"uint64","indexed":false,"internalType":"uint64"}],"anonymous":false},{"type":"event","name":"RoleAdminChanged","inputs":[{"name":"role","type":"bytes32","indexed":true,"internalType":"bytes32"},{"name":"previousAdminRole","type":"bytes32","indexed":true,"internalType":"bytes32"},{"name":"newAdminRole","type":"bytes32","indexed":true,"internalType":"bytes32"}],"anonymous":false},{"type":"event","name":"RoleGranted","inputs":[{"name":"role","type":"bytes32","indexed":true,"internalType":"bytes32"},{"name":"account","type":"address","indexed":true,"internalType":"address"},{"name":"sender","type":"address","indexed":true,"internalType":"address"}],"anonymous":false},{"type":"event","name":"RoleRevoked","inputs":[{"name":"role","type":"bytes32","indexed":true,"internalType":"bytes32"},{"name":"account","type":"address","indexed":true,"internalType":"address"},{"name":"sender","type":"address","indexed":true,"internalType":"address"}],"anonymous":false},{"type":"event","name":"Transfer","inputs":[{"name":"from","type":"address","indexed":true,"internalType":"address"},{"name":"to","type":"address","indexed":true,"internalType":"address"},{"name":"value","type":"uint256","indexed":false,"internalType":"uint256"}],"anonymous":false},{"type":"event","name":"Upgraded","inputs":[{"name":"implementation","type":"address","indexed":true,"internalType":"address"}],"anonymous":false},{"type":"error","name":"AccessControlBadConfirmation","inputs":[]},{"type":"error","name":"AccessControlUnauthorizedAccount","inputs":[{"name":"account","type":"address","internalType":"address"},{"name":"neededRole","type":"bytes32","internalType":"bytes32"}]},{"type":"error","name":"AddressEmptyCode","inputs":[{"name":"target","type":"address","internalType":"address"}]},{"type":"error","name":"ERC1967InvalidImplementation","inputs":[{"name":"implementation","type":"address","internalType":"address"}]},{"type":"error","name":"ERC1967NonPayable","inputs":[]},{"type":"error","name":"ERC20InsufficientAllowance","inputs":[{"name":"spender","type":"address","internalType":"address"},{"name":"allowance","type":"uint256","internalType":"uint256"},{"name":"needed","type":"uint256","internalType":"uint256"}]},{"type":"error","name":"ERC20InsufficientBalance","inputs":[{"name":"sender","type":"address","internalType":"address"},{"name":"balance","type":"uint256","internalType":"uint256"},{"name":"needed","type":"uint256","internalType":"uint256"}]},{"type":"error","name":"ERC20InvalidApprover","inputs":[{"name":"approver","type":"address","internalType":"address"}]},{"type":"error","name":"ERC20InvalidReceiver","inputs":[{"name":"receiver","type":"address","internalType":"address"}]},{"type":"error","name":"ERC20InvalidSender","inputs":[{"name":"sender","type":"address","internalType":"address"}]},{"type":"error","name":"ERC20InvalidSpender","inputs":[{"name":"spender","type":"address","internalType":"address"}]},{"type":"error","name":"FailedInnerCall","inputs":[]},{"type":"error","name":"InvalidInitialization","inputs":[]},{"type":"error","name":"NotInitializing","inputs":[]},{"type":"error","name":"UUPSUnauthorizedCallContext","inputs":[]},{"type":"error","name":"UUPSUnsupportedProxiableUUID","inputs":[{"name":"slot","type":"bytes32","internalType":"bytes32"}]}],"bytecode":{"object":"0x60a060405230608052348015601357600080fd5b5060805161181b61003d60003960008181610cbf01528181610ce80152610e3b015261181b6000f3fe60806040526004361061019c5760003560e01c806370a08231116100ec578063a217fddf1161008a578063ad3cb1cc11610064578063ad3cb1cc146104bf578063c4d66de8146104f0578063d547741f14610510578063dd62ed3e1461053057600080fd5b8063a217fddf14610456578063a9059cbb1461046b578063a966a0df1461048b57600080fd5b806391d14854116100c657806391d14854146103e157806395d89b4114610401578063996cba68146104165780639dc29fac1461043657600080fd5b806370a082311461035c57806375b238fc1461039f57806379cc6790146103c157600080fd5b80632f2ff15d1161015957806340c10f191161013357806340c10f19146102f457806342966c68146103145780634f1ef2861461033457806352d1902d1461034757600080fd5b80632f2ff15d14610296578063313ce567146102b857806336568abe146102d457600080fd5b806301ffc9a7146101a157806306fdde03146101d6578063095ea7b3146101f857806318160ddd1461021857806323b872dd14610256578063248a9ca314610276575b600080fd5b3480156101ad57600080fd5b506101c16101bc366004611361565b610550565b60405190151581526020015b60405180910390f35b3480156101e257600080fd5b506101eb610587565b6040516101cd91906113af565b34801561020457600080fd5b506101c16102133660046113fe565b61064a565b34801561022457600080fd5b507f52c63247e1f47db19d5ce0460030c497f067ca4cebf71ba98eeadabe20bace02545b6040519081526020016101cd565b34801561026257600080fd5b506101c1610271366004611428565b610662565b34801561028257600080fd5b50610248610291366004611465565b610688565b3480156102a257600080fd5b506102b66102b136600461147e565b6106aa565b005b3480156102c457600080fd5b50604051601281526020016101cd565b3480156102e057600080fd5b506102b66102ef36600461147e565b6106cc565b34801561030057600080fd5b506102b661030f3660046113fe565b610704565b34801561032057600080fd5b506102b661032f366004611465565b610726565b6102b66103423660046114c0565b610733565b34801561035357600080fd5b50610248610752565b34801561036857600080fd5b5061024861037736600461158a565b6001600160a01b03166000908152600080516020611766833981519152602052604090205490565b3480156103ab57600080fd5b506102486000805160206117c683398151915281565b3480156103cd57600080fd5b506102b66103dc3660046113fe565b61076f565b3480156103ed57600080fd5b506101c16103fc36600461147e565b610784565b34801561040d57600080fd5b506101eb6107bc565b34801561042257600080fd5b506102b6610431366004611428565b6107fb565b34801561044257600080fd5b506102b66104513660046113fe565b610830565b34801561046257600080fd5b50610248600081565b34801561047757600080fd5b506101c16104863660046113fe565b610852565b34801561049757600080fd5b506102487f877a78dc988c0ec5f58453b44888a55eb39755c3d5ed8d8ea990912aa3ef29c681565b3480156104cb57600080fd5b506101eb604051806040016040528060058152602001640352e302e360dc1b81525081565b3480156104fc57600080fd5b506102b661050b36600461158a565b610860565b34801561051c57600080fd5b506102b661052b36600461147e565b6109e6565b34801561053c57600080fd5b5061024861054b3660046115a5565b610a02565b60006001600160e01b03198216637965db0b60e01b148061058157506301ffc9a760e01b6001600160e01b03198316145b92915050565b7f52c63247e1f47db19d5ce0460030c497f067ca4cebf71ba98eeadabe20bace038054606091600080516020611766833981519152916105c6906115cf565b80601f01602080910402602001604051908101604052809291908181526020018280546105f2906115cf565b801561063f5780601f106106145761010080835404028352916020019161063f565b820191906000526020600020905b81548152906001019060200180831161062257829003601f168201915b505050505091505090565b600033610658818585610a4c565b5060019392505050565b600033610670858285610a59565b61067b858585610abe565b60019150505b9392505050565b60009081526000805160206117a6833981519152602052604090206001015490565b6106b382610688565b6106bc81610b1d565b6106c68383610b27565b50505050565b6001600160a01b03811633146106f55760405163334bd91960e11b815260040160405180910390fd5b6106ff8282610bcc565b505050565b6000805160206117c683398151915261071c81610b1d565b6106ff8383610c48565b6107303382610c7e565b50565b61073b610cb4565b61074482610d5b565b61074e8282610d73565b5050565b600061075c610e30565b5060008051602061178683398151915290565b61077a823383610a59565b61074e8282610c7e565b60009182526000805160206117a6833981519152602090815260408084206001600160a01b0393909316845291905290205460ff1690565b7f52c63247e1f47db19d5ce0460030c497f067ca4cebf71ba98eeadabe20bace048054606091600080516020611766833981519152916105c6906115cf565b7f877a78dc988c0ec5f58453b44888a55eb39755c3d5ed8d8ea990912aa3ef29c661082581610b1d565b6106c6848484610abe565b6000805160206117c683398151915261084881610b1d565b6106ff8383610c7e565b600033610658818585610abe565b7ff0c57e16840df040f15088dc2f81fe391c3923bec73e23a9662efc9c229c6a008054600160401b810460ff16159067ffffffffffffffff166000811580156108a65750825b905060008267ffffffffffffffff1660011480156108c35750303b155b9050811580156108d1575080155b156108ef5760405163f92ee8a960e01b815260040160405180910390fd5b845467ffffffffffffffff19166001178555831561091957845460ff60401b1916600160401b1785555b61095b6040518060400160405280600581526020016414d3d5539160da1b8152506040518060400160405280600381526020016214d39160ea1b815250610e79565b610963610e8b565b61096b610e8b565b610973610e8b565b61097e600087610b27565b506109976000805160206117c683398151915287610b27565b5083156109de57845460ff60401b19168555604051600181527fc7f505b2f371ae2175ee4913f4499e1f2633a7b5936321eed1cdaeb6115181d29060200160405180910390a15b505050505050565b6109ef82610688565b6109f881610b1d565b6106c68383610bcc565b6001600160a01b0391821660009081527f52c63247e1f47db19d5ce0460030c497f067ca4cebf71ba98eeadabe20bace016020908152604080832093909416825291909152205490565b6106ff8383836001610e93565b6000610a658484610a02565b905060001981146106c65781811015610aaf57604051637dc7a0d960e11b81526001600160a01b038416600482015260248101829052604481018390526064015b60405180910390fd5b6106c684848484036000610e93565b6001600160a01b038316610ae857604051634b637e8f60e11b815260006004820152602401610aa6565b6001600160a01b038216610b125760405163ec442f0560e01b815260006004820152602401610aa6565b6106ff838383610f7b565b61073081336110b9565b60006000805160206117a6833981519152610b428484610784565b610bc2576000848152602082815260408083206001600160a01b03871684529091529020805460ff19166001179055610b783390565b6001600160a01b0316836001600160a01b0316857f2f8788117e7eff1d82e926ec794901d17c78024a50270940304540a733656f0d60405160405180910390a46001915050610581565b6000915050610581565b60006000805160206117a6833981519152610be78484610784565b15610bc2576000848152602082815260408083206001600160a01b0387168085529252808320805460ff1916905551339287917ff6391f5c32d9c69d2a47ea670b442974b53935d1edc7fd64eb21e047a839171b9190a46001915050610581565b6001600160a01b038216610c725760405163ec442f0560e01b815260006004820152602401610aa6565b61074e60008383610f7b565b6001600160a01b038216610ca857604051634b637e8f60e11b815260006004820152602401610aa6565b61074e82600083610f7b565b306001600160a01b037f0000000000000000000000000000000000000000000000000000000000000000161480610d3b57507f00000000000000000000000000000000000000000000000000000000000000006001600160a01b0316610d2f600080516020611786833981519152546001600160a01b031690565b6001600160a01b031614155b15610d595760405163703e46dd60e11b815260040160405180910390fd5b565b6000805160206117c683398151915261074e81610b1d565b816001600160a01b03166352d1902d6040518163ffffffff1660e01b8152600401602060405180830381865afa925050508015610dcd575060408051601f3d908101601f19168201909252610dca91810190611609565b60015b610df557604051634c9c8ce360e01b81526001600160a01b0383166004820152602401610aa6565b6000805160206117868339815191528114610e2657604051632a87526960e21b815260048101829052602401610aa6565b6106ff83836110f2565b306001600160a01b037f00000000000000000000000000000000000000000000000000000000000000001614610d595760405163703e46dd60e11b815260040160405180910390fd5b610e81611148565b61074e8282611191565b610d59611148565b6000805160206117668339815191526001600160a01b038516610ecc5760405163e602df0560e01b815260006004820152602401610aa6565b6001600160a01b038416610ef657604051634a1406b160e11b815260006004820152602401610aa6565b6001600160a01b03808616600090815260018301602090815260408083209388168352929052208390558115610f7457836001600160a01b0316856001600160a01b03167f8c5be1e5ebec7d5bd14f71427d1e84f3dd0314c0f7b2291e5b200ac8c7c3b92585604051610f6b91815260200190565b60405180910390a35b5050505050565b6000805160206117668339815191526001600160a01b038416610fb75781816002016000828254610fac9190611622565b909155506110299050565b6001600160a01b0384166000908152602082905260409020548281101561100a5760405163391434e360e21b81526001600160a01b03861660048201526024810182905260448101849052606401610aa6565b6001600160a01b03851660009081526020839052604090209083900390555b6001600160a01b038316611047576002810180548390039055611066565b6001600160a01b03831660009081526020829052604090208054830190555b826001600160a01b0316846001600160a01b03167fddf252ad1be2c89b69c2b068fc378daa952ba7f163c4a11628f55a4df523b3ef846040516110ab91815260200190565b60405180910390a350505050565b6110c38282610784565b61074e5760405163e2517d3f60e01b81526001600160a01b038216600482015260248101839052604401610aa6565b6110fb826111e2565b6040516001600160a01b038316907fbc7cd75a20ee27fd9adebab32041f755214dbc6bffa90cc0225b39da2e5c2d3b90600090a2805115611140576106ff8282611247565b61074e6112bd565b7ff0c57e16840df040f15088dc2f81fe391c3923bec73e23a9662efc9c229c6a0054600160401b900460ff16610d5957604051631afcd79f60e31b815260040160405180910390fd5b611199611148565b6000805160206117668339815191527f52c63247e1f47db19d5ce0460030c497f067ca4cebf71ba98eeadabe20bace036111d3848261168a565b50600481016106c6838261168a565b806001600160a01b03163b60000361121857604051634c9c8ce360e01b81526001600160a01b0382166004820152602401610aa6565b60008051602061178683398151915280546001600160a01b0319166001600160a01b0392909216919091179055565b6060600080846001600160a01b0316846040516112649190611749565b600060405180830381855af49150503d806000811461129f576040519150601f19603f3d011682016040523d82523d6000602084013e6112a4565b606091505b50915091506112b48583836112dc565b95945050505050565b3415610d595760405163b398979f60e01b815260040160405180910390fd5b6060826112f1576112ec82611338565b610681565b815115801561130857506001600160a01b0384163b155b1561133157604051639996b31560e01b81526001600160a01b0385166004820152602401610aa6565b5080610681565b8051156113485780518082602001fd5b604051630a12f52160e11b815260040160405180910390fd5b60006020828403121561137357600080fd5b81356001600160e01b03198116811461068157600080fd5b60005b838110156113a657818101518382015260200161138e565b50506000910152565b60208152600082518060208401526113ce81604085016020870161138b565b601f01601f19169190910160400192915050565b80356001600160a01b03811681146113f957600080fd5b919050565b6000806040838503121561141157600080fd5b61141a836113e2565b946020939093013593505050565b60008060006060848603121561143d57600080fd5b611446846113e2565b9250611454602085016113e2565b929592945050506040919091013590565b60006020828403121561147757600080fd5b5035919050565b6000806040838503121561149157600080fd5b823591506114a1602084016113e2565b90509250929050565b634e487b7160e01b600052604160045260246000fd5b600080604083850312156114d357600080fd5b6114dc836113e2565b9150602083013567ffffffffffffffff8111156114f857600080fd5b8301601f8101851361150957600080fd5b803567ffffffffffffffff811115611523576115236114aa565b604051601f8201601f19908116603f0116810167ffffffffffffffff81118282101715611552576115526114aa565b60405281815282820160200187101561156a57600080fd5b816020840160208301376000602083830101528093505050509250929050565b60006020828403121561159c57600080fd5b610681826113e2565b600080604083850312156115b857600080fd5b6115c1836113e2565b91506114a1602084016113e2565b600181811c908216806115e357607f821691505b60208210810361160357634e487b7160e01b600052602260045260246000fd5b50919050565b60006020828403121561161b57600080fd5b5051919050565b8082018082111561058157634e487b7160e01b600052601160045260246000fd5b601f8211156106ff57806000526020600020601f840160051c8101602085101561166a5750805b601f840160051c820191505b81811015610f745760008155600101611676565b815167ffffffffffffffff8111156116a4576116a46114aa565b6116b8816116b284546115cf565b84611643565b6020601f8211600181146116ec57600083156116d45750848201515b600019600385901b1c1916600184901b178455610f74565b600084815260208120601f198516915b8281101561171c57878501518255602094850194600190920191016116fc565b508482101561173a5786840151600019600387901b60f8161c191681555b50505050600190811b01905550565b6000825161175b81846020870161138b565b919091019291505056fe52c63247e1f47db19d5ce0460030c497f067ca4cebf71ba98eeadabe20bace00360894a13ba1a3210667c828492db98dca3e2076cc3735a920a3ca505d382bbc02dd7bc7dec4dceedda775e58dd541e08a116c6c53815c0bd028192f7b626800a49807205ce4d355092ef5a8a18f56e8913cf4a201fbe287825b095693c21775a26469706673582212200c704f9b20b6a3c66c8914726d29cd37f96bb127a5fae5ab4b9d6f0b81ffa46464736f6c634300081a0033","linkReferences":{}},"methodIdentifiers":{"ADMIN_ROLE()":"75b238fc","ARTIST_ROLE()":"a966a0df","DEFAULT_ADMIN_ROLE()":"a217fddf","UPGRADE_INTERFACE_VERSION()":"ad3cb1cc","allowance(address,address)":"dd62ed3e","approve(address,uint256)":"095ea7b3","balanceOf(address)":"70a08231","burn(address,uint256)":"9dc29fac","burn(uint256)":"42966c68","burnFrom(address,uint256)":"79cc6790","claim(address,address,uint256)":"996cba68","decimals()":"313ce567","getRoleAdmin(bytes32)":"248a9ca3","grantRole(bytes32,address)":"2f2ff15d","hasRole(bytes32,address)":"91d14854","initialize(address)":"c4d66de8","mint(address,uint256)":"40c10f19","name()":"06fdde03","proxiableUUID()":"52d1902d","renounceRole(bytes32,address)":"36568abe","revokeRole(bytes32,address)":"d547741f","supportsInterface(bytes4)":"01ffc9a7","symbol()":"95d89b41","totalSupply()":"18160ddd","transfer(address,uint256)":"a9059cbb","transferFrom(address,address,uint256)":"23b872dd","upgradeToAndCall(address,bytes)":"4f1ef286"},"id":4}