{"abi":[{"type":"function","name":"ADMIN_ROLE","inputs":[],"outputs":[{"name":"","type":"bytes32","internalType":"bytes32"}],"stateMutability":"view"},{"type":"function","name":"ARTIST_ROLE","inputs":[],"outputs":[{"name":"","type":"bytes32","internalType":"bytes32"}],"stateMutability":"view"},{"type":"function","name":"DEFAULT_ADMIN_ROLE","inputs":[],"outputs":[{"name":"","type":"bytes32","internalType":"bytes32"}],"stateMutability":"view"},{"type":"function","name":"UPGRADE_INTERFACE_VERSION","inputs":[],"outputs":[{"name":"","type":"string","internalType":"string"}],"stateMutability":"view"},{"type":"function","name":"allowance","inputs":[{"name":"owner","type":"address","internalType":"address"},{"name":"spender","type":"address","internalType":"address"}],"outputs":[{"name":"","type":"uint256","internalType":"uint256"}],"stateMutability":"view"},{"type":"function","name":"approve","inputs":[{"name":"spender","type":"address","internalType":"address"},{"name":"value","type":"uint256","internalType":"uint256"}],"outputs":[{"name":"","type":"bool","internalType":"bool"}],"stateMutability":"nonpayable"},{"type":"function","name":"balanceOf","inputs":[{"name":"account","type":"address","internalType":"address"}],"outputs":[{"name":"","type":"uint256","internalType":"uint256"}],"stateMutability":"view"},{"type":"function","name":"burn","inputs":[{"name":"value","type":"uint256","internalType":"uint256"}],"outputs":[],"stateMutability":"nonpayable"},{"type":"function","name":"burn","inputs":[{"name":"to","type":"address","internalType":"address"},{"name":"amount","type":"uint256","internalType":"uint256"}],"outputs":[],"stateMutability":"nonpayable"},{"type":"function","name":"burnFrom","inputs":[{"name":"account","type":"address","internalType":"address"},{"name":"value","type":"uint256","internalType":"uint256"}],"outputs":[],"stateMutability":"nonpayable"},{"type":"function","name":"claim","inputs":[{"name":"from","type":"address","internalType":"address"},{"name":"to","type":"address","internalType":"address"},{"name":"amount","type":"uint256","internalType":"uint256"}],"outputs":[],"stateMutability":"nonpayable"},{"type":"function","name":"decimals","inputs":[],"outputs":[{"name":"","type":"uint8","internalType":"uint8"}],"stateMutability":"view"},{"type":"function","name":"getRoleAdmin","inputs":[{"name":"role","type":"bytes32","internalType":"bytes32"}],"outputs":[{"name":"","type":"bytes32","internalType":"bytes32"}],"stateMutability":"view"},{"type":"function","name":"grantRole","inputs":[{"name":"role","type":"bytes32","internalType":"bytes32"},{"name":"account","type":"address","internalType":"address"}],"outputs":[],"stateMutability":"nonpayable"},{"type":"function","name":"hasRole","inputs":[{"name":"role","type":"bytes32","internalType":"bytes32"},{"name":"account","type":"address","internalType":"address"}],"outputs":[{"name":"","type":"bool","internalType":"bool"}],"stateMutability":"view"},{"type":"function","name":"initialize","inputs":[{"name":"admin","type":"address","internalType":"address"},{"name":"staffContractAddress","type":"address","internalType":"address"}],"outputs":[],"stateMutability":"nonpayable"},{"type":"function","name":"mint","inputs":[{"name":"account","type":"address","internalType":"address"},{"name":"amount","type":"uint256","internalType":"uint256"}],"outputs":[],"stateMutability":"nonpayable"},{"type":"function","name":"name","inputs":[],"outputs":[{"name":"","type":"string","internalType":"string"}],"stateMutability":"view"},{"type":"function","name":"proxiableUUID","inputs":[],"outputs":[{"name":"","type":"bytes32","internalType":"bytes32"}],"stateMutability":"view"},{"type":"function","name":"renounceRole","inputs":[{"name":"role","type":"bytes32","internalType":"bytes32"},{"name":"callerConfirmation","type":"address","internalType":"address"}],"outputs":[],"stateMutability":"nonpayable"},{"type":"function","name":"revokeRole","inputs":[{"name":"role","type":"bytes32","internalType":"bytes32"},{"name":"account","type":"address","internalType":"address"}],"outputs":[],"stateMutability":"nonpayable"},{"type":"function","name":"supportsInterface","inputs":[{"name":"interfaceId","type":"bytes4","internalType":"bytes4"}],"outputs":[{"name":"","type":"bool","internalType":"bool"}],"stateMutability":"view"},{"type":"function","name":"symbol","inputs":[],"outputs":[{"name":"","type":"string","internalType":"string"}],"stateMutability":"view"},{"type":"function","name":"totalSupply","inputs":[],"outputs":[{"name":"","type":"uint256","internalType":"uint256"}],"stateMutability":"view"},{"type":"function","name":"transfer","inputs":[{"name":"to","type":"address","internalType":"address"},{"name":"value","type":"uint256","internalType":"uint256"}],"outputs":[{"name":"","type":"bool","internalType":"bool"}],"stateMutability":"nonpayable"},{"type":"function","name":"transferFrom","inputs":[{"name":"from","type":"address","internalType":"address"},{"name":"to","type":"address","internalType":"address"},{"name":"value","type":"uint256","internalType":"uint256"}],"outputs":[{"name":"","type":"bool","internalType":"bool"}],"stateMutability":"nonpayable"},{"type":"function","name":"upgradeToAndCall","inputs":[{"name":"newImplementation","type":"address","internalType":"address"},{"name":"data","type":"bytes","internalType":"bytes"}],"outputs":[],"stateMutability":"payable"},{"type":"event","name":"Approval","inputs":[{"name":"owner","type":"address","indexed":true,"internalType":"address"},{"name":"spender","type":"address","indexed":true,"internalType":"address"},{"name":"value","type":"uint256","indexed":false,"internalType":"uint256"}],"anonymous":false},{"type":"event","name":"Initialized","inputs":[{"name":"version","type":"uint64","indexed":false,"internalType":"uint64"}],"anonymous":false},{"type":"event","name":"RoleAdminChanged","inputs":[{"name":"role","type":"bytes32","indexed":true,"internalType":"bytes32"},{"name":"previousAdminRole","type":"bytes32","indexed":true,"internalType":"bytes32"},{"name":"newAdminRole","type":"bytes32","indexed":true,"internalType":"bytes32"}],"anonymous":false},{"type":"event","name":"RoleGranted","inputs":[{"name":"role","type":"bytes32","indexed":true,"internalType":"bytes32"},{"name":"account","type":"address","indexed":true,"internalType":"address"},{"name":"sender","type":"address","indexed":true,"internalType":"address"}],"anonymous":false},{"type":"event","name":"RoleRevoked","inputs":[{"name":"role","type":"bytes32","indexed":true,"internalType":"bytes32"},{"name":"account","type":"address","indexed":true,"internalType":"address"},{"name":"sender","type":"address","indexed":true,"internalType":"address"}],"anonymous":false},{"type":"event","name":"Transfer","inputs":[{"name":"from","type":"address","indexed":true,"internalType":"address"},{"name":"to","type":"address","indexed":true,"internalType":"address"},{"name":"value","type":"uint256","indexed":false,"internalType":"uint256"}],"anonymous":false},{"type":"event","name":"Upgraded","inputs":[{"name":"implementation","type":"address","indexed":true,"internalType":"address"}],"anonymous":false},{"type":"error","name":"AccessControlBadConfirmation","inputs":[]},{"type":"error","name":"AccessControlUnauthorizedAccount","inputs":[{"name":"account","type":"address","internalType":"address"},{"name":"neededRole","type":"bytes32","internalType":"bytes32"}]},{"type":"error","name":"AddressEmptyCode","inputs":[{"name":"target","type":"address","internalType":"address"}]},{"type":"error","name":"ERC1967InvalidImplementation","inputs":[{"name":"implementation","type":"address","internalType":"address"}]},{"type":"error","name":"ERC1967NonPayable","inputs":[]},{"type":"error","name":"ERC20InsufficientAllowance","inputs":[{"name":"spender","type":"address","internalType":"address"},{"name":"allowance","type":"uint256","internalType":"uint256"},{"name":"needed","type":"uint256","internalType":"uint256"}]},{"type":"error","name":"ERC20InsufficientBalance","inputs":[{"name":"sender","type":"address","internalType":"address"},{"name":"balance","type":"uint256","internalType":"uint256"},{"name":"needed","type":"uint256","internalType":"uint256"}]},{"type":"error","name":"ERC20InvalidApprover","inputs":[{"name":"approver","type":"address","internalType":"address"}]},{"type":"error","name":"ERC20InvalidReceiver","inputs":[{"name":"receiver","type":"address","internalType":"address"}]},{"type":"error","name":"ERC20InvalidSender","inputs":[{"name":"sender","type":"address","internalType":"address"}]},{"type":"error","name":"ERC20InvalidSpender","inputs":[{"name":"spender","type":"address","internalType":"address"}]},{"type":"error","name":"FailedInnerCall","inputs":[]},{"type":"error","name":"InvalidInitialization","inputs":[]},{"type":"error","name":"NotInitializing","inputs":[]},{"type":"error","name":"UUPSUnauthorizedCallContext","inputs":[]},{"type":"error","name":"UUPSUnsupportedProxiableUUID","inputs":[{"name":"slot","type":"bytes32","internalType":"bytes32"}]}],"bytecode":{"object":"0x60a060405230608052348015601357600080fd5b5060805161199f61003d60003960008181610dd101528181610dfa0152610f4b015261199f6000f3fe60806040526004361061019c5760003560e01c806352d1902d116100ec5780639dc29fac1161008a578063a966a0df11610064578063a966a0df146104ab578063ad3cb1cc146104df578063d547741f14610510578063dd62ed3e1461053057600080fd5b80639dc29fac14610456578063a217fddf14610476578063a9059cbb1461048b57600080fd5b806379cc6790116100c657806379cc6790146103e157806391d148541461040157806395d89b4114610421578063996cba681461043657600080fd5b806352d1902d1461036757806370a082311461037c57806375b238fc146103bf57600080fd5b80632f2ff15d1161015957806340c10f191161013357806340c10f19146102f457806342966c6814610314578063485cc955146103345780634f1ef2861461035457600080fd5b80632f2ff15d14610296578063313ce567146102b857806336568abe146102d457600080fd5b806301ffc9a7146101a157806306fdde03146101d6578063095ea7b3146101f857806318160ddd1461021857806323b872dd14610256578063248a9ca314610276575b600080fd5b3480156101ad57600080fd5b506101c16101bc366004611457565b610550565b60405190151581526020015b60405180910390f35b3480156101e257600080fd5b506101eb610587565b6040516101cd91906114a5565b34801561020457600080fd5b506101c16102133660046114f4565b61064a565b34801561022457600080fd5b507f52c63247e1f47db19d5ce0460030c497f067ca4cebf71ba98eeadabe20bace02545b6040519081526020016101cd565b34801561026257600080fd5b506101c161027136600461151e565b610662565b34801561028257600080fd5b5061024861029136600461155b565b610688565b3480156102a257600080fd5b506102b66102b1366004611574565b6106aa565b005b3480156102c457600080fd5b50604051601281526020016101cd565b3480156102e057600080fd5b506102b66102ef366004611574565b6106cc565b34801561030057600080fd5b506102b661030f3660046114f4565b610704565b34801561032057600080fd5b506102b661032f36600461155b565b610726565b34801561034057600080fd5b506102b661034f3660046115a0565b610733565b6102b6610362366004611639565b6108c9565b34801561037357600080fd5b506102486108e8565b34801561038857600080fd5b506102486103973660046116ca565b6001600160a01b031660009081526000805160206118ea833981519152602052604090205490565b3480156103cb57600080fd5b5061024860008051602061194a83398151915281565b3480156103ed57600080fd5b506102b66103fc3660046114f4565b610905565b34801561040d57600080fd5b506101c161041c366004611574565b61091a565b34801561042d57600080fd5b506101eb610952565b34801561044257600080fd5b506102b661045136600461151e565b610991565b34801561046257600080fd5b506102b66104713660046114f4565b610ab1565b34801561048257600080fd5b50610248600081565b34801561049757600080fd5b506101c16104a63660046114f4565b610ad3565b3480156104b757600080fd5b506102487f877a78dc988c0ec5f58453b44888a55eb39755c3d5ed8d8ea990912aa3ef29c681565b3480156104eb57600080fd5b506101eb604051806040016040528060058152602001640352e302e360dc1b81525081565b34801561051c57600080fd5b506102b661052b366004611574565b610ae1565b34801561053c57600080fd5b5061024861054b3660046115a0565b610afd565b60006001600160e01b03198216637965db0b60e01b148061058157506301ffc9a760e01b6001600160e01b03198316145b92915050565b7f52c63247e1f47db19d5ce0460030c497f067ca4cebf71ba98eeadabe20bace0380546060916000805160206118ea833981519152916105c6906116e5565b80601f01602080910402602001604051908101604052809291908181526020018280546105f2906116e5565b801561063f5780601f106106145761010080835404028352916020019161063f565b820191906000526020600020905b81548152906001019060200180831161062257829003601f168201915b505050505091505090565b600033610658818585610b47565b5060019392505050565b600033610670858285610b54565b61067b858585610bb4565b60019150505b9392505050565b600090815260008051602061192a833981519152602052604090206001015490565b6106b382610688565b6106bc81610c13565b6106c68383610c1d565b50505050565b6001600160a01b03811633146106f55760405163334bd91960e11b815260040160405180910390fd5b6106ff8282610cc2565b505050565b60008051602061194a83398151915261071c81610c13565b6106ff8383610d3e565b6107303382610d74565b50565b7ff0c57e16840df040f15088dc2f81fe391c3923bec73e23a9662efc9c229c6a008054600160401b810460ff16159067ffffffffffffffff166000811580156107795750825b905060008267ffffffffffffffff1660011480156107965750303b155b9050811580156107a4575080155b156107c25760405163f92ee8a960e01b815260040160405180910390fd5b845467ffffffffffffffff1916600117855583156107ec57845460ff60401b1916600160401b1785555b61082e6040518060400160405280600581526020016414d3d5539160da1b8152506040518060400160405280600381526020016214d39160ea1b815250610daa565b610836610dbc565b61083e610dbc565b610846610dbc565b61085e60008051602061194a83398151915288610c1d565b50600080546001600160a01b0319166001600160a01b03881617905583156108c057845460ff60401b19168555604051600181527fc7f505b2f371ae2175ee4913f4499e1f2633a7b5936321eed1cdaeb6115181d29060200160405180910390a15b50505050505050565b6108d1610dc6565b6108da82610e6b565b6108e48282610e83565b5050565b60006108f2610f40565b5060008051602061190a83398151915290565b610910823383610b54565b6108e48282610d74565b600091825260008051602061192a833981519152602090815260408084206001600160a01b0393909316845291905290205460ff1690565b7f52c63247e1f47db19d5ce0460030c497f067ca4cebf71ba98eeadabe20bace0480546060916000805160206118ea833981519152916105c6906116e5565b60405165185c9d1a5cdd60d21b602082015260260160408051808303601f1901815290829052805160209091012060005463cb510e9760e01b835233600484015290916001600160a01b039091169063cb510e9790602401600060405180830381865afa158015610a06573d6000803e3d6000fd5b505050506040513d6000823e601f3d908101601f19168201604052610a2e919081019061171f565b604051602001610a3e919061178d565b6040516020818303038152906040528051906020012014610aa65760405162461bcd60e51b815260206004820152601760248201527f43616c6c6572206973206e6f7420616e2061727469737400000000000000000060448201526064015b60405180910390fd5b6106ff838383610bb4565b60008051602061194a833981519152610ac981610c13565b6106ff8383610d74565b600033610658818585610bb4565b610aea82610688565b610af381610c13565b6106c68383610cc2565b6001600160a01b0391821660009081527f52c63247e1f47db19d5ce0460030c497f067ca4cebf71ba98eeadabe20bace016020908152604080832093909416825291909152205490565b6106ff8383836001610f89565b6000610b608484610afd565b905060001981146106c65781811015610ba557604051637dc7a0d960e11b81526001600160a01b03841660048201526024810182905260448101839052606401610a9d565b6106c684848484036000610f89565b6001600160a01b038316610bde57604051634b637e8f60e11b815260006004820152602401610a9d565b6001600160a01b038216610c085760405163ec442f0560e01b815260006004820152602401610a9d565b6106ff838383611071565b61073081336111af565b600060008051602061192a833981519152610c38848461091a565b610cb8576000848152602082815260408083206001600160a01b03871684529091529020805460ff19166001179055610c6e3390565b6001600160a01b0316836001600160a01b0316857f2f8788117e7eff1d82e926ec794901d17c78024a50270940304540a733656f0d60405160405180910390a46001915050610581565b6000915050610581565b600060008051602061192a833981519152610cdd848461091a565b15610cb8576000848152602082815260408083206001600160a01b0387168085529252808320805460ff1916905551339287917ff6391f5c32d9c69d2a47ea670b442974b53935d1edc7fd64eb21e047a839171b9190a46001915050610581565b6001600160a01b038216610d685760405163ec442f0560e01b815260006004820152602401610a9d565b6108e460008383611071565b6001600160a01b038216610d9e57604051634b637e8f60e11b815260006004820152602401610a9d565b6108e482600083611071565b610db26111e8565b6108e48282611231565b610dc46111e8565b565b306001600160a01b037f0000000000000000000000000000000000000000000000000000000000000000161480610e4d57507f00000000000000000000000000000000000000000000000000000000000000006001600160a01b0316610e4160008051602061190a833981519152546001600160a01b031690565b6001600160a01b031614155b15610dc45760405163703e46dd60e11b815260040160405180910390fd5b60008051602061194a8339815191526108e481610c13565b816001600160a01b03166352d1902d6040518163ffffffff1660e01b8152600401602060405180830381865afa925050508015610edd575060408051601f3d908101601f19168201909252610eda918101906117a9565b60015b610f0557604051634c9c8ce360e01b81526001600160a01b0383166004820152602401610a9d565b60008051602061190a8339815191528114610f3657604051632a87526960e21b815260048101829052602401610a9d565b6106ff8383611282565b306001600160a01b037f00000000000000000000000000000000000000000000000000000000000000001614610dc45760405163703e46dd60e11b815260040160405180910390fd5b6000805160206118ea8339815191526001600160a01b038516610fc25760405163e602df0560e01b815260006004820152602401610a9d565b6001600160a01b038416610fec57604051634a1406b160e11b815260006004820152602401610a9d565b6001600160a01b0380861660009081526001830160209081526040808320938816835292905220839055811561106a57836001600160a01b0316856001600160a01b03167f8c5be1e5ebec7d5bd14f71427d1e84f3dd0314c0f7b2291e5b200ac8c7c3b9258560405161106191815260200190565b60405180910390a35b5050505050565b6000805160206118ea8339815191526001600160a01b0384166110ad57818160020160008282546110a291906117c2565b9091555061111f9050565b6001600160a01b038416600090815260208290526040902054828110156111005760405163391434e360e21b81526001600160a01b03861660048201526024810182905260448101849052606401610a9d565b6001600160a01b03851660009081526020839052604090209083900390555b6001600160a01b03831661113d57600281018054839003905561115c565b6001600160a01b03831660009081526020829052604090208054830190555b826001600160a01b0316846001600160a01b03167fddf252ad1be2c89b69c2b068fc378daa952ba7f163c4a11628f55a4df523b3ef846040516111a191815260200190565b60405180910390a350505050565b6111b9828261091a565b6108e45760405163e2517d3f60e01b81526001600160a01b038216600482015260248101839052604401610a9d565b7ff0c57e16840df040f15088dc2f81fe391c3923bec73e23a9662efc9c229c6a0054600160401b900460ff16610dc457604051631afcd79f60e31b815260040160405180910390fd5b6112396111e8565b6000805160206118ea8339815191527f52c63247e1f47db19d5ce0460030c497f067ca4cebf71ba98eeadabe20bace03611273848261182a565b50600481016106c6838261182a565b61128b826112d8565b6040516001600160a01b038316907fbc7cd75a20ee27fd9adebab32041f755214dbc6bffa90cc0225b39da2e5c2d3b90600090a28051156112d0576106ff828261133d565b6108e46113b3565b806001600160a01b03163b60000361130e57604051634c9c8ce360e01b81526001600160a01b0382166004820152602401610a9d565b60008051602061190a83398151915280546001600160a01b0319166001600160a01b0392909216919091179055565b6060600080846001600160a01b03168460405161135a919061178d565b600060405180830381855af49150503d8060008114611395576040519150601f19603f3d011682016040523d82523d6000602084013e61139a565b606091505b50915091506113aa8583836113d2565b95945050505050565b3415610dc45760405163b398979f60e01b815260040160405180910390fd5b6060826113e7576113e28261142e565b610681565b81511580156113fe57506001600160a01b0384163b155b1561142757604051639996b31560e01b81526001600160a01b0385166004820152602401610a9d565b5080610681565b80511561143e5780518082602001fd5b604051630a12f52160e11b815260040160405180910390fd5b60006020828403121561146957600080fd5b81356001600160e01b03198116811461068157600080fd5b60005b8381101561149c578181015183820152602001611484565b50506000910152565b60208152600082518060208401526114c4816040850160208701611481565b601f01601f19169190910160400192915050565b80356001600160a01b03811681146114ef57600080fd5b919050565b6000806040838503121561150757600080fd5b611510836114d8565b946020939093013593505050565b60008060006060848603121561153357600080fd5b61153c846114d8565b925061154a602085016114d8565b929592945050506040919091013590565b60006020828403121561156d57600080fd5b5035919050565b6000806040838503121561158757600080fd5b82359150611597602084016114d8565b90509250929050565b600080604083850312156115b357600080fd5b6115bc836114d8565b9150611597602084016114d8565b634e487b7160e01b600052604160045260246000fd5b604051601f8201601f1916810167ffffffffffffffff81118282101715611609576116096115ca565b604052919050565b600067ffffffffffffffff82111561162b5761162b6115ca565b50601f01601f191660200190565b6000806040838503121561164c57600080fd5b611655836114d8565b9150602083013567ffffffffffffffff81111561167157600080fd5b8301601f8101851361168257600080fd5b803561169561169082611611565b6115e0565b8181528660208385010111156116aa57600080fd5b816020840160208301376000602083830101528093505050509250929050565b6000602082840312156116dc57600080fd5b610681826114d8565b600181811c908216806116f957607f821691505b60208210810361171957634e487b7160e01b600052602260045260246000fd5b50919050565b60006020828403121561173157600080fd5b815167ffffffffffffffff81111561174857600080fd5b8201601f8101841361175957600080fd5b805161176761169082611611565b81815285602083850101111561177c57600080fd5b6113aa826020830160208601611481565b6000825161179f818460208701611481565b9190910192915050565b6000602082840312156117bb57600080fd5b5051919050565b8082018082111561058157634e487b7160e01b600052601160045260246000fd5b601f8211156106ff57806000526020600020601f840160051c8101602085101561180a5750805b601f840160051c820191505b8181101561106a5760008155600101611816565b815167ffffffffffffffff811115611844576118446115ca565b6118588161185284546116e5565b846117e3565b6020601f82116001811461188c57600083156118745750848201515b600019600385901b1c1916600184901b17845561106a565b600084815260208120601f198516915b828110156118bc578785015182556020948501946001909201910161189c565b50848210156118da5786840151600019600387901b60f8161c191681555b50505050600190811b0190555056fe52c63247e1f47db19d5ce0460030c497f067ca4cebf71ba98eeadabe20bace00360894a13ba1a3210667c828492db98dca3e2076cc3735a920a3ca505d382bbc02dd7bc7dec4dceedda775e58dd541e08a116c6c53815c0bd028192f7b626800a49807205ce4d355092ef5a8a18f56e8913cf4a201fbe287825b095693c21775a26469706673582212207eb268c3eb667eb262795496b28b61811d5b25be759e2522d1c31a8460f20dea64736f6c634300081a0033","linkReferences":{}},"methodIdentifiers":{"ADMIN_ROLE()":"75b238fc","ARTIST_ROLE()":"a966a0df","DEFAULT_ADMIN_ROLE()":"a217fddf","UPGRADE_INTERFACE_VERSION()":"ad3cb1cc","allowance(address,address)":"dd62ed3e","approve(address,uint256)":"095ea7b3","balanceOf(address)":"70a08231","burn(address,uint256)":"9dc29fac","burn(uint256)":"42966c68","burnFrom(address,uint256)":"79cc6790","claim(address,address,uint256)":"996cba68","decimals()":"313ce567","getRoleAdmin(bytes32)":"248a9ca3","grantRole(bytes32,address)":"2f2ff15d","hasRole(bytes32,address)":"91d14854","initialize(address,address)":"485cc955","mint(address,uint256)":"40c10f19","name()":"06fdde03","proxiableUUID()":"52d1902d","renounceRole(bytes32,address)":"36568abe","revokeRole(bytes32,address)":"d547741f","supportsInterface(bytes4)":"01ffc9a7","symbol()":"95d89b41","totalSupply()":"18160ddd","transfer(address,uint256)":"a9059cbb","transferFrom(address,address,uint256)":"23b872dd","upgradeToAndCall(address,bytes)":"4f1ef286"},"id":2}