{
  "_format": "hh-sol-artifact-1",
  "contractName": "SoundNFT",
  "sourceName": "contracts/SoundNFT.sol",
  "abi": [
    {
      "inputs": [],
      "name": "AccessControlBadConfirmation",
      "type": "error"
    },
    {
      "inputs": [
        {
          "internalType": "address",
          "name": "account",
          "type": "address"
        },
        {
          "internalType": "bytes32",
          "name": "neededRole",
          "type": "bytes32"
        }
      ],
      "name": "AccessControlUnauthorizedAccount",
      "type": "error"
    },
    {
      "inputs": [
        {
          "internalType": "address",
          "name": "target",
          "type": "address"
        }
      ],
      "name": "AddressEmptyCode",
      "type": "error"
    },
    {
      "inputs": [
        {
          "internalType": "address",
          "name": "implementation",
          "type": "address"
        }
      ],
      "name": "ERC1967InvalidImplementation",
      "type": "error"
    },
    {
      "inputs": [],
      "name": "ERC1967NonPayable",
      "type": "error"
    },
    {
      "inputs": [
        {
          "internalType": "address",
          "name": "sender",
          "type": "address"
        },
        {
          "internalType": "uint256",
          "name": "tokenId",
          "type": "uint256"
        },
        {
          "internalType": "address",
          "name": "owner",
          "type": "address"
        }
      ],
      "name": "ERC721IncorrectOwner",
      "type": "error"
    },
    {
      "inputs": [
        {
          "internalType": "address",
          "name": "operator",
          "type": "address"
        },
        {
          "internalType": "uint256",
          "name": "tokenId",
          "type": "uint256"
        }
      ],
      "name": "ERC721InsufficientApproval",
      "type": "error"
    },
    {
      "inputs": [
        {
          "internalType": "address",
          "name": "approver",
          "type": "address"
        }
      ],
      "name": "ERC721InvalidApprover",
      "type": "error"
    },
    {
      "inputs": [
        {
          "internalType": "address",
          "name": "operator",
          "type": "address"
        }
      ],
      "name": "ERC721InvalidOperator",
      "type": "error"
    },
    {
      "inputs": [
        {
          "internalType": "address",
          "name": "owner",
          "type": "address"
        }
      ],
      "name": "ERC721InvalidOwner",
      "type": "error"
    },
    {
      "inputs": [
        {
          "internalType": "address",
          "name": "receiver",
          "type": "address"
        }
      ],
      "name": "ERC721InvalidReceiver",
      "type": "error"
    },
    {
      "inputs": [
        {
          "internalType": "address",
          "name": "sender",
          "type": "address"
        }
      ],
      "name": "ERC721InvalidSender",
      "type": "error"
    },
    {
      "inputs": [
        {
          "internalType": "uint256",
          "name": "tokenId",
          "type": "uint256"
        }
      ],
      "name": "ERC721NonexistentToken",
      "type": "error"
    },
    {
      "inputs": [],
      "name": "FailedInnerCall",
      "type": "error"
    },
    {
      "inputs": [],
      "name": "InvalidInitialization",
      "type": "error"
    },
    {
      "inputs": [],
      "name": "NotInitializing",
      "type": "error"
    },
    {
      "inputs": [],
      "name": "UUPSUnauthorizedCallContext",
      "type": "error"
    },
    {
      "inputs": [
        {
          "internalType": "bytes32",
          "name": "slot",
          "type": "bytes32"
        }
      ],
      "name": "UUPSUnsupportedProxiableUUID",
      "type": "error"
    },
    {
      "anonymous": false,
      "inputs": [
        {
          "indexed": true,
          "internalType": "address",
          "name": "owner",
          "type": "address"
        },
        {
          "indexed": true,
          "internalType": "address",
          "name": "approved",
          "type": "address"
        },
        {
          "indexed": true,
          "internalType": "uint256",
          "name": "tokenId",
          "type": "uint256"
        }
      ],
      "name": "Approval",
      "type": "event"
    },
    {
      "anonymous": false,
      "inputs": [
        {
          "indexed": true,
          "internalType": "address",
          "name": "owner",
          "type": "address"
        },
        {
          "indexed": true,
          "internalType": "address",
          "name": "operator",
          "type": "address"
        },
        {
          "indexed": false,
          "internalType": "bool",
          "name": "approved",
          "type": "bool"
        }
      ],
      "name": "ApprovalForAll",
      "type": "event"
    },
    {
      "anonymous": false,
      "inputs": [
        {
          "indexed": false,
          "internalType": "uint256",
          "name": "_fromTokenId",
          "type": "uint256"
        },
        {
          "indexed": false,
          "internalType": "uint256",
          "name": "_toTokenId",
          "type": "uint256"
        }
      ],
      "name": "BatchMetadataUpdate",
      "type": "event"
    },
    {
      "anonymous": false,
      "inputs": [
        {
          "indexed": false,
          "internalType": "uint64",
          "name": "version",
          "type": "uint64"
        }
      ],
      "name": "Initialized",
      "type": "event"
    },
    {
      "anonymous": false,
      "inputs": [
        {
          "indexed": false,
          "internalType": "uint256",
          "name": "_tokenId",
          "type": "uint256"
        }
      ],
      "name": "MetadataUpdate",
      "type": "event"
    },
    {
      "anonymous": false,
      "inputs": [
        {
          "indexed": true,
          "internalType": "bytes32",
          "name": "role",
          "type": "bytes32"
        },
        {
          "indexed": true,
          "internalType": "bytes32",
          "name": "previousAdminRole",
          "type": "bytes32"
        },
        {
          "indexed": true,
          "internalType": "bytes32",
          "name": "newAdminRole",
          "type": "bytes32"
        }
      ],
      "name": "RoleAdminChanged",
      "type": "event"
    },
    {
      "anonymous": false,
      "inputs": [
        {
          "indexed": true,
          "internalType": "bytes32",
          "name": "role",
          "type": "bytes32"
        },
        {
          "indexed": true,
          "internalType": "address",
          "name": "account",
          "type": "address"
        },
        {
          "indexed": true,
          "internalType": "address",
          "name": "sender",
          "type": "address"
        }
      ],
      "name": "RoleGranted",
      "type": "event"
    },
    {
      "anonymous": false,
      "inputs": [
        {
          "indexed": true,
          "internalType": "bytes32",
          "name": "role",
          "type": "bytes32"
        },
        {
          "indexed": true,
          "internalType": "address",
          "name": "account",
          "type": "address"
        },
        {
          "indexed": true,
          "internalType": "address",
          "name": "sender",
          "type": "address"
        }
      ],
      "name": "RoleRevoked",
      "type": "event"
    },
    {
      "anonymous": false,
      "inputs": [
        {
          "indexed": true,
          "internalType": "address",
          "name": "from",
          "type": "address"
        },
        {
          "indexed": true,
          "internalType": "address",
          "name": "to",
          "type": "address"
        },
        {
          "indexed": true,
          "internalType": "uint256",
          "name": "tokenId",
          "type": "uint256"
        }
      ],
      "name": "Transfer",
      "type": "event"
    },
    {
      "anonymous": false,
      "inputs": [
        {
          "indexed": true,
          "internalType": "address",
          "name": "implementation",
          "type": "address"
        }
      ],
      "name": "Upgraded",
      "type": "event"
    },
    {
      "inputs": [],
      "name": "ADMIN_ROLE",
      "outputs": [
        {
          "internalType": "bytes32",
          "name": "",
          "type": "bytes32"
        }
      ],
      "stateMutability": "view",
      "type": "function"
    },
    {
      "inputs": [],
      "name": "ARTIST_ROLE",
      "outputs": [
        {
          "internalType": "bytes32",
          "name": "",
          "type": "bytes32"
        }
      ],
      "stateMutability": "view",
      "type": "function"
    },
    {
      "inputs": [],
      "name": "DEFAULT_ADMIN_ROLE",
      "outputs": [
        {
          "internalType": "bytes32",
          "name": "",
          "type": "bytes32"
        }
      ],
      "stateMutability": "view",
      "type": "function"
    },
    {
      "inputs": [],
      "name": "UPGRADE_INTERFACE_VERSION",
      "outputs": [
        {
          "internalType": "string",
          "name": "",
          "type": "string"
        }
      ],
      "stateMutability": "view",
      "type": "function"
    },
    {
      "inputs": [
        {
          "internalType": "address",
          "name": "account",
          "type": "address"
        },
        {
          "internalType": "string",
          "name": "role",
          "type": "string"
        }
      ],
      "name": "addStaff",
      "outputs": [],
      "stateMutability": "nonpayable",
      "type": "function"
    },
    {
      "inputs": [
        {
          "internalType": "address",
          "name": "to",
          "type": "address"
        },
        {
          "internalType": "uint256",
          "name": "tokenId",
          "type": "uint256"
        }
      ],
      "name": "approve",
      "outputs": [],
      "stateMutability": "nonpayable",
      "type": "function"
    },
    {
      "inputs": [
        {
          "internalType": "address",
          "name": "owner",
          "type": "address"
        }
      ],
      "name": "balanceOf",
      "outputs": [
        {
          "internalType": "uint256",
          "name": "",
          "type": "uint256"
        }
      ],
      "stateMutability": "view",
      "type": "function"
    },
    {
      "inputs": [
        {
          "internalType": "uint256",
          "name": "tokenId",
          "type": "uint256"
        }
      ],
      "name": "burn",
      "outputs": [],
      "stateMutability": "nonpayable",
      "type": "function"
    },
    {
      "inputs": [
        {
          "internalType": "uint256",
          "name": "tokenId",
          "type": "uint256"
        }
      ],
      "name": "getApproved",
      "outputs": [
        {
          "internalType": "address",
          "name": "",
          "type": "address"
        }
      ],
      "stateMutability": "view",
      "type": "function"
    },
    {
      "inputs": [
        {
          "internalType": "bytes32",
          "name": "role",
          "type": "bytes32"
        }
      ],
      "name": "getRoleAdmin",
      "outputs": [
        {
          "internalType": "bytes32",
          "name": "",
          "type": "bytes32"
        }
      ],
      "stateMutability": "view",
      "type": "function"
    },
    {
      "inputs": [
        {
          "internalType": "bytes32",
          "name": "role",
          "type": "bytes32"
        },
        {
          "internalType": "address",
          "name": "account",
          "type": "address"
        }
      ],
      "name": "grantRole",
      "outputs": [],
      "stateMutability": "nonpayable",
      "type": "function"
    },
    {
      "inputs": [
        {
          "internalType": "bytes32",
          "name": "role",
          "type": "bytes32"
        },
        {
          "internalType": "address",
          "name": "account",
          "type": "address"
        }
      ],
      "name": "hasRole",
      "outputs": [
        {
          "internalType": "bool",
          "name": "",
          "type": "bool"
        }
      ],
      "stateMutability": "view",
      "type": "function"
    },
    {
      "inputs": [
        {
          "internalType": "address",
          "name": "admin",
          "type": "address"
        },
        {
          "internalType": "address",
          "name": "artist",
          "type": "address"
        },
        {
          "internalType": "string",
          "name": "name",
          "type": "string"
        },
        {
          "internalType": "string",
          "name": "symbol",
          "type": "string"
        }
      ],
      "name": "initialize",
      "outputs": [],
      "stateMutability": "nonpayable",
      "type": "function"
    },
    {
      "inputs": [
        {
          "internalType": "address",
          "name": "owner",
          "type": "address"
        },
        {
          "internalType": "address",
          "name": "operator",
          "type": "address"
        }
      ],
      "name": "isApprovedForAll",
      "outputs": [
        {
          "internalType": "bool",
          "name": "",
          "type": "bool"
        }
      ],
      "stateMutability": "view",
      "type": "function"
    },
    {
      "inputs": [
        {
          "internalType": "address",
          "name": "account",
          "type": "address"
        }
      ],
      "name": "isStaff",
      "outputs": [
        {
          "internalType": "string",
          "name": "",
          "type": "string"
        }
      ],
      "stateMutability": "view",
      "type": "function"
    },
    {
      "inputs": [],
      "name": "name",
      "outputs": [
        {
          "internalType": "string",
          "name": "",
          "type": "string"
        }
      ],
      "stateMutability": "view",
      "type": "function"
    },
    {
      "inputs": [
        {
          "internalType": "uint256",
          "name": "tokenId",
          "type": "uint256"
        }
      ],
      "name": "ownerOf",
      "outputs": [
        {
          "internalType": "address",
          "name": "",
          "type": "address"
        }
      ],
      "stateMutability": "view",
      "type": "function"
    },
    {
      "inputs": [],
      "name": "proxiableUUID",
      "outputs": [
        {
          "internalType": "bytes32",
          "name": "",
          "type": "bytes32"
        }
      ],
      "stateMutability": "view",
      "type": "function"
    },
    {
      "inputs": [
        {
          "internalType": "address",
          "name": "account",
          "type": "address"
        },
        {
          "internalType": "string",
          "name": "role",
          "type": "string"
        }
      ],
      "name": "removeStaff",
      "outputs": [],
      "stateMutability": "nonpayable",
      "type": "function"
    },
    {
      "inputs": [
        {
          "internalType": "bytes32",
          "name": "role",
          "type": "bytes32"
        },
        {
          "internalType": "address",
          "name": "callerConfirmation",
          "type": "address"
        }
      ],
      "name": "renounceRole",
      "outputs": [],
      "stateMutability": "nonpayable",
      "type": "function"
    },
    {
      "inputs": [
        {
          "internalType": "bytes32",
          "name": "role",
          "type": "bytes32"
        },
        {
          "internalType": "address",
          "name": "account",
          "type": "address"
        }
      ],
      "name": "revokeRole",
      "outputs": [],
      "stateMutability": "nonpayable",
      "type": "function"
    },
    {
      "inputs": [
        {
          "internalType": "address",
          "name": "to",
          "type": "address"
        },
        {
          "internalType": "string",
          "name": "uri",
          "type": "string"
        }
      ],
      "name": "safeMint",
      "outputs": [],
      "stateMutability": "nonpayable",
      "type": "function"
    },
    {
      "inputs": [
        {
          "internalType": "address",
          "name": "from",
          "type": "address"
        },
        {
          "internalType": "address",
          "name": "to",
          "type": "address"
        },
        {
          "internalType": "uint256",
          "name": "tokenId",
          "type": "uint256"
        }
      ],
      "name": "safeTransferFrom",
      "outputs": [],
      "stateMutability": "nonpayable",
      "type": "function"
    },
    {
      "inputs": [
        {
          "internalType": "address",
          "name": "from",
          "type": "address"
        },
        {
          "internalType": "address",
          "name": "to",
          "type": "address"
        },
        {
          "internalType": "uint256",
          "name": "tokenId",
          "type": "uint256"
        },
        {
          "internalType": "bytes",
          "name": "data",
          "type": "bytes"
        }
      ],
      "name": "safeTransferFrom",
      "outputs": [],
      "stateMutability": "nonpayable",
      "type": "function"
    },
    {
      "inputs": [
        {
          "internalType": "address",
          "name": "operator",
          "type": "address"
        },
        {
          "internalType": "bool",
          "name": "approved",
          "type": "bool"
        }
      ],
      "name": "setApprovalForAll",
      "outputs": [],
      "stateMutability": "nonpayable",
      "type": "function"
    },
    {
      "inputs": [
        {
          "internalType": "bytes4",
          "name": "interfaceId",
          "type": "bytes4"
        }
      ],
      "name": "supportsInterface",
      "outputs": [
        {
          "internalType": "bool",
          "name": "",
          "type": "bool"
        }
      ],
      "stateMutability": "view",
      "type": "function"
    },
    {
      "inputs": [],
      "name": "symbol",
      "outputs": [
        {
          "internalType": "string",
          "name": "",
          "type": "string"
        }
      ],
      "stateMutability": "view",
      "type": "function"
    },
    {
      "inputs": [
        {
          "internalType": "uint256",
          "name": "tokenId",
          "type": "uint256"
        }
      ],
      "name": "tokenURI",
      "outputs": [
        {
          "internalType": "string",
          "name": "",
          "type": "string"
        }
      ],
      "stateMutability": "view",
      "type": "function"
    },
    {
      "inputs": [
        {
          "internalType": "address",
          "name": "from",
          "type": "address"
        },
        {
          "internalType": "address",
          "name": "to",
          "type": "address"
        },
        {
          "internalType": "uint256",
          "name": "tokenId",
          "type": "uint256"
        }
      ],
      "name": "transferFrom",
      "outputs": [],
      "stateMutability": "nonpayable",
      "type": "function"
    },
    {
      "inputs": [
        {
          "internalType": "address",
          "name": "newImplementation",
          "type": "address"
        },
        {
          "internalType": "bytes",
          "name": "data",
          "type": "bytes"
        }
      ],
      "name": "upgradeToAndCall",
      "outputs": [],
      "stateMutability": "payable",
      "type": "function"
    }
  ],
  "bytecode": "0x60a06040523073ffffffffffffffffffffffffffffffffffffffff1660809073ffffffffffffffffffffffffffffffffffffffff1681525034801561004357600080fd5b50608051613cc461006d60003960008181611831015281816118860152611a640152613cc46000f3fe6080604052600436106101cd5760003560e01c806375b238fc116100f7578063ad3cb1cc11610095578063d204c45e11610064578063d204c45e1461069d578063d547741f146106c6578063e985e9c5146106ef578063f024ec261461072c576101cd565b8063ad3cb1cc146105cf578063b88d4fde146105fa578063c87b56dd14610623578063cb510e9714610660576101cd565b806395d89b41116100d157806395d89b4114610525578063a217fddf14610550578063a22cb4651461057b578063a966a0df146105a4576101cd565b806375b238fc1461049457806379064f68146104bf57806391d14854146104e8576101cd565b80632f2ff15d1161016f5780634f1ef2861161013e5780634f1ef286146103d357806352d1902d146103ef5780636352211e1461041a57806370a0823114610457576101cd565b80632f2ff15d1461032f57806336568abe1461035857806342842e0e1461038157806342966c68146103aa576101cd565b8063095ea7b3116101ab578063095ea7b3146102775780632016a0d2146102a057806323b872dd146102c9578063248a9ca3146102f2576101cd565b806301ffc9a7146101d257806306fdde031461020f578063081812fc1461023a575b600080fd5b3480156101de57600080fd5b506101f960048036038101906101f49190612e2c565b610755565b6040516102069190612e74565b60405180910390f35b34801561021b57600080fd5b50610224610767565b6040516102319190612f1f565b60405180910390f35b34801561024657600080fd5b50610261600480360381019061025c9190612f77565b610808565b60405161026e9190612fe5565b60405180910390f35b34801561028357600080fd5b5061029e6004803603810190610299919061302c565b610824565b005b3480156102ac57600080fd5b506102c760048036038101906102c291906131a1565b61083a565b005b3480156102d557600080fd5b506102f060048036038101906102eb9190613240565b610a51565b005b3480156102fe57600080fd5b50610319600480360381019061031491906132c9565b610b53565b6040516103269190613305565b60405180910390f35b34801561033b57600080fd5b5061035660048036038101906103519190613320565b610b81565b005b34801561036457600080fd5b5061037f600480360381019061037a9190613320565b610ba3565b005b34801561038d57600080fd5b506103a860048036038101906103a39190613240565b610c1e565b005b3480156103b657600080fd5b506103d160048036038101906103cc9190612f77565b610c3e565b005b6103ed60048036038101906103e89190613401565b610c55565b005b3480156103fb57600080fd5b50610404610c74565b6040516104119190613305565b60405180910390f35b34801561042657600080fd5b50610441600480360381019061043c9190612f77565b610ca7565b60405161044e9190612fe5565b60405180910390f35b34801561046357600080fd5b5061047e6004803603810190610479919061345d565b610cb9565b60405161048b9190613499565b60405180910390f35b3480156104a057600080fd5b506104a9610d82565b6040516104b69190613305565b60405180910390f35b3480156104cb57600080fd5b506104e660048036038101906104e191906134b4565b610da6565b005b3480156104f457600080fd5b5061050f600480360381019061050a9190613320565b610ddf565b60405161051c9190612e74565b60405180910390f35b34801561053157600080fd5b5061053a610e58565b6040516105479190612f1f565b60405180910390f35b34801561055c57600080fd5b50610565610ef9565b6040516105729190613305565b60405180910390f35b34801561058757600080fd5b506105a2600480360381019061059d919061353c565b610f00565b005b3480156105b057600080fd5b506105b9610f16565b6040516105c69190613305565b60405180910390f35b3480156105db57600080fd5b506105e4610f3a565b6040516105f19190612f1f565b60405180910390f35b34801561060657600080fd5b50610621600480360381019061061c919061357c565b610f73565b005b34801561062f57600080fd5b5061064a60048036038101906106459190612f77565b610f90565b6040516106579190612f1f565b60405180910390f35b34801561066c57600080fd5b506106876004803603810190610682919061345d565b610fa2565b6040516106949190612f1f565b60405180910390f35b3480156106a957600080fd5b506106c460048036038101906106bf91906134b4565b611073565b005b3480156106d257600080fd5b506106ed60048036038101906106e89190613320565b6110d1565b005b3480156106fb57600080fd5b50610716600480360381019061071191906135ff565b6110f3565b6040516107239190612e74565b60405180910390f35b34801561073857600080fd5b50610753600480360381019061074e91906134b4565b611195565b005b6000610760826111ce565b9050919050565b60606000610773611248565b90508060000180546107849061366e565b80601f01602080910402602001604051908101604052809291908181526020018280546107b09061366e565b80156107fd5780601f106107d2576101008083540402835291602001916107fd565b820191906000526020600020905b8154815290600101906020018083116107e057829003601f168201915b505050505091505090565b600061081382611270565b5061081d826112f8565b9050919050565b6108368282610831611343565b61134b565b5050565b600061084461135d565b905060008160000160089054906101000a900460ff1615905060008260000160009054906101000a900467ffffffffffffffff1690506000808267ffffffffffffffff161480156108925750825b9050600060018367ffffffffffffffff161480156108c7575060003073ffffffffffffffffffffffffffffffffffffffff163b145b9050811580156108d5575080155b1561090c576040517ff92ee8a900000000000000000000000000000000000000000000000000000000815260040160405180910390fd5b60018560000160006101000a81548167ffffffffffffffff021916908367ffffffffffffffff160217905550831561095c5760018560000160086101000a81548160ff0219169083151502179055505b6109668787611385565b61096e61139b565b6109766113a5565b61097e6113af565b6109866113b9565b6109936000801b8a6113c3565b506109be7fa49807205ce4d355092ef5a8a18f56e8913cf4a201fbe287825b095693c217758a6113c3565b506109e97f877a78dc988c0ec5f58453b44888a55eb39755c3d5ed8d8ea990912aa3ef29c6896113c3565b508315610a465760008560000160086101000a81548160ff0219169083151502179055507fc7f505b2f371ae2175ee4913f4499e1f2633a7b5936321eed1cdaeb6115181d26001604051610a3d91906136f8565b60405180910390a15b505050505050505050565b600073ffffffffffffffffffffffffffffffffffffffff168273ffffffffffffffffffffffffffffffffffffffff1603610ac35760006040517f64a0ae92000000000000000000000000000000000000000000000000000000008152600401610aba9190612fe5565b60405180910390fd5b6000610ad78383610ad2611343565b6114c4565b90508373ffffffffffffffffffffffffffffffffffffffff168173ffffffffffffffffffffffffffffffffffffffff1614610b4d578382826040517f64283d7b000000000000000000000000000000000000000000000000000000008152600401610b4493929190613713565b60405180910390fd5b50505050565b600080610b5e6116f1565b905080600001600084815260200190815260200160002060010154915050919050565b610b8a82610b53565b610b9381611719565b610b9d83836113c3565b50505050565b610bab611343565b73ffffffffffffffffffffffffffffffffffffffff168173ffffffffffffffffffffffffffffffffffffffff1614610c0f576040517f6697b23200000000000000000000000000000000000000000000000000000000815260040160405180910390fd5b610c19828261172d565b505050565b610c3983838360405180602001604052806000815250610f73565b505050565b610c51600082610c4c611343565b6114c4565b5050565b610c5d61182f565b610c6682611915565b610c708282611943565b5050565b6000610c7e611a62565b7f360894a13ba1a3210667c828492db98dca3e2076cc3735a920a3ca505d382bbc60001b905090565b6000610cb282611270565b9050919050565b600080610cc4611248565b9050600073ffffffffffffffffffffffffffffffffffffffff168373ffffffffffffffffffffffffffffffffffffffff1603610d385760006040517f89c62b64000000000000000000000000000000000000000000000000000000008152600401610d2f9190612fe5565b60405180910390fd5b8060030160008473ffffffffffffffffffffffffffffffffffffffff1673ffffffffffffffffffffffffffffffffffffffff16815260200190815260200160002054915050919050565b7fa49807205ce4d355092ef5a8a18f56e8913cf4a201fbe287825b095693c2177581565b7fa49807205ce4d355092ef5a8a18f56e8913cf4a201fbe287825b095693c21775610dd081611719565b610dda8383611ae9565b505050565b600080610dea6116f1565b905080600001600085815260200190815260200160002060000160008473ffffffffffffffffffffffffffffffffffffffff1673ffffffffffffffffffffffffffffffffffffffff16815260200190815260200160002060009054906101000a900460ff1691505092915050565b60606000610e64611248565b9050806001018054610e759061366e565b80601f0160208091040260200160405190810160405280929190818152602001828054610ea19061366e565b8015610eee5780601f10610ec357610100808354040283529160200191610eee565b820191906000526020600020905b815481529060010190602001808311610ed157829003601f168201915b505050505091505090565b6000801b81565b610f12610f0b611343565b8383611b3a565b5050565b7f877a78dc988c0ec5f58453b44888a55eb39755c3d5ed8d8ea990912aa3ef29c681565b6040518060400160405280600581526020017f352e302e3000000000000000000000000000000000000000000000000000000081525081565b610f7e848484610a51565b610f8a84848484611cb8565b50505050565b6060610f9b82611e6f565b9050919050565b6060600160008373ffffffffffffffffffffffffffffffffffffffff1673ffffffffffffffffffffffffffffffffffffffff1681526020019081526020016000208054610fee9061366e565b80601f016020809104026020016040519081016040528092919081815260200182805461101a9061366e565b80156110675780601f1061103c57610100808354040283529160200191611067565b820191906000526020600020905b81548152906001019060200180831161104a57829003601f168201915b50505050509050919050565b7f877a78dc988c0ec5f58453b44888a55eb39755c3d5ed8d8ea990912aa3ef29c661109d81611719565b60008060008154809291906110b190613779565b9190505590506110c18482611f93565b6110cb8184611fb1565b50505050565b6110da82610b53565b6110e381611719565b6110ed838361172d565b50505050565b6000806110fe611248565b90508060050160008573ffffffffffffffffffffffffffffffffffffffff1673ffffffffffffffffffffffffffffffffffffffff16815260200190815260200160002060008473ffffffffffffffffffffffffffffffffffffffff1673ffffffffffffffffffffffffffffffffffffffff16815260200190815260200160002060009054906101000a900460ff1691505092915050565b7fa49807205ce4d355092ef5a8a18f56e8913cf4a201fbe287825b095693c217756111bf81611719565b6111c9838361201c565b505050565b60007f7965db0b000000000000000000000000000000000000000000000000000000007bffffffffffffffffffffffffffffffffffffffffffffffffffffffff1916827bffffffffffffffffffffffffffffffffffffffffffffffffffffffff1916148061124157506112408261206d565b5b9050919050565b60007f80bb2b638cc20bc4d0a60d66940f3ab4a00c1d7b313497ca82fb0b4ab0079300905090565b60008061127c836120ce565b9050600073ffffffffffffffffffffffffffffffffffffffff168173ffffffffffffffffffffffffffffffffffffffff16036112ef57826040517f7e2732890000000000000000000000000000000000000000000000000000000081526004016112e69190613499565b60405180910390fd5b80915050919050565b600080611303611248565b905080600401600084815260200190815260200160002060009054906101000a900473ffffffffffffffffffffffffffffffffffffffff16915050919050565b600033905090565b6113588383836001612119565b505050565b60007ff0c57e16840df040f15088dc2f81fe391c3923bec73e23a9662efc9c229c6a00905090565b61138d6122ed565b611397828261232d565b5050565b6113a36122ed565b565b6113ad6122ed565b565b6113b76122ed565b565b6113c16122ed565b565b6000806113ce6116f1565b90506113da8484610ddf565b6114b857600181600001600086815260200190815260200160002060000160008573ffffffffffffffffffffffffffffffffffffffff1673ffffffffffffffffffffffffffffffffffffffff16815260200190815260200160002060006101000a81548160ff021916908315150217905550611454611343565b73ffffffffffffffffffffffffffffffffffffffff168373ffffffffffffffffffffffffffffffffffffffff16857f2f8788117e7eff1d82e926ec794901d17c78024a50270940304540a733656f0d60405160405180910390a460019150506114be565b60009150505b92915050565b6000806114cf611248565b905060006114dc856120ce565b9050600073ffffffffffffffffffffffffffffffffffffffff168473ffffffffffffffffffffffffffffffffffffffff161461151e5761151d81858761236a565b5b600073ffffffffffffffffffffffffffffffffffffffff168173ffffffffffffffffffffffffffffffffffffffff16146115b157611560600086600080612119565b60018260030160008373ffffffffffffffffffffffffffffffffffffffff1673ffffffffffffffffffffffffffffffffffffffff168152602001908152602001600020600082825403925050819055505b600073ffffffffffffffffffffffffffffffffffffffff168673ffffffffffffffffffffffffffffffffffffffff16146116365760018260030160008873ffffffffffffffffffffffffffffffffffffffff1673ffffffffffffffffffffffffffffffffffffffff168152602001908152602001600020600082825401925050819055505b8582600201600087815260200190815260200160002060006101000a81548173ffffffffffffffffffffffffffffffffffffffff021916908373ffffffffffffffffffffffffffffffffffffffff160217905550848673ffffffffffffffffffffffffffffffffffffffff168273ffffffffffffffffffffffffffffffffffffffff167fddf252ad1be2c89b69c2b068fc378daa952ba7f163c4a11628f55a4df523b3ef60405160405180910390a480925050509392505050565b60007f02dd7bc7dec4dceedda775e58dd541e08a116c6c53815c0bd028192f7b626800905090565b61172a81611725611343565b61242e565b50565b6000806117386116f1565b90506117448484610ddf565b1561182357600081600001600086815260200190815260200160002060000160008573ffffffffffffffffffffffffffffffffffffffff1673ffffffffffffffffffffffffffffffffffffffff16815260200190815260200160002060006101000a81548160ff0219169083151502179055506117bf611343565b73ffffffffffffffffffffffffffffffffffffffff168373ffffffffffffffffffffffffffffffffffffffff16857ff6391f5c32d9c69d2a47ea670b442974b53935d1edc7fd64eb21e047a839171b60405160405180910390a46001915050611829565b60009150505b92915050565b7f000000000000000000000000000000000000000000000000000000000000000073ffffffffffffffffffffffffffffffffffffffff163073ffffffffffffffffffffffffffffffffffffffff1614806118dc57507f000000000000000000000000000000000000000000000000000000000000000073ffffffffffffffffffffffffffffffffffffffff166118c361247f565b73ffffffffffffffffffffffffffffffffffffffff1614155b15611913576040517fe07c8dba00000000000000000000000000000000000000000000000000000000815260040160405180910390fd5b565b7fa49807205ce4d355092ef5a8a18f56e8913cf4a201fbe287825b095693c2177561193f81611719565b5050565b8173ffffffffffffffffffffffffffffffffffffffff166352d1902d6040518163ffffffff1660e01b8152600401602060405180830381865afa9250505080156119ab57506040513d601f19601f820116820180604052508101906119a891906137d6565b60015b6119ec57816040517f4c9c8ce30000000000000000000000000000000000000000000000000000000081526004016119e39190612fe5565b60405180910390fd5b7f360894a13ba1a3210667c828492db98dca3e2076cc3735a920a3ca505d382bbc60001b8114611a5357806040517faa1d49a4000000000000000000000000000000000000000000000000000000008152600401611a4a9190613305565b60405180910390fd5b611a5d83836124d6565b505050565b7f000000000000000000000000000000000000000000000000000000000000000073ffffffffffffffffffffffffffffffffffffffff163073ffffffffffffffffffffffffffffffffffffffff1614611ae7576040517fe07c8dba00000000000000000000000000000000000000000000000000000000815260040160405180910390fd5b565b80600160008473ffffffffffffffffffffffffffffffffffffffff1673ffffffffffffffffffffffffffffffffffffffff1681526020019081526020016000209081611b3591906139a5565b505050565b6000611b44611248565b9050600073ffffffffffffffffffffffffffffffffffffffff168373ffffffffffffffffffffffffffffffffffffffff1603611bb757826040517f5b08ba18000000000000000000000000000000000000000000000000000000008152600401611bae9190612fe5565b60405180910390fd5b818160050160008673ffffffffffffffffffffffffffffffffffffffff1673ffffffffffffffffffffffffffffffffffffffff16815260200190815260200160002060008573ffffffffffffffffffffffffffffffffffffffff1673ffffffffffffffffffffffffffffffffffffffff16815260200190815260200160002060006101000a81548160ff0219169083151502179055508273ffffffffffffffffffffffffffffffffffffffff168473ffffffffffffffffffffffffffffffffffffffff167f17307eab39ab6107e8899845ad3d59bd9653f200f220920489ca2b5937696c3184604051611caa9190612e74565b60405180910390a350505050565b60008373ffffffffffffffffffffffffffffffffffffffff163b1115611e69578273ffffffffffffffffffffffffffffffffffffffff1663150b7a02611cfc611343565b8685856040518563ffffffff1660e01b8152600401611d1e9493929190613acc565b6020604051808303816000875af1925050508015611d5a57506040513d601f19601f82011682018060405250810190611d579190613b2d565b60015b611dde573d8060008114611d8a576040519150601f19603f3d011682016040523d82523d6000602084013e611d8f565b606091505b506000815103611dd657836040517f64a0ae92000000000000000000000000000000000000000000000000000000008152600401611dcd9190612fe5565b60405180910390fd5b805181602001fd5b63150b7a0260e01b7bffffffffffffffffffffffffffffffffffffffffffffffffffffffff1916817bffffffffffffffffffffffffffffffffffffffffffffffffffffffff191614611e6757836040517f64a0ae92000000000000000000000000000000000000000000000000000000008152600401611e5e9190612fe5565b60405180910390fd5b505b50505050565b60606000611e7b612549565b9050611e8683611270565b5060008160000160008581526020019081526020016000208054611ea99061366e565b80601f0160208091040260200160405190810160405280929190818152602001828054611ed59061366e565b8015611f225780601f10611ef757610100808354040283529160200191611f22565b820191906000526020600020905b815481529060010190602001808311611f0557829003601f168201915b505050505090506000611f33612571565b90506000815103611f4957819350505050611f8e565b600082511115611f7f578082604051602001611f66929190613b96565b6040516020818303038152906040529350505050611f8e565b611f8885612588565b93505050505b919050565b611fad8282604051806020016040528060008152506125f1565b5050565b6000611fbb612549565b9050818160000160008581526020019081526020016000209081611fdf91906139a5565b507ff8e1a15aba9398e019f0b49df1a4fde98ee17ae345cb5f6b5e2c27f5033e8ce78360405161200f9190613499565b60405180910390a1505050565b80600160008473ffffffffffffffffffffffffffffffffffffffff1673ffffffffffffffffffffffffffffffffffffffff168152602001908152602001600020908161206891906139a5565b505050565b6000634906490660e01b7bffffffffffffffffffffffffffffffffffffffffffffffffffffffff1916827bffffffffffffffffffffffffffffffffffffffffffffffffffffffff191614806120c757506120c68261260d565b5b9050919050565b6000806120d9611248565b905080600201600084815260200190815260200160002060009054906101000a900473ffffffffffffffffffffffffffffffffffffffff16915050919050565b6000612123611248565b9050818061215e5750600073ffffffffffffffffffffffffffffffffffffffff168373ffffffffffffffffffffffffffffffffffffffff1614155b1561229257600061216e85611270565b9050600073ffffffffffffffffffffffffffffffffffffffff168473ffffffffffffffffffffffffffffffffffffffff16141580156121d957508373ffffffffffffffffffffffffffffffffffffffff168173ffffffffffffffffffffffffffffffffffffffff1614155b80156121ec57506121ea81856110f3565b155b1561222e57836040517fa9fbf51f0000000000000000000000000000000000000000000000000000000081526004016122259190612fe5565b60405180910390fd5b821561229057848673ffffffffffffffffffffffffffffffffffffffff168273ffffffffffffffffffffffffffffffffffffffff167f8c5be1e5ebec7d5bd14f71427d1e84f3dd0314c0f7b2291e5b200ac8c7c3b92560405160405180910390a45b505b8481600401600086815260200190815260200160002060006101000a81548173ffffffffffffffffffffffffffffffffffffffff021916908373ffffffffffffffffffffffffffffffffffffffff1602179055505050505050565b6122f56126ef565b61232b576040517fd7e6bcf800000000000000000000000000000000000000000000000000000000815260040160405180910390fd5b565b6123356122ed565b600061233f611248565b90508281600001908161235291906139a5565b508181600101908161236491906139a5565b50505050565b61237583838361270f565b61242957600073ffffffffffffffffffffffffffffffffffffffff168373ffffffffffffffffffffffffffffffffffffffff16036123ea57806040517f7e2732890000000000000000000000000000000000000000000000000000000081526004016123e19190613499565b60405180910390fd5b81816040517f177e802f000000000000000000000000000000000000000000000000000000008152600401612420929190613bba565b60405180910390fd5b505050565b6124388282610ddf565b61247b5780826040517fe2517d3f000000000000000000000000000000000000000000000000000000008152600401612472929190613be3565b60405180910390fd5b5050565b60006124ad7f360894a13ba1a3210667c828492db98dca3e2076cc3735a920a3ca505d382bbc60001b6127d0565b60000160009054906101000a900473ffffffffffffffffffffffffffffffffffffffff16905090565b6124df826127da565b8173ffffffffffffffffffffffffffffffffffffffff167fbc7cd75a20ee27fd9adebab32041f755214dbc6bffa90cc0225b39da2e5c2d3b60405160405180910390a260008151111561253c5761253682826128a7565b50612545565b61254461292b565b5b5050565b60007f0542a41881ee128a365a727b282c86fa859579490b9bb45aab8503648c8e7900905090565b606060405180602001604052806000815250905090565b606061259382611270565b50600061259e612571565b905060008151116125be57604051806020016040528060008152506125e9565b806125c884612968565b6040516020016125d9929190613b96565b6040516020818303038152906040525b915050919050565b6125fb8383612a36565b6126086000848484611cb8565b505050565b60007f80ac58cd000000000000000000000000000000000000000000000000000000007bffffffffffffffffffffffffffffffffffffffffffffffffffffffff1916827bffffffffffffffffffffffffffffffffffffffffffffffffffffffff191614806126d857507f5b5e139f000000000000000000000000000000000000000000000000000000007bffffffffffffffffffffffffffffffffffffffffffffffffffffffff1916827bffffffffffffffffffffffffffffffffffffffffffffffffffffffff1916145b806126e857506126e782612b2f565b5b9050919050565b60006126f961135d565b60000160089054906101000a900460ff16905090565b60008073ffffffffffffffffffffffffffffffffffffffff168373ffffffffffffffffffffffffffffffffffffffff16141580156127c757508273ffffffffffffffffffffffffffffffffffffffff168473ffffffffffffffffffffffffffffffffffffffff161480612788575061278784846110f3565b5b806127c657508273ffffffffffffffffffffffffffffffffffffffff166127ae836112f8565b73ffffffffffffffffffffffffffffffffffffffff16145b5b90509392505050565b6000819050919050565b60008173ffffffffffffffffffffffffffffffffffffffff163b0361283657806040517f4c9c8ce300000000000000000000000000000000000000000000000000000000815260040161282d9190612fe5565b60405180910390fd5b806128637f360894a13ba1a3210667c828492db98dca3e2076cc3735a920a3ca505d382bbc60001b6127d0565b60000160006101000a81548173ffffffffffffffffffffffffffffffffffffffff021916908373ffffffffffffffffffffffffffffffffffffffff16021790555050565b60606000808473ffffffffffffffffffffffffffffffffffffffff16846040516128d19190613c48565b600060405180830381855af49150503d806000811461290c576040519150601f19603f3d011682016040523d82523d6000602084013e612911565b606091505b5091509150612921858383612b99565b9250505092915050565b6000341115612966576040517fb398979f00000000000000000000000000000000000000000000000000000000815260040160405180910390fd5b565b60606000600161297784612c28565b01905060008167ffffffffffffffff81111561299657612995613076565b5b6040519080825280601f01601f1916602001820160405280156129c85781602001600182028036833780820191505090505b509050600082602001820190505b600115612a2b578080600190039150507f3031323334353637383961626364656600000000000000000000000000000000600a86061a8153600a8581612a1f57612a1e613c5f565b5b049450600085036129d6575b819350505050919050565b600073ffffffffffffffffffffffffffffffffffffffff168273ffffffffffffffffffffffffffffffffffffffff1603612aa85760006040517f64a0ae92000000000000000000000000000000000000000000000000000000008152600401612a9f9190612fe5565b60405180910390fd5b6000612ab6838360006114c4565b9050600073ffffffffffffffffffffffffffffffffffffffff168173ffffffffffffffffffffffffffffffffffffffff1614612b2a5760006040517f73c6ac6e000000000000000000000000000000000000000000000000000000008152600401612b219190612fe5565b60405180910390fd5b505050565b60007f01ffc9a7000000000000000000000000000000000000000000000000000000007bffffffffffffffffffffffffffffffffffffffffffffffffffffffff1916827bffffffffffffffffffffffffffffffffffffffffffffffffffffffff1916149050919050565b606082612bae57612ba982612d7b565b612c20565b60008251148015612bd6575060008473ffffffffffffffffffffffffffffffffffffffff163b145b15612c1857836040517f9996b315000000000000000000000000000000000000000000000000000000008152600401612c0f9190612fe5565b60405180910390fd5b819050612c21565b5b9392505050565b600080600090507a184f03e93ff9f4daa797ed6e38ed64bf6a1f0100000000000000008310612c86577a184f03e93ff9f4daa797ed6e38ed64bf6a1f0100000000000000008381612c7c57612c7b613c5f565b5b0492506040810190505b6d04ee2d6d415b85acef81000000008310612cc3576d04ee2d6d415b85acef81000000008381612cb957612cb8613c5f565b5b0492506020810190505b662386f26fc100008310612cf257662386f26fc100008381612ce857612ce7613c5f565b5b0492506010810190505b6305f5e1008310612d1b576305f5e1008381612d1157612d10613c5f565b5b0492506008810190505b6127108310612d40576127108381612d3657612d35613c5f565b5b0492506004810190505b60648310612d635760648381612d5957612d58613c5f565b5b0492506002810190505b600a8310612d72576001810190505b80915050919050565b600081511115612d8e5780518082602001fd5b6040517f1425ea4200000000000000000000000000000000000000000000000000000000815260040160405180910390fd5b6000604051905090565b600080fd5b600080fd5b60007fffffffff0000000000000000000000000000000000000000000000000000000082169050919050565b612e0981612dd4565b8114612e1457600080fd5b50565b600081359050612e2681612e00565b92915050565b600060208284031215612e4257612e41612dca565b5b6000612e5084828501612e17565b91505092915050565b60008115159050919050565b612e6e81612e59565b82525050565b6000602082019050612e896000830184612e65565b92915050565b600081519050919050565b600082825260208201905092915050565b60005b83811015612ec9578082015181840152602081019050612eae565b60008484015250505050565b6000601f19601f8301169050919050565b6000612ef182612e8f565b612efb8185612e9a565b9350612f0b818560208601612eab565b612f1481612ed5565b840191505092915050565b60006020820190508181036000830152612f398184612ee6565b905092915050565b6000819050919050565b612f5481612f41565b8114612f5f57600080fd5b50565b600081359050612f7181612f4b565b92915050565b600060208284031215612f8d57612f8c612dca565b5b6000612f9b84828501612f62565b91505092915050565b600073ffffffffffffffffffffffffffffffffffffffff82169050919050565b6000612fcf82612fa4565b9050919050565b612fdf81612fc4565b82525050565b6000602082019050612ffa6000830184612fd6565b92915050565b61300981612fc4565b811461301457600080fd5b50565b60008135905061302681613000565b92915050565b6000806040838503121561304357613042612dca565b5b600061305185828601613017565b925050602061306285828601612f62565b9150509250929050565b600080fd5b600080fd5b7f4e487b7100000000000000000000000000000000000000000000000000000000600052604160045260246000fd5b6130ae82612ed5565b810181811067ffffffffffffffff821117156130cd576130cc613076565b5b80604052505050565b60006130e0612dc0565b90506130ec82826130a5565b919050565b600067ffffffffffffffff82111561310c5761310b613076565b5b61311582612ed5565b9050602081019050919050565b82818337600083830152505050565b600061314461313f846130f1565b6130d6565b9050828152602081018484840111156131605761315f613071565b5b61316b848285613122565b509392505050565b600082601f8301126131885761318761306c565b5b8135613198848260208601613131565b91505092915050565b600080600080608085870312156131bb576131ba612dca565b5b60006131c987828801613017565b94505060206131da87828801613017565b935050604085013567ffffffffffffffff8111156131fb576131fa612dcf565b5b61320787828801613173565b925050606085013567ffffffffffffffff81111561322857613227612dcf565b5b61323487828801613173565b91505092959194509250565b60008060006060848603121561325957613258612dca565b5b600061326786828701613017565b935050602061327886828701613017565b925050604061328986828701612f62565b9150509250925092565b6000819050919050565b6132a681613293565b81146132b157600080fd5b50565b6000813590506132c38161329d565b92915050565b6000602082840312156132df576132de612dca565b5b60006132ed848285016132b4565b91505092915050565b6132ff81613293565b82525050565b600060208201905061331a60008301846132f6565b92915050565b6000806040838503121561333757613336612dca565b5b6000613345858286016132b4565b925050602061335685828601613017565b9150509250929050565b600067ffffffffffffffff82111561337b5761337a613076565b5b61338482612ed5565b9050602081019050919050565b60006133a461339f84613360565b6130d6565b9050828152602081018484840111156133c0576133bf613071565b5b6133cb848285613122565b509392505050565b600082601f8301126133e8576133e761306c565b5b81356133f8848260208601613391565b91505092915050565b6000806040838503121561341857613417612dca565b5b600061342685828601613017565b925050602083013567ffffffffffffffff81111561344757613446612dcf565b5b613453858286016133d3565b9150509250929050565b60006020828403121561347357613472612dca565b5b600061348184828501613017565b91505092915050565b61349381612f41565b82525050565b60006020820190506134ae600083018461348a565b92915050565b600080604083850312156134cb576134ca612dca565b5b60006134d985828601613017565b925050602083013567ffffffffffffffff8111156134fa576134f9612dcf565b5b61350685828601613173565b9150509250929050565b61351981612e59565b811461352457600080fd5b50565b60008135905061353681613510565b92915050565b6000806040838503121561355357613552612dca565b5b600061356185828601613017565b925050602061357285828601613527565b9150509250929050565b6000806000806080858703121561359657613595612dca565b5b60006135a487828801613017565b94505060206135b587828801613017565b93505060406135c687828801612f62565b925050606085013567ffffffffffffffff8111156135e7576135e6612dcf565b5b6135f3878288016133d3565b91505092959194509250565b6000806040838503121561361657613615612dca565b5b600061362485828601613017565b925050602061363585828601613017565b9150509250929050565b7f4e487b7100000000000000000000000000000000000000000000000000000000600052602260045260246000fd5b6000600282049050600182168061368657607f821691505b6020821081036136995761369861363f565b5b50919050565b6000819050919050565b600067ffffffffffffffff82169050919050565b6000819050919050565b60006136e26136dd6136d88461369f565b6136bd565b6136a9565b9050919050565b6136f2816136c7565b82525050565b600060208201905061370d60008301846136e9565b92915050565b60006060820190506137286000830186612fd6565b613735602083018561348a565b6137426040830184612fd6565b949350505050565b7f4e487b7100000000000000000000000000000000000000000000000000000000600052601160045260246000fd5b600061378482612f41565b91507fffffffffffffffffffffffffffffffffffffffffffffffffffffffffffffffff82036137b6576137b561374a565b5b600182019050919050565b6000815190506137d08161329d565b92915050565b6000602082840312156137ec576137eb612dca565b5b60006137fa848285016137c1565b91505092915050565b60008190508160005260206000209050919050565b60006020601f8301049050919050565b600082821b905092915050565b6000600883026138657fffffffffffffffffffffffffffffffffffffffffffffffffffffffffffffffff82613828565b61386f8683613828565b95508019841693508086168417925050509392505050565b60006138a261389d61389884612f41565b6136bd565b612f41565b9050919050565b6000819050919050565b6138bc83613887565b6138d06138c8826138a9565b848454613835565b825550505050565b600090565b6138e56138d8565b6138f08184846138b3565b505050565b5b81811015613914576139096000826138dd565b6001810190506138f6565b5050565b601f8211156139595761392a81613803565b61393384613818565b81016020851015613942578190505b61395661394e85613818565b8301826138f5565b50505b505050565b600082821c905092915050565b600061397c6000198460080261395e565b1980831691505092915050565b6000613995838361396b565b9150826002028217905092915050565b6139ae82612e8f565b67ffffffffffffffff8111156139c7576139c6613076565b5b6139d1825461366e565b6139dc828285613918565b600060209050601f831160018114613a0f57600084156139fd578287015190505b613a078582613989565b865550613a6f565b601f198416613a1d86613803565b60005b82811015613a4557848901518255600182019150602085019450602081019050613a20565b86831015613a625784890151613a5e601f89168261396b565b8355505b6001600288020188555050505b505050505050565b600081519050919050565b600082825260208201905092915050565b6000613a9e82613a77565b613aa88185613a82565b9350613ab8818560208601612eab565b613ac181612ed5565b840191505092915050565b6000608082019050613ae16000830187612fd6565b613aee6020830186612fd6565b613afb604083018561348a565b8181036060830152613b0d8184613a93565b905095945050505050565b600081519050613b2781612e00565b92915050565b600060208284031215613b4357613b42612dca565b5b6000613b5184828501613b18565b91505092915050565b600081905092915050565b6000613b7082612e8f565b613b7a8185613b5a565b9350613b8a818560208601612eab565b80840191505092915050565b6000613ba28285613b65565b9150613bae8284613b65565b91508190509392505050565b6000604082019050613bcf6000830185612fd6565b613bdc602083018461348a565b9392505050565b6000604082019050613bf86000830185612fd6565b613c0560208301846132f6565b9392505050565b600081905092915050565b6000613c2282613a77565b613c2c8185613c0c565b9350613c3c818560208601612eab565b80840191505092915050565b6000613c548284613c17565b915081905092915050565b7f4e487b7100000000000000000000000000000000000000000000000000000000600052601260045260246000fdfea2646970667358221220d41c48fe15f9f6fc7e77b0cac5d205fd179c254368f7c907a930bd0febcd1b0864736f6c63430008140033",
  "linkReferences": {},
  "deployedLinkReferences": {}
}