{"abi":[{"type":"constructor","inputs":[],"stateMutability":"nonpayable"},{"type":"function","name":"ARTIST_ROLE","inputs":[],"outputs":[{"name":"","type":"bytes32","internalType":"bytes32"}],"stateMutability":"view"},{"type":"function","name":"DEFAULT_ADMIN_ROLE","inputs":[],"outputs":[{"name":"","type":"bytes32","internalType":"bytes32"}],"stateMutability":"view"},{"type":"function","name":"getRoleAdmin","inputs":[{"name":"role","type":"bytes32","internalType":"bytes32"}],"outputs":[{"name":"","type":"bytes32","internalType":"bytes32"}],"stateMutability":"view"},{"type":"function","name":"grantRole","inputs":[{"name":"role","type":"bytes32","internalType":"bytes32"},{"name":"account","type":"address","internalType":"address"}],"outputs":[],"stateMutability":"nonpayable"},{"type":"function","name":"hasRole","inputs":[{"name":"role","type":"bytes32","internalType":"bytes32"},{"name":"account","type":"address","internalType":"address"}],"outputs":[{"name":"","type":"bool","internalType":"bool"}],"stateMutability":"view"},{"type":"function","name":"renounceRole","inputs":[{"name":"role","type":"bytes32","internalType":"bytes32"},{"name":"callerConfirmation","type":"address","internalType":"address"}],"outputs":[],"stateMutability":"nonpayable"},{"type":"function","name":"revokeRole","inputs":[{"name":"role","type":"bytes32","internalType":"bytes32"},{"name":"account","type":"address","internalType":"address"}],"outputs":[],"stateMutability":"nonpayable"},{"type":"function","name":"supportsInterface","inputs":[{"name":"interfaceId","type":"bytes4","internalType":"bytes4"}],"outputs":[{"name":"","type":"bool","internalType":"bool"}],"stateMutability":"view"},{"type":"event","name":"AlbumCreated","inputs":[{"name":"ablbumAddress","type":"address","indexed":false,"internalType":"address"},{"name":"artist","type":"address","indexed":false,"internalType":"address"}],"anonymous":false},{"type":"event","name":"Initialized","inputs":[{"name":"version","type":"uint64","indexed":false,"internalType":"uint64"}],"anonymous":false},{"type":"event","name":"RoleAdminChanged","inputs":[{"name":"role","type":"bytes32","indexed":true,"internalType":"bytes32"},{"name":"previousAdminRole","type":"bytes32","indexed":true,"internalType":"bytes32"},{"name":"newAdminRole","type":"bytes32","indexed":true,"internalType":"bytes32"}],"anonymous":false},{"type":"event","name":"RoleGranted","inputs":[{"name":"role","type":"bytes32","indexed":true,"internalType":"bytes32"},{"name":"account","type":"address","indexed":true,"internalType":"address"},{"name":"sender","type":"address","indexed":true,"internalType":"address"}],"anonymous":false},{"type":"event","name":"RoleRevoked","inputs":[{"name":"role","type":"bytes32","indexed":true,"internalType":"bytes32"},{"name":"account","type":"address","indexed":true,"internalType":"address"},{"name":"sender","type":"address","indexed":true,"internalType":"address"}],"anonymous":false},{"type":"error","name":"AccessControlBadConfirmation","inputs":[]},{"type":"error","name":"AccessControlUnauthorizedAccount","inputs":[{"name":"account","type":"address","internalType":"address"},{"name":"neededRole","type":"bytes32","internalType":"bytes32"}]},{"type":"error","name":"InvalidInitialization","inputs":[]},{"type":"error","name":"NotInitializing","inputs":[]}],"bytecode":{"object":"0x608060405234801561001057600080fd5b5061003b7fa49807205ce4d355092ef5a8a18f56e8913cf4a201fbe287825b095693c2177533610041565b50610112565b60008281527f02dd7bc7dec4dceedda775e58dd541e08a116c6c53815c0bd028192f7b626800602081815260408084206001600160a01b038616855290915282205460ff16610106576000848152602082815260408083206001600160a01b03871684529091529020805460ff191660011790556100bc3390565b6001600160a01b0316836001600160a01b0316857f2f8788117e7eff1d82e926ec794901d17c78024a50270940304540a733656f0d60405160405180910390a4600191505061010c565b60009150505b92915050565b6104a5806101216000396000f3fe608060405234801561001057600080fd5b50600436106100885760003560e01c806391d148541161005b57806391d14854146100fe578063a217fddf14610111578063a966a0df14610119578063d547741f1461014057600080fd5b806301ffc9a71461008d578063248a9ca3146100b55780632f2ff15d146100d657806336568abe146100eb575b600080fd5b6100a061009b3660046103c9565b610153565b60405190151581526020015b60405180910390f35b6100c86100c33660046103fa565b61018a565b6040519081526020016100ac565b6100e96100e4366004610413565b6101ac565b005b6100e96100f9366004610413565b6101ce565b6100a061010c366004610413565b610206565b6100c8600081565b6100c87fa49807205ce4d355092ef5a8a18f56e8913cf4a201fbe287825b095693c2177581565b6100e961014e366004610413565b61023e565b60006001600160e01b03198216637965db0b60e01b148061018457506301ffc9a760e01b6001600160e01b03198316145b92915050565b6000908152600080516020610450833981519152602052604090206001015490565b6101b58261018a565b6101be8161025a565b6101c88383610267565b50505050565b6001600160a01b03811633146101f75760405163334bd91960e11b815260040160405180910390fd5b610201828261030c565b505050565b6000918252600080516020610450833981519152602090815260408084206001600160a01b0393909316845291905290205460ff1690565b6102478261018a565b6102508161025a565b6101c8838361030c565b6102648133610388565b50565b60006000805160206104508339815191526102828484610206565b610302576000848152602082815260408083206001600160a01b03871684529091529020805460ff191660011790556102b83390565b6001600160a01b0316836001600160a01b0316857f2f8788117e7eff1d82e926ec794901d17c78024a50270940304540a733656f0d60405160405180910390a46001915050610184565b6000915050610184565b60006000805160206104508339815191526103278484610206565b15610302576000848152602082815260408083206001600160a01b0387168085529252808320805460ff1916905551339287917ff6391f5c32d9c69d2a47ea670b442974b53935d1edc7fd64eb21e047a839171b9190a46001915050610184565b6103928282610206565b6103c55760405163e2517d3f60e01b81526001600160a01b03821660048201526024810183905260440160405180910390fd5b5050565b6000602082840312156103db57600080fd5b81356001600160e01b0319811681146103f357600080fd5b9392505050565b60006020828403121561040c57600080fd5b5035919050565b6000806040838503121561042657600080fd5b8235915060208301356001600160a01b038116811461044457600080fd5b80915050925092905056fe02dd7bc7dec4dceedda775e58dd541e08a116c6c53815c0bd028192f7b626800a2646970667358221220be443dc76f61fa548de1297d43c57c2876ad26c05d4066425edbba1ad73bd98364736f6c634300081a0033","linkReferences":{}},"methodIdentifiers":{"ARTIST_ROLE()":"a966a0df","DEFAULT_ADMIN_ROLE()":"a217fddf","getRoleAdmin(bytes32)":"248a9ca3","grantRole(bytes32,address)":"2f2ff15d","hasRole(bytes32,address)":"91d14854","renounceRole(bytes32,address)":"36568abe","revokeRole(bytes32,address)":"d547741f","supportsInterface(bytes4)":"01ffc9a7"},"id":0}