{
  "_format": "hh-sol-artifact-1",
  "contractName": "SoundToken",
  "sourceName": "contracts/SoundToken.sol",
  "abi": [
    {
      "inputs": [],
      "name": "AccessControlBadConfirmation",
      "type": "error"
    },
    {
      "inputs": [
        {
          "internalType": "address",
          "name": "account",
          "type": "address"
        },
        {
          "internalType": "bytes32",
          "name": "neededRole",
          "type": "bytes32"
        }
      ],
      "name": "AccessControlUnauthorizedAccount",
      "type": "error"
    },
    {
      "inputs": [
        {
          "internalType": "address",
          "name": "target",
          "type": "address"
        }
      ],
      "name": "AddressEmptyCode",
      "type": "error"
    },
    {
      "inputs": [
        {
          "internalType": "address",
          "name": "implementation",
          "type": "address"
        }
      ],
      "name": "ERC1967InvalidImplementation",
      "type": "error"
    },
    {
      "inputs": [],
      "name": "ERC1967NonPayable",
      "type": "error"
    },
    {
      "inputs": [
        {
          "internalType": "address",
          "name": "spender",
          "type": "address"
        },
        {
          "internalType": "uint256",
          "name": "allowance",
          "type": "uint256"
        },
        {
          "internalType": "uint256",
          "name": "needed",
          "type": "uint256"
        }
      ],
      "name": "ERC20InsufficientAllowance",
      "type": "error"
    },
    {
      "inputs": [
        {
          "internalType": "address",
          "name": "sender",
          "type": "address"
        },
        {
          "internalType": "uint256",
          "name": "balance",
          "type": "uint256"
        },
        {
          "internalType": "uint256",
          "name": "needed",
          "type": "uint256"
        }
      ],
      "name": "ERC20InsufficientBalance",
      "type": "error"
    },
    {
      "inputs": [
        {
          "internalType": "address",
          "name": "approver",
          "type": "address"
        }
      ],
      "name": "ERC20InvalidApprover",
      "type": "error"
    },
    {
      "inputs": [
        {
          "internalType": "address",
          "name": "receiver",
          "type": "address"
        }
      ],
      "name": "ERC20InvalidReceiver",
      "type": "error"
    },
    {
      "inputs": [
        {
          "internalType": "address",
          "name": "sender",
          "type": "address"
        }
      ],
      "name": "ERC20InvalidSender",
      "type": "error"
    },
    {
      "inputs": [
        {
          "internalType": "address",
          "name": "spender",
          "type": "address"
        }
      ],
      "name": "ERC20InvalidSpender",
      "type": "error"
    },
    {
      "inputs": [],
      "name": "FailedInnerCall",
      "type": "error"
    },
    {
      "inputs": [],
      "name": "InvalidInitialization",
      "type": "error"
    },
    {
      "inputs": [],
      "name": "NotInitializing",
      "type": "error"
    },
    {
      "inputs": [],
      "name": "UUPSUnauthorizedCallContext",
      "type": "error"
    },
    {
      "inputs": [
        {
          "internalType": "bytes32",
          "name": "slot",
          "type": "bytes32"
        }
      ],
      "name": "UUPSUnsupportedProxiableUUID",
      "type": "error"
    },
    {
      "anonymous": false,
      "inputs": [
        {
          "indexed": true,
          "internalType": "address",
          "name": "owner",
          "type": "address"
        },
        {
          "indexed": true,
          "internalType": "address",
          "name": "spender",
          "type": "address"
        },
        {
          "indexed": false,
          "internalType": "uint256",
          "name": "value",
          "type": "uint256"
        }
      ],
      "name": "Approval",
      "type": "event"
    },
    {
      "anonymous": false,
      "inputs": [
        {
          "indexed": false,
          "internalType": "uint64",
          "name": "version",
          "type": "uint64"
        }
      ],
      "name": "Initialized",
      "type": "event"
    },
    {
      "anonymous": false,
      "inputs": [
        {
          "indexed": true,
          "internalType": "bytes32",
          "name": "role",
          "type": "bytes32"
        },
        {
          "indexed": true,
          "internalType": "bytes32",
          "name": "previousAdminRole",
          "type": "bytes32"
        },
        {
          "indexed": true,
          "internalType": "bytes32",
          "name": "newAdminRole",
          "type": "bytes32"
        }
      ],
      "name": "RoleAdminChanged",
      "type": "event"
    },
    {
      "anonymous": false,
      "inputs": [
        {
          "indexed": true,
          "internalType": "bytes32",
          "name": "role",
          "type": "bytes32"
        },
        {
          "indexed": true,
          "internalType": "address",
          "name": "account",
          "type": "address"
        },
        {
          "indexed": true,
          "internalType": "address",
          "name": "sender",
          "type": "address"
        }
      ],
      "name": "RoleGranted",
      "type": "event"
    },
    {
      "anonymous": false,
      "inputs": [
        {
          "indexed": true,
          "internalType": "bytes32",
          "name": "role",
          "type": "bytes32"
        },
        {
          "indexed": true,
          "internalType": "address",
          "name": "account",
          "type": "address"
        },
        {
          "indexed": true,
          "internalType": "address",
          "name": "sender",
          "type": "address"
        }
      ],
      "name": "RoleRevoked",
      "type": "event"
    },
    {
      "anonymous": false,
      "inputs": [
        {
          "indexed": true,
          "internalType": "address",
          "name": "from",
          "type": "address"
        },
        {
          "indexed": true,
          "internalType": "address",
          "name": "to",
          "type": "address"
        },
        {
          "indexed": false,
          "internalType": "uint256",
          "name": "value",
          "type": "uint256"
        }
      ],
      "name": "Transfer",
      "type": "event"
    },
    {
      "anonymous": false,
      "inputs": [
        {
          "indexed": true,
          "internalType": "address",
          "name": "implementation",
          "type": "address"
        }
      ],
      "name": "Upgraded",
      "type": "event"
    },
    {
      "inputs": [],
      "name": "ADMIN_ROLE",
      "outputs": [
        {
          "internalType": "bytes32",
          "name": "",
          "type": "bytes32"
        }
      ],
      "stateMutability": "view",
      "type": "function"
    },
    {
      "inputs": [],
      "name": "ARTIST_ROLE",
      "outputs": [
        {
          "internalType": "bytes32",
          "name": "",
          "type": "bytes32"
        }
      ],
      "stateMutability": "view",
      "type": "function"
    },
    {
      "inputs": [],
      "name": "DEFAULT_ADMIN_ROLE",
      "outputs": [
        {
          "internalType": "bytes32",
          "name": "",
          "type": "bytes32"
        }
      ],
      "stateMutability": "view",
      "type": "function"
    },
    {
      "inputs": [],
      "name": "UPGRADE_INTERFACE_VERSION",
      "outputs": [
        {
          "internalType": "string",
          "name": "",
          "type": "string"
        }
      ],
      "stateMutability": "view",
      "type": "function"
    },
    {
      "inputs": [
        {
          "internalType": "address",
          "name": "owner",
          "type": "address"
        },
        {
          "internalType": "address",
          "name": "spender",
          "type": "address"
        }
      ],
      "name": "allowance",
      "outputs": [
        {
          "internalType": "uint256",
          "name": "",
          "type": "uint256"
        }
      ],
      "stateMutability": "view",
      "type": "function"
    },
    {
      "inputs": [
        {
          "internalType": "address",
          "name": "spender",
          "type": "address"
        },
        {
          "internalType": "uint256",
          "name": "value",
          "type": "uint256"
        }
      ],
      "name": "approve",
      "outputs": [
        {
          "internalType": "bool",
          "name": "",
          "type": "bool"
        }
      ],
      "stateMutability": "nonpayable",
      "type": "function"
    },
    {
      "inputs": [
        {
          "internalType": "address",
          "name": "account",
          "type": "address"
        }
      ],
      "name": "balanceOf",
      "outputs": [
        {
          "internalType": "uint256",
          "name": "",
          "type": "uint256"
        }
      ],
      "stateMutability": "view",
      "type": "function"
    },
    {
      "inputs": [
        {
          "internalType": "uint256",
          "name": "value",
          "type": "uint256"
        }
      ],
      "name": "burn",
      "outputs": [],
      "stateMutability": "nonpayable",
      "type": "function"
    },
    {
      "inputs": [
        {
          "internalType": "address",
          "name": "to",
          "type": "address"
        },
        {
          "internalType": "uint256",
          "name": "amount",
          "type": "uint256"
        }
      ],
      "name": "burn",
      "outputs": [],
      "stateMutability": "nonpayable",
      "type": "function"
    },
    {
      "inputs": [
        {
          "internalType": "address",
          "name": "account",
          "type": "address"
        },
        {
          "internalType": "uint256",
          "name": "value",
          "type": "uint256"
        }
      ],
      "name": "burnFrom",
      "outputs": [],
      "stateMutability": "nonpayable",
      "type": "function"
    },
    {
      "inputs": [
        {
          "internalType": "address",
          "name": "from",
          "type": "address"
        },
        {
          "internalType": "address",
          "name": "to",
          "type": "address"
        },
        {
          "internalType": "uint256",
          "name": "amount",
          "type": "uint256"
        }
      ],
      "name": "claim",
      "outputs": [],
      "stateMutability": "nonpayable",
      "type": "function"
    },
    {
      "inputs": [],
      "name": "decimals",
      "outputs": [
        {
          "internalType": "uint8",
          "name": "",
          "type": "uint8"
        }
      ],
      "stateMutability": "view",
      "type": "function"
    },
    {
      "inputs": [
        {
          "internalType": "bytes32",
          "name": "role",
          "type": "bytes32"
        }
      ],
      "name": "getRoleAdmin",
      "outputs": [
        {
          "internalType": "bytes32",
          "name": "",
          "type": "bytes32"
        }
      ],
      "stateMutability": "view",
      "type": "function"
    },
    {
      "inputs": [
        {
          "internalType": "bytes32",
          "name": "role",
          "type": "bytes32"
        },
        {
          "internalType": "address",
          "name": "account",
          "type": "address"
        }
      ],
      "name": "grantRole",
      "outputs": [],
      "stateMutability": "nonpayable",
      "type": "function"
    },
    {
      "inputs": [
        {
          "internalType": "bytes32",
          "name": "role",
          "type": "bytes32"
        },
        {
          "internalType": "address",
          "name": "account",
          "type": "address"
        }
      ],
      "name": "hasRole",
      "outputs": [
        {
          "internalType": "bool",
          "name": "",
          "type": "bool"
        }
      ],
      "stateMutability": "view",
      "type": "function"
    },
    {
      "inputs": [
        {
          "internalType": "address",
          "name": "admin",
          "type": "address"
        },
        {
          "internalType": "address",
          "name": "artist",
          "type": "address"
        }
      ],
      "name": "initialize",
      "outputs": [],
      "stateMutability": "nonpayable",
      "type": "function"
    },
    {
      "inputs": [
        {
          "internalType": "address",
          "name": "account",
          "type": "address"
        },
        {
          "internalType": "uint256",
          "name": "amount",
          "type": "uint256"
        }
      ],
      "name": "mint",
      "outputs": [],
      "stateMutability": "nonpayable",
      "type": "function"
    },
    {
      "inputs": [],
      "name": "name",
      "outputs": [
        {
          "internalType": "string",
          "name": "",
          "type": "string"
        }
      ],
      "stateMutability": "view",
      "type": "function"
    },
    {
      "inputs": [],
      "name": "proxiableUUID",
      "outputs": [
        {
          "internalType": "bytes32",
          "name": "",
          "type": "bytes32"
        }
      ],
      "stateMutability": "view",
      "type": "function"
    },
    {
      "inputs": [
        {
          "internalType": "bytes32",
          "name": "role",
          "type": "bytes32"
        },
        {
          "internalType": "address",
          "name": "callerConfirmation",
          "type": "address"
        }
      ],
      "name": "renounceRole",
      "outputs": [],
      "stateMutability": "nonpayable",
      "type": "function"
    },
    {
      "inputs": [
        {
          "internalType": "bytes32",
          "name": "role",
          "type": "bytes32"
        },
        {
          "internalType": "address",
          "name": "account",
          "type": "address"
        }
      ],
      "name": "revokeRole",
      "outputs": [],
      "stateMutability": "nonpayable",
      "type": "function"
    },
    {
      "inputs": [
        {
          "internalType": "bytes4",
          "name": "interfaceId",
          "type": "bytes4"
        }
      ],
      "name": "supportsInterface",
      "outputs": [
        {
          "internalType": "bool",
          "name": "",
          "type": "bool"
        }
      ],
      "stateMutability": "view",
      "type": "function"
    },
    {
      "inputs": [],
      "name": "symbol",
      "outputs": [
        {
          "internalType": "string",
          "name": "",
          "type": "string"
        }
      ],
      "stateMutability": "view",
      "type": "function"
    },
    {
      "inputs": [],
      "name": "totalSupply",
      "outputs": [
        {
          "internalType": "uint256",
          "name": "",
          "type": "uint256"
        }
      ],
      "stateMutability": "view",
      "type": "function"
    },
    {
      "inputs": [
        {
          "internalType": "address",
          "name": "to",
          "type": "address"
        },
        {
          "internalType": "uint256",
          "name": "value",
          "type": "uint256"
        }
      ],
      "name": "transfer",
      "outputs": [
        {
          "internalType": "bool",
          "name": "",
          "type": "bool"
        }
      ],
      "stateMutability": "nonpayable",
      "type": "function"
    },
    {
      "inputs": [
        {
          "internalType": "address",
          "name": "from",
          "type": "address"
        },
        {
          "internalType": "address",
          "name": "to",
          "type": "address"
        },
        {
          "internalType": "uint256",
          "name": "value",
          "type": "uint256"
        }
      ],
      "name": "transferFrom",
      "outputs": [
        {
          "internalType": "bool",
          "name": "",
          "type": "bool"
        }
      ],
      "stateMutability": "nonpayable",
      "type": "function"
    },
    {
      "inputs": [
        {
          "internalType": "address",
          "name": "newImplementation",
          "type": "address"
        },
        {
          "internalType": "bytes",
          "name": "data",
          "type": "bytes"
        }
      ],
      "name": "upgradeToAndCall",
      "outputs": [],
      "stateMutability": "payable",
      "type": "function"
    }
  ],
  "bytecode": "0x60a06040523073ffffffffffffffffffffffffffffffffffffffff1660809073ffffffffffffffffffffffffffffffffffffffff1681525034801561004357600080fd5b50608051612b4361006d600039600081816115360152818161158b01526117690152612b436000f3fe60806040526004361061019c5760003560e01c806352d1902d116100ec5780639dc29fac1161008a578063a966a0df11610064578063a966a0df146105dd578063ad3cb1cc14610608578063d547741f14610633578063dd62ed3e1461065c5761019c565b80639dc29fac1461054c578063a217fddf14610575578063a9059cbb146105a05761019c565b806379cc6790116100c657806379cc67901461049257806391d14854146104bb57806395d89b41146104f8578063996cba68146105235761019c565b806352d1902d146103ff57806370a082311461042a57806375b238fc146104675761019c565b80632f2ff15d1161015957806340c10f191161013357806340c10f191461036857806342966c6814610391578063485cc955146103ba5780634f1ef286146103e35761019c565b80632f2ff15d146102eb578063313ce5671461031457806336568abe1461033f5761019c565b806301ffc9a7146101a157806306fdde03146101de578063095ea7b31461020957806318160ddd1461024657806323b872dd14610271578063248a9ca3146102ae575b600080fd5b3480156101ad57600080fd5b506101c860048036038101906101c391906120a3565b610699565b6040516101d591906120eb565b60405180910390f35b3480156101ea57600080fd5b506101f3610713565b6040516102009190612196565b60405180910390f35b34801561021557600080fd5b50610230600480360381019061022b919061224c565b6107b4565b60405161023d91906120eb565b60405180910390f35b34801561025257600080fd5b5061025b6107d7565b604051610268919061229b565b60405180910390f35b34801561027d57600080fd5b50610298600480360381019061029391906122b6565b6107ef565b6040516102a591906120eb565b60405180910390f35b3480156102ba57600080fd5b506102d560048036038101906102d0919061233f565b61081e565b6040516102e2919061237b565b60405180910390f35b3480156102f757600080fd5b50610312600480360381019061030d9190612396565b61084c565b005b34801561032057600080fd5b5061032961086e565b60405161033691906123f2565b60405180910390f35b34801561034b57600080fd5b5061036660048036038101906103619190612396565b610877565b005b34801561037457600080fd5b5061038f600480360381019061038a919061224c565b6108f2565b005b34801561039d57600080fd5b506103b860048036038101906103b3919061240d565b61092b565b005b3480156103c657600080fd5b506103e160048036038101906103dc919061243a565b61093f565b005b6103fd60048036038101906103f891906125af565b610ba8565b005b34801561040b57600080fd5b50610414610bc7565b604051610421919061237b565b60405180910390f35b34801561043657600080fd5b50610451600480360381019061044c919061260b565b610bfa565b60405161045e919061229b565b60405180910390f35b34801561047357600080fd5b5061047c610c51565b604051610489919061237b565b60405180910390f35b34801561049e57600080fd5b506104b960048036038101906104b4919061224c565b610c75565b005b3480156104c757600080fd5b506104e260048036038101906104dd9190612396565b610c95565b6040516104ef91906120eb565b60405180910390f35b34801561050457600080fd5b5061050d610d0e565b60405161051a9190612196565b60405180910390f35b34801561052f57600080fd5b5061054a600480360381019061054591906122b6565b610daf565b005b34801561055857600080fd5b50610573600480360381019061056e919061224c565b610dea565b005b34801561058157600080fd5b5061058a610e23565b604051610597919061237b565b60405180910390f35b3480156105ac57600080fd5b506105c760048036038101906105c2919061224c565b610e2a565b6040516105d491906120eb565b60405180910390f35b3480156105e957600080fd5b506105f2610e4d565b6040516105ff919061237b565b60405180910390f35b34801561061457600080fd5b5061061d610e71565b60405161062a9190612196565b60405180910390f35b34801561063f57600080fd5b5061065a60048036038101906106559190612396565b610eaa565b005b34801561066857600080fd5b50610683600480360381019061067e919061243a565b610ecc565b604051610690919061229b565b60405180910390f35b60007f7965db0b000000000000000000000000000000000000000000000000000000007bffffffffffffffffffffffffffffffffffffffffffffffffffffffff1916827bffffffffffffffffffffffffffffffffffffffffffffffffffffffff1916148061070c575061070b82610f61565b5b9050919050565b6060600061071f610fcb565b905080600301805461073090612667565b80601f016020809104026020016040519081016040528092919081815260200182805461075c90612667565b80156107a95780601f1061077e576101008083540402835291602001916107a9565b820191906000526020600020905b81548152906001019060200180831161078c57829003601f168201915b505050505091505090565b6000806107bf610ff3565b90506107cc818585610ffb565b600191505092915050565b6000806107e2610fcb565b9050806002015491505090565b6000806107fa610ff3565b905061080785828561100d565b6108128585856110a1565b60019150509392505050565b600080610829611195565b905080600001600084815260200190815260200160002060010154915050919050565b6108558261081e565b61085e816111bd565b61086883836111d1565b50505050565b60006012905090565b61087f610ff3565b73ffffffffffffffffffffffffffffffffffffffff168173ffffffffffffffffffffffffffffffffffffffff16146108e3576040517f6697b23200000000000000000000000000000000000000000000000000000000815260040160405180910390fd5b6108ed82826112d2565b505050565b7fa49807205ce4d355092ef5a8a18f56e8913cf4a201fbe287825b095693c2177561091c816111bd565b61092683836113d4565b505050565b61093c610936610ff3565b82611456565b50565b60006109496114d8565b905060008160000160089054906101000a900460ff1615905060008260000160009054906101000a900467ffffffffffffffff1690506000808267ffffffffffffffff161480156109975750825b9050600060018367ffffffffffffffff161480156109cc575060003073ffffffffffffffffffffffffffffffffffffffff163b145b9050811580156109da575080155b15610a11576040517ff92ee8a900000000000000000000000000000000000000000000000000000000815260040160405180910390fd5b60018560000160006101000a81548167ffffffffffffffff021916908367ffffffffffffffff1602179055508315610a615760018560000160086101000a81548160ff0219169083151502179055505b610ad56040518060400160405280600581526020017f534f554e440000000000000000000000000000000000000000000000000000008152506040518060400160405280600381526020017f534e440000000000000000000000000000000000000000000000000000000000815250611500565b610add611516565b610ae5611520565b610aed61152a565b610b177fa49807205ce4d355092ef5a8a18f56e8913cf4a201fbe287825b095693c21775886111d1565b50610b427f877a78dc988c0ec5f58453b44888a55eb39755c3d5ed8d8ea990912aa3ef29c6876111d1565b508315610b9f5760008560000160086101000a81548160ff0219169083151502179055507fc7f505b2f371ae2175ee4913f4499e1f2633a7b5936321eed1cdaeb6115181d26001604051610b9691906126f1565b60405180910390a15b50505050505050565b610bb0611534565b610bb98261161a565b610bc38282611648565b5050565b6000610bd1611767565b7f360894a13ba1a3210667c828492db98dca3e2076cc3735a920a3ca505d382bbc60001b905090565b600080610c05610fcb565b90508060000160008473ffffffffffffffffffffffffffffffffffffffff1673ffffffffffffffffffffffffffffffffffffffff16815260200190815260200160002054915050919050565b7fa49807205ce4d355092ef5a8a18f56e8913cf4a201fbe287825b095693c2177581565b610c8782610c81610ff3565b8361100d565b610c918282611456565b5050565b600080610ca0611195565b905080600001600085815260200190815260200160002060000160008473ffffffffffffffffffffffffffffffffffffffff1673ffffffffffffffffffffffffffffffffffffffff16815260200190815260200160002060009054906101000a900460ff1691505092915050565b60606000610d1a610fcb565b9050806004018054610d2b90612667565b80601f0160208091040260200160405190810160405280929190818152602001828054610d5790612667565b8015610da45780601f10610d7957610100808354040283529160200191610da4565b820191906000526020600020905b815481529060010190602001808311610d8757829003601f168201915b505050505091505090565b7f877a78dc988c0ec5f58453b44888a55eb39755c3d5ed8d8ea990912aa3ef29c6610dd9816111bd565b610de48484846110a1565b50505050565b7fa49807205ce4d355092ef5a8a18f56e8913cf4a201fbe287825b095693c21775610e14816111bd565b610e1e8383611456565b505050565b6000801b81565b600080610e35610ff3565b9050610e428185856110a1565b600191505092915050565b7f877a78dc988c0ec5f58453b44888a55eb39755c3d5ed8d8ea990912aa3ef29c681565b6040518060400160405280600581526020017f352e302e3000000000000000000000000000000000000000000000000000000081525081565b610eb38261081e565b610ebc816111bd565b610ec683836112d2565b50505050565b600080610ed7610fcb565b90508060010160008573ffffffffffffffffffffffffffffffffffffffff1673ffffffffffffffffffffffffffffffffffffffff16815260200190815260200160002060008473ffffffffffffffffffffffffffffffffffffffff1673ffffffffffffffffffffffffffffffffffffffff1681526020019081526020016000205491505092915050565b60007f01ffc9a7000000000000000000000000000000000000000000000000000000007bffffffffffffffffffffffffffffffffffffffffffffffffffffffff1916827bffffffffffffffffffffffffffffffffffffffffffffffffffffffff1916149050919050565b60007f52c63247e1f47db19d5ce0460030c497f067ca4cebf71ba98eeadabe20bace00905090565b600033905090565b61100883838360016117ee565b505050565b60006110198484610ecc565b90507fffffffffffffffffffffffffffffffffffffffffffffffffffffffffffffffff811461109b578181101561108b578281836040517ffb8f41b20000000000000000000000000000000000000000000000000000000081526004016110829392919061271b565b60405180910390fd5b61109a848484840360006117ee565b5b50505050565b600073ffffffffffffffffffffffffffffffffffffffff168373ffffffffffffffffffffffffffffffffffffffff16036111135760006040517f96c6fd1e00000000000000000000000000000000000000000000000000000000815260040161110a9190612752565b60405180910390fd5b600073ffffffffffffffffffffffffffffffffffffffff168273ffffffffffffffffffffffffffffffffffffffff16036111855760006040517fec442f0500000000000000000000000000000000000000000000000000000000815260040161117c9190612752565b60405180910390fd5b6111908383836119d4565b505050565b60007f02dd7bc7dec4dceedda775e58dd541e08a116c6c53815c0bd028192f7b626800905090565b6111ce816111c9610ff3565b611c13565b50565b6000806111dc611195565b90506111e88484610c95565b6112c657600181600001600086815260200190815260200160002060000160008573ffffffffffffffffffffffffffffffffffffffff1673ffffffffffffffffffffffffffffffffffffffff16815260200190815260200160002060006101000a81548160ff021916908315150217905550611262610ff3565b73ffffffffffffffffffffffffffffffffffffffff168373ffffffffffffffffffffffffffffffffffffffff16857f2f8788117e7eff1d82e926ec794901d17c78024a50270940304540a733656f0d60405160405180910390a460019150506112cc565b60009150505b92915050565b6000806112dd611195565b90506112e98484610c95565b156113c857600081600001600086815260200190815260200160002060000160008573ffffffffffffffffffffffffffffffffffffffff1673ffffffffffffffffffffffffffffffffffffffff16815260200190815260200160002060006101000a81548160ff021916908315150217905550611364610ff3565b73ffffffffffffffffffffffffffffffffffffffff168373ffffffffffffffffffffffffffffffffffffffff16857ff6391f5c32d9c69d2a47ea670b442974b53935d1edc7fd64eb21e047a839171b60405160405180910390a460019150506113ce565b60009150505b92915050565b600073ffffffffffffffffffffffffffffffffffffffff168273ffffffffffffffffffffffffffffffffffffffff16036114465760006040517fec442f0500000000000000000000000000000000000000000000000000000000815260040161143d9190612752565b60405180910390fd5b611452600083836119d4565b5050565b600073ffffffffffffffffffffffffffffffffffffffff168273ffffffffffffffffffffffffffffffffffffffff16036114c85760006040517f96c6fd1e0000000000000000000000000000000000000000000000000000000081526004016114bf9190612752565b60405180910390fd5b6114d4826000836119d4565b5050565b60007ff0c57e16840df040f15088dc2f81fe391c3923bec73e23a9662efc9c229c6a00905090565b611508611c64565b6115128282611ca4565b5050565b61151e611c64565b565b611528611c64565b565b611532611c64565b565b7f000000000000000000000000000000000000000000000000000000000000000073ffffffffffffffffffffffffffffffffffffffff163073ffffffffffffffffffffffffffffffffffffffff1614806115e157507f000000000000000000000000000000000000000000000000000000000000000073ffffffffffffffffffffffffffffffffffffffff166115c8611ce1565b73ffffffffffffffffffffffffffffffffffffffff1614155b15611618576040517fe07c8dba00000000000000000000000000000000000000000000000000000000815260040160405180910390fd5b565b7fa49807205ce4d355092ef5a8a18f56e8913cf4a201fbe287825b095693c21775611644816111bd565b5050565b8173ffffffffffffffffffffffffffffffffffffffff166352d1902d6040518163ffffffff1660e01b8152600401602060405180830381865afa9250505080156116b057506040513d601f19601f820116820180604052508101906116ad9190612782565b60015b6116f157816040517f4c9c8ce30000000000000000000000000000000000000000000000000000000081526004016116e89190612752565b60405180910390fd5b7f360894a13ba1a3210667c828492db98dca3e2076cc3735a920a3ca505d382bbc60001b811461175857806040517faa1d49a400000000000000000000000000000000000000000000000000000000815260040161174f919061237b565b60405180910390fd5b6117628383611d38565b505050565b7f000000000000000000000000000000000000000000000000000000000000000073ffffffffffffffffffffffffffffffffffffffff163073ffffffffffffffffffffffffffffffffffffffff16146117ec576040517fe07c8dba00000000000000000000000000000000000000000000000000000000815260040160405180910390fd5b565b60006117f8610fcb565b9050600073ffffffffffffffffffffffffffffffffffffffff168573ffffffffffffffffffffffffffffffffffffffff160361186c5760006040517fe602df050000000000000000000000000000000000000000000000000000000081526004016118639190612752565b60405180910390fd5b600073ffffffffffffffffffffffffffffffffffffffff168473ffffffffffffffffffffffffffffffffffffffff16036118de5760006040517f94280d620000000000000000000000000000000000000000000000000000000081526004016118d59190612752565b60405180910390fd5b828160010160008773ffffffffffffffffffffffffffffffffffffffff1673ffffffffffffffffffffffffffffffffffffffff16815260200190815260200160002060008673ffffffffffffffffffffffffffffffffffffffff1673ffffffffffffffffffffffffffffffffffffffff1681526020019081526020016000208190555081156119cd578373ffffffffffffffffffffffffffffffffffffffff168573ffffffffffffffffffffffffffffffffffffffff167f8c5be1e5ebec7d5bd14f71427d1e84f3dd0314c0f7b2291e5b200ac8c7c3b925856040516119c4919061229b565b60405180910390a35b5050505050565b60006119de610fcb565b9050600073ffffffffffffffffffffffffffffffffffffffff168473ffffffffffffffffffffffffffffffffffffffff1603611a345781816002016000828254611a2891906127de565b92505081905550611b0d565b60008160000160008673ffffffffffffffffffffffffffffffffffffffff1673ffffffffffffffffffffffffffffffffffffffff16815260200190815260200160002054905082811015611ac3578481846040517fe450d38c000000000000000000000000000000000000000000000000000000008152600401611aba9392919061271b565b60405180910390fd5b8281038260000160008773ffffffffffffffffffffffffffffffffffffffff1673ffffffffffffffffffffffffffffffffffffffff16815260200190815260200160002081905550505b600073ffffffffffffffffffffffffffffffffffffffff168373ffffffffffffffffffffffffffffffffffffffff1603611b5857818160020160008282540392505081905550611ba8565b818160000160008573ffffffffffffffffffffffffffffffffffffffff1673ffffffffffffffffffffffffffffffffffffffff168152602001908152602001600020600082825401925050819055505b8273ffffffffffffffffffffffffffffffffffffffff168473ffffffffffffffffffffffffffffffffffffffff167fddf252ad1be2c89b69c2b068fc378daa952ba7f163c4a11628f55a4df523b3ef84604051611c05919061229b565b60405180910390a350505050565b611c1d8282610c95565b611c605780826040517fe2517d3f000000000000000000000000000000000000000000000000000000008152600401611c57929190612812565b60405180910390fd5b5050565b611c6c611dab565b611ca2576040517fd7e6bcf800000000000000000000000000000000000000000000000000000000815260040160405180910390fd5b565b611cac611c64565b6000611cb6610fcb565b905082816003019081611cc991906129dd565b5081816004019081611cdb91906129dd565b50505050565b6000611d0f7f360894a13ba1a3210667c828492db98dca3e2076cc3735a920a3ca505d382bbc60001b611dcb565b60000160009054906101000a900473ffffffffffffffffffffffffffffffffffffffff16905090565b611d4182611dd5565b8173ffffffffffffffffffffffffffffffffffffffff167fbc7cd75a20ee27fd9adebab32041f755214dbc6bffa90cc0225b39da2e5c2d3b60405160405180910390a2600081511115611d9e57611d988282611ea2565b50611da7565b611da6611f26565b5b5050565b6000611db56114d8565b60000160089054906101000a900460ff16905090565b6000819050919050565b60008173ffffffffffffffffffffffffffffffffffffffff163b03611e3157806040517f4c9c8ce3000000000000000000000000000000000000000000000000000000008152600401611e289190612752565b60405180910390fd5b80611e5e7f360894a13ba1a3210667c828492db98dca3e2076cc3735a920a3ca505d382bbc60001b611dcb565b60000160006101000a81548173ffffffffffffffffffffffffffffffffffffffff021916908373ffffffffffffffffffffffffffffffffffffffff16021790555050565b60606000808473ffffffffffffffffffffffffffffffffffffffff1684604051611ecc9190612af6565b600060405180830381855af49150503d8060008114611f07576040519150601f19603f3d011682016040523d82523d6000602084013e611f0c565b606091505b5091509150611f1c858383611f63565b9250505092915050565b6000341115611f61576040517fb398979f00000000000000000000000000000000000000000000000000000000815260040160405180910390fd5b565b606082611f7857611f7382611ff2565b611fea565b60008251148015611fa0575060008473ffffffffffffffffffffffffffffffffffffffff163b145b15611fe257836040517f9996b315000000000000000000000000000000000000000000000000000000008152600401611fd99190612752565b60405180910390fd5b819050611feb565b5b9392505050565b6000815111156120055780518082602001fd5b6040517f1425ea4200000000000000000000000000000000000000000000000000000000815260040160405180910390fd5b6000604051905090565b600080fd5b600080fd5b60007fffffffff0000000000000000000000000000000000000000000000000000000082169050919050565b6120808161204b565b811461208b57600080fd5b50565b60008135905061209d81612077565b92915050565b6000602082840312156120b9576120b8612041565b5b60006120c78482850161208e565b91505092915050565b60008115159050919050565b6120e5816120d0565b82525050565b600060208201905061210060008301846120dc565b92915050565b600081519050919050565b600082825260208201905092915050565b60005b83811015612140578082015181840152602081019050612125565b60008484015250505050565b6000601f19601f8301169050919050565b600061216882612106565b6121728185612111565b9350612182818560208601612122565b61218b8161214c565b840191505092915050565b600060208201905081810360008301526121b0818461215d565b905092915050565b600073ffffffffffffffffffffffffffffffffffffffff82169050919050565b60006121e3826121b8565b9050919050565b6121f3816121d8565b81146121fe57600080fd5b50565b600081359050612210816121ea565b92915050565b6000819050919050565b61222981612216565b811461223457600080fd5b50565b60008135905061224681612220565b92915050565b6000806040838503121561226357612262612041565b5b600061227185828601612201565b925050602061228285828601612237565b9150509250929050565b61229581612216565b82525050565b60006020820190506122b0600083018461228c565b92915050565b6000806000606084860312156122cf576122ce612041565b5b60006122dd86828701612201565b93505060206122ee86828701612201565b92505060406122ff86828701612237565b9150509250925092565b6000819050919050565b61231c81612309565b811461232757600080fd5b50565b60008135905061233981612313565b92915050565b60006020828403121561235557612354612041565b5b60006123638482850161232a565b91505092915050565b61237581612309565b82525050565b6000602082019050612390600083018461236c565b92915050565b600080604083850312156123ad576123ac612041565b5b60006123bb8582860161232a565b92505060206123cc85828601612201565b9150509250929050565b600060ff82169050919050565b6123ec816123d6565b82525050565b600060208201905061240760008301846123e3565b92915050565b60006020828403121561242357612422612041565b5b600061243184828501612237565b91505092915050565b6000806040838503121561245157612450612041565b5b600061245f85828601612201565b925050602061247085828601612201565b9150509250929050565b600080fd5b600080fd5b7f4e487b7100000000000000000000000000000000000000000000000000000000600052604160045260246000fd5b6124bc8261214c565b810181811067ffffffffffffffff821117156124db576124da612484565b5b80604052505050565b60006124ee612037565b90506124fa82826124b3565b919050565b600067ffffffffffffffff82111561251a57612519612484565b5b6125238261214c565b9050602081019050919050565b82818337600083830152505050565b600061255261254d846124ff565b6124e4565b90508281526020810184848401111561256e5761256d61247f565b5b612579848285612530565b509392505050565b600082601f8301126125965761259561247a565b5b81356125a684826020860161253f565b91505092915050565b600080604083850312156125c6576125c5612041565b5b60006125d485828601612201565b925050602083013567ffffffffffffffff8111156125f5576125f4612046565b5b61260185828601612581565b9150509250929050565b60006020828403121561262157612620612041565b5b600061262f84828501612201565b91505092915050565b7f4e487b7100000000000000000000000000000000000000000000000000000000600052602260045260246000fd5b6000600282049050600182168061267f57607f821691505b60208210810361269257612691612638565b5b50919050565b6000819050919050565b600067ffffffffffffffff82169050919050565b6000819050919050565b60006126db6126d66126d184612698565b6126b6565b6126a2565b9050919050565b6126eb816126c0565b82525050565b600060208201905061270660008301846126e2565b92915050565b612715816121d8565b82525050565b6000606082019050612730600083018661270c565b61273d602083018561228c565b61274a604083018461228c565b949350505050565b6000602082019050612767600083018461270c565b92915050565b60008151905061277c81612313565b92915050565b60006020828403121561279857612797612041565b5b60006127a68482850161276d565b91505092915050565b7f4e487b7100000000000000000000000000000000000000000000000000000000600052601160045260246000fd5b60006127e982612216565b91506127f483612216565b925082820190508082111561280c5761280b6127af565b5b92915050565b6000604082019050612827600083018561270c565b612834602083018461236c565b9392505050565b60008190508160005260206000209050919050565b60006020601f8301049050919050565b600082821b905092915050565b60006008830261289d7fffffffffffffffffffffffffffffffffffffffffffffffffffffffffffffffff82612860565b6128a78683612860565b95508019841693508086168417925050509392505050565b60006128da6128d56128d084612216565b6126b6565b612216565b9050919050565b6000819050919050565b6128f4836128bf565b612908612900826128e1565b84845461286d565b825550505050565b600090565b61291d612910565b6129288184846128eb565b505050565b5b8181101561294c57612941600082612915565b60018101905061292e565b5050565b601f821115612991576129628161283b565b61296b84612850565b8101602085101561297a578190505b61298e61298685612850565b83018261292d565b50505b505050565b600082821c905092915050565b60006129b460001984600802612996565b1980831691505092915050565b60006129cd83836129a3565b9150826002028217905092915050565b6129e682612106565b67ffffffffffffffff8111156129ff576129fe612484565b5b612a098254612667565b612a14828285612950565b600060209050601f831160018114612a475760008415612a35578287015190505b612a3f85826129c1565b865550612aa7565b601f198416612a558661283b565b60005b82811015612a7d57848901518255600182019150602085019450602081019050612a58565b86831015612a9a5784890151612a96601f8916826129a3565b8355505b6001600288020188555050505b505050505050565b600081519050919050565b600081905092915050565b6000612ad082612aaf565b612ada8185612aba565b9350612aea818560208601612122565b80840191505092915050565b6000612b028284612ac5565b91508190509291505056fea26469706673582212207120b01de86a0b54e771baf36850f951c6144b3b10308034f44b67deacebe73b64736f6c63430008140033",
  "linkReferences": {},
  "deployedLinkReferences": {}
}