{
  "_format": "hh-sol-artifact-1",
  "contractName": "NFToken",
  "sourceName": "contracts/NFToken.sol",
  "abi": [
    {
      "inputs": [
        {
          "internalType": "address",
          "name": "initialAuthority",
          "type": "address"
        }
      ],
      "stateMutability": "nonpayable",
      "type": "constructor"
    },
    {
      "inputs": [
        {
          "internalType": "address",
          "name": "authority",
          "type": "address"
        }
      ],
      "name": "AccessManagedInvalidAuthority",
      "type": "error"
    },
    {
      "inputs": [
        {
          "internalType": "address",
          "name": "caller",
          "type": "address"
        },
        {
          "internalType": "uint32",
          "name": "delay",
          "type": "uint32"
        }
      ],
      "name": "AccessManagedRequiredDelay",
      "type": "error"
    },
    {
      "inputs": [
        {
          "internalType": "address",
          "name": "caller",
          "type": "address"
        }
      ],
      "name": "AccessManagedUnauthorized",
      "type": "error"
    },
    {
      "inputs": [
        {
          "internalType": "address",
          "name": "spender",
          "type": "address"
        },
        {
          "internalType": "uint256",
          "name": "allowance",
          "type": "uint256"
        },
        {
          "internalType": "uint256",
          "name": "needed",
          "type": "uint256"
        }
      ],
      "name": "ERC20InsufficientAllowance",
      "type": "error"
    },
    {
      "inputs": [
        {
          "internalType": "address",
          "name": "sender",
          "type": "address"
        },
        {
          "internalType": "uint256",
          "name": "balance",
          "type": "uint256"
        },
        {
          "internalType": "uint256",
          "name": "needed",
          "type": "uint256"
        }
      ],
      "name": "ERC20InsufficientBalance",
      "type": "error"
    },
    {
      "inputs": [
        {
          "internalType": "address",
          "name": "approver",
          "type": "address"
        }
      ],
      "name": "ERC20InvalidApprover",
      "type": "error"
    },
    {
      "inputs": [
        {
          "internalType": "address",
          "name": "receiver",
          "type": "address"
        }
      ],
      "name": "ERC20InvalidReceiver",
      "type": "error"
    },
    {
      "inputs": [
        {
          "internalType": "address",
          "name": "sender",
          "type": "address"
        }
      ],
      "name": "ERC20InvalidSender",
      "type": "error"
    },
    {
      "inputs": [
        {
          "internalType": "address",
          "name": "spender",
          "type": "address"
        }
      ],
      "name": "ERC20InvalidSpender",
      "type": "error"
    },
    {
      "anonymous": false,
      "inputs": [
        {
          "indexed": true,
          "internalType": "address",
          "name": "owner",
          "type": "address"
        },
        {
          "indexed": true,
          "internalType": "address",
          "name": "spender",
          "type": "address"
        },
        {
          "indexed": false,
          "internalType": "uint256",
          "name": "value",
          "type": "uint256"
        }
      ],
      "name": "Approval",
      "type": "event"
    },
    {
      "anonymous": false,
      "inputs": [
        {
          "indexed": false,
          "internalType": "address",
          "name": "authority",
          "type": "address"
        }
      ],
      "name": "AuthorityUpdated",
      "type": "event"
    },
    {
      "anonymous": false,
      "inputs": [
        {
          "indexed": true,
          "internalType": "address",
          "name": "from",
          "type": "address"
        },
        {
          "indexed": true,
          "internalType": "address",
          "name": "to",
          "type": "address"
        },
        {
          "indexed": false,
          "internalType": "uint256",
          "name": "value",
          "type": "uint256"
        }
      ],
      "name": "Transfer",
      "type": "event"
    },
    {
      "inputs": [
        {
          "internalType": "address",
          "name": "owner",
          "type": "address"
        },
        {
          "internalType": "address",
          "name": "spender",
          "type": "address"
        }
      ],
      "name": "allowance",
      "outputs": [
        {
          "internalType": "uint256",
          "name": "",
          "type": "uint256"
        }
      ],
      "stateMutability": "view",
      "type": "function"
    },
    {
      "inputs": [
        {
          "internalType": "address",
          "name": "spender",
          "type": "address"
        },
        {
          "internalType": "uint256",
          "name": "value",
          "type": "uint256"
        }
      ],
      "name": "approve",
      "outputs": [
        {
          "internalType": "bool",
          "name": "",
          "type": "bool"
        }
      ],
      "stateMutability": "nonpayable",
      "type": "function"
    },
    {
      "inputs": [],
      "name": "authority",
      "outputs": [
        {
          "internalType": "address",
          "name": "",
          "type": "address"
        }
      ],
      "stateMutability": "view",
      "type": "function"
    },
    {
      "inputs": [
        {
          "internalType": "address",
          "name": "account",
          "type": "address"
        }
      ],
      "name": "balanceOf",
      "outputs": [
        {
          "internalType": "uint256",
          "name": "",
          "type": "uint256"
        }
      ],
      "stateMutability": "view",
      "type": "function"
    },
    {
      "inputs": [
        {
          "internalType": "uint256",
          "name": "value",
          "type": "uint256"
        }
      ],
      "name": "burn",
      "outputs": [],
      "stateMutability": "nonpayable",
      "type": "function"
    },
    {
      "inputs": [
        {
          "internalType": "address",
          "name": "account",
          "type": "address"
        },
        {
          "internalType": "uint256",
          "name": "value",
          "type": "uint256"
        }
      ],
      "name": "burnFrom",
      "outputs": [],
      "stateMutability": "nonpayable",
      "type": "function"
    },
    {
      "inputs": [],
      "name": "decimals",
      "outputs": [
        {
          "internalType": "uint8",
          "name": "",
          "type": "uint8"
        }
      ],
      "stateMutability": "view",
      "type": "function"
    },
    {
      "inputs": [],
      "name": "isConsumingScheduledOp",
      "outputs": [
        {
          "internalType": "bytes4",
          "name": "",
          "type": "bytes4"
        }
      ],
      "stateMutability": "view",
      "type": "function"
    },
    {
      "inputs": [
        {
          "internalType": "address",
          "name": "to",
          "type": "address"
        },
        {
          "internalType": "uint256",
          "name": "amount",
          "type": "uint256"
        }
      ],
      "name": "mint",
      "outputs": [],
      "stateMutability": "nonpayable",
      "type": "function"
    },
    {
      "inputs": [],
      "name": "name",
      "outputs": [
        {
          "internalType": "string",
          "name": "",
          "type": "string"
        }
      ],
      "stateMutability": "view",
      "type": "function"
    },
    {
      "inputs": [
        {
          "internalType": "address",
          "name": "newAuthority",
          "type": "address"
        }
      ],
      "name": "setAuthority",
      "outputs": [],
      "stateMutability": "nonpayable",
      "type": "function"
    },
    {
      "inputs": [],
      "name": "symbol",
      "outputs": [
        {
          "internalType": "string",
          "name": "",
          "type": "string"
        }
      ],
      "stateMutability": "view",
      "type": "function"
    },
    {
      "inputs": [],
      "name": "totalSupply",
      "outputs": [
        {
          "internalType": "uint256",
          "name": "",
          "type": "uint256"
        }
      ],
      "stateMutability": "view",
      "type": "function"
    },
    {
      "inputs": [
        {
          "internalType": "address",
          "name": "to",
          "type": "address"
        },
        {
          "internalType": "uint256",
          "name": "value",
          "type": "uint256"
        }
      ],
      "name": "transfer",
      "outputs": [
        {
          "internalType": "bool",
          "name": "",
          "type": "bool"
        }
      ],
      "stateMutability": "nonpayable",
      "type": "function"
    },
    {
      "inputs": [
        {
          "internalType": "address",
          "name": "from",
          "type": "address"
        },
        {
          "internalType": "address",
          "name": "to",
          "type": "address"
        },
        {
          "internalType": "uint256",
          "name": "value",
          "type": "uint256"
        }
      ],
      "name": "transferFrom",
      "outputs": [
        {
          "internalType": "bool",
          "name": "",
          "type": "bool"
        }
      ],
      "stateMutability": "nonpayable",
      "type": "function"
    }
  ],
  "bytecode": "0x60806040523480156200001157600080fd5b5060405162001db838038062001db88339818101604052810190620000379190620001ca565b806040518060400160405280600781526020017f4e46546f6b656e000000000000000000000000000000000000000000000000008152506040518060400160405280600381526020017f4e464f00000000000000000000000000000000000000000000000000000000008152508160039081620000b5919062000476565b508060049081620000c7919062000476565b505050620000db81620000e360201b60201c565b50506200058b565b80600560006101000a81548173ffffffffffffffffffffffffffffffffffffffff021916908373ffffffffffffffffffffffffffffffffffffffff1602179055507f2f658b440c35314f52658ea8a740e05b284cdc84dc9ae01e891f21b8933e7cad816040516200015591906200056e565b60405180910390a150565b600080fd5b600073ffffffffffffffffffffffffffffffffffffffff82169050919050565b6000620001928262000165565b9050919050565b620001a48162000185565b8114620001b057600080fd5b50565b600081519050620001c48162000199565b92915050565b600060208284031215620001e357620001e262000160565b5b6000620001f384828501620001b3565b91505092915050565b600081519050919050565b7f4e487b7100000000000000000000000000000000000000000000000000000000600052604160045260246000fd5b7f4e487b7100000000000000000000000000000000000000000000000000000000600052602260045260246000fd5b600060028204905060018216806200027e57607f821691505b60208210810362000294576200029362000236565b5b50919050565b60008190508160005260206000209050919050565b60006020601f8301049050919050565b600082821b905092915050565b600060088302620002fe7fffffffffffffffffffffffffffffffffffffffffffffffffffffffffffffffff82620002bf565b6200030a8683620002bf565b95508019841693508086168417925050509392505050565b6000819050919050565b6000819050919050565b600062000357620003516200034b8462000322565b6200032c565b62000322565b9050919050565b6000819050919050565b620003738362000336565b6200038b62000382826200035e565b848454620002cc565b825550505050565b600090565b620003a262000393565b620003af81848462000368565b505050565b5b81811015620003d757620003cb60008262000398565b600181019050620003b5565b5050565b601f8211156200042657620003f0816200029a565b620003fb84620002af565b810160208510156200040b578190505b620004236200041a85620002af565b830182620003b4565b50505b505050565b600082821c905092915050565b60006200044b600019846008026200042b565b1980831691505092915050565b600062000466838362000438565b9150826002028217905092915050565b6200048182620001fc565b67ffffffffffffffff8111156200049d576200049c62000207565b5b620004a9825462000265565b620004b6828285620003db565b600060209050601f831160018114620004ee5760008415620004d9578287015190505b620004e5858262000458565b86555062000555565b601f198416620004fe866200029a565b60005b82811015620005285784890151825560018201915060208501945060208101905062000501565b8683101562000548578489015162000544601f89168262000438565b8355505b6001600288020188555050505b505050505050565b620005688162000185565b82525050565b60006020820190506200058560008301846200055d565b92915050565b61181d806200059b6000396000f3fe608060405234801561001057600080fd5b50600436106100f55760003560e01c806370a082311161009757806395d89b411161006657806395d89b4114610272578063a9059cbb14610290578063bf7e214f146102c0578063dd62ed3e146102de576100f5565b806370a08231146101ec57806379cc67901461021c5780637a9e5e4b146102385780638fb3603714610254576100f5565b806323b872dd116100d357806323b872dd14610166578063313ce5671461019657806340c10f19146101b457806342966c68146101d0576100f5565b806306fdde03146100fa578063095ea7b31461011857806318160ddd14610148575b600080fd5b61010261030e565b60405161010f9190611149565b60405180910390f35b610132600480360381019061012d9190611204565b6103a0565b60405161013f919061125f565b60405180910390f35b6101506103c3565b60405161015d9190611289565b60405180910390f35b610180600480360381019061017b91906112a4565b6103cd565b60405161018d919061125f565b60405180910390f35b61019e6103fc565b6040516101ab9190611313565b60405180910390f35b6101ce60048036038101906101c99190611204565b610405565b005b6101ea60048036038101906101e5919061132e565b61042b565b005b6102066004803603810190610201919061135b565b61043f565b6040516102139190611289565b60405180910390f35b61023660048036038101906102319190611204565b610487565b005b610252600480360381019061024d919061135b565b6104a7565b005b61025c610593565b60405161026991906113c3565b60405180910390f35b61027a6105c1565b6040516102879190611149565b60405180910390f35b6102aa60048036038101906102a59190611204565b610653565b6040516102b7919061125f565b60405180910390f35b6102c8610676565b6040516102d591906113ed565b60405180910390f35b6102f860048036038101906102f39190611408565b6106a0565b6040516103059190611289565b60405180910390f35b60606003805461031d90611477565b80601f016020809104026020016040519081016040528092919081815260200182805461034990611477565b80156103965780601f1061036b57610100808354040283529160200191610396565b820191906000526020600020905b81548152906001019060200180831161037957829003601f168201915b5050505050905090565b6000806103ab610727565b90506103b881858561072f565b600191505092915050565b6000600254905090565b6000806103d8610727565b90506103e5858285610741565b6103f08585856107d5565b60019150509392505050565b60006012905090565b61041d610410610727565b6104186108c9565b6108d6565b6104278282610a18565b5050565b61043c610436610727565b82610a9a565b50565b60008060008373ffffffffffffffffffffffffffffffffffffffff1673ffffffffffffffffffffffffffffffffffffffff168152602001908152602001600020549050919050565b61049982610493610727565b83610741565b6104a38282610a9a565b5050565b60006104b1610727565b90506104bb610676565b73ffffffffffffffffffffffffffffffffffffffff168173ffffffffffffffffffffffffffffffffffffffff161461052a57806040517f068ca9d800000000000000000000000000000000000000000000000000000000815260040161052191906113ed565b60405180910390fd5b60008273ffffffffffffffffffffffffffffffffffffffff163b0361058657816040517fc2f31e5e00000000000000000000000000000000000000000000000000000000815260040161057d91906113ed565b60405180910390fd5b61058f82610b1c565b5050565b6000600560149054906101000a900460ff166105b357600060e01b6105bc565b638fb3603760e01b5b905090565b6060600480546105d090611477565b80601f01602080910402602001604051908101604052809291908181526020018280546105fc90611477565b80156106495780601f1061061e57610100808354040283529160200191610649565b820191906000526020600020905b81548152906001019060200180831161062c57829003601f168201915b5050505050905090565b60008061065e610727565b905061066b8185856107d5565b600191505092915050565b6000600560009054906101000a900473ffffffffffffffffffffffffffffffffffffffff16905090565b6000600160008473ffffffffffffffffffffffffffffffffffffffff1673ffffffffffffffffffffffffffffffffffffffff16815260200190815260200160002060008373ffffffffffffffffffffffffffffffffffffffff1673ffffffffffffffffffffffffffffffffffffffff16815260200190815260200160002054905092915050565b600033905090565b61073c8383836001610b97565b505050565b600061074d84846106a0565b90507fffffffffffffffffffffffffffffffffffffffffffffffffffffffffffffffff81146107cf57818110156107bf578281836040517ffb8f41b20000000000000000000000000000000000000000000000000000000081526004016107b6939291906114a8565b60405180910390fd5b6107ce84848484036000610b97565b5b50505050565b600073ffffffffffffffffffffffffffffffffffffffff168373ffffffffffffffffffffffffffffffffffffffff16036108475760006040517f96c6fd1e00000000000000000000000000000000000000000000000000000000815260040161083e91906113ed565b60405180910390fd5b600073ffffffffffffffffffffffffffffffffffffffff168273ffffffffffffffffffffffffffffffffffffffff16036108b95760006040517fec442f050000000000000000000000000000000000000000000000000000000081526004016108b091906113ed565b60405180910390fd5b6108c4838383610d6e565b505050565b3660008036915091509091565b60008061090a6108e4610676565b863087876000906004926108fa939291906114e9565b90610905919061153c565b610f93565b9150915081610a115760008163ffffffff1611156109d3576001600560146101000a81548160ff021916908315150217905550610945610676565b73ffffffffffffffffffffffffffffffffffffffff166394c7d7ee8686866040518463ffffffff1660e01b8152600401610981939291906115e8565b600060405180830381600087803b15801561099b57600080fd5b505af11580156109af573d6000803e3d6000fd5b505050506000600560146101000a81548160ff021916908315150217905550610a10565b846040517f068ca9d8000000000000000000000000000000000000000000000000000000008152600401610a0791906113ed565b60405180910390fd5b5b5050505050565b600073ffffffffffffffffffffffffffffffffffffffff168273ffffffffffffffffffffffffffffffffffffffff1603610a8a5760006040517fec442f05000000000000000000000000000000000000000000000000000000008152600401610a8191906113ed565b60405180910390fd5b610a9660008383610d6e565b5050565b600073ffffffffffffffffffffffffffffffffffffffff168273ffffffffffffffffffffffffffffffffffffffff1603610b0c5760006040517f96c6fd1e000000000000000000000000000000000000000000000000000000008152600401610b0391906113ed565b60405180910390fd5b610b1882600083610d6e565b5050565b80600560006101000a81548173ffffffffffffffffffffffffffffffffffffffff021916908373ffffffffffffffffffffffffffffffffffffffff1602179055507f2f658b440c35314f52658ea8a740e05b284cdc84dc9ae01e891f21b8933e7cad81604051610b8c91906113ed565b60405180910390a150565b600073ffffffffffffffffffffffffffffffffffffffff168473ffffffffffffffffffffffffffffffffffffffff1603610c095760006040517fe602df05000000000000000000000000000000000000000000000000000000008152600401610c0091906113ed565b60405180910390fd5b600073ffffffffffffffffffffffffffffffffffffffff168373ffffffffffffffffffffffffffffffffffffffff1603610c7b5760006040517f94280d62000000000000000000000000000000000000000000000000000000008152600401610c7291906113ed565b60405180910390fd5b81600160008673ffffffffffffffffffffffffffffffffffffffff1673ffffffffffffffffffffffffffffffffffffffff16815260200190815260200160002060008573ffffffffffffffffffffffffffffffffffffffff1673ffffffffffffffffffffffffffffffffffffffff168152602001908152602001600020819055508015610d68578273ffffffffffffffffffffffffffffffffffffffff168473ffffffffffffffffffffffffffffffffffffffff167f8c5be1e5ebec7d5bd14f71427d1e84f3dd0314c0f7b2291e5b200ac8c7c3b92584604051610d5f9190611289565b60405180910390a35b50505050565b600073ffffffffffffffffffffffffffffffffffffffff168373ffffffffffffffffffffffffffffffffffffffff1603610dc0578060026000828254610db49190611649565b92505081905550610e93565b60008060008573ffffffffffffffffffffffffffffffffffffffff1673ffffffffffffffffffffffffffffffffffffffff16815260200190815260200160002054905081811015610e4c578381836040517fe450d38c000000000000000000000000000000000000000000000000000000008152600401610e43939291906114a8565b60405180910390fd5b8181036000808673ffffffffffffffffffffffffffffffffffffffff1673ffffffffffffffffffffffffffffffffffffffff16815260200190815260200160002081905550505b600073ffffffffffffffffffffffffffffffffffffffff168273ffffffffffffffffffffffffffffffffffffffff1603610edc5780600260008282540392505081905550610f29565b806000808473ffffffffffffffffffffffffffffffffffffffff1673ffffffffffffffffffffffffffffffffffffffff168152602001908152602001600020600082825401925050819055505b8173ffffffffffffffffffffffffffffffffffffffff168373ffffffffffffffffffffffffffffffffffffffff167fddf252ad1be2c89b69c2b068fc378daa952ba7f163c4a11628f55a4df523b3ef83604051610f869190611289565b60405180910390a3505050565b6000806000808773ffffffffffffffffffffffffffffffffffffffff16878787604051602401610fc59392919061167d565b60405160208183030381529060405263b700961360e01b6020820180517bffffffffffffffffffffffffffffffffffffffffffffffffffffffff838183161783525050505060405161101791906116fb565b600060405180830381855afa9150503d8060008114611052576040519150601f19603f3d011682016040523d82523d6000602084013e611057565b606091505b509150915081156110ae57604081511061108c578080602001905181019061107f919061177a565b80945081955050506110ad565b60208151106110ac57808060200190518101906110a991906117ba565b93505b5b5b505094509492505050565b600081519050919050565b600082825260208201905092915050565b60005b838110156110f35780820151818401526020810190506110d8565b60008484015250505050565b6000601f19601f8301169050919050565b600061111b826110b9565b61112581856110c4565b93506111358185602086016110d5565b61113e816110ff565b840191505092915050565b600060208201905081810360008301526111638184611110565b905092915050565b600080fd5b600073ffffffffffffffffffffffffffffffffffffffff82169050919050565b600061119b82611170565b9050919050565b6111ab81611190565b81146111b657600080fd5b50565b6000813590506111c8816111a2565b92915050565b6000819050919050565b6111e1816111ce565b81146111ec57600080fd5b50565b6000813590506111fe816111d8565b92915050565b6000806040838503121561121b5761121a61116b565b5b6000611229858286016111b9565b925050602061123a858286016111ef565b9150509250929050565b60008115159050919050565b61125981611244565b82525050565b60006020820190506112746000830184611250565b92915050565b611283816111ce565b82525050565b600060208201905061129e600083018461127a565b92915050565b6000806000606084860312156112bd576112bc61116b565b5b60006112cb868287016111b9565b93505060206112dc868287016111b9565b92505060406112ed868287016111ef565b9150509250925092565b600060ff82169050919050565b61130d816112f7565b82525050565b60006020820190506113286000830184611304565b92915050565b6000602082840312156113445761134361116b565b5b6000611352848285016111ef565b91505092915050565b6000602082840312156113715761137061116b565b5b600061137f848285016111b9565b91505092915050565b60007fffffffff0000000000000000000000000000000000000000000000000000000082169050919050565b6113bd81611388565b82525050565b60006020820190506113d860008301846113b4565b92915050565b6113e781611190565b82525050565b600060208201905061140260008301846113de565b92915050565b6000806040838503121561141f5761141e61116b565b5b600061142d858286016111b9565b925050602061143e858286016111b9565b9150509250929050565b7f4e487b7100000000000000000000000000000000000000000000000000000000600052602260045260246000fd5b6000600282049050600182168061148f57607f821691505b6020821081036114a2576114a1611448565b5b50919050565b60006060820190506114bd60008301866113de565b6114ca602083018561127a565b6114d7604083018461127a565b949350505050565b600080fd5b600080fd5b600080858511156114fd576114fc6114df565b5b8386111561150e5761150d6114e4565b5b6001850283019150848603905094509492505050565b600082905092915050565b600082821b905092915050565b60006115488383611524565b826115538135611388565b925060048210156115935761158e7fffffffff000000000000000000000000000000000000000000000000000000008360040360080261152f565b831692505b505092915050565b600082825260208201905092915050565b82818337600083830152505050565b60006115c7838561159b565b93506115d48385846115ac565b6115dd836110ff565b840190509392505050565b60006040820190506115fd60008301866113de565b81810360208301526116108184866115bb565b9050949350505050565b7f4e487b7100000000000000000000000000000000000000000000000000000000600052601160045260246000fd5b6000611654826111ce565b915061165f836111ce565b92508282019050808211156116775761167661161a565b5b92915050565b600060608201905061169260008301866113de565b61169f60208301856113de565b6116ac60408301846113b4565b949350505050565b600081519050919050565b600081905092915050565b60006116d5826116b4565b6116df81856116bf565b93506116ef8185602086016110d5565b80840191505092915050565b600061170782846116ca565b915081905092915050565b61171b81611244565b811461172657600080fd5b50565b60008151905061173881611712565b92915050565b600063ffffffff82169050919050565b6117578161173e565b811461176257600080fd5b50565b6000815190506117748161174e565b92915050565b600080604083850312156117915761179061116b565b5b600061179f85828601611729565b92505060206117b085828601611765565b9150509250929050565b6000602082840312156117d0576117cf61116b565b5b60006117de84828501611729565b9150509291505056fea264697066735822122069f591c9ab53dc4fe35ed9ab1668e298671a8e922cc1ce5d37f5e0f100897b1e64736f6c63430008180033",
  "linkReferences": {},
  "deployedLinkReferences": {}
}