{
  "_format": "hh-sol-artifact-1",
  "contractName": "AlbumFactory",
  "sourceName": "contracts/AlbumFactory.sol",
  "abi": [
    {
      "inputs": [],
      "name": "AccessControlBadConfirmation",
      "type": "error"
    },
    {
      "inputs": [
        {
          "internalType": "address",
          "name": "account",
          "type": "address"
        },
        {
          "internalType": "bytes32",
          "name": "neededRole",
          "type": "bytes32"
        }
      ],
      "name": "AccessControlUnauthorizedAccount",
      "type": "error"
    },
    {
      "inputs": [
        {
          "internalType": "address",
          "name": "target",
          "type": "address"
        }
      ],
      "name": "AddressEmptyCode",
      "type": "error"
    },
    {
      "inputs": [
        {
          "internalType": "address",
          "name": "implementation",
          "type": "address"
        }
      ],
      "name": "ERC1967InvalidImplementation",
      "type": "error"
    },
    {
      "inputs": [],
      "name": "ERC1967NonPayable",
      "type": "error"
    },
    {
      "inputs": [],
      "name": "FailedInnerCall",
      "type": "error"
    },
    {
      "inputs": [],
      "name": "InvalidInitialization",
      "type": "error"
    },
    {
      "inputs": [],
      "name": "NotInitializing",
      "type": "error"
    },
    {
      "inputs": [],
      "name": "UUPSUnauthorizedCallContext",
      "type": "error"
    },
    {
      "inputs": [
        {
          "internalType": "bytes32",
          "name": "slot",
          "type": "bytes32"
        }
      ],
      "name": "UUPSUnsupportedProxiableUUID",
      "type": "error"
    },
    {
      "anonymous": false,
      "inputs": [
        {
          "indexed": false,
          "internalType": "uint64",
          "name": "version",
          "type": "uint64"
        }
      ],
      "name": "Initialized",
      "type": "event"
    },
    {
      "anonymous": false,
      "inputs": [
        {
          "indexed": true,
          "internalType": "bytes32",
          "name": "role",
          "type": "bytes32"
        },
        {
          "indexed": true,
          "internalType": "bytes32",
          "name": "previousAdminRole",
          "type": "bytes32"
        },
        {
          "indexed": true,
          "internalType": "bytes32",
          "name": "newAdminRole",
          "type": "bytes32"
        }
      ],
      "name": "RoleAdminChanged",
      "type": "event"
    },
    {
      "anonymous": false,
      "inputs": [
        {
          "indexed": true,
          "internalType": "bytes32",
          "name": "role",
          "type": "bytes32"
        },
        {
          "indexed": true,
          "internalType": "address",
          "name": "account",
          "type": "address"
        },
        {
          "indexed": true,
          "internalType": "address",
          "name": "sender",
          "type": "address"
        }
      ],
      "name": "RoleGranted",
      "type": "event"
    },
    {
      "anonymous": false,
      "inputs": [
        {
          "indexed": true,
          "internalType": "bytes32",
          "name": "role",
          "type": "bytes32"
        },
        {
          "indexed": true,
          "internalType": "address",
          "name": "account",
          "type": "address"
        },
        {
          "indexed": true,
          "internalType": "address",
          "name": "sender",
          "type": "address"
        }
      ],
      "name": "RoleRevoked",
      "type": "event"
    },
    {
      "anonymous": false,
      "inputs": [
        {
          "indexed": true,
          "internalType": "address",
          "name": "implementation",
          "type": "address"
        }
      ],
      "name": "Upgraded",
      "type": "event"
    },
    {
      "inputs": [],
      "name": "ADMIN_ROLE",
      "outputs": [
        {
          "internalType": "bytes32",
          "name": "",
          "type": "bytes32"
        }
      ],
      "stateMutability": "view",
      "type": "function"
    },
    {
      "inputs": [],
      "name": "DEFAULT_ADMIN_ROLE",
      "outputs": [
        {
          "internalType": "bytes32",
          "name": "",
          "type": "bytes32"
        }
      ],
      "stateMutability": "view",
      "type": "function"
    },
    {
      "inputs": [],
      "name": "UPGRADE_INTERFACE_VERSION",
      "outputs": [
        {
          "internalType": "string",
          "name": "",
          "type": "string"
        }
      ],
      "stateMutability": "view",
      "type": "function"
    },
    {
      "inputs": [
        {
          "internalType": "string",
          "name": "name",
          "type": "string"
        },
        {
          "internalType": "string",
          "name": "symbol",
          "type": "string"
        },
        {
          "internalType": "address",
          "name": "admin",
          "type": "address"
        },
        {
          "internalType": "address",
          "name": "staffContractAddress",
          "type": "address"
        }
      ],
      "name": "createAlbum",
      "outputs": [
        {
          "internalType": "address",
          "name": "",
          "type": "address"
        }
      ],
      "stateMutability": "nonpayable",
      "type": "function"
    },
    {
      "inputs": [
        {
          "internalType": "uint256",
          "name": "",
          "type": "uint256"
        }
      ],
      "name": "deployedAlbums",
      "outputs": [
        {
          "internalType": "address",
          "name": "",
          "type": "address"
        }
      ],
      "stateMutability": "view",
      "type": "function"
    },
    {
      "inputs": [
        {
          "internalType": "bytes32",
          "name": "role",
          "type": "bytes32"
        }
      ],
      "name": "getRoleAdmin",
      "outputs": [
        {
          "internalType": "bytes32",
          "name": "",
          "type": "bytes32"
        }
      ],
      "stateMutability": "view",
      "type": "function"
    },
    {
      "inputs": [
        {
          "internalType": "bytes32",
          "name": "role",
          "type": "bytes32"
        },
        {
          "internalType": "address",
          "name": "account",
          "type": "address"
        }
      ],
      "name": "grantRole",
      "outputs": [],
      "stateMutability": "nonpayable",
      "type": "function"
    },
    {
      "inputs": [
        {
          "internalType": "bytes32",
          "name": "role",
          "type": "bytes32"
        },
        {
          "internalType": "address",
          "name": "account",
          "type": "address"
        }
      ],
      "name": "hasRole",
      "outputs": [
        {
          "internalType": "bool",
          "name": "",
          "type": "bool"
        }
      ],
      "stateMutability": "view",
      "type": "function"
    },
    {
      "inputs": [
        {
          "internalType": "address",
          "name": "admin",
          "type": "address"
        },
        {
          "internalType": "address",
          "name": "staffContractAddress",
          "type": "address"
        }
      ],
      "name": "initialize",
      "outputs": [],
      "stateMutability": "nonpayable",
      "type": "function"
    },
    {
      "inputs": [],
      "name": "proxiableUUID",
      "outputs": [
        {
          "internalType": "bytes32",
          "name": "",
          "type": "bytes32"
        }
      ],
      "stateMutability": "view",
      "type": "function"
    },
    {
      "inputs": [
        {
          "internalType": "bytes32",
          "name": "role",
          "type": "bytes32"
        },
        {
          "internalType": "address",
          "name": "callerConfirmation",
          "type": "address"
        }
      ],
      "name": "renounceRole",
      "outputs": [],
      "stateMutability": "nonpayable",
      "type": "function"
    },
    {
      "inputs": [
        {
          "internalType": "bytes32",
          "name": "role",
          "type": "bytes32"
        },
        {
          "internalType": "address",
          "name": "account",
          "type": "address"
        }
      ],
      "name": "revokeRole",
      "outputs": [],
      "stateMutability": "nonpayable",
      "type": "function"
    },
    {
      "inputs": [
        {
          "internalType": "bytes4",
          "name": "interfaceId",
          "type": "bytes4"
        }
      ],
      "name": "supportsInterface",
      "outputs": [
        {
          "internalType": "bool",
          "name": "",
          "type": "bool"
        }
      ],
      "stateMutability": "view",
      "type": "function"
    },
    {
      "inputs": [
        {
          "internalType": "address",
          "name": "newImplementation",
          "type": "address"
        },
        {
          "internalType": "bytes",
          "name": "data",
          "type": "bytes"
        }
      ],
      "name": "upgradeToAndCall",
      "outputs": [],
      "stateMutability": "payable",
      "type": "function"
    }
  ],
  "bytecode": "0x60a06040523073ffffffffffffffffffffffffffffffffffffffff1660809073ffffffffffffffffffffffffffffffffffffffff1681525034801561004357600080fd5b50608051615ada61006d60003960008181610d6f01528181610dc40152610fa20152615ada6000f3fe6080604052600436106100dd5760003560e01c806362dc59321161007f57806391d148541161005957806391d14854146102c3578063a217fddf14610300578063ad3cb1cc1461032b578063d547741f14610356576100dd565b806362dc59321461021e578063753465fa1461025b57806375b238fc14610298576100dd565b806336568abe116100bb57806336568abe14610185578063485cc955146101ae5780634f1ef286146101d757806352d1902d146101f3576100dd565b806301ffc9a7146100e2578063248a9ca31461011f5780632f2ff15d1461015c575b600080fd5b3480156100ee57600080fd5b5061010960048036038101906101049190611487565b61037f565b60405161011691906114cf565b60405180910390f35b34801561012b57600080fd5b5061014660048036038101906101419190611520565b6103f9565b604051610153919061155c565b60405180910390f35b34801561016857600080fd5b50610183600480360381019061017e91906115d5565b610427565b005b34801561019157600080fd5b506101ac60048036038101906101a791906115d5565b610449565b005b3480156101ba57600080fd5b506101d560048036038101906101d09190611615565b6104c4565b005b6101f160048036038101906101ec919061179b565b6106bf565b005b3480156101ff57600080fd5b506102086106de565b604051610215919061155c565b60405180910390f35b34801561022a57600080fd5b506102456004803603810190610240919061182d565b610711565b6040516102529190611869565b60405180910390f35b34801561026757600080fd5b50610282600480360381019061027d9190611925565b610750565b60405161028f9190611869565b60405180910390f35b3480156102a457600080fd5b506102ad61098b565b6040516102ba919061155c565b60405180910390f35b3480156102cf57600080fd5b506102ea60048036038101906102e591906115d5565b6109af565b6040516102f791906114cf565b60405180910390f35b34801561030c57600080fd5b50610315610a28565b604051610322919061155c565b60405180910390f35b34801561033757600080fd5b50610340610a2f565b60405161034d9190611a43565b60405180910390f35b34801561036257600080fd5b5061037d600480360381019061037891906115d5565b610a68565b005b60007f7965db0b000000000000000000000000000000000000000000000000000000007bffffffffffffffffffffffffffffffffffffffffffffffffffffffff1916827bffffffffffffffffffffffffffffffffffffffffffffffffffffffff191614806103f257506103f182610a8a565b5b9050919050565b600080610404610af4565b905080600001600084815260200190815260200160002060010154915050919050565b610430826103f9565b61043981610b1c565b6104438383610b30565b50505050565b610451610c31565b73ffffffffffffffffffffffffffffffffffffffff168173ffffffffffffffffffffffffffffffffffffffff16146104b5576040517f6697b23200000000000000000000000000000000000000000000000000000000815260040160405180910390fd5b6104bf8282610c39565b505050565b60006104ce610d3b565b905060008160000160089054906101000a900460ff1615905060008260000160009054906101000a900467ffffffffffffffff1690506000808267ffffffffffffffff1614801561051c5750825b9050600060018367ffffffffffffffff16148015610551575060003073ffffffffffffffffffffffffffffffffffffffff163b145b90508115801561055f575080155b15610596576040517ff92ee8a900000000000000000000000000000000000000000000000000000000815260040160405180910390fd5b60018560000160006101000a81548167ffffffffffffffff021916908367ffffffffffffffff16021790555083156105e65760018560000160086101000a81548160ff0219169083151502179055505b6106107fa49807205ce4d355092ef5a8a18f56e8913cf4a201fbe287825b095693c2177588610b30565b50610619610d63565b85600160006101000a81548173ffffffffffffffffffffffffffffffffffffffff021916908373ffffffffffffffffffffffffffffffffffffffff16021790555083156106b65760008560000160086101000a81548160ff0219169083151502179055507fc7f505b2f371ae2175ee4913f4499e1f2633a7b5936321eed1cdaeb6115181d260016040516106ad9190611abe565b60405180910390a15b50505050505050565b6106c7610d6d565b6106d082610e53565b6106da8282610e81565b5050565b60006106e8610fa0565b7f360894a13ba1a3210667c828492db98dca3e2076cc3735a920a3ca505d382bbc60001b905090565b6000818154811061072157600080fd5b906000526020600020016000915054906101000a900473ffffffffffffffffffffffffffffffffffffffff1681565b600060405160200161076190611b30565b60405160208183030381529060405280519060200120600160009054906101000a900473ffffffffffffffffffffffffffffffffffffffff1673ffffffffffffffffffffffffffffffffffffffff1663cb510e97336040518263ffffffff1660e01b81526004016107d29190611869565b600060405180830381865afa1580156107ef573d6000803e3d6000fd5b505050506040513d6000823e3d601f19601f820116820180604052508101906108189190611bb5565b6040516020016108289190611c2f565b604051602081830303815290604052805190602001201461087e576040517f08c379a000000000000000000000000000000000000000000000000000000000815260040161087590611c92565b60405180910390fd5b600060405161088c9061140e565b604051809103906000f0801580156108a8573d6000803e3d6000fd5b5090508073ffffffffffffffffffffffffffffffffffffffff16632016a0d2858589896040518563ffffffff1660e01b81526004016108ea9493929190611cb2565b600060405180830381600087803b15801561090457600080fd5b505af1158015610918573d6000803e3d6000fd5b505050506000819080600181540180825580915050600190039060005260206000200160009091909190916101000a81548173ffffffffffffffffffffffffffffffffffffffff021916908373ffffffffffffffffffffffffffffffffffffffff16021790555080915050949350505050565b7fa49807205ce4d355092ef5a8a18f56e8913cf4a201fbe287825b095693c2177581565b6000806109ba610af4565b905080600001600085815260200190815260200160002060000160008473ffffffffffffffffffffffffffffffffffffffff1673ffffffffffffffffffffffffffffffffffffffff16815260200190815260200160002060009054906101000a900460ff1691505092915050565b6000801b81565b6040518060400160405280600581526020017f352e302e3000000000000000000000000000000000000000000000000000000081525081565b610a71826103f9565b610a7a81610b1c565b610a848383610c39565b50505050565b60007f01ffc9a7000000000000000000000000000000000000000000000000000000007bffffffffffffffffffffffffffffffffffffffffffffffffffffffff1916827bffffffffffffffffffffffffffffffffffffffffffffffffffffffff1916149050919050565b60007f02dd7bc7dec4dceedda775e58dd541e08a116c6c53815c0bd028192f7b626800905090565b610b2d81610b28610c31565b611027565b50565b600080610b3b610af4565b9050610b4784846109af565b610c2557600181600001600086815260200190815260200160002060000160008573ffffffffffffffffffffffffffffffffffffffff1673ffffffffffffffffffffffffffffffffffffffff16815260200190815260200160002060006101000a81548160ff021916908315150217905550610bc1610c31565b73ffffffffffffffffffffffffffffffffffffffff168373ffffffffffffffffffffffffffffffffffffffff16857f2f8788117e7eff1d82e926ec794901d17c78024a50270940304540a733656f0d60405160405180910390a46001915050610c2b565b60009150505b92915050565b600033905090565b600080610c44610af4565b9050610c5084846109af565b15610d2f57600081600001600086815260200190815260200160002060000160008573ffffffffffffffffffffffffffffffffffffffff1673ffffffffffffffffffffffffffffffffffffffff16815260200190815260200160002060006101000a81548160ff021916908315150217905550610ccb610c31565b73ffffffffffffffffffffffffffffffffffffffff168373ffffffffffffffffffffffffffffffffffffffff16857ff6391f5c32d9c69d2a47ea670b442974b53935d1edc7fd64eb21e047a839171b60405160405180910390a46001915050610d35565b60009150505b92915050565b60007ff0c57e16840df040f15088dc2f81fe391c3923bec73e23a9662efc9c229c6a00905090565b610d6b611078565b565b7f000000000000000000000000000000000000000000000000000000000000000073ffffffffffffffffffffffffffffffffffffffff163073ffffffffffffffffffffffffffffffffffffffff161480610e1a57507f000000000000000000000000000000000000000000000000000000000000000073ffffffffffffffffffffffffffffffffffffffff16610e016110b8565b73ffffffffffffffffffffffffffffffffffffffff1614155b15610e51576040517fe07c8dba00000000000000000000000000000000000000000000000000000000815260040160405180910390fd5b565b7fa49807205ce4d355092ef5a8a18f56e8913cf4a201fbe287825b095693c21775610e7d81610b1c565b5050565b8173ffffffffffffffffffffffffffffffffffffffff166352d1902d6040518163ffffffff1660e01b8152600401602060405180830381865afa925050508015610ee957506040513d601f19601f82011682018060405250810190610ee69190611d1a565b60015b610f2a57816040517f4c9c8ce3000000000000000000000000000000000000000000000000000000008152600401610f219190611869565b60405180910390fd5b7f360894a13ba1a3210667c828492db98dca3e2076cc3735a920a3ca505d382bbc60001b8114610f9157806040517faa1d49a4000000000000000000000000000000000000000000000000000000008152600401610f88919061155c565b60405180910390fd5b610f9b838361110f565b505050565b7f000000000000000000000000000000000000000000000000000000000000000073ffffffffffffffffffffffffffffffffffffffff163073ffffffffffffffffffffffffffffffffffffffff1614611025576040517fe07c8dba00000000000000000000000000000000000000000000000000000000815260040160405180910390fd5b565b61103182826109af565b6110745780826040517fe2517d3f00000000000000000000000000000000000000000000000000000000815260040161106b929190611d47565b60405180910390fd5b5050565b611080611182565b6110b6576040517fd7e6bcf800000000000000000000000000000000000000000000000000000000815260040160405180910390fd5b565b60006110e67f360894a13ba1a3210667c828492db98dca3e2076cc3735a920a3ca505d382bbc60001b6111a2565b60000160009054906101000a900473ffffffffffffffffffffffffffffffffffffffff16905090565b611118826111ac565b8173ffffffffffffffffffffffffffffffffffffffff167fbc7cd75a20ee27fd9adebab32041f755214dbc6bffa90cc0225b39da2e5c2d3b60405160405180910390a26000815111156111755761116f8282611279565b5061117e565b61117d6112fd565b5b5050565b600061118c610d3b565b60000160089054906101000a900460ff16905090565b6000819050919050565b60008173ffffffffffffffffffffffffffffffffffffffff163b0361120857806040517f4c9c8ce30000000000000000000000000000000000000000000000000000000081526004016111ff9190611869565b60405180910390fd5b806112357f360894a13ba1a3210667c828492db98dca3e2076cc3735a920a3ca505d382bbc60001b6111a2565b60000160006101000a81548173ffffffffffffffffffffffffffffffffffffffff021916908373ffffffffffffffffffffffffffffffffffffffff16021790555050565b60606000808473ffffffffffffffffffffffffffffffffffffffff16846040516112a39190611db7565b600060405180830381855af49150503d80600081146112de576040519150601f19603f3d011682016040523d82523d6000602084013e6112e3565b606091505b50915091506112f385838361133a565b9250505092915050565b6000341115611338576040517fb398979f00000000000000000000000000000000000000000000000000000000815260040160405180910390fd5b565b60608261134f5761134a826113c9565b6113c1565b60008251148015611377575060008473ffffffffffffffffffffffffffffffffffffffff163b145b156113b957836040517f9996b3150000000000000000000000000000000000000000000000000000000081526004016113b09190611869565b60405180910390fd5b8190506113c2565b5b9392505050565b6000815111156113dc5780518082602001fd5b6040517f1425ea4200000000000000000000000000000000000000000000000000000000815260040160405180910390fd5b613cd680611dcf83390190565b6000604051905090565b600080fd5b600080fd5b60007fffffffff0000000000000000000000000000000000000000000000000000000082169050919050565b6114648161142f565b811461146f57600080fd5b50565b6000813590506114818161145b565b92915050565b60006020828403121561149d5761149c611425565b5b60006114ab84828501611472565b91505092915050565b60008115159050919050565b6114c9816114b4565b82525050565b60006020820190506114e460008301846114c0565b92915050565b6000819050919050565b6114fd816114ea565b811461150857600080fd5b50565b60008135905061151a816114f4565b92915050565b60006020828403121561153657611535611425565b5b60006115448482850161150b565b91505092915050565b611556816114ea565b82525050565b6000602082019050611571600083018461154d565b92915050565b600073ffffffffffffffffffffffffffffffffffffffff82169050919050565b60006115a282611577565b9050919050565b6115b281611597565b81146115bd57600080fd5b50565b6000813590506115cf816115a9565b92915050565b600080604083850312156115ec576115eb611425565b5b60006115fa8582860161150b565b925050602061160b858286016115c0565b9150509250929050565b6000806040838503121561162c5761162b611425565b5b600061163a858286016115c0565b925050602061164b858286016115c0565b9150509250929050565b600080fd5b600080fd5b6000601f19601f8301169050919050565b7f4e487b7100000000000000000000000000000000000000000000000000000000600052604160045260246000fd5b6116a88261165f565b810181811067ffffffffffffffff821117156116c7576116c6611670565b5b80604052505050565b60006116da61141b565b90506116e6828261169f565b919050565b600067ffffffffffffffff82111561170657611705611670565b5b61170f8261165f565b9050602081019050919050565b82818337600083830152505050565b600061173e611739846116eb565b6116d0565b90508281526020810184848401111561175a5761175961165a565b5b61176584828561171c565b509392505050565b600082601f83011261178257611781611655565b5b813561179284826020860161172b565b91505092915050565b600080604083850312156117b2576117b1611425565b5b60006117c0858286016115c0565b925050602083013567ffffffffffffffff8111156117e1576117e061142a565b5b6117ed8582860161176d565b9150509250929050565b6000819050919050565b61180a816117f7565b811461181557600080fd5b50565b60008135905061182781611801565b92915050565b60006020828403121561184357611842611425565b5b600061185184828501611818565b91505092915050565b61186381611597565b82525050565b600060208201905061187e600083018461185a565b92915050565b600067ffffffffffffffff82111561189f5761189e611670565b5b6118a88261165f565b9050602081019050919050565b60006118c86118c384611884565b6116d0565b9050828152602081018484840111156118e4576118e361165a565b5b6118ef84828561171c565b509392505050565b600082601f83011261190c5761190b611655565b5b813561191c8482602086016118b5565b91505092915050565b6000806000806080858703121561193f5761193e611425565b5b600085013567ffffffffffffffff81111561195d5761195c61142a565b5b611969878288016118f7565b945050602085013567ffffffffffffffff81111561198a5761198961142a565b5b611996878288016118f7565b93505060406119a7878288016115c0565b92505060606119b8878288016115c0565b91505092959194509250565b600081519050919050565b600082825260208201905092915050565b60005b838110156119fe5780820151818401526020810190506119e3565b60008484015250505050565b6000611a15826119c4565b611a1f81856119cf565b9350611a2f8185602086016119e0565b611a388161165f565b840191505092915050565b60006020820190508181036000830152611a5d8184611a0a565b905092915050565b6000819050919050565b600067ffffffffffffffff82169050919050565b6000819050919050565b6000611aa8611aa3611a9e84611a65565b611a83565b611a6f565b9050919050565b611ab881611a8d565b82525050565b6000602082019050611ad36000830184611aaf565b92915050565b600081905092915050565b7f6172746973740000000000000000000000000000000000000000000000000000600082015250565b6000611b1a600683611ad9565b9150611b2582611ae4565b600682019050919050565b6000611b3b82611b0d565b9150819050919050565b6000611b58611b5384611884565b6116d0565b905082815260208101848484011115611b7457611b7361165a565b5b611b7f8482856119e0565b509392505050565b600082601f830112611b9c57611b9b611655565b5b8151611bac848260208601611b45565b91505092915050565b600060208284031215611bcb57611bca611425565b5b600082015167ffffffffffffffff811115611be957611be861142a565b5b611bf584828501611b87565b91505092915050565b6000611c09826119c4565b611c138185611ad9565b9350611c238185602086016119e0565b80840191505092915050565b6000611c3b8284611bfe565b915081905092915050565b7f43616c6c6572206973206e6f7420616e20617274697374000000000000000000600082015250565b6000611c7c6017836119cf565b9150611c8782611c46565b602082019050919050565b60006020820190508181036000830152611cab81611c6f565b9050919050565b6000608082019050611cc7600083018761185a565b611cd4602083018661185a565b8181036040830152611ce68185611a0a565b90508181036060830152611cfa8184611a0a565b905095945050505050565b600081519050611d14816114f4565b92915050565b600060208284031215611d3057611d2f611425565b5b6000611d3e84828501611d05565b91505092915050565b6000604082019050611d5c600083018561185a565b611d69602083018461154d565b9392505050565b600081519050919050565b600081905092915050565b6000611d9182611d70565b611d9b8185611d7b565b9350611dab8185602086016119e0565b80840191505092915050565b6000611dc38284611d86565b91508190509291505056fe60a06040523073ffffffffffffffffffffffffffffffffffffffff1660809073ffffffffffffffffffffffffffffffffffffffff1681525034801561004357600080fd5b50608051613c6961006d600039600081816116db01528181611730015261190e0152613c696000f3fe6080604052600436106101815760003560e01c80636352211e116100d1578063a22cb4651161008a578063c87b56dd11610064578063c87b56dd14610583578063d204c45e146105c0578063d547741f146105e9578063e985e9c51461061257610181565b8063a22cb46514610506578063ad3cb1cc1461052f578063b88d4fde1461055a57610181565b80636352211e146103ce57806370a082311461040b57806375b238fc1461044857806391d148541461047357806395d89b41146104b0578063a217fddf146104db57610181565b8063248a9ca31161013e57806342842e0e1161011857806342842e0e1461033557806342966c681461035e5780634f1ef2861461038757806352d1902d146103a357610181565b8063248a9ca3146102a65780632f2ff15d146102e357806336568abe1461030c57610181565b806301ffc9a71461018657806306fdde03146101c3578063081812fc146101ee578063095ea7b31461022b5780632016a0d21461025457806323b872dd1461027d575b600080fd5b34801561019257600080fd5b506101ad60048036038101906101a89190612c34565b61064f565b6040516101ba9190612c7c565b60405180910390f35b3480156101cf57600080fd5b506101d8610661565b6040516101e59190612d27565b60405180910390f35b3480156101fa57600080fd5b5061021560048036038101906102109190612d7f565b610702565b6040516102229190612ded565b60405180910390f35b34801561023757600080fd5b50610252600480360381019061024d9190612e34565b61071e565b005b34801561026057600080fd5b5061027b60048036038101906102769190612fa9565b610734565b005b34801561028957600080fd5b506102a4600480360381019061029f9190613048565b610961565b005b3480156102b257600080fd5b506102cd60048036038101906102c891906130d1565b610a63565b6040516102da919061310d565b60405180910390f35b3480156102ef57600080fd5b5061030a60048036038101906103059190613128565b610a91565b005b34801561031857600080fd5b50610333600480360381019061032e9190613128565b610ab3565b005b34801561034157600080fd5b5061035c60048036038101906103579190613048565b610b2e565b005b34801561036a57600080fd5b5061038560048036038101906103809190612d7f565b610b4e565b005b6103a1600480360381019061039c9190613209565b610b65565b005b3480156103af57600080fd5b506103b8610b84565b6040516103c5919061310d565b60405180910390f35b3480156103da57600080fd5b506103f560048036038101906103f09190612d7f565b610bb7565b6040516104029190612ded565b60405180910390f35b34801561041757600080fd5b50610432600480360381019061042d9190613265565b610bc9565b60405161043f91906132a1565b60405180910390f35b34801561045457600080fd5b5061045d610c92565b60405161046a919061310d565b60405180910390f35b34801561047f57600080fd5b5061049a60048036038101906104959190613128565b610cb6565b6040516104a79190612c7c565b60405180910390f35b3480156104bc57600080fd5b506104c5610d2f565b6040516104d29190612d27565b60405180910390f35b3480156104e757600080fd5b506104f0610dd0565b6040516104fd919061310d565b60405180910390f35b34801561051257600080fd5b5061052d600480360381019061052891906132e8565b610dd7565b005b34801561053b57600080fd5b50610544610ded565b6040516105519190612d27565b60405180910390f35b34801561056657600080fd5b50610581600480360381019061057c9190613328565b610e26565b005b34801561058f57600080fd5b506105aa60048036038101906105a59190612d7f565b610e43565b6040516105b79190612d27565b60405180910390f35b3480156105cc57600080fd5b506105e760048036038101906105e291906133ab565b610e55565b005b3480156105f557600080fd5b50610610600480360381019061060b9190613128565b610fb4565b005b34801561061e57600080fd5b5061063960048036038101906106349190613407565b610fd6565b6040516106469190612c7c565b60405180910390f35b600061065a82611078565b9050919050565b6060600061066d6110f2565b905080600001805461067e90613476565b80601f01602080910402602001604051908101604052809291908181526020018280546106aa90613476565b80156106f75780601f106106cc576101008083540402835291602001916106f7565b820191906000526020600020905b8154815290600101906020018083116106da57829003601f168201915b505050505091505090565b600061070d8261111a565b50610717826111a2565b9050919050565b610730828261072b6111ed565b6111f5565b5050565b600061073e611207565b905060008160000160089054906101000a900460ff1615905060008260000160009054906101000a900467ffffffffffffffff1690506000808267ffffffffffffffff1614801561078c5750825b9050600060018367ffffffffffffffff161480156107c1575060003073ffffffffffffffffffffffffffffffffffffffff163b145b9050811580156107cf575080155b15610806576040517ff92ee8a900000000000000000000000000000000000000000000000000000000815260040160405180910390fd5b60018560000160006101000a81548167ffffffffffffffff021916908367ffffffffffffffff16021790555083156108565760018560000160086101000a81548160ff0219169083151502179055505b610860878761122f565b610868611245565b61087061124f565b610878611259565b610880611263565b61088d6000801b8a61126d565b506108b87fa49807205ce4d355092ef5a8a18f56e8913cf4a201fbe287825b095693c217758a61126d565b5087600160006101000a81548173ffffffffffffffffffffffffffffffffffffffff021916908373ffffffffffffffffffffffffffffffffffffffff16021790555083156109565760008560000160086101000a81548160ff0219169083151502179055507fc7f505b2f371ae2175ee4913f4499e1f2633a7b5936321eed1cdaeb6115181d2600160405161094d9190613500565b60405180910390a15b505050505050505050565b600073ffffffffffffffffffffffffffffffffffffffff168273ffffffffffffffffffffffffffffffffffffffff16036109d35760006040517f64a0ae920000000000000000000000000000000000000000000000000000000081526004016109ca9190612ded565b60405180910390fd5b60006109e783836109e26111ed565b61136e565b90508373ffffffffffffffffffffffffffffffffffffffff168173ffffffffffffffffffffffffffffffffffffffff1614610a5d578382826040517f64283d7b000000000000000000000000000000000000000000000000000000008152600401610a549392919061351b565b60405180910390fd5b50505050565b600080610a6e61159b565b905080600001600084815260200190815260200160002060010154915050919050565b610a9a82610a63565b610aa3816115c3565b610aad838361126d565b50505050565b610abb6111ed565b73ffffffffffffffffffffffffffffffffffffffff168173ffffffffffffffffffffffffffffffffffffffff1614610b1f576040517f6697b23200000000000000000000000000000000000000000000000000000000815260040160405180910390fd5b610b2982826115d7565b505050565b610b4983838360405180602001604052806000815250610e26565b505050565b610b61600082610b5c6111ed565b61136e565b5050565b610b6d6116d9565b610b76826117bf565b610b8082826117ed565b5050565b6000610b8e61190c565b7f360894a13ba1a3210667c828492db98dca3e2076cc3735a920a3ca505d382bbc60001b905090565b6000610bc28261111a565b9050919050565b600080610bd46110f2565b9050600073ffffffffffffffffffffffffffffffffffffffff168373ffffffffffffffffffffffffffffffffffffffff1603610c485760006040517f89c62b64000000000000000000000000000000000000000000000000000000008152600401610c3f9190612ded565b60405180910390fd5b8060030160008473ffffffffffffffffffffffffffffffffffffffff1673ffffffffffffffffffffffffffffffffffffffff16815260200190815260200160002054915050919050565b7fa49807205ce4d355092ef5a8a18f56e8913cf4a201fbe287825b095693c2177581565b600080610cc161159b565b905080600001600085815260200190815260200160002060000160008473ffffffffffffffffffffffffffffffffffffffff1673ffffffffffffffffffffffffffffffffffffffff16815260200190815260200160002060009054906101000a900460ff1691505092915050565b60606000610d3b6110f2565b9050806001018054610d4c90613476565b80601f0160208091040260200160405190810160405280929190818152602001828054610d7890613476565b8015610dc55780601f10610d9a57610100808354040283529160200191610dc5565b820191906000526020600020905b815481529060010190602001808311610da857829003601f168201915b505050505091505090565b6000801b81565b610de9610de26111ed565b8383611993565b5050565b6040518060400160405280600581526020017f352e302e3000000000000000000000000000000000000000000000000000000081525081565b610e31848484610961565b610e3d84848484611b11565b50505050565b6060610e4e82611cc8565b9050919050565b604051602001610e64906135a9565b60405160208183030381529060405280519060200120600160009054906101000a900473ffffffffffffffffffffffffffffffffffffffff1673ffffffffffffffffffffffffffffffffffffffff1663cb510e97336040518263ffffffff1660e01b8152600401610ed59190612ded565b600060405180830381865afa158015610ef2573d6000803e3d6000fd5b505050506040513d6000823e3d601f19601f82011682018060405250810190610f1b919061362e565b604051602001610f2b91906136a8565b6040516020818303038152906040528051906020012014610f81576040517f08c379a0000000000000000000000000000000000000000000000000000000008152600401610f789061370b565b60405180910390fd5b6000806000815480929190610f959061375a565b919050559050610fa58382611dec565b610faf8183611e0a565b505050565b610fbd82610a63565b610fc6816115c3565b610fd083836115d7565b50505050565b600080610fe16110f2565b90508060050160008573ffffffffffffffffffffffffffffffffffffffff1673ffffffffffffffffffffffffffffffffffffffff16815260200190815260200160002060008473ffffffffffffffffffffffffffffffffffffffff1673ffffffffffffffffffffffffffffffffffffffff16815260200190815260200160002060009054906101000a900460ff1691505092915050565b60007f7965db0b000000000000000000000000000000000000000000000000000000007bffffffffffffffffffffffffffffffffffffffffffffffffffffffff1916827bffffffffffffffffffffffffffffffffffffffffffffffffffffffff191614806110eb57506110ea82611e75565b5b9050919050565b60007f80bb2b638cc20bc4d0a60d66940f3ab4a00c1d7b313497ca82fb0b4ab0079300905090565b60008061112683611ed6565b9050600073ffffffffffffffffffffffffffffffffffffffff168173ffffffffffffffffffffffffffffffffffffffff160361119957826040517f7e27328900000000000000000000000000000000000000000000000000000000815260040161119091906132a1565b60405180910390fd5b80915050919050565b6000806111ad6110f2565b905080600401600084815260200190815260200160002060009054906101000a900473ffffffffffffffffffffffffffffffffffffffff16915050919050565b600033905090565b6112028383836001611f21565b505050565b60007ff0c57e16840df040f15088dc2f81fe391c3923bec73e23a9662efc9c229c6a00905090565b6112376120f5565b6112418282612135565b5050565b61124d6120f5565b565b6112576120f5565b565b6112616120f5565b565b61126b6120f5565b565b60008061127861159b565b90506112848484610cb6565b61136257600181600001600086815260200190815260200160002060000160008573ffffffffffffffffffffffffffffffffffffffff1673ffffffffffffffffffffffffffffffffffffffff16815260200190815260200160002060006101000a81548160ff0219169083151502179055506112fe6111ed565b73ffffffffffffffffffffffffffffffffffffffff168373ffffffffffffffffffffffffffffffffffffffff16857f2f8788117e7eff1d82e926ec794901d17c78024a50270940304540a733656f0d60405160405180910390a46001915050611368565b60009150505b92915050565b6000806113796110f2565b9050600061138685611ed6565b9050600073ffffffffffffffffffffffffffffffffffffffff168473ffffffffffffffffffffffffffffffffffffffff16146113c8576113c7818587612172565b5b600073ffffffffffffffffffffffffffffffffffffffff168173ffffffffffffffffffffffffffffffffffffffff161461145b5761140a600086600080611f21565b60018260030160008373ffffffffffffffffffffffffffffffffffffffff1673ffffffffffffffffffffffffffffffffffffffff168152602001908152602001600020600082825403925050819055505b600073ffffffffffffffffffffffffffffffffffffffff168673ffffffffffffffffffffffffffffffffffffffff16146114e05760018260030160008873ffffffffffffffffffffffffffffffffffffffff1673ffffffffffffffffffffffffffffffffffffffff168152602001908152602001600020600082825401925050819055505b8582600201600087815260200190815260200160002060006101000a81548173ffffffffffffffffffffffffffffffffffffffff021916908373ffffffffffffffffffffffffffffffffffffffff160217905550848673ffffffffffffffffffffffffffffffffffffffff168273ffffffffffffffffffffffffffffffffffffffff167fddf252ad1be2c89b69c2b068fc378daa952ba7f163c4a11628f55a4df523b3ef60405160405180910390a480925050509392505050565b60007f02dd7bc7dec4dceedda775e58dd541e08a116c6c53815c0bd028192f7b626800905090565b6115d4816115cf6111ed565b612236565b50565b6000806115e261159b565b90506115ee8484610cb6565b156116cd57600081600001600086815260200190815260200160002060000160008573ffffffffffffffffffffffffffffffffffffffff1673ffffffffffffffffffffffffffffffffffffffff16815260200190815260200160002060006101000a81548160ff0219169083151502179055506116696111ed565b73ffffffffffffffffffffffffffffffffffffffff168373ffffffffffffffffffffffffffffffffffffffff16857ff6391f5c32d9c69d2a47ea670b442974b53935d1edc7fd64eb21e047a839171b60405160405180910390a460019150506116d3565b60009150505b92915050565b7f000000000000000000000000000000000000000000000000000000000000000073ffffffffffffffffffffffffffffffffffffffff163073ffffffffffffffffffffffffffffffffffffffff16148061178657507f000000000000000000000000000000000000000000000000000000000000000073ffffffffffffffffffffffffffffffffffffffff1661176d612287565b73ffffffffffffffffffffffffffffffffffffffff1614155b156117bd576040517fe07c8dba00000000000000000000000000000000000000000000000000000000815260040160405180910390fd5b565b7fa49807205ce4d355092ef5a8a18f56e8913cf4a201fbe287825b095693c217756117e9816115c3565b5050565b8173ffffffffffffffffffffffffffffffffffffffff166352d1902d6040518163ffffffff1660e01b8152600401602060405180830381865afa92505050801561185557506040513d601f19601f8201168201806040525081019061185291906137b7565b60015b61189657816040517f4c9c8ce300000000000000000000000000000000000000000000000000000000815260040161188d9190612ded565b60405180910390fd5b7f360894a13ba1a3210667c828492db98dca3e2076cc3735a920a3ca505d382bbc60001b81146118fd57806040517faa1d49a40000000000000000000000000000000000000000000000000000000081526004016118f4919061310d565b60405180910390fd5b61190783836122de565b505050565b7f000000000000000000000000000000000000000000000000000000000000000073ffffffffffffffffffffffffffffffffffffffff163073ffffffffffffffffffffffffffffffffffffffff1614611991576040517fe07c8dba00000000000000000000000000000000000000000000000000000000815260040160405180910390fd5b565b600061199d6110f2565b9050600073ffffffffffffffffffffffffffffffffffffffff168373ffffffffffffffffffffffffffffffffffffffff1603611a1057826040517f5b08ba18000000000000000000000000000000000000000000000000000000008152600401611a079190612ded565b60405180910390fd5b818160050160008673ffffffffffffffffffffffffffffffffffffffff1673ffffffffffffffffffffffffffffffffffffffff16815260200190815260200160002060008573ffffffffffffffffffffffffffffffffffffffff1673ffffffffffffffffffffffffffffffffffffffff16815260200190815260200160002060006101000a81548160ff0219169083151502179055508273ffffffffffffffffffffffffffffffffffffffff168473ffffffffffffffffffffffffffffffffffffffff167f17307eab39ab6107e8899845ad3d59bd9653f200f220920489ca2b5937696c3184604051611b039190612c7c565b60405180910390a350505050565b60008373ffffffffffffffffffffffffffffffffffffffff163b1115611cc2578273ffffffffffffffffffffffffffffffffffffffff1663150b7a02611b556111ed565b8685856040518563ffffffff1660e01b8152600401611b779493929190613839565b6020604051808303816000875af1925050508015611bb357506040513d601f19601f82011682018060405250810190611bb0919061389a565b60015b611c37573d8060008114611be3576040519150601f19603f3d011682016040523d82523d6000602084013e611be8565b606091505b506000815103611c2f57836040517f64a0ae92000000000000000000000000000000000000000000000000000000008152600401611c269190612ded565b60405180910390fd5b805181602001fd5b63150b7a0260e01b7bffffffffffffffffffffffffffffffffffffffffffffffffffffffff1916817bffffffffffffffffffffffffffffffffffffffffffffffffffffffff191614611cc057836040517f64a0ae92000000000000000000000000000000000000000000000000000000008152600401611cb79190612ded565b60405180910390fd5b505b50505050565b60606000611cd4612351565b9050611cdf8361111a565b5060008160000160008581526020019081526020016000208054611d0290613476565b80601f0160208091040260200160405190810160405280929190818152602001828054611d2e90613476565b8015611d7b5780601f10611d5057610100808354040283529160200191611d7b565b820191906000526020600020905b815481529060010190602001808311611d5e57829003601f168201915b505050505090506000611d8c612379565b90506000815103611da257819350505050611de7565b600082511115611dd8578082604051602001611dbf9291906138c7565b6040516020818303038152906040529350505050611de7565b611de185612390565b93505050505b919050565b611e068282604051806020016040528060008152506123f9565b5050565b6000611e14612351565b9050818160000160008581526020019081526020016000209081611e389190613a8d565b507ff8e1a15aba9398e019f0b49df1a4fde98ee17ae345cb5f6b5e2c27f5033e8ce783604051611e6891906132a1565b60405180910390a1505050565b6000634906490660e01b7bffffffffffffffffffffffffffffffffffffffffffffffffffffffff1916827bffffffffffffffffffffffffffffffffffffffffffffffffffffffff19161480611ecf5750611ece82612415565b5b9050919050565b600080611ee16110f2565b905080600201600084815260200190815260200160002060009054906101000a900473ffffffffffffffffffffffffffffffffffffffff16915050919050565b6000611f2b6110f2565b90508180611f665750600073ffffffffffffffffffffffffffffffffffffffff168373ffffffffffffffffffffffffffffffffffffffff1614155b1561209a576000611f768561111a565b9050600073ffffffffffffffffffffffffffffffffffffffff168473ffffffffffffffffffffffffffffffffffffffff1614158015611fe157508373ffffffffffffffffffffffffffffffffffffffff168173ffffffffffffffffffffffffffffffffffffffff1614155b8015611ff45750611ff28185610fd6565b155b1561203657836040517fa9fbf51f00000000000000000000000000000000000000000000000000000000815260040161202d9190612ded565b60405180910390fd5b821561209857848673ffffffffffffffffffffffffffffffffffffffff168273ffffffffffffffffffffffffffffffffffffffff167f8c5be1e5ebec7d5bd14f71427d1e84f3dd0314c0f7b2291e5b200ac8c7c3b92560405160405180910390a45b505b8481600401600086815260200190815260200160002060006101000a81548173ffffffffffffffffffffffffffffffffffffffff021916908373ffffffffffffffffffffffffffffffffffffffff1602179055505050505050565b6120fd6124f7565b612133576040517fd7e6bcf800000000000000000000000000000000000000000000000000000000815260040160405180910390fd5b565b61213d6120f5565b60006121476110f2565b90508281600001908161215a9190613a8d565b508181600101908161216c9190613a8d565b50505050565b61217d838383612517565b61223157600073ffffffffffffffffffffffffffffffffffffffff168373ffffffffffffffffffffffffffffffffffffffff16036121f257806040517f7e2732890000000000000000000000000000000000000000000000000000000081526004016121e991906132a1565b60405180910390fd5b81816040517f177e802f000000000000000000000000000000000000000000000000000000008152600401612228929190613b5f565b60405180910390fd5b505050565b6122408282610cb6565b6122835780826040517fe2517d3f00000000000000000000000000000000000000000000000000000000815260040161227a929190613b88565b60405180910390fd5b5050565b60006122b57f360894a13ba1a3210667c828492db98dca3e2076cc3735a920a3ca505d382bbc60001b6125d8565b60000160009054906101000a900473ffffffffffffffffffffffffffffffffffffffff16905090565b6122e7826125e2565b8173ffffffffffffffffffffffffffffffffffffffff167fbc7cd75a20ee27fd9adebab32041f755214dbc6bffa90cc0225b39da2e5c2d3b60405160405180910390a26000815111156123445761233e82826126af565b5061234d565b61234c612733565b5b5050565b60007f0542a41881ee128a365a727b282c86fa859579490b9bb45aab8503648c8e7900905090565b606060405180602001604052806000815250905090565b606061239b8261111a565b5060006123a6612379565b905060008151116123c657604051806020016040528060008152506123f1565b806123d084612770565b6040516020016123e19291906138c7565b6040516020818303038152906040525b915050919050565b612403838361283e565b6124106000848484611b11565b505050565b60007f80ac58cd000000000000000000000000000000000000000000000000000000007bffffffffffffffffffffffffffffffffffffffffffffffffffffffff1916827bffffffffffffffffffffffffffffffffffffffffffffffffffffffff191614806124e057507f5b5e139f000000000000000000000000000000000000000000000000000000007bffffffffffffffffffffffffffffffffffffffffffffffffffffffff1916827bffffffffffffffffffffffffffffffffffffffffffffffffffffffff1916145b806124f057506124ef82612937565b5b9050919050565b6000612501611207565b60000160089054906101000a900460ff16905090565b60008073ffffffffffffffffffffffffffffffffffffffff168373ffffffffffffffffffffffffffffffffffffffff16141580156125cf57508273ffffffffffffffffffffffffffffffffffffffff168473ffffffffffffffffffffffffffffffffffffffff161480612590575061258f8484610fd6565b5b806125ce57508273ffffffffffffffffffffffffffffffffffffffff166125b6836111a2565b73ffffffffffffffffffffffffffffffffffffffff16145b5b90509392505050565b6000819050919050565b60008173ffffffffffffffffffffffffffffffffffffffff163b0361263e57806040517f4c9c8ce30000000000000000000000000000000000000000000000000000000081526004016126359190612ded565b60405180910390fd5b8061266b7f360894a13ba1a3210667c828492db98dca3e2076cc3735a920a3ca505d382bbc60001b6125d8565b60000160006101000a81548173ffffffffffffffffffffffffffffffffffffffff021916908373ffffffffffffffffffffffffffffffffffffffff16021790555050565b60606000808473ffffffffffffffffffffffffffffffffffffffff16846040516126d99190613bed565b600060405180830381855af49150503d8060008114612714576040519150601f19603f3d011682016040523d82523d6000602084013e612719565b606091505b50915091506127298583836129a1565b9250505092915050565b600034111561276e576040517fb398979f00000000000000000000000000000000000000000000000000000000815260040160405180910390fd5b565b60606000600161277f84612a30565b01905060008167ffffffffffffffff81111561279e5761279d612e7e565b5b6040519080825280601f01601f1916602001820160405280156127d05781602001600182028036833780820191505090505b509050600082602001820190505b600115612833578080600190039150507f3031323334353637383961626364656600000000000000000000000000000000600a86061a8153600a858161282757612826613c04565b5b049450600085036127de575b819350505050919050565b600073ffffffffffffffffffffffffffffffffffffffff168273ffffffffffffffffffffffffffffffffffffffff16036128b05760006040517f64a0ae920000000000000000000000000000000000000000000000000000000081526004016128a79190612ded565b60405180910390fd5b60006128be8383600061136e565b9050600073ffffffffffffffffffffffffffffffffffffffff168173ffffffffffffffffffffffffffffffffffffffff16146129325760006040517f73c6ac6e0000000000000000000000000000000000000000000000000000000081526004016129299190612ded565b60405180910390fd5b505050565b60007f01ffc9a7000000000000000000000000000000000000000000000000000000007bffffffffffffffffffffffffffffffffffffffffffffffffffffffff1916827bffffffffffffffffffffffffffffffffffffffffffffffffffffffff1916149050919050565b6060826129b6576129b182612b83565b612a28565b600082511480156129de575060008473ffffffffffffffffffffffffffffffffffffffff163b145b15612a2057836040517f9996b315000000000000000000000000000000000000000000000000000000008152600401612a179190612ded565b60405180910390fd5b819050612a29565b5b9392505050565b600080600090507a184f03e93ff9f4daa797ed6e38ed64bf6a1f0100000000000000008310612a8e577a184f03e93ff9f4daa797ed6e38ed64bf6a1f0100000000000000008381612a8457612a83613c04565b5b0492506040810190505b6d04ee2d6d415b85acef81000000008310612acb576d04ee2d6d415b85acef81000000008381612ac157612ac0613c04565b5b0492506020810190505b662386f26fc100008310612afa57662386f26fc100008381612af057612aef613c04565b5b0492506010810190505b6305f5e1008310612b23576305f5e1008381612b1957612b18613c04565b5b0492506008810190505b6127108310612b48576127108381612b3e57612b3d613c04565b5b0492506004810190505b60648310612b6b5760648381612b6157612b60613c04565b5b0492506002810190505b600a8310612b7a576001810190505b80915050919050565b600081511115612b965780518082602001fd5b6040517f1425ea4200000000000000000000000000000000000000000000000000000000815260040160405180910390fd5b6000604051905090565b600080fd5b600080fd5b60007fffffffff0000000000000000000000000000000000000000000000000000000082169050919050565b612c1181612bdc565b8114612c1c57600080fd5b50565b600081359050612c2e81612c08565b92915050565b600060208284031215612c4a57612c49612bd2565b5b6000612c5884828501612c1f565b91505092915050565b60008115159050919050565b612c7681612c61565b82525050565b6000602082019050612c916000830184612c6d565b92915050565b600081519050919050565b600082825260208201905092915050565b60005b83811015612cd1578082015181840152602081019050612cb6565b60008484015250505050565b6000601f19601f8301169050919050565b6000612cf982612c97565b612d038185612ca2565b9350612d13818560208601612cb3565b612d1c81612cdd565b840191505092915050565b60006020820190508181036000830152612d418184612cee565b905092915050565b6000819050919050565b612d5c81612d49565b8114612d6757600080fd5b50565b600081359050612d7981612d53565b92915050565b600060208284031215612d9557612d94612bd2565b5b6000612da384828501612d6a565b91505092915050565b600073ffffffffffffffffffffffffffffffffffffffff82169050919050565b6000612dd782612dac565b9050919050565b612de781612dcc565b82525050565b6000602082019050612e026000830184612dde565b92915050565b612e1181612dcc565b8114612e1c57600080fd5b50565b600081359050612e2e81612e08565b92915050565b60008060408385031215612e4b57612e4a612bd2565b5b6000612e5985828601612e1f565b9250506020612e6a85828601612d6a565b9150509250929050565b600080fd5b600080fd5b7f4e487b7100000000000000000000000000000000000000000000000000000000600052604160045260246000fd5b612eb682612cdd565b810181811067ffffffffffffffff82111715612ed557612ed4612e7e565b5b80604052505050565b6000612ee8612bc8565b9050612ef48282612ead565b919050565b600067ffffffffffffffff821115612f1457612f13612e7e565b5b612f1d82612cdd565b9050602081019050919050565b82818337600083830152505050565b6000612f4c612f4784612ef9565b612ede565b905082815260208101848484011115612f6857612f67612e79565b5b612f73848285612f2a565b509392505050565b600082601f830112612f9057612f8f612e74565b5b8135612fa0848260208601612f39565b91505092915050565b60008060008060808587031215612fc357612fc2612bd2565b5b6000612fd187828801612e1f565b9450506020612fe287828801612e1f565b935050604085013567ffffffffffffffff81111561300357613002612bd7565b5b61300f87828801612f7b565b925050606085013567ffffffffffffffff8111156130305761302f612bd7565b5b61303c87828801612f7b565b91505092959194509250565b60008060006060848603121561306157613060612bd2565b5b600061306f86828701612e1f565b935050602061308086828701612e1f565b925050604061309186828701612d6a565b9150509250925092565b6000819050919050565b6130ae8161309b565b81146130b957600080fd5b50565b6000813590506130cb816130a5565b92915050565b6000602082840312156130e7576130e6612bd2565b5b60006130f5848285016130bc565b91505092915050565b6131078161309b565b82525050565b600060208201905061312260008301846130fe565b92915050565b6000806040838503121561313f5761313e612bd2565b5b600061314d858286016130bc565b925050602061315e85828601612e1f565b9150509250929050565b600067ffffffffffffffff82111561318357613182612e7e565b5b61318c82612cdd565b9050602081019050919050565b60006131ac6131a784613168565b612ede565b9050828152602081018484840111156131c8576131c7612e79565b5b6131d3848285612f2a565b509392505050565b600082601f8301126131f0576131ef612e74565b5b8135613200848260208601613199565b91505092915050565b600080604083850312156132205761321f612bd2565b5b600061322e85828601612e1f565b925050602083013567ffffffffffffffff81111561324f5761324e612bd7565b5b61325b858286016131db565b9150509250929050565b60006020828403121561327b5761327a612bd2565b5b600061328984828501612e1f565b91505092915050565b61329b81612d49565b82525050565b60006020820190506132b66000830184613292565b92915050565b6132c581612c61565b81146132d057600080fd5b50565b6000813590506132e2816132bc565b92915050565b600080604083850312156132ff576132fe612bd2565b5b600061330d85828601612e1f565b925050602061331e858286016132d3565b9150509250929050565b6000806000806080858703121561334257613341612bd2565b5b600061335087828801612e1f565b945050602061336187828801612e1f565b935050604061337287828801612d6a565b925050606085013567ffffffffffffffff81111561339357613392612bd7565b5b61339f878288016131db565b91505092959194509250565b600080604083850312156133c2576133c1612bd2565b5b60006133d085828601612e1f565b925050602083013567ffffffffffffffff8111156133f1576133f0612bd7565b5b6133fd85828601612f7b565b9150509250929050565b6000806040838503121561341e5761341d612bd2565b5b600061342c85828601612e1f565b925050602061343d85828601612e1f565b9150509250929050565b7f4e487b7100000000000000000000000000000000000000000000000000000000600052602260045260246000fd5b6000600282049050600182168061348e57607f821691505b6020821081036134a1576134a0613447565b5b50919050565b6000819050919050565b600067ffffffffffffffff82169050919050565b6000819050919050565b60006134ea6134e56134e0846134a7565b6134c5565b6134b1565b9050919050565b6134fa816134cf565b82525050565b600060208201905061351560008301846134f1565b92915050565b60006060820190506135306000830186612dde565b61353d6020830185613292565b61354a6040830184612dde565b949350505050565b600081905092915050565b7f6172746973740000000000000000000000000000000000000000000000000000600082015250565b6000613593600683613552565b915061359e8261355d565b600682019050919050565b60006135b482613586565b9150819050919050565b60006135d16135cc84612ef9565b612ede565b9050828152602081018484840111156135ed576135ec612e79565b5b6135f8848285612cb3565b509392505050565b600082601f83011261361557613614612e74565b5b81516136258482602086016135be565b91505092915050565b60006020828403121561364457613643612bd2565b5b600082015167ffffffffffffffff81111561366257613661612bd7565b5b61366e84828501613600565b91505092915050565b600061368282612c97565b61368c8185613552565b935061369c818560208601612cb3565b80840191505092915050565b60006136b48284613677565b915081905092915050565b7f43616c6c6572206973206e6f7420616e20617274697374000000000000000000600082015250565b60006136f5601783612ca2565b9150613700826136bf565b602082019050919050565b60006020820190508181036000830152613724816136e8565b9050919050565b7f4e487b7100000000000000000000000000000000000000000000000000000000600052601160045260246000fd5b600061376582612d49565b91507fffffffffffffffffffffffffffffffffffffffffffffffffffffffffffffffff82036137975761379661372b565b5b600182019050919050565b6000815190506137b1816130a5565b92915050565b6000602082840312156137cd576137cc612bd2565b5b60006137db848285016137a2565b91505092915050565b600081519050919050565b600082825260208201905092915050565b600061380b826137e4565b61381581856137ef565b9350613825818560208601612cb3565b61382e81612cdd565b840191505092915050565b600060808201905061384e6000830187612dde565b61385b6020830186612dde565b6138686040830185613292565b818103606083015261387a8184613800565b905095945050505050565b60008151905061389481612c08565b92915050565b6000602082840312156138b0576138af612bd2565b5b60006138be84828501613885565b91505092915050565b60006138d38285613677565b91506138df8284613677565b91508190509392505050565b60008190508160005260206000209050919050565b60006020601f8301049050919050565b600082821b905092915050565b60006008830261394d7fffffffffffffffffffffffffffffffffffffffffffffffffffffffffffffffff82613910565b6139578683613910565b95508019841693508086168417925050509392505050565b600061398a61398561398084612d49565b6134c5565b612d49565b9050919050565b6000819050919050565b6139a48361396f565b6139b86139b082613991565b84845461391d565b825550505050565b600090565b6139cd6139c0565b6139d881848461399b565b505050565b5b818110156139fc576139f16000826139c5565b6001810190506139de565b5050565b601f821115613a4157613a12816138eb565b613a1b84613900565b81016020851015613a2a578190505b613a3e613a3685613900565b8301826139dd565b50505b505050565b600082821c905092915050565b6000613a6460001984600802613a46565b1980831691505092915050565b6000613a7d8383613a53565b9150826002028217905092915050565b613a9682612c97565b67ffffffffffffffff811115613aaf57613aae612e7e565b5b613ab98254613476565b613ac4828285613a00565b600060209050601f831160018114613af75760008415613ae5578287015190505b613aef8582613a71565b865550613b57565b601f198416613b05866138eb565b60005b82811015613b2d57848901518255600182019150602085019450602081019050613b08565b86831015613b4a5784890151613b46601f891682613a53565b8355505b6001600288020188555050505b505050505050565b6000604082019050613b746000830185612dde565b613b816020830184613292565b9392505050565b6000604082019050613b9d6000830185612dde565b613baa60208301846130fe565b9392505050565b600081905092915050565b6000613bc7826137e4565b613bd18185613bb1565b9350613be1818560208601612cb3565b80840191505092915050565b6000613bf98284613bbc565b915081905092915050565b7f4e487b7100000000000000000000000000000000000000000000000000000000600052601260045260246000fdfea2646970667358221220f3354deae7cf4725c7a17276d550ec1c175ceba23250eb2725aef187289f5c8764736f6c63430008140033a2646970667358221220bbcb8edce185b4a80e293f39711f599e3f446f1dbc9ba85694c6fa7b3712f7fc64736f6c63430008140033",
  "linkReferences": {},
  "deployedLinkReferences": {}
}