{
  "_format": "hh-sol-artifact-1",
  "contractName": "Staff",
  "sourceName": "contracts/Staff.sol",
  "abi": [
    {
      "inputs": [],
      "name": "AccessControlBadConfirmation",
      "type": "error"
    },
    {
      "inputs": [
        {
          "internalType": "address",
          "name": "account",
          "type": "address"
        },
        {
          "internalType": "bytes32",
          "name": "neededRole",
          "type": "bytes32"
        }
      ],
      "name": "AccessControlUnauthorizedAccount",
      "type": "error"
    },
    {
      "inputs": [
        {
          "internalType": "address",
          "name": "target",
          "type": "address"
        }
      ],
      "name": "AddressEmptyCode",
      "type": "error"
    },
    {
      "inputs": [
        {
          "internalType": "address",
          "name": "implementation",
          "type": "address"
        }
      ],
      "name": "ERC1967InvalidImplementation",
      "type": "error"
    },
    {
      "inputs": [],
      "name": "ERC1967NonPayable",
      "type": "error"
    },
    {
      "inputs": [],
      "name": "FailedInnerCall",
      "type": "error"
    },
    {
      "inputs": [],
      "name": "InvalidInitialization",
      "type": "error"
    },
    {
      "inputs": [],
      "name": "NotInitializing",
      "type": "error"
    },
    {
      "inputs": [],
      "name": "UUPSUnauthorizedCallContext",
      "type": "error"
    },
    {
      "inputs": [
        {
          "internalType": "bytes32",
          "name": "slot",
          "type": "bytes32"
        }
      ],
      "name": "UUPSUnsupportedProxiableUUID",
      "type": "error"
    },
    {
      "anonymous": false,
      "inputs": [
        {
          "indexed": false,
          "internalType": "uint64",
          "name": "version",
          "type": "uint64"
        }
      ],
      "name": "Initialized",
      "type": "event"
    },
    {
      "anonymous": false,
      "inputs": [
        {
          "indexed": true,
          "internalType": "bytes32",
          "name": "role",
          "type": "bytes32"
        },
        {
          "indexed": true,
          "internalType": "bytes32",
          "name": "previousAdminRole",
          "type": "bytes32"
        },
        {
          "indexed": true,
          "internalType": "bytes32",
          "name": "newAdminRole",
          "type": "bytes32"
        }
      ],
      "name": "RoleAdminChanged",
      "type": "event"
    },
    {
      "anonymous": false,
      "inputs": [
        {
          "indexed": true,
          "internalType": "bytes32",
          "name": "role",
          "type": "bytes32"
        },
        {
          "indexed": true,
          "internalType": "address",
          "name": "account",
          "type": "address"
        },
        {
          "indexed": true,
          "internalType": "address",
          "name": "sender",
          "type": "address"
        }
      ],
      "name": "RoleGranted",
      "type": "event"
    },
    {
      "anonymous": false,
      "inputs": [
        {
          "indexed": true,
          "internalType": "bytes32",
          "name": "role",
          "type": "bytes32"
        },
        {
          "indexed": true,
          "internalType": "address",
          "name": "account",
          "type": "address"
        },
        {
          "indexed": true,
          "internalType": "address",
          "name": "sender",
          "type": "address"
        }
      ],
      "name": "RoleRevoked",
      "type": "event"
    },
    {
      "anonymous": false,
      "inputs": [
        {
          "indexed": true,
          "internalType": "address",
          "name": "implementation",
          "type": "address"
        }
      ],
      "name": "Upgraded",
      "type": "event"
    },
    {
      "inputs": [],
      "name": "ADMIN_ROLE",
      "outputs": [
        {
          "internalType": "bytes32",
          "name": "",
          "type": "bytes32"
        }
      ],
      "stateMutability": "view",
      "type": "function"
    },
    {
      "inputs": [],
      "name": "DEFAULT_ADMIN_ROLE",
      "outputs": [
        {
          "internalType": "bytes32",
          "name": "",
          "type": "bytes32"
        }
      ],
      "stateMutability": "view",
      "type": "function"
    },
    {
      "inputs": [],
      "name": "UPGRADE_INTERFACE_VERSION",
      "outputs": [
        {
          "internalType": "string",
          "name": "",
          "type": "string"
        }
      ],
      "stateMutability": "view",
      "type": "function"
    },
    {
      "inputs": [
        {
          "internalType": "address",
          "name": "account",
          "type": "address"
        },
        {
          "internalType": "string",
          "name": "role",
          "type": "string"
        }
      ],
      "name": "addStaff",
      "outputs": [],
      "stateMutability": "nonpayable",
      "type": "function"
    },
    {
      "inputs": [
        {
          "internalType": "bytes32",
          "name": "role",
          "type": "bytes32"
        }
      ],
      "name": "getRoleAdmin",
      "outputs": [
        {
          "internalType": "bytes32",
          "name": "",
          "type": "bytes32"
        }
      ],
      "stateMutability": "view",
      "type": "function"
    },
    {
      "inputs": [
        {
          "internalType": "bytes32",
          "name": "role",
          "type": "bytes32"
        },
        {
          "internalType": "address",
          "name": "account",
          "type": "address"
        }
      ],
      "name": "grantRole",
      "outputs": [],
      "stateMutability": "nonpayable",
      "type": "function"
    },
    {
      "inputs": [
        {
          "internalType": "bytes32",
          "name": "role",
          "type": "bytes32"
        },
        {
          "internalType": "address",
          "name": "account",
          "type": "address"
        }
      ],
      "name": "hasRole",
      "outputs": [
        {
          "internalType": "bool",
          "name": "",
          "type": "bool"
        }
      ],
      "stateMutability": "view",
      "type": "function"
    },
    {
      "inputs": [
        {
          "internalType": "address",
          "name": "admin",
          "type": "address"
        }
      ],
      "name": "initialize",
      "outputs": [],
      "stateMutability": "nonpayable",
      "type": "function"
    },
    {
      "inputs": [
        {
          "internalType": "address",
          "name": "account",
          "type": "address"
        }
      ],
      "name": "isStaff",
      "outputs": [
        {
          "internalType": "string",
          "name": "",
          "type": "string"
        }
      ],
      "stateMutability": "view",
      "type": "function"
    },
    {
      "inputs": [],
      "name": "proxiableUUID",
      "outputs": [
        {
          "internalType": "bytes32",
          "name": "",
          "type": "bytes32"
        }
      ],
      "stateMutability": "view",
      "type": "function"
    },
    {
      "inputs": [
        {
          "internalType": "address",
          "name": "account",
          "type": "address"
        },
        {
          "internalType": "string",
          "name": "role",
          "type": "string"
        }
      ],
      "name": "removeStaff",
      "outputs": [],
      "stateMutability": "nonpayable",
      "type": "function"
    },
    {
      "inputs": [
        {
          "internalType": "bytes32",
          "name": "role",
          "type": "bytes32"
        },
        {
          "internalType": "address",
          "name": "callerConfirmation",
          "type": "address"
        }
      ],
      "name": "renounceRole",
      "outputs": [],
      "stateMutability": "nonpayable",
      "type": "function"
    },
    {
      "inputs": [
        {
          "internalType": "bytes32",
          "name": "role",
          "type": "bytes32"
        },
        {
          "internalType": "address",
          "name": "account",
          "type": "address"
        }
      ],
      "name": "revokeRole",
      "outputs": [],
      "stateMutability": "nonpayable",
      "type": "function"
    },
    {
      "inputs": [
        {
          "internalType": "bytes4",
          "name": "interfaceId",
          "type": "bytes4"
        }
      ],
      "name": "supportsInterface",
      "outputs": [
        {
          "internalType": "bool",
          "name": "",
          "type": "bool"
        }
      ],
      "stateMutability": "view",
      "type": "function"
    },
    {
      "inputs": [
        {
          "internalType": "address",
          "name": "newImplementation",
          "type": "address"
        },
        {
          "internalType": "bytes",
          "name": "data",
          "type": "bytes"
        }
      ],
      "name": "upgradeToAndCall",
      "outputs": [],
      "stateMutability": "payable",
      "type": "function"
    }
  ],
  "bytecode": "0x60a06040523073ffffffffffffffffffffffffffffffffffffffff1660809073ffffffffffffffffffffffffffffffffffffffff1681525034801561004357600080fd5b50608051611d5661006d60003960008181610bf901528181610c4e0152610e2c0152611d566000f3fe6080604052600436106100e85760003560e01c806379064f681161008a578063c4d66de811610059578063c4d66de8146102e7578063cb510e9714610310578063d547741f1461034d578063f024ec2614610376576100e8565b806379064f681461022b57806391d1485414610254578063a217fddf14610291578063ad3cb1cc146102bc576100e8565b806336568abe116100c657806336568abe146101905780634f1ef286146101b957806352d1902d146101d557806375b238fc14610200576100e8565b806301ffc9a7146100ed578063248a9ca31461012a5780632f2ff15d14610167575b600080fd5b3480156100f957600080fd5b50610114600480360381019061010f91906113e0565b61039f565b6040516101219190611428565b60405180910390f35b34801561013657600080fd5b50610151600480360381019061014c9190611479565b610419565b60405161015e91906114b5565b60405180910390f35b34801561017357600080fd5b5061018e6004803603810190610189919061152e565b610447565b005b34801561019c57600080fd5b506101b760048036038101906101b2919061152e565b610469565b005b6101d360048036038101906101ce91906116b4565b6104e4565b005b3480156101e157600080fd5b506101ea610503565b6040516101f791906114b5565b60405180910390f35b34801561020c57600080fd5b50610215610536565b60405161022291906114b5565b60405180910390f35b34801561023757600080fd5b50610252600480360381019061024d91906117b1565b61055a565b005b34801561026057600080fd5b5061027b6004803603810190610276919061152e565b610593565b6040516102889190611428565b60405180910390f35b34801561029d57600080fd5b506102a661060c565b6040516102b391906114b5565b60405180910390f35b3480156102c857600080fd5b506102d1610613565b6040516102de919061188c565b60405180910390f35b3480156102f357600080fd5b5061030e600480360381019061030991906118ae565b61064c565b005b34801561031c57600080fd5b50610337600480360381019061033291906118ae565b61081b565b604051610344919061188c565b60405180910390f35b34801561035957600080fd5b50610374600480360381019061036f919061152e565b6108eb565b005b34801561038257600080fd5b5061039d600480360381019061039891906117b1565b61090d565b005b60007f7965db0b000000000000000000000000000000000000000000000000000000007bffffffffffffffffffffffffffffffffffffffffffffffffffffffff1916827bffffffffffffffffffffffffffffffffffffffffffffffffffffffff19161480610412575061041182610946565b5b9050919050565b6000806104246109b0565b905080600001600084815260200190815260200160002060010154915050919050565b61045082610419565b610459816109d8565b61046383836109ec565b50505050565b610471610aed565b73ffffffffffffffffffffffffffffffffffffffff168173ffffffffffffffffffffffffffffffffffffffff16146104d5576040517f6697b23200000000000000000000000000000000000000000000000000000000815260040160405180910390fd5b6104df8282610af5565b505050565b6104ec610bf7565b6104f582610cdd565b6104ff8282610d0b565b5050565b600061050d610e2a565b7f360894a13ba1a3210667c828492db98dca3e2076cc3735a920a3ca505d382bbc60001b905090565b7fa49807205ce4d355092ef5a8a18f56e8913cf4a201fbe287825b095693c2177581565b7fa49807205ce4d355092ef5a8a18f56e8913cf4a201fbe287825b095693c21775610584816109d8565b61058e8383610eb1565b505050565b60008061059e6109b0565b905080600001600085815260200190815260200160002060000160008473ffffffffffffffffffffffffffffffffffffffff1673ffffffffffffffffffffffffffffffffffffffff16815260200190815260200160002060009054906101000a900460ff1691505092915050565b6000801b81565b6040518060400160405280600581526020017f352e302e3000000000000000000000000000000000000000000000000000000081525081565b6000610656610f01565b905060008160000160089054906101000a900460ff1615905060008260000160009054906101000a900467ffffffffffffffff1690506000808267ffffffffffffffff161480156106a45750825b9050600060018367ffffffffffffffff161480156106d9575060003073ffffffffffffffffffffffffffffffffffffffff163b145b9050811580156106e7575080155b1561071e576040517ff92ee8a900000000000000000000000000000000000000000000000000000000815260040160405180910390fd5b60018560000160006101000a81548167ffffffffffffffff021916908367ffffffffffffffff160217905550831561076e5760018560000160086101000a81548160ff0219169083151502179055505b610776610f29565b61077e610f33565b61078b6000801b876109ec565b506107b67fa49807205ce4d355092ef5a8a18f56e8913cf4a201fbe287825b095693c21775876109ec565b5083156108135760008560000160086101000a81548160ff0219169083151502179055507fc7f505b2f371ae2175ee4913f4499e1f2633a7b5936321eed1cdaeb6115181d2600160405161080a9190611934565b60405180910390a15b505050505050565b60606000808373ffffffffffffffffffffffffffffffffffffffff1673ffffffffffffffffffffffffffffffffffffffff16815260200190815260200160002080546108669061197e565b80601f01602080910402602001604051908101604052809291908181526020018280546108929061197e565b80156108df5780601f106108b4576101008083540402835291602001916108df565b820191906000526020600020905b8154815290600101906020018083116108c257829003601f168201915b50505050509050919050565b6108f482610419565b6108fd816109d8565b6109078383610af5565b50505050565b7fa49807205ce4d355092ef5a8a18f56e8913cf4a201fbe287825b095693c21775610937816109d8565b6109418383610f3d565b505050565b60007f01ffc9a7000000000000000000000000000000000000000000000000000000007bffffffffffffffffffffffffffffffffffffffffffffffffffffffff1916827bffffffffffffffffffffffffffffffffffffffffffffffffffffffff1916149050919050565b60007f02dd7bc7dec4dceedda775e58dd541e08a116c6c53815c0bd028192f7b626800905090565b6109e9816109e4610aed565b610f8d565b50565b6000806109f76109b0565b9050610a038484610593565b610ae157600181600001600086815260200190815260200160002060000160008573ffffffffffffffffffffffffffffffffffffffff1673ffffffffffffffffffffffffffffffffffffffff16815260200190815260200160002060006101000a81548160ff021916908315150217905550610a7d610aed565b73ffffffffffffffffffffffffffffffffffffffff168373ffffffffffffffffffffffffffffffffffffffff16857f2f8788117e7eff1d82e926ec794901d17c78024a50270940304540a733656f0d60405160405180910390a46001915050610ae7565b60009150505b92915050565b600033905090565b600080610b006109b0565b9050610b0c8484610593565b15610beb57600081600001600086815260200190815260200160002060000160008573ffffffffffffffffffffffffffffffffffffffff1673ffffffffffffffffffffffffffffffffffffffff16815260200190815260200160002060006101000a81548160ff021916908315150217905550610b87610aed565b73ffffffffffffffffffffffffffffffffffffffff168373ffffffffffffffffffffffffffffffffffffffff16857ff6391f5c32d9c69d2a47ea670b442974b53935d1edc7fd64eb21e047a839171b60405160405180910390a46001915050610bf1565b60009150505b92915050565b7f000000000000000000000000000000000000000000000000000000000000000073ffffffffffffffffffffffffffffffffffffffff163073ffffffffffffffffffffffffffffffffffffffff161480610ca457507f000000000000000000000000000000000000000000000000000000000000000073ffffffffffffffffffffffffffffffffffffffff16610c8b610fde565b73ffffffffffffffffffffffffffffffffffffffff1614155b15610cdb576040517fe07c8dba00000000000000000000000000000000000000000000000000000000815260040160405180910390fd5b565b7fa49807205ce4d355092ef5a8a18f56e8913cf4a201fbe287825b095693c21775610d07816109d8565b5050565b8173ffffffffffffffffffffffffffffffffffffffff166352d1902d6040518163ffffffff1660e01b8152600401602060405180830381865afa925050508015610d7357506040513d601f19601f82011682018060405250810190610d7091906119c4565b60015b610db457816040517f4c9c8ce3000000000000000000000000000000000000000000000000000000008152600401610dab9190611a00565b60405180910390fd5b7f360894a13ba1a3210667c828492db98dca3e2076cc3735a920a3ca505d382bbc60001b8114610e1b57806040517faa1d49a4000000000000000000000000000000000000000000000000000000008152600401610e1291906114b5565b60405180910390fd5b610e258383611035565b505050565b7f000000000000000000000000000000000000000000000000000000000000000073ffffffffffffffffffffffffffffffffffffffff163073ffffffffffffffffffffffffffffffffffffffff1614610eaf576040517fe07c8dba00000000000000000000000000000000000000000000000000000000815260040160405180910390fd5b565b806000808473ffffffffffffffffffffffffffffffffffffffff1673ffffffffffffffffffffffffffffffffffffffff1681526020019081526020016000209081610efc9190611bc7565b505050565b60007ff0c57e16840df040f15088dc2f81fe391c3923bec73e23a9662efc9c229c6a00905090565b610f316110a8565b565b610f3b6110a8565b565b806000808473ffffffffffffffffffffffffffffffffffffffff1673ffffffffffffffffffffffffffffffffffffffff1681526020019081526020016000209081610f889190611bc7565b505050565b610f978282610593565b610fda5780826040517fe2517d3f000000000000000000000000000000000000000000000000000000008152600401610fd1929190611c99565b60405180910390fd5b5050565b600061100c7f360894a13ba1a3210667c828492db98dca3e2076cc3735a920a3ca505d382bbc60001b6110e8565b60000160009054906101000a900473ffffffffffffffffffffffffffffffffffffffff16905090565b61103e826110f2565b8173ffffffffffffffffffffffffffffffffffffffff167fbc7cd75a20ee27fd9adebab32041f755214dbc6bffa90cc0225b39da2e5c2d3b60405160405180910390a260008151111561109b5761109582826111bf565b506110a4565b6110a3611243565b5b5050565b6110b0611280565b6110e6576040517fd7e6bcf800000000000000000000000000000000000000000000000000000000815260040160405180910390fd5b565b6000819050919050565b60008173ffffffffffffffffffffffffffffffffffffffff163b0361114e57806040517f4c9c8ce30000000000000000000000000000000000000000000000000000000081526004016111459190611a00565b60405180910390fd5b8061117b7f360894a13ba1a3210667c828492db98dca3e2076cc3735a920a3ca505d382bbc60001b6110e8565b60000160006101000a81548173ffffffffffffffffffffffffffffffffffffffff021916908373ffffffffffffffffffffffffffffffffffffffff16021790555050565b60606000808473ffffffffffffffffffffffffffffffffffffffff16846040516111e99190611d09565b600060405180830381855af49150503d8060008114611224576040519150601f19603f3d011682016040523d82523d6000602084013e611229565b606091505b50915091506112398583836112a0565b9250505092915050565b600034111561127e576040517fb398979f00000000000000000000000000000000000000000000000000000000815260040160405180910390fd5b565b600061128a610f01565b60000160089054906101000a900460ff16905090565b6060826112b5576112b08261132f565b611327565b600082511480156112dd575060008473ffffffffffffffffffffffffffffffffffffffff163b145b1561131f57836040517f9996b3150000000000000000000000000000000000000000000000000000000081526004016113169190611a00565b60405180910390fd5b819050611328565b5b9392505050565b6000815111156113425780518082602001fd5b6040517f1425ea4200000000000000000000000000000000000000000000000000000000815260040160405180910390fd5b6000604051905090565b600080fd5b600080fd5b60007fffffffff0000000000000000000000000000000000000000000000000000000082169050919050565b6113bd81611388565b81146113c857600080fd5b50565b6000813590506113da816113b4565b92915050565b6000602082840312156113f6576113f561137e565b5b6000611404848285016113cb565b91505092915050565b60008115159050919050565b6114228161140d565b82525050565b600060208201905061143d6000830184611419565b92915050565b6000819050919050565b61145681611443565b811461146157600080fd5b50565b6000813590506114738161144d565b92915050565b60006020828403121561148f5761148e61137e565b5b600061149d84828501611464565b91505092915050565b6114af81611443565b82525050565b60006020820190506114ca60008301846114a6565b92915050565b600073ffffffffffffffffffffffffffffffffffffffff82169050919050565b60006114fb826114d0565b9050919050565b61150b816114f0565b811461151657600080fd5b50565b60008135905061152881611502565b92915050565b600080604083850312156115455761154461137e565b5b600061155385828601611464565b925050602061156485828601611519565b9150509250929050565b600080fd5b600080fd5b6000601f19601f8301169050919050565b7f4e487b7100000000000000000000000000000000000000000000000000000000600052604160045260246000fd5b6115c182611578565b810181811067ffffffffffffffff821117156115e0576115df611589565b5b80604052505050565b60006115f3611374565b90506115ff82826115b8565b919050565b600067ffffffffffffffff82111561161f5761161e611589565b5b61162882611578565b9050602081019050919050565b82818337600083830152505050565b600061165761165284611604565b6115e9565b90508281526020810184848401111561167357611672611573565b5b61167e848285611635565b509392505050565b600082601f83011261169b5761169a61156e565b5b81356116ab848260208601611644565b91505092915050565b600080604083850312156116cb576116ca61137e565b5b60006116d985828601611519565b925050602083013567ffffffffffffffff8111156116fa576116f9611383565b5b61170685828601611686565b9150509250929050565b600067ffffffffffffffff82111561172b5761172a611589565b5b61173482611578565b9050602081019050919050565b600061175461174f84611710565b6115e9565b9050828152602081018484840111156117705761176f611573565b5b61177b848285611635565b509392505050565b600082601f8301126117985761179761156e565b5b81356117a8848260208601611741565b91505092915050565b600080604083850312156117c8576117c761137e565b5b60006117d685828601611519565b925050602083013567ffffffffffffffff8111156117f7576117f6611383565b5b61180385828601611783565b9150509250929050565b600081519050919050565b600082825260208201905092915050565b60005b8381101561184757808201518184015260208101905061182c565b60008484015250505050565b600061185e8261180d565b6118688185611818565b9350611878818560208601611829565b61188181611578565b840191505092915050565b600060208201905081810360008301526118a68184611853565b905092915050565b6000602082840312156118c4576118c361137e565b5b60006118d284828501611519565b91505092915050565b6000819050919050565b600067ffffffffffffffff82169050919050565b6000819050919050565b600061191e611919611914846118db565b6118f9565b6118e5565b9050919050565b61192e81611903565b82525050565b60006020820190506119496000830184611925565b92915050565b7f4e487b7100000000000000000000000000000000000000000000000000000000600052602260045260246000fd5b6000600282049050600182168061199657607f821691505b6020821081036119a9576119a861194f565b5b50919050565b6000815190506119be8161144d565b92915050565b6000602082840312156119da576119d961137e565b5b60006119e8848285016119af565b91505092915050565b6119fa816114f0565b82525050565b6000602082019050611a1560008301846119f1565b92915050565b60008190508160005260206000209050919050565b60006020601f8301049050919050565b600082821b905092915050565b600060088302611a7d7fffffffffffffffffffffffffffffffffffffffffffffffffffffffffffffffff82611a40565b611a878683611a40565b95508019841693508086168417925050509392505050565b6000819050919050565b6000611ac4611abf611aba84611a9f565b6118f9565b611a9f565b9050919050565b6000819050919050565b611ade83611aa9565b611af2611aea82611acb565b848454611a4d565b825550505050565b600090565b611b07611afa565b611b12818484611ad5565b505050565b5b81811015611b3657611b2b600082611aff565b600181019050611b18565b5050565b601f821115611b7b57611b4c81611a1b565b611b5584611a30565b81016020851015611b64578190505b611b78611b7085611a30565b830182611b17565b50505b505050565b600082821c905092915050565b6000611b9e60001984600802611b80565b1980831691505092915050565b6000611bb78383611b8d565b9150826002028217905092915050565b611bd08261180d565b67ffffffffffffffff811115611be957611be8611589565b5b611bf3825461197e565b611bfe828285611b3a565b600060209050601f831160018114611c315760008415611c1f578287015190505b611c298582611bab565b865550611c91565b601f198416611c3f86611a1b565b60005b82811015611c6757848901518255600182019150602085019450602081019050611c42565b86831015611c845784890151611c80601f891682611b8d565b8355505b6001600288020188555050505b505050505050565b6000604082019050611cae60008301856119f1565b611cbb60208301846114a6565b9392505050565b600081519050919050565b600081905092915050565b6000611ce382611cc2565b611ced8185611ccd565b9350611cfd818560208601611829565b80840191505092915050565b6000611d158284611cd8565b91508190509291505056fea264697066735822122004f0e9c8b153b3ded32fada449d8419aefff43708af8dc287fbb8f31948b4b9264736f6c63430008140033",
  "linkReferences": {},
  "deployedLinkReferences": {}
}