{"abi":[{"type":"function","name":"ADMIN_ROLE","inputs":[],"outputs":[{"name":"","type":"bytes32","internalType":"bytes32"}],"stateMutability":"view"},{"type":"function","name":"ARTIST_ROLE","inputs":[],"outputs":[{"name":"","type":"bytes32","internalType":"bytes32"}],"stateMutability":"view"},{"type":"function","name":"DEFAULT_ADMIN_ROLE","inputs":[],"outputs":[{"name":"","type":"bytes32","internalType":"bytes32"}],"stateMutability":"view"},{"type":"function","name":"UPGRADE_INTERFACE_VERSION","inputs":[],"outputs":[{"name":"","type":"string","internalType":"string"}],"stateMutability":"view"},{"type":"function","name":"addStaff","inputs":[{"name":"account","type":"address","internalType":"address"},{"name":"role","type":"string","internalType":"string"}],"outputs":[],"stateMutability":"nonpayable"},{"type":"function","name":"approve","inputs":[{"name":"to","type":"address","internalType":"address"},{"name":"tokenId","type":"uint256","internalType":"uint256"}],"outputs":[],"stateMutability":"nonpayable"},{"type":"function","name":"balanceOf","inputs":[{"name":"owner","type":"address","internalType":"address"}],"outputs":[{"name":"","type":"uint256","internalType":"uint256"}],"stateMutability":"view"},{"type":"function","name":"burn","inputs":[{"name":"tokenId","type":"uint256","internalType":"uint256"}],"outputs":[],"stateMutability":"nonpayable"},{"type":"function","name":"getApproved","inputs":[{"name":"tokenId","type":"uint256","internalType":"uint256"}],"outputs":[{"name":"","type":"address","internalType":"address"}],"stateMutability":"view"},{"type":"function","name":"getRoleAdmin","inputs":[{"name":"role","type":"bytes32","internalType":"bytes32"}],"outputs":[{"name":"","type":"bytes32","internalType":"bytes32"}],"stateMutability":"view"},{"type":"function","name":"grantRole","inputs":[{"name":"role","type":"bytes32","internalType":"bytes32"},{"name":"account","type":"address","internalType":"address"}],"outputs":[],"stateMutability":"nonpayable"},{"type":"function","name":"hasRole","inputs":[{"name":"role","type":"bytes32","internalType":"bytes32"},{"name":"account","type":"address","internalType":"address"}],"outputs":[{"name":"","type":"bool","internalType":"bool"}],"stateMutability":"view"},{"type":"function","name":"initialize","inputs":[{"name":"admin","type":"address","internalType":"address"},{"name":"artist","type":"address","internalType":"address"},{"name":"name","type":"string","internalType":"string"},{"name":"symbol","type":"string","internalType":"string"}],"outputs":[],"stateMutability":"nonpayable"},{"type":"function","name":"isApprovedForAll","inputs":[{"name":"owner","type":"address","internalType":"address"},{"name":"operator","type":"address","internalType":"address"}],"outputs":[{"name":"","type":"bool","internalType":"bool"}],"stateMutability":"view"},{"type":"function","name":"isStaff","inputs":[{"name":"account","type":"address","internalType":"address"}],"outputs":[{"name":"","type":"string","internalType":"string"}],"stateMutability":"view"},{"type":"function","name":"name","inputs":[],"outputs":[{"name":"","type":"string","internalType":"string"}],"stateMutability":"view"},{"type":"function","name":"ownerOf","inputs":[{"name":"tokenId","type":"uint256","internalType":"uint256"}],"outputs":[{"name":"","type":"address","internalType":"address"}],"stateMutability":"view"},{"type":"function","name":"proxiableUUID","inputs":[],"outputs":[{"name":"","type":"bytes32","internalType":"bytes32"}],"stateMutability":"view"},{"type":"function","name":"removeStaff","inputs":[{"name":"account","type":"address","internalType":"address"},{"name":"role","type":"string","internalType":"string"}],"outputs":[],"stateMutability":"nonpayable"},{"type":"function","name":"renounceRole","inputs":[{"name":"role","type":"bytes32","internalType":"bytes32"},{"name":"callerConfirmation","type":"address","internalType":"address"}],"outputs":[],"stateMutability":"nonpayable"},{"type":"function","name":"revokeRole","inputs":[{"name":"role","type":"bytes32","internalType":"bytes32"},{"name":"account","type":"address","internalType":"address"}],"outputs":[],"stateMutability":"nonpayable"},{"type":"function","name":"safeMint","inputs":[{"name":"to","type":"address","internalType":"address"},{"name":"uri","type":"string","internalType":"string"}],"outputs":[],"stateMutability":"nonpayable"},{"type":"function","name":"safeTransferFrom","inputs":[{"name":"from","type":"address","internalType":"address"},{"name":"to","type":"address","internalType":"address"},{"name":"tokenId","type":"uint256","internalType":"uint256"}],"outputs":[],"stateMutability":"nonpayable"},{"type":"function","name":"safeTransferFrom","inputs":[{"name":"from","type":"address","internalType":"address"},{"name":"to","type":"address","internalType":"address"},{"name":"tokenId","type":"uint256","internalType":"uint256"},{"name":"data","type":"bytes","internalType":"bytes"}],"outputs":[],"stateMutability":"nonpayable"},{"type":"function","name":"setApprovalForAll","inputs":[{"name":"operator","type":"address","internalType":"address"},{"name":"approved","type":"bool","internalType":"bool"}],"outputs":[],"stateMutability":"nonpayable"},{"type":"function","name":"supportsInterface","inputs":[{"name":"interfaceId","type":"bytes4","internalType":"bytes4"}],"outputs":[{"name":"","type":"bool","internalType":"bool"}],"stateMutability":"view"},{"type":"function","name":"symbol","inputs":[],"outputs":[{"name":"","type":"string","internalType":"string"}],"stateMutability":"view"},{"type":"function","name":"tokenURI","inputs":[{"name":"tokenId","type":"uint256","internalType":"uint256"}],"outputs":[{"name":"","type":"string","internalType":"string"}],"stateMutability":"view"},{"type":"function","name":"transferFrom","inputs":[{"name":"from","type":"address","internalType":"address"},{"name":"to","type":"address","internalType":"address"},{"name":"tokenId","type":"uint256","internalType":"uint256"}],"outputs":[],"stateMutability":"nonpayable"},{"type":"function","name":"upgradeToAndCall","inputs":[{"name":"newImplementation","type":"address","internalType":"address"},{"name":"data","type":"bytes","internalType":"bytes"}],"outputs":[],"stateMutability":"payable"},{"type":"event","name":"Approval","inputs":[{"name":"owner","type":"address","indexed":true,"internalType":"address"},{"name":"approved","type":"address","indexed":true,"internalType":"address"},{"name":"tokenId","type":"uint256","indexed":true,"internalType":"uint256"}],"anonymous":false},{"type":"event","name":"ApprovalForAll","inputs":[{"name":"owner","type":"address","indexed":true,"internalType":"address"},{"name":"operator","type":"address","indexed":true,"internalType":"address"},{"name":"approved","type":"bool","indexed":false,"internalType":"bool"}],"anonymous":false},{"type":"event","name":"BatchMetadataUpdate","inputs":[{"name":"_fromTokenId","type":"uint256","indexed":false,"internalType":"uint256"},{"name":"_toTokenId","type":"uint256","indexed":false,"internalType":"uint256"}],"anonymous":false},{"type":"event","name":"Initialized","inputs":[{"name":"version","type":"uint64","indexed":false,"internalType":"uint64"}],"anonymous":false},{"type":"event","name":"MetadataUpdate","inputs":[{"name":"_tokenId","type":"uint256","indexed":false,"internalType":"uint256"}],"anonymous":false},{"type":"event","name":"RoleAdminChanged","inputs":[{"name":"role","type":"bytes32","indexed":true,"internalType":"bytes32"},{"name":"previousAdminRole","type":"bytes32","indexed":true,"internalType":"bytes32"},{"name":"newAdminRole","type":"bytes32","indexed":true,"internalType":"bytes32"}],"anonymous":false},{"type":"event","name":"RoleGranted","inputs":[{"name":"role","type":"bytes32","indexed":true,"internalType":"bytes32"},{"name":"account","type":"address","indexed":true,"internalType":"address"},{"name":"sender","type":"address","indexed":true,"internalType":"address"}],"anonymous":false},{"type":"event","name":"RoleRevoked","inputs":[{"name":"role","type":"bytes32","indexed":true,"internalType":"bytes32"},{"name":"account","type":"address","indexed":true,"internalType":"address"},{"name":"sender","type":"address","indexed":true,"internalType":"address"}],"anonymous":false},{"type":"event","name":"Transfer","inputs":[{"name":"from","type":"address","indexed":true,"internalType":"address"},{"name":"to","type":"address","indexed":true,"internalType":"address"},{"name":"tokenId","type":"uint256","indexed":true,"internalType":"uint256"}],"anonymous":false},{"type":"event","name":"Upgraded","inputs":[{"name":"implementation","type":"address","indexed":true,"internalType":"address"}],"anonymous":false},{"type":"error","name":"AccessControlBadConfirmation","inputs":[]},{"type":"error","name":"AccessControlUnauthorizedAccount","inputs":[{"name":"account","type":"address","internalType":"address"},{"name":"neededRole","type":"bytes32","internalType":"bytes32"}]},{"type":"error","name":"AddressEmptyCode","inputs":[{"name":"target","type":"address","internalType":"address"}]},{"type":"error","name":"ERC1967InvalidImplementation","inputs":[{"name":"implementation","type":"address","internalType":"address"}]},{"type":"error","name":"ERC1967NonPayable","inputs":[]},{"type":"error","name":"ERC721IncorrectOwner","inputs":[{"name":"sender","type":"address","internalType":"address"},{"name":"tokenId","type":"uint256","internalType":"uint256"},{"name":"owner","type":"address","internalType":"address"}]},{"type":"error","name":"ERC721InsufficientApproval","inputs":[{"name":"operator","type":"address","internalType":"address"},{"name":"tokenId","type":"uint256","internalType":"uint256"}]},{"type":"error","name":"ERC721InvalidApprover","inputs":[{"name":"approver","type":"address","internalType":"address"}]},{"type":"error","name":"ERC721InvalidOperator","inputs":[{"name":"operator","type":"address","internalType":"address"}]},{"type":"error","name":"ERC721InvalidOwner","inputs":[{"name":"owner","type":"address","internalType":"address"}]},{"type":"error","name":"ERC721InvalidReceiver","inputs":[{"name":"receiver","type":"address","internalType":"address"}]},{"type":"error","name":"ERC721InvalidSender","inputs":[{"name":"sender","type":"address","internalType":"address"}]},{"type":"error","name":"ERC721NonexistentToken","inputs":[{"name":"tokenId","type":"uint256","internalType":"uint256"}]},{"type":"error","name":"FailedInnerCall","inputs":[]},{"type":"error","name":"InvalidInitialization","inputs":[]},{"type":"error","name":"NotInitializing","inputs":[]},{"type":"error","name":"UUPSUnauthorizedCallContext","inputs":[]},{"type":"error","name":"UUPSUnsupportedProxiableUUID","inputs":[{"name":"slot","type":"bytes32","internalType":"bytes32"}]}],"bytecode":{"object":"0x60a060405230608052348015601357600080fd5b5060805161227361003d60003960008181610f0601528181610f2f015261108001526122736000f3fe6080604052600436106101cd5760003560e01c806375b238fc116100f7578063ad3cb1cc11610095578063d204c45e11610064578063d204c45e1461054a578063d547741f1461056a578063e985e9c51461058a578063f024ec26146103fb57600080fd5b8063ad3cb1cc146104b9578063b88d4fde146104ea578063c87b56dd1461050a578063cb510e971461052a57600080fd5b806395d89b41116100d157806395d89b411461043b578063a217fddf14610450578063a22cb46514610465578063a966a0df1461048557600080fd5b806375b238fc146103d957806379064f68146103fb57806391d148541461041b57600080fd5b80632f2ff15d1161016f5780634f1ef2861161013e5780634f1ef2861461037157806352d1902d146103845780636352211e1461039957806370a08231146103b957600080fd5b80632f2ff15d146102f157806336568abe1461031157806342842e0e1461033157806342966c681461035157600080fd5b8063095ea7b3116101ab578063095ea7b3146102615780632016a0d21461028357806323b872dd146102a3578063248a9ca3146102c357600080fd5b806301ffc9a7146101d257806306fdde0314610207578063081812fc14610229575b600080fd5b3480156101de57600080fd5b506101f26101ed366004611bfb565b6105aa565b60405190151581526020015b60405180910390f35b34801561021357600080fd5b5061021c6105bb565b6040516101fe9190611c68565b34801561023557600080fd5b50610249610244366004611c7b565b61065f565b6040516001600160a01b0390911681526020016101fe565b34801561026d57600080fd5b5061028161027c366004611cb0565b610674565b005b34801561028f57600080fd5b5061028161029e366004611d86565b610683565b3480156102af57600080fd5b506102816102be366004611e10565b610807565b3480156102cf57600080fd5b506102e36102de366004611c7b565b610897565b6040519081526020016101fe565b3480156102fd57600080fd5b5061028161030c366004611e4d565b6108b9565b34801561031d57600080fd5b5061028161032c366004611e4d565b6108d5565b34801561033d57600080fd5b5061028161034c366004611e10565b61090d565b34801561035d57600080fd5b5061028161036c366004611c7b565b610928565b61028161037f366004611e79565b610934565b34801561039057600080fd5b506102e361094f565b3480156103a557600080fd5b506102496103b4366004611c7b565b61096c565b3480156103c557600080fd5b506102e36103d4366004611ec7565b610977565b3480156103e557600080fd5b506102e360008051602061221e83398151915281565b34801561040757600080fd5b50610281610416366004611e79565b6109d3565b34801561042757600080fd5b506101f2610436366004611e4d565b6109f5565b34801561044757600080fd5b5061021c610a2d565b34801561045c57600080fd5b506102e3600081565b34801561047157600080fd5b50610281610480366004611ee2565b610a6c565b34801561049157600080fd5b506102e37f877a78dc988c0ec5f58453b44888a55eb39755c3d5ed8d8ea990912aa3ef29c681565b3480156104c557600080fd5b5061021c604051806040016040528060058152602001640352e302e360dc1b81525081565b3480156104f657600080fd5b50610281610505366004611f1e565b610a77565b34801561051657600080fd5b5061021c610525366004611c7b565b610a8e565b34801561053657600080fd5b5061021c610545366004611ec7565b610a99565b34801561055657600080fd5b50610281610565366004611e79565b610b45565b34801561057657600080fd5b50610281610585366004611e4d565b610b98565b34801561059657600080fd5b506101f26105a5366004611f6e565b610bb4565b60006105b582610c01565b92915050565b6000805160206121be83398151915280546060919081906105db90611f98565b80601f016020809104026020016040519081016040528092919081815260200182805461060790611f98565b80156106545780601f1061062957610100808354040283529160200191610654565b820191906000526020600020905b81548152906001019060200180831161063757829003601f168201915b505050505091505090565b600061066a82610c26565b506105b582610c5e565b61067f828233610c98565b5050565b7ff0c57e16840df040f15088dc2f81fe391c3923bec73e23a9662efc9c229c6a008054600160401b810460ff16159067ffffffffffffffff166000811580156106c95750825b905060008267ffffffffffffffff1660011480156106e65750303b155b9050811580156106f4575080155b156107125760405163f92ee8a960e01b815260040160405180910390fd5b845467ffffffffffffffff19166001178555831561073c57845460ff60401b1916600160401b1785555b6107468787610ca5565b61074e610cb7565b610756610cb7565b61075e610cb7565b610766610cb7565b61077160008a610cc1565b5061078a60008051602061221e8339815191528a610cc1565b506107b57f877a78dc988c0ec5f58453b44888a55eb39755c3d5ed8d8ea990912aa3ef29c689610cc1565b5083156107fc57845460ff60401b19168555604051600181527fc7f505b2f371ae2175ee4913f4499e1f2633a7b5936321eed1cdaeb6115181d29060200160405180910390a15b505050505050505050565b6001600160a01b03821661083657604051633250574960e11b8152600060048201526024015b60405180910390fd5b6000610843838333610d66565b9050836001600160a01b0316816001600160a01b031614610891576040516364283d7b60e01b81526001600160a01b038086166004830152602482018490528216604482015260640161082d565b50505050565b60009081526000805160206121fe833981519152602052604090206001015490565b6108c282610897565b6108cb81610e72565b6108918383610cc1565b6001600160a01b03811633146108fe5760405163334bd91960e11b815260040160405180910390fd5b6109088282610e7f565b505050565b61090883838360405180602001604052806000815250610a77565b61067f60008233610d66565b61093c610efb565b61094582610fa0565b61067f8282610fb8565b6000610959611075565b506000805160206121de83398151915290565b60006105b582610c26565b60006000805160206121be8339815191526001600160a01b0383166109b2576040516322718ad960e21b81526000600482015260240161082d565b6001600160a01b039092166000908152600390920160205250604090205490565b60008051602061221e8339815191526109eb81610e72565b61090883836110be565b60009182526000805160206121fe833981519152602090815260408084206001600160a01b0393909316845291905290205460ff1690565b7f80bb2b638cc20bc4d0a60d66940f3ab4a00c1d7b313497ca82fb0b4ab007930180546060916000805160206121be833981519152916105db90611f98565b61067f3383836110e0565b610a82848484610807565b61089184848484611191565b60606105b5826112ba565b6001600160a01b0381166000908152600160205260409020805460609190610ac090611f98565b80601f0160208091040260200160405190810160405280929190818152602001828054610aec90611f98565b8015610b395780601f10610b0e57610100808354040283529160200191610b39565b820191906000526020600020905b815481529060010190602001808311610b1c57829003601f168201915b50505050509050919050565b7f877a78dc988c0ec5f58453b44888a55eb39755c3d5ed8d8ea990912aa3ef29c6610b6f81610e72565b600080548180610b7e83611fd2565b919050559050610b8e84826113ef565b6108918184611409565b610ba182610897565b610baa81610e72565b6108918383610e7f565b6001600160a01b0391821660009081527f80bb2b638cc20bc4d0a60d66940f3ab4a00c1d7b313497ca82fb0b4ab00793056020908152604080832093909416825291909152205460ff1690565b60006001600160e01b03198216637965db0b60e01b14806105b557506105b58261147c565b600080610c32836114a1565b90506001600160a01b0381166105b557604051637e27328960e01b81526004810184905260240161082d565b60009081527f80bb2b638cc20bc4d0a60d66940f3ab4a00c1d7b313497ca82fb0b4ab007930460205260409020546001600160a01b031690565b61090883838360016114db565b610cad6115f1565b61067f828261163a565b610cbf6115f1565b565b60006000805160206121fe833981519152610cdc84846109f5565b610d5c576000848152602082815260408083206001600160a01b03871684529091529020805460ff19166001179055610d123390565b6001600160a01b0316836001600160a01b0316857f2f8788117e7eff1d82e926ec794901d17c78024a50270940304540a733656f0d60405160405180910390a460019150506105b5565b60009150506105b5565b60006000805160206121be83398151915281610d81856114a1565b90506001600160a01b03841615610d9d57610d9d81858761166b565b6001600160a01b03811615610ddd57610dba6000866000806114db565b6001600160a01b0381166000908152600383016020526040902080546000190190555b6001600160a01b03861615610e0e576001600160a01b03861660009081526003830160205260409020805460010190555b600085815260028301602052604080822080546001600160a01b0319166001600160a01b038a811691821790925591518893918516917fddf252ad1be2c89b69c2b068fc378daa952ba7f163c4a11628f55a4df523b3ef91a49150505b9392505050565b610e7c81336116cf565b50565b60006000805160206121fe833981519152610e9a84846109f5565b15610d5c576000848152602082815260408083206001600160a01b0387168085529252808320805460ff1916905551339287917ff6391f5c32d9c69d2a47ea670b442974b53935d1edc7fd64eb21e047a839171b9190a460019150506105b5565b306001600160a01b037f0000000000000000000000000000000000000000000000000000000000000000161480610f8257507f00000000000000000000000000000000000000000000000000000000000000006001600160a01b0316610f766000805160206121de833981519152546001600160a01b031690565b6001600160a01b031614155b15610cbf5760405163703e46dd60e11b815260040160405180910390fd5b60008051602061221e83398151915261067f81610e72565b816001600160a01b03166352d1902d6040518163ffffffff1660e01b8152600401602060405180830381865afa925050508015611012575060408051601f3d908101601f1916820190925261100f91810190611ff9565b60015b61103a57604051634c9c8ce360e01b81526001600160a01b038316600482015260240161082d565b6000805160206121de833981519152811461106b57604051632a87526960e21b81526004810182905260240161082d565b6109088383611708565b306001600160a01b037f00000000000000000000000000000000000000000000000000000000000000001614610cbf5760405163703e46dd60e11b815260040160405180910390fd5b6001600160a01b03821660009081526001602052604090206109088282612059565b6000805160206121be8339815191526001600160a01b03831661112157604051630b61174360e31b81526001600160a01b038416600482015260240161082d565b6001600160a01b038481166000818152600584016020908152604080832094881680845294825291829020805460ff191687151590811790915591519182527f17307eab39ab6107e8899845ad3d59bd9653f200f220920489ca2b5937696c31910160405180910390a350505050565b6001600160a01b0383163b1561089157604051630a85bd0160e11b81526001600160a01b0384169063150b7a02906111d3903390889087908790600401612118565b6020604051808303816000875af192505050801561120e575060408051601f3d908101601f1916820190925261120b91810190612155565b60015b611277573d80801561123c576040519150601f19603f3d011682016040523d82523d6000602084013e611241565b606091505b50805160000361126f57604051633250574960e11b81526001600160a01b038516600482015260240161082d565b805181602001fd5b6001600160e01b03198116630a85bd0160e11b146112b357604051633250574960e11b81526001600160a01b038516600482015260240161082d565b5050505050565b60607f0542a41881ee128a365a727b282c86fa859579490b9bb45aab8503648c8e79006112e683610c26565b506000838152602082905260408120805461130090611f98565b80601f016020809104026020016040519081016040528092919081815260200182805461132c90611f98565b80156113795780601f1061134e57610100808354040283529160200191611379565b820191906000526020600020905b81548152906001019060200180831161135c57829003601f168201915b50505050509050600061139760408051602081019091526000815290565b905080516000036113aa57509392505050565b8151156113dd5780826040516020016113c4929190612172565b6040516020818303038152906040529350505050919050565b6113e68561175e565b95945050505050565b61067f8282604051806020016040528060008152506117d2565b60008281527f0542a41881ee128a365a727b282c86fa859579490b9bb45aab8503648c8e7900602081905260409091206114438382612059565b506040518381527ff8e1a15aba9398e019f0b49df1a4fde98ee17ae345cb5f6b5e2c27f5033e8ce79060200160405180910390a1505050565b60006001600160e01b03198216632483248360e11b14806105b557506105b5826117e9565b60009081527f80bb2b638cc20bc4d0a60d66940f3ab4a00c1d7b313497ca82fb0b4ab007930260205260409020546001600160a01b031690565b6000805160206121be83398151915281806114fe57506001600160a01b03831615155b156115c057600061150e85610c26565b90506001600160a01b0384161580159061153a5750836001600160a01b0316816001600160a01b031614155b801561154d575061154b8185610bb4565b155b156115765760405163a9fbf51f60e01b81526001600160a01b038516600482015260240161082d565b82156115be5784866001600160a01b0316826001600160a01b03167f8c5be1e5ebec7d5bd14f71427d1e84f3dd0314c0f7b2291e5b200ac8c7c3b92560405160405180910390a45b505b600093845260040160205250506040902080546001600160a01b0319166001600160a01b0392909216919091179055565b7ff0c57e16840df040f15088dc2f81fe391c3923bec73e23a9662efc9c229c6a0054600160401b900460ff16610cbf57604051631afcd79f60e31b815260040160405180910390fd5b6116426115f1565b6000805160206121be8339815191528061165c8482612059565b50600181016108918382612059565b611676838383611839565b610908576001600160a01b0383166116a457604051637e27328960e01b81526004810182905260240161082d565b60405163177e802f60e01b81526001600160a01b03831660048201526024810182905260440161082d565b6116d982826109f5565b61067f5760405163e2517d3f60e01b81526001600160a01b03821660048201526024810183905260440161082d565b6117118261189f565b6040516001600160a01b038316907fbc7cd75a20ee27fd9adebab32041f755214dbc6bffa90cc0225b39da2e5c2d3b90600090a2805115611756576109088282611904565b61067f611971565b606061176982610c26565b50600061178160408051602081019091526000815290565b905060008151116117a15760405180602001604052806000815250610e6b565b806117ab84611990565b6040516020016117bc929190612172565b6040516020818303038152906040529392505050565b6117dc8383611a23565b6109086000848484611191565b60006001600160e01b031982166380ac58cd60e01b148061181a57506001600160e01b03198216635b5e139f60e01b145b806105b557506301ffc9a760e01b6001600160e01b03198316146105b5565b60006001600160a01b038316158015906118975750826001600160a01b0316846001600160a01b0316148061187357506118738484610bb4565b806118975750826001600160a01b031661188c83610c5e565b6001600160a01b0316145b949350505050565b806001600160a01b03163b6000036118d557604051634c9c8ce360e01b81526001600160a01b038216600482015260240161082d565b6000805160206121de83398151915280546001600160a01b0319166001600160a01b0392909216919091179055565b6060600080846001600160a01b03168460405161192191906121a1565b600060405180830381855af49150503d806000811461195c576040519150601f19603f3d011682016040523d82523d6000602084013e611961565b606091505b50915091506113e6858383611a88565b3415610cbf5760405163b398979f60e01b815260040160405180910390fd5b6060600061199d83611ae4565b600101905060008167ffffffffffffffff8111156119bd576119bd611cda565b6040519080825280601f01601f1916602001820160405280156119e7576020820181803683370190505b5090508181016020015b600019016f181899199a1a9b1b9c1cb0b131b232b360811b600a86061a8153600a85049450846119f157509392505050565b6001600160a01b038216611a4d57604051633250574960e11b81526000600482015260240161082d565b6000611a5b83836000610d66565b90506001600160a01b03811615610908576040516339e3563760e11b81526000600482015260240161082d565b606082611a9d57611a9882611bbc565b610e6b565b8151158015611ab457506001600160a01b0384163b155b15611add57604051639996b31560e01b81526001600160a01b038516600482015260240161082d565b5080610e6b565b60008072184f03e93ff9f4daa797ed6e38ed64bf6a1f0160401b8310611b235772184f03e93ff9f4daa797ed6e38ed64bf6a1f0160401b830492506040015b6d04ee2d6d415b85acef81000000008310611b4f576d04ee2d6d415b85acef8100000000830492506020015b662386f26fc100008310611b6d57662386f26fc10000830492506010015b6305f5e1008310611b85576305f5e100830492506008015b6127108310611b9957612710830492506004015b60648310611bab576064830492506002015b600a83106105b55760010192915050565b805115611bcc5780518082602001fd5b604051630a12f52160e11b815260040160405180910390fd5b6001600160e01b031981168114610e7c57600080fd5b600060208284031215611c0d57600080fd5b8135610e6b81611be5565b60005b83811015611c33578181015183820152602001611c1b565b50506000910152565b60008151808452611c54816020860160208601611c18565b601f01601f19169290920160200192915050565b602081526000610e6b6020830184611c3c565b600060208284031215611c8d57600080fd5b5035919050565b80356001600160a01b0381168114611cab57600080fd5b919050565b60008060408385031215611cc357600080fd5b611ccc83611c94565b946020939093013593505050565b634e487b7160e01b600052604160045260246000fd5b600082601f830112611d0157600080fd5b81356020830160008067ffffffffffffffff841115611d2257611d22611cda565b50604051601f19601f85018116603f0116810181811067ffffffffffffffff82111715611d5157611d51611cda565b604052838152905080828401871015611d6957600080fd5b838360208301376000602085830101528094505050505092915050565b60008060008060808587031215611d9c57600080fd5b611da585611c94565b9350611db360208601611c94565b9250604085013567ffffffffffffffff811115611dcf57600080fd5b611ddb87828801611cf0565b925050606085013567ffffffffffffffff811115611df857600080fd5b611e0487828801611cf0565b91505092959194509250565b600080600060608486031215611e2557600080fd5b611e2e84611c94565b9250611e3c60208501611c94565b929592945050506040919091013590565b60008060408385031215611e6057600080fd5b82359150611e7060208401611c94565b90509250929050565b60008060408385031215611e8c57600080fd5b611e9583611c94565b9150602083013567ffffffffffffffff811115611eb157600080fd5b611ebd85828601611cf0565b9150509250929050565b600060208284031215611ed957600080fd5b610e6b82611c94565b60008060408385031215611ef557600080fd5b611efe83611c94565b915060208301358015158114611f1357600080fd5b809150509250929050565b60008060008060808587031215611f3457600080fd5b611f3d85611c94565b9350611f4b60208601611c94565b925060408501359150606085013567ffffffffffffffff811115611df857600080fd5b60008060408385031215611f8157600080fd5b611f8a83611c94565b9150611e7060208401611c94565b600181811c90821680611fac57607f821691505b602082108103611fcc57634e487b7160e01b600052602260045260246000fd5b50919050565b600060018201611ff257634e487b7160e01b600052601160045260246000fd5b5060010190565b60006020828403121561200b57600080fd5b5051919050565b601f82111561090857806000526020600020601f840160051c810160208510156120395750805b601f840160051c820191505b818110156112b35760008155600101612045565b815167ffffffffffffffff81111561207357612073611cda565b612087816120818454611f98565b84612012565b6020601f8211600181146120bb57600083156120a35750848201515b600019600385901b1c1916600184901b1784556112b3565b600084815260208120601f198516915b828110156120eb57878501518255602094850194600190920191016120cb565b50848210156121095786840151600019600387901b60f8161c191681555b50505050600190811b01905550565b6001600160a01b038581168252841660208201526040810183905260806060820181905260009061214b90830184611c3c565b9695505050505050565b60006020828403121561216757600080fd5b8151610e6b81611be5565b60008351612184818460208801611c18565b835190830190612198818360208801611c18565b01949350505050565b600082516121b3818460208701611c18565b919091019291505056fe80bb2b638cc20bc4d0a60d66940f3ab4a00c1d7b313497ca82fb0b4ab0079300360894a13ba1a3210667c828492db98dca3e2076cc3735a920a3ca505d382bbc02dd7bc7dec4dceedda775e58dd541e08a116c6c53815c0bd028192f7b626800a49807205ce4d355092ef5a8a18f56e8913cf4a201fbe287825b095693c21775a26469706673582212203ac68c012096bfd1e10cc4abf901f918b60bf675f8e6627bc4e4f3d88b1207fe64736f6c634300081a0033","linkReferences":{}},"methodIdentifiers":{"ADMIN_ROLE()":"75b238fc","ARTIST_ROLE()":"a966a0df","DEFAULT_ADMIN_ROLE()":"a217fddf","UPGRADE_INTERFACE_VERSION()":"ad3cb1cc","addStaff(address,string)":"f024ec26","approve(address,uint256)":"095ea7b3","balanceOf(address)":"70a08231","burn(uint256)":"42966c68","getApproved(uint256)":"081812fc","getRoleAdmin(bytes32)":"248a9ca3","grantRole(bytes32,address)":"2f2ff15d","hasRole(bytes32,address)":"91d14854","initialize(address,address,string,string)":"2016a0d2","isApprovedForAll(address,address)":"e985e9c5","isStaff(address)":"cb510e97","name()":"06fdde03","ownerOf(uint256)":"6352211e","proxiableUUID()":"52d1902d","removeStaff(address,string)":"79064f68","renounceRole(bytes32,address)":"36568abe","revokeRole(bytes32,address)":"d547741f","safeMint(address,string)":"d204c45e","safeTransferFrom(address,address,uint256)":"42842e0e","safeTransferFrom(address,address,uint256,bytes)":"b88d4fde","setApprovalForAll(address,bool)":"a22cb465","supportsInterface(bytes4)":"01ffc9a7","symbol()":"95d89b41","tokenURI(uint256)":"c87b56dd","transferFrom(address,address,uint256)":"23b872dd","upgradeToAndCall(address,bytes)":"4f1ef286"},"id":1}