{"abi":[{"type":"function","name":"ADMIN_ROLE","inputs":[],"outputs":[{"name":"","type":"bytes32","internalType":"bytes32"}],"stateMutability":"view"},{"type":"function","name":"ARTIST_ROLE","inputs":[],"outputs":[{"name":"","type":"bytes32","internalType":"bytes32"}],"stateMutability":"view"},{"type":"function","name":"DEFAULT_ADMIN_ROLE","inputs":[],"outputs":[{"name":"","type":"bytes32","internalType":"bytes32"}],"stateMutability":"view"},{"type":"function","name":"UPGRADE_INTERFACE_VERSION","inputs":[],"outputs":[{"name":"","type":"string","internalType":"string"}],"stateMutability":"view"},{"type":"function","name":"approve","inputs":[{"name":"to","type":"address","internalType":"address"},{"name":"tokenId","type":"uint256","internalType":"uint256"}],"outputs":[],"stateMutability":"nonpayable"},{"type":"function","name":"balanceOf","inputs":[{"name":"owner","type":"address","internalType":"address"}],"outputs":[{"name":"","type":"uint256","internalType":"uint256"}],"stateMutability":"view"},{"type":"function","name":"burn","inputs":[{"name":"tokenId","type":"uint256","internalType":"uint256"}],"outputs":[],"stateMutability":"nonpayable"},{"type":"function","name":"getApproved","inputs":[{"name":"tokenId","type":"uint256","internalType":"uint256"}],"outputs":[{"name":"","type":"address","internalType":"address"}],"stateMutability":"view"},{"type":"function","name":"getRoleAdmin","inputs":[{"name":"role","type":"bytes32","internalType":"bytes32"}],"outputs":[{"name":"","type":"bytes32","internalType":"bytes32"}],"stateMutability":"view"},{"type":"function","name":"grantRole","inputs":[{"name":"role","type":"bytes32","internalType":"bytes32"},{"name":"account","type":"address","internalType":"address"}],"outputs":[],"stateMutability":"nonpayable"},{"type":"function","name":"hasRole","inputs":[{"name":"role","type":"bytes32","internalType":"bytes32"},{"name":"account","type":"address","internalType":"address"}],"outputs":[{"name":"","type":"bool","internalType":"bool"}],"stateMutability":"view"},{"type":"function","name":"initialize","inputs":[{"name":"admin","type":"address","internalType":"address"},{"name":"artist","type":"address","internalType":"address"},{"name":"name","type":"string","internalType":"string"},{"name":"symbol","type":"string","internalType":"string"}],"outputs":[],"stateMutability":"nonpayable"},{"type":"function","name":"isApprovedForAll","inputs":[{"name":"owner","type":"address","internalType":"address"},{"name":"operator","type":"address","internalType":"address"}],"outputs":[{"name":"","type":"bool","internalType":"bool"}],"stateMutability":"view"},{"type":"function","name":"name","inputs":[],"outputs":[{"name":"","type":"string","internalType":"string"}],"stateMutability":"view"},{"type":"function","name":"ownerOf","inputs":[{"name":"tokenId","type":"uint256","internalType":"uint256"}],"outputs":[{"name":"","type":"address","internalType":"address"}],"stateMutability":"view"},{"type":"function","name":"proxiableUUID","inputs":[],"outputs":[{"name":"","type":"bytes32","internalType":"bytes32"}],"stateMutability":"view"},{"type":"function","name":"renounceRole","inputs":[{"name":"role","type":"bytes32","internalType":"bytes32"},{"name":"callerConfirmation","type":"address","internalType":"address"}],"outputs":[],"stateMutability":"nonpayable"},{"type":"function","name":"revokeRole","inputs":[{"name":"role","type":"bytes32","internalType":"bytes32"},{"name":"account","type":"address","internalType":"address"}],"outputs":[],"stateMutability":"nonpayable"},{"type":"function","name":"safeMint","inputs":[{"name":"to","type":"address","internalType":"address"},{"name":"uri","type":"string","internalType":"string"}],"outputs":[],"stateMutability":"nonpayable"},{"type":"function","name":"safeTransferFrom","inputs":[{"name":"from","type":"address","internalType":"address"},{"name":"to","type":"address","internalType":"address"},{"name":"tokenId","type":"uint256","internalType":"uint256"}],"outputs":[],"stateMutability":"nonpayable"},{"type":"function","name":"safeTransferFrom","inputs":[{"name":"from","type":"address","internalType":"address"},{"name":"to","type":"address","internalType":"address"},{"name":"tokenId","type":"uint256","internalType":"uint256"},{"name":"data","type":"bytes","internalType":"bytes"}],"outputs":[],"stateMutability":"nonpayable"},{"type":"function","name":"setApprovalForAll","inputs":[{"name":"operator","type":"address","internalType":"address"},{"name":"approved","type":"bool","internalType":"bool"}],"outputs":[],"stateMutability":"nonpayable"},{"type":"function","name":"supportsInterface","inputs":[{"name":"interfaceId","type":"bytes4","internalType":"bytes4"}],"outputs":[{"name":"","type":"bool","internalType":"bool"}],"stateMutability":"view"},{"type":"function","name":"symbol","inputs":[],"outputs":[{"name":"","type":"string","internalType":"string"}],"stateMutability":"view"},{"type":"function","name":"tokenURI","inputs":[{"name":"tokenId","type":"uint256","internalType":"uint256"}],"outputs":[{"name":"","type":"string","internalType":"string"}],"stateMutability":"view"},{"type":"function","name":"transferFrom","inputs":[{"name":"from","type":"address","internalType":"address"},{"name":"to","type":"address","internalType":"address"},{"name":"tokenId","type":"uint256","internalType":"uint256"}],"outputs":[],"stateMutability":"nonpayable"},{"type":"function","name":"upgradeToAndCall","inputs":[{"name":"newImplementation","type":"address","internalType":"address"},{"name":"data","type":"bytes","internalType":"bytes"}],"outputs":[],"stateMutability":"payable"},{"type":"event","name":"Approval","inputs":[{"name":"owner","type":"address","indexed":true,"internalType":"address"},{"name":"approved","type":"address","indexed":true,"internalType":"address"},{"name":"tokenId","type":"uint256","indexed":true,"internalType":"uint256"}],"anonymous":false},{"type":"event","name":"ApprovalForAll","inputs":[{"name":"owner","type":"address","indexed":true,"internalType":"address"},{"name":"operator","type":"address","indexed":true,"internalType":"address"},{"name":"approved","type":"bool","indexed":false,"internalType":"bool"}],"anonymous":false},{"type":"event","name":"BatchMetadataUpdate","inputs":[{"name":"_fromTokenId","type":"uint256","indexed":false,"internalType":"uint256"},{"name":"_toTokenId","type":"uint256","indexed":false,"internalType":"uint256"}],"anonymous":false},{"type":"event","name":"Initialized","inputs":[{"name":"version","type":"uint64","indexed":false,"internalType":"uint64"}],"anonymous":false},{"type":"event","name":"MetadataUpdate","inputs":[{"name":"_tokenId","type":"uint256","indexed":false,"internalType":"uint256"}],"anonymous":false},{"type":"event","name":"RoleAdminChanged","inputs":[{"name":"role","type":"bytes32","indexed":true,"internalType":"bytes32"},{"name":"previousAdminRole","type":"bytes32","indexed":true,"internalType":"bytes32"},{"name":"newAdminRole","type":"bytes32","indexed":true,"internalType":"bytes32"}],"anonymous":false},{"type":"event","name":"RoleGranted","inputs":[{"name":"role","type":"bytes32","indexed":true,"internalType":"bytes32"},{"name":"account","type":"address","indexed":true,"internalType":"address"},{"name":"sender","type":"address","indexed":true,"internalType":"address"}],"anonymous":false},{"type":"event","name":"RoleRevoked","inputs":[{"name":"role","type":"bytes32","indexed":true,"internalType":"bytes32"},{"name":"account","type":"address","indexed":true,"internalType":"address"},{"name":"sender","type":"address","indexed":true,"internalType":"address"}],"anonymous":false},{"type":"event","name":"Transfer","inputs":[{"name":"from","type":"address","indexed":true,"internalType":"address"},{"name":"to","type":"address","indexed":true,"internalType":"address"},{"name":"tokenId","type":"uint256","indexed":true,"internalType":"uint256"}],"anonymous":false},{"type":"event","name":"Upgraded","inputs":[{"name":"implementation","type":"address","indexed":true,"internalType":"address"}],"anonymous":false},{"type":"error","name":"AccessControlBadConfirmation","inputs":[]},{"type":"error","name":"AccessControlUnauthorizedAccount","inputs":[{"name":"account","type":"address","internalType":"address"},{"name":"neededRole","type":"bytes32","internalType":"bytes32"}]},{"type":"error","name":"AddressEmptyCode","inputs":[{"name":"target","type":"address","internalType":"address"}]},{"type":"error","name":"ERC1967InvalidImplementation","inputs":[{"name":"implementation","type":"address","internalType":"address"}]},{"type":"error","name":"ERC1967NonPayable","inputs":[]},{"type":"error","name":"ERC721IncorrectOwner","inputs":[{"name":"sender","type":"address","internalType":"address"},{"name":"tokenId","type":"uint256","internalType":"uint256"},{"name":"owner","type":"address","internalType":"address"}]},{"type":"error","name":"ERC721InsufficientApproval","inputs":[{"name":"operator","type":"address","internalType":"address"},{"name":"tokenId","type":"uint256","internalType":"uint256"}]},{"type":"error","name":"ERC721InvalidApprover","inputs":[{"name":"approver","type":"address","internalType":"address"}]},{"type":"error","name":"ERC721InvalidOperator","inputs":[{"name":"operator","type":"address","internalType":"address"}]},{"type":"error","name":"ERC721InvalidOwner","inputs":[{"name":"owner","type":"address","internalType":"address"}]},{"type":"error","name":"ERC721InvalidReceiver","inputs":[{"name":"receiver","type":"address","internalType":"address"}]},{"type":"error","name":"ERC721InvalidSender","inputs":[{"name":"sender","type":"address","internalType":"address"}]},{"type":"error","name":"ERC721NonexistentToken","inputs":[{"name":"tokenId","type":"uint256","internalType":"uint256"}]},{"type":"error","name":"FailedInnerCall","inputs":[]},{"type":"error","name":"InvalidInitialization","inputs":[]},{"type":"error","name":"NotInitializing","inputs":[]},{"type":"error","name":"UUPSUnauthorizedCallContext","inputs":[]},{"type":"error","name":"UUPSUnsupportedProxiableUUID","inputs":[{"name":"slot","type":"bytes32","internalType":"bytes32"}]}],"bytecode":{"object":"0x60a060405230608052348015601357600080fd5b5060805161212861003d60003960008181610deb01528181610e140152610f7701526121286000f3fe60806040526004361061019c5760003560e01c80636352211e116100ec578063a966a0df1161008a578063c87b56dd11610064578063c87b56dd146104cb578063d204c45e146104eb578063d547741f1461050b578063e985e9c51461052b57600080fd5b8063a966a0df14610446578063ad3cb1cc1461047a578063b88d4fde146104ab57600080fd5b806391d14854116100c657806391d14854146103dc57806395d89b41146103fc578063a217fddf14610411578063a22cb4651461042657600080fd5b80636352211e1461036857806370a082311461038857806375b238fc146103a857600080fd5b8063248a9ca31161015957806342842e0e1161013357806342842e0e1461030057806342966c68146103205780634f1ef2861461034057806352d1902d1461035357600080fd5b8063248a9ca3146102925780632f2ff15d146102c057806336568abe146102e057600080fd5b806301ffc9a7146101a157806306fdde03146101d6578063081812fc146101f8578063095ea7b3146102305780632016a0d21461025257806323b872dd14610272575b600080fd5b3480156101ad57600080fd5b506101c16101bc366004611ad0565b61054b565b60405190151581526020015b60405180910390f35b3480156101e257600080fd5b506101eb61055c565b6040516101cd9190611b3d565b34801561020457600080fd5b50610218610213366004611b50565b610600565b6040516001600160a01b0390911681526020016101cd565b34801561023c57600080fd5b5061025061024b366004611b85565b610615565b005b34801561025e57600080fd5b5061025061026d366004611c5b565b610624565b34801561027e57600080fd5b5061025061028d366004611ce5565b6107ba565b34801561029e57600080fd5b506102b26102ad366004611b50565b61084a565b6040519081526020016101cd565b3480156102cc57600080fd5b506102506102db366004611d22565b61086c565b3480156102ec57600080fd5b506102506102fb366004611d22565b610888565b34801561030c57600080fd5b5061025061031b366004611ce5565b6108c0565b34801561032c57600080fd5b5061025061033b366004611b50565b6108db565b61025061034e366004611d4e565b6108e7565b34801561035f57600080fd5b506102b2610902565b34801561037457600080fd5b50610218610383366004611b50565b61091f565b34801561039457600080fd5b506102b26103a3366004611d9c565b61092a565b3480156103b457600080fd5b506102b27fa49807205ce4d355092ef5a8a18f56e8913cf4a201fbe287825b095693c2177581565b3480156103e857600080fd5b506101c16103f7366004611d22565b610986565b34801561040857600080fd5b506101eb6109be565b34801561041d57600080fd5b506102b2600081565b34801561043257600080fd5b50610250610441366004611db7565b6109fd565b34801561045257600080fd5b506102b27f877a78dc988c0ec5f58453b44888a55eb39755c3d5ed8d8ea990912aa3ef29c681565b34801561048657600080fd5b506101eb604051806040016040528060058152602001640352e302e360dc1b81525081565b3480156104b757600080fd5b506102506104c6366004611df3565b610a08565b3480156104d757600080fd5b506101eb6104e6366004611b50565b610a1f565b3480156104f757600080fd5b50610250610506366004611d4e565b610a2a565b34801561051757600080fd5b50610250610526366004611d22565b610a7d565b34801561053757600080fd5b506101c1610546366004611e43565b610a99565b600061055682610ae6565b92915050565b600080516020612093833981519152805460609190819061057c90611e6d565b80601f01602080910402602001604051908101604052809291908181526020018280546105a890611e6d565b80156105f55780601f106105ca576101008083540402835291602001916105f5565b820191906000526020600020905b8154815290600101906020018083116105d857829003601f168201915b505050505091505090565b600061060b82610b0b565b5061055682610b43565b610620828233610b7d565b5050565b7ff0c57e16840df040f15088dc2f81fe391c3923bec73e23a9662efc9c229c6a008054600160401b810460ff16159067ffffffffffffffff1660008115801561066a5750825b905060008267ffffffffffffffff1660011480156106875750303b155b905081158015610695575080155b156106b35760405163f92ee8a960e01b815260040160405180910390fd5b845467ffffffffffffffff1916600117855583156106dd57845460ff60401b1916600160401b1785555b6106e78787610b8a565b6106ef610b9c565b6106f7610b9c565b6106ff610b9c565b610707610b9c565b61071260008a610ba6565b5061073d7fa49807205ce4d355092ef5a8a18f56e8913cf4a201fbe287825b095693c217758a610ba6565b506107687f877a78dc988c0ec5f58453b44888a55eb39755c3d5ed8d8ea990912aa3ef29c689610ba6565b5083156107af57845460ff60401b19168555604051600181527fc7f505b2f371ae2175ee4913f4499e1f2633a7b5936321eed1cdaeb6115181d29060200160405180910390a15b505050505050505050565b6001600160a01b0382166107e957604051633250574960e11b8152600060048201526024015b60405180910390fd5b60006107f6838333610c4b565b9050836001600160a01b0316816001600160a01b031614610844576040516364283d7b60e01b81526001600160a01b03808616600483015260248201849052821660448201526064016107e0565b50505050565b60009081526000805160206120d3833981519152602052604090206001015490565b6108758261084a565b61087e81610d57565b6108448383610ba6565b6001600160a01b03811633146108b15760405163334bd91960e11b815260040160405180910390fd5b6108bb8282610d64565b505050565b6108bb83838360405180602001604052806000815250610a08565b61062060008233610c4b565b6108ef610de0565b6108f882610e85565b6106208282610eaf565b600061090c610f6c565b506000805160206120b383398151915290565b600061055682610b0b565b60006000805160206120938339815191526001600160a01b038316610965576040516322718ad960e21b8152600060048201526024016107e0565b6001600160a01b039092166000908152600390920160205250604090205490565b60009182526000805160206120d3833981519152602090815260408084206001600160a01b0393909316845291905290205460ff1690565b7f80bb2b638cc20bc4d0a60d66940f3ab4a00c1d7b313497ca82fb0b4ab007930180546060916000805160206120938339815191529161057c90611e6d565b610620338383610fb5565b610a138484846107ba565b61084484848484611066565b60606105568261118f565b7f877a78dc988c0ec5f58453b44888a55eb39755c3d5ed8d8ea990912aa3ef29c6610a5481610d57565b600080548180610a6383611ea7565b919050559050610a7384826112c4565b61084481846112de565b610a868261084a565b610a8f81610d57565b6108448383610d64565b6001600160a01b0391821660009081527f80bb2b638cc20bc4d0a60d66940f3ab4a00c1d7b313497ca82fb0b4ab00793056020908152604080832093909416825291909152205460ff1690565b60006001600160e01b03198216637965db0b60e01b1480610556575061055682611351565b600080610b1783611376565b90506001600160a01b03811661055657604051637e27328960e01b8152600481018490526024016107e0565b60009081527f80bb2b638cc20bc4d0a60d66940f3ab4a00c1d7b313497ca82fb0b4ab007930460205260409020546001600160a01b031690565b6108bb83838360016113b0565b610b926114c6565b610620828261150f565b610ba46114c6565b565b60006000805160206120d3833981519152610bc18484610986565b610c41576000848152602082815260408083206001600160a01b03871684529091529020805460ff19166001179055610bf73390565b6001600160a01b0316836001600160a01b0316857f2f8788117e7eff1d82e926ec794901d17c78024a50270940304540a733656f0d60405160405180910390a46001915050610556565b6000915050610556565b600060008051602061209383398151915281610c6685611376565b90506001600160a01b03841615610c8257610c82818587611540565b6001600160a01b03811615610cc257610c9f6000866000806113b0565b6001600160a01b0381166000908152600383016020526040902080546000190190555b6001600160a01b03861615610cf3576001600160a01b03861660009081526003830160205260409020805460010190555b600085815260028301602052604080822080546001600160a01b0319166001600160a01b038a811691821790925591518893918516917fddf252ad1be2c89b69c2b068fc378daa952ba7f163c4a11628f55a4df523b3ef91a49150505b9392505050565b610d6181336115a4565b50565b60006000805160206120d3833981519152610d7f8484610986565b15610c41576000848152602082815260408083206001600160a01b0387168085529252808320805460ff1916905551339287917ff6391f5c32d9c69d2a47ea670b442974b53935d1edc7fd64eb21e047a839171b9190a46001915050610556565b306001600160a01b037f0000000000000000000000000000000000000000000000000000000000000000161480610e6757507f00000000000000000000000000000000000000000000000000000000000000006001600160a01b0316610e5b6000805160206120b3833981519152546001600160a01b031690565b6001600160a01b031614155b15610ba45760405163703e46dd60e11b815260040160405180910390fd5b7fa49807205ce4d355092ef5a8a18f56e8913cf4a201fbe287825b095693c2177561062081610d57565b816001600160a01b03166352d1902d6040518163ffffffff1660e01b8152600401602060405180830381865afa925050508015610f09575060408051601f3d908101601f19168201909252610f0691810190611ece565b60015b610f3157604051634c9c8ce360e01b81526001600160a01b03831660048201526024016107e0565b6000805160206120b38339815191528114610f6257604051632a87526960e21b8152600481018290526024016107e0565b6108bb83836115dd565b306001600160a01b037f00000000000000000000000000000000000000000000000000000000000000001614610ba45760405163703e46dd60e11b815260040160405180910390fd5b6000805160206120938339815191526001600160a01b038316610ff657604051630b61174360e31b81526001600160a01b03841660048201526024016107e0565b6001600160a01b038481166000818152600584016020908152604080832094881680845294825291829020805460ff191687151590811790915591519182527f17307eab39ab6107e8899845ad3d59bd9653f200f220920489ca2b5937696c31910160405180910390a350505050565b6001600160a01b0383163b1561084457604051630a85bd0160e11b81526001600160a01b0384169063150b7a02906110a8903390889087908790600401611ee7565b6020604051808303816000875af19250505080156110e3575060408051601f3d908101601f191682019092526110e091810190611f24565b60015b61114c573d808015611111576040519150601f19603f3d011682016040523d82523d6000602084013e611116565b606091505b50805160000361114457604051633250574960e11b81526001600160a01b03851660048201526024016107e0565b805181602001fd5b6001600160e01b03198116630a85bd0160e11b1461118857604051633250574960e11b81526001600160a01b03851660048201526024016107e0565b5050505050565b60607f0542a41881ee128a365a727b282c86fa859579490b9bb45aab8503648c8e79006111bb83610b0b565b50600083815260208290526040812080546111d590611e6d565b80601f016020809104026020016040519081016040528092919081815260200182805461120190611e6d565b801561124e5780601f106112235761010080835404028352916020019161124e565b820191906000526020600020905b81548152906001019060200180831161123157829003601f168201915b50505050509050600061126c60408051602081019091526000815290565b9050805160000361127f57509392505050565b8151156112b2578082604051602001611299929190611f41565b6040516020818303038152906040529350505050919050565b6112bb85611633565b95945050505050565b6106208282604051806020016040528060008152506116a7565b60008281527f0542a41881ee128a365a727b282c86fa859579490b9bb45aab8503648c8e7900602081905260409091206113188382611fb7565b506040518381527ff8e1a15aba9398e019f0b49df1a4fde98ee17ae345cb5f6b5e2c27f5033e8ce79060200160405180910390a1505050565b60006001600160e01b03198216632483248360e11b14806105565750610556826116be565b60009081527f80bb2b638cc20bc4d0a60d66940f3ab4a00c1d7b313497ca82fb0b4ab007930260205260409020546001600160a01b031690565b60008051602061209383398151915281806113d357506001600160a01b03831615155b156114955760006113e385610b0b565b90506001600160a01b0384161580159061140f5750836001600160a01b0316816001600160a01b031614155b801561142257506114208185610a99565b155b1561144b5760405163a9fbf51f60e01b81526001600160a01b03851660048201526024016107e0565b82156114935784866001600160a01b0316826001600160a01b03167f8c5be1e5ebec7d5bd14f71427d1e84f3dd0314c0f7b2291e5b200ac8c7c3b92560405160405180910390a45b505b600093845260040160205250506040902080546001600160a01b0319166001600160a01b0392909216919091179055565b7ff0c57e16840df040f15088dc2f81fe391c3923bec73e23a9662efc9c229c6a0054600160401b900460ff16610ba457604051631afcd79f60e31b815260040160405180910390fd5b6115176114c6565b600080516020612093833981519152806115318482611fb7565b50600181016108448382611fb7565b61154b83838361170e565b6108bb576001600160a01b03831661157957604051637e27328960e01b8152600481018290526024016107e0565b60405163177e802f60e01b81526001600160a01b0383166004820152602481018290526044016107e0565b6115ae8282610986565b6106205760405163e2517d3f60e01b81526001600160a01b0382166004820152602481018390526044016107e0565b6115e682611774565b6040516001600160a01b038316907fbc7cd75a20ee27fd9adebab32041f755214dbc6bffa90cc0225b39da2e5c2d3b90600090a280511561162b576108bb82826117d9565b610620611846565b606061163e82610b0b565b50600061165660408051602081019091526000815290565b905060008151116116765760405180602001604052806000815250610d50565b8061168084611865565b604051602001611691929190611f41565b6040516020818303038152906040529392505050565b6116b183836118f8565b6108bb6000848484611066565b60006001600160e01b031982166380ac58cd60e01b14806116ef57506001600160e01b03198216635b5e139f60e01b145b8061055657506301ffc9a760e01b6001600160e01b0319831614610556565b60006001600160a01b0383161580159061176c5750826001600160a01b0316846001600160a01b0316148061174857506117488484610a99565b8061176c5750826001600160a01b031661176183610b43565b6001600160a01b0316145b949350505050565b806001600160a01b03163b6000036117aa57604051634c9c8ce360e01b81526001600160a01b03821660048201526024016107e0565b6000805160206120b383398151915280546001600160a01b0319166001600160a01b0392909216919091179055565b6060600080846001600160a01b0316846040516117f69190612076565b600060405180830381855af49150503d8060008114611831576040519150601f19603f3d011682016040523d82523d6000602084013e611836565b606091505b50915091506112bb85838361195d565b3415610ba45760405163b398979f60e01b815260040160405180910390fd5b60606000611872836119b9565b600101905060008167ffffffffffffffff81111561189257611892611baf565b6040519080825280601f01601f1916602001820160405280156118bc576020820181803683370190505b5090508181016020015b600019016f181899199a1a9b1b9c1cb0b131b232b360811b600a86061a8153600a85049450846118c657509392505050565b6001600160a01b03821661192257604051633250574960e11b8152600060048201526024016107e0565b600061193083836000610c4b565b90506001600160a01b038116156108bb576040516339e3563760e11b8152600060048201526024016107e0565b6060826119725761196d82611a91565b610d50565b815115801561198957506001600160a01b0384163b155b156119b257604051639996b31560e01b81526001600160a01b03851660048201526024016107e0565b5080610d50565b60008072184f03e93ff9f4daa797ed6e38ed64bf6a1f0160401b83106119f85772184f03e93ff9f4daa797ed6e38ed64bf6a1f0160401b830492506040015b6d04ee2d6d415b85acef81000000008310611a24576d04ee2d6d415b85acef8100000000830492506020015b662386f26fc100008310611a4257662386f26fc10000830492506010015b6305f5e1008310611a5a576305f5e100830492506008015b6127108310611a6e57612710830492506004015b60648310611a80576064830492506002015b600a83106105565760010192915050565b805115611aa15780518082602001fd5b604051630a12f52160e11b815260040160405180910390fd5b6001600160e01b031981168114610d6157600080fd5b600060208284031215611ae257600080fd5b8135610d5081611aba565b60005b83811015611b08578181015183820152602001611af0565b50506000910152565b60008151808452611b29816020860160208601611aed565b601f01601f19169290920160200192915050565b602081526000610d506020830184611b11565b600060208284031215611b6257600080fd5b5035919050565b80356001600160a01b0381168114611b8057600080fd5b919050565b60008060408385031215611b9857600080fd5b611ba183611b69565b946020939093013593505050565b634e487b7160e01b600052604160045260246000fd5b600082601f830112611bd657600080fd5b81356020830160008067ffffffffffffffff841115611bf757611bf7611baf565b50604051601f19601f85018116603f0116810181811067ffffffffffffffff82111715611c2657611c26611baf565b604052838152905080828401871015611c3e57600080fd5b838360208301376000602085830101528094505050505092915050565b60008060008060808587031215611c7157600080fd5b611c7a85611b69565b9350611c8860208601611b69565b9250604085013567ffffffffffffffff811115611ca457600080fd5b611cb087828801611bc5565b925050606085013567ffffffffffffffff811115611ccd57600080fd5b611cd987828801611bc5565b91505092959194509250565b600080600060608486031215611cfa57600080fd5b611d0384611b69565b9250611d1160208501611b69565b929592945050506040919091013590565b60008060408385031215611d3557600080fd5b82359150611d4560208401611b69565b90509250929050565b60008060408385031215611d6157600080fd5b611d6a83611b69565b9150602083013567ffffffffffffffff811115611d8657600080fd5b611d9285828601611bc5565b9150509250929050565b600060208284031215611dae57600080fd5b610d5082611b69565b60008060408385031215611dca57600080fd5b611dd383611b69565b915060208301358015158114611de857600080fd5b809150509250929050565b60008060008060808587031215611e0957600080fd5b611e1285611b69565b9350611e2060208601611b69565b925060408501359150606085013567ffffffffffffffff811115611ccd57600080fd5b60008060408385031215611e5657600080fd5b611e5f83611b69565b9150611d4560208401611b69565b600181811c90821680611e8157607f821691505b602082108103611ea157634e487b7160e01b600052602260045260246000fd5b50919050565b600060018201611ec757634e487b7160e01b600052601160045260246000fd5b5060010190565b600060208284031215611ee057600080fd5b5051919050565b6001600160a01b0385811682528416602082015260408101839052608060608201819052600090611f1a90830184611b11565b9695505050505050565b600060208284031215611f3657600080fd5b8151610d5081611aba565b60008351611f53818460208801611aed565b835190830190611f67818360208801611aed565b01949350505050565b601f8211156108bb57806000526020600020601f840160051c81016020851015611f975750805b601f840160051c820191505b818110156111885760008155600101611fa3565b815167ffffffffffffffff811115611fd157611fd1611baf565b611fe581611fdf8454611e6d565b84611f70565b6020601f82116001811461201957600083156120015750848201515b600019600385901b1c1916600184901b178455611188565b600084815260208120601f198516915b828110156120495787850151825560209485019460019092019101612029565b50848210156120675786840151600019600387901b60f8161c191681555b50505050600190811b01905550565b60008251612088818460208701611aed565b919091019291505056fe80bb2b638cc20bc4d0a60d66940f3ab4a00c1d7b313497ca82fb0b4ab0079300360894a13ba1a3210667c828492db98dca3e2076cc3735a920a3ca505d382bbc02dd7bc7dec4dceedda775e58dd541e08a116c6c53815c0bd028192f7b626800a26469706673582212204a3286fa9136dcd1e7530cf0d9e9550c15751e21bfc7b6cb3011fb1b6ff06bfc64736f6c634300081a0033","linkReferences":{}},"methodIdentifiers":{"ADMIN_ROLE()":"75b238fc","ARTIST_ROLE()":"a966a0df","DEFAULT_ADMIN_ROLE()":"a217fddf","UPGRADE_INTERFACE_VERSION()":"ad3cb1cc","approve(address,uint256)":"095ea7b3","balanceOf(address)":"70a08231","burn(uint256)":"42966c68","getApproved(uint256)":"081812fc","getRoleAdmin(bytes32)":"248a9ca3","grantRole(bytes32,address)":"2f2ff15d","hasRole(bytes32,address)":"91d14854","initialize(address,address,string,string)":"2016a0d2","isApprovedForAll(address,address)":"e985e9c5","name()":"06fdde03","ownerOf(uint256)":"6352211e","proxiableUUID()":"52d1902d","renounceRole(bytes32,address)":"36568abe","revokeRole(bytes32,address)":"d547741f","safeMint(address,string)":"d204c45e","safeTransferFrom(address,address,uint256)":"42842e0e","safeTransferFrom(address,address,uint256,bytes)":"b88d4fde","setApprovalForAll(address,bool)":"a22cb465","supportsInterface(bytes4)":"01ffc9a7","symbol()":"95d89b41","tokenURI(uint256)":"c87b56dd","transferFrom(address,address,uint256)":"23b872dd","upgradeToAndCall(address,bytes)":"4f1ef286"},"id":1}