{"abi":[{"type":"function","name":"ADMIN_ROLE","inputs":[],"outputs":[{"name":"","type":"bytes32","internalType":"bytes32"}],"stateMutability":"view"},{"type":"function","name":"DEFAULT_ADMIN_ROLE","inputs":[],"outputs":[{"name":"","type":"bytes32","internalType":"bytes32"}],"stateMutability":"view"},{"type":"function","name":"UPGRADE_INTERFACE_VERSION","inputs":[],"outputs":[{"name":"","type":"string","internalType":"string"}],"stateMutability":"view"},{"type":"function","name":"approve","inputs":[{"name":"to","type":"address","internalType":"address"},{"name":"tokenId","type":"uint256","internalType":"uint256"}],"outputs":[],"stateMutability":"nonpayable"},{"type":"function","name":"balanceOf","inputs":[{"name":"owner","type":"address","internalType":"address"}],"outputs":[{"name":"","type":"uint256","internalType":"uint256"}],"stateMutability":"view"},{"type":"function","name":"burn","inputs":[{"name":"tokenId","type":"uint256","internalType":"uint256"}],"outputs":[],"stateMutability":"nonpayable"},{"type":"function","name":"getApproved","inputs":[{"name":"tokenId","type":"uint256","internalType":"uint256"}],"outputs":[{"name":"","type":"address","internalType":"address"}],"stateMutability":"view"},{"type":"function","name":"getRoleAdmin","inputs":[{"name":"role","type":"bytes32","internalType":"bytes32"}],"outputs":[{"name":"","type":"bytes32","internalType":"bytes32"}],"stateMutability":"view"},{"type":"function","name":"grantRole","inputs":[{"name":"role","type":"bytes32","internalType":"bytes32"},{"name":"account","type":"address","internalType":"address"}],"outputs":[],"stateMutability":"nonpayable"},{"type":"function","name":"hasRole","inputs":[{"name":"role","type":"bytes32","internalType":"bytes32"},{"name":"account","type":"address","internalType":"address"}],"outputs":[{"name":"","type":"bool","internalType":"bool"}],"stateMutability":"view"},{"type":"function","name":"initialize","inputs":[{"name":"admin","type":"address","internalType":"address"},{"name":"staffContractAddress","type":"address","internalType":"address"},{"name":"name","type":"string","internalType":"string"},{"name":"symbol","type":"string","internalType":"string"}],"outputs":[],"stateMutability":"nonpayable"},{"type":"function","name":"isApprovedForAll","inputs":[{"name":"owner","type":"address","internalType":"address"},{"name":"operator","type":"address","internalType":"address"}],"outputs":[{"name":"","type":"bool","internalType":"bool"}],"stateMutability":"view"},{"type":"function","name":"name","inputs":[],"outputs":[{"name":"","type":"string","internalType":"string"}],"stateMutability":"view"},{"type":"function","name":"ownerOf","inputs":[{"name":"tokenId","type":"uint256","internalType":"uint256"}],"outputs":[{"name":"","type":"address","internalType":"address"}],"stateMutability":"view"},{"type":"function","name":"proxiableUUID","inputs":[],"outputs":[{"name":"","type":"bytes32","internalType":"bytes32"}],"stateMutability":"view"},{"type":"function","name":"renounceRole","inputs":[{"name":"role","type":"bytes32","internalType":"bytes32"},{"name":"callerConfirmation","type":"address","internalType":"address"}],"outputs":[],"stateMutability":"nonpayable"},{"type":"function","name":"revokeRole","inputs":[{"name":"role","type":"bytes32","internalType":"bytes32"},{"name":"account","type":"address","internalType":"address"}],"outputs":[],"stateMutability":"nonpayable"},{"type":"function","name":"safeMint","inputs":[{"name":"to","type":"address","internalType":"address"},{"name":"uri","type":"string","internalType":"string"}],"outputs":[],"stateMutability":"nonpayable"},{"type":"function","name":"safeTransferFrom","inputs":[{"name":"from","type":"address","internalType":"address"},{"name":"to","type":"address","internalType":"address"},{"name":"tokenId","type":"uint256","internalType":"uint256"}],"outputs":[],"stateMutability":"nonpayable"},{"type":"function","name":"safeTransferFrom","inputs":[{"name":"from","type":"address","internalType":"address"},{"name":"to","type":"address","internalType":"address"},{"name":"tokenId","type":"uint256","internalType":"uint256"},{"name":"data","type":"bytes","internalType":"bytes"}],"outputs":[],"stateMutability":"nonpayable"},{"type":"function","name":"setApprovalForAll","inputs":[{"name":"operator","type":"address","internalType":"address"},{"name":"approved","type":"bool","internalType":"bool"}],"outputs":[],"stateMutability":"nonpayable"},{"type":"function","name":"supportsInterface","inputs":[{"name":"interfaceId","type":"bytes4","internalType":"bytes4"}],"outputs":[{"name":"","type":"bool","internalType":"bool"}],"stateMutability":"view"},{"type":"function","name":"symbol","inputs":[],"outputs":[{"name":"","type":"string","internalType":"string"}],"stateMutability":"view"},{"type":"function","name":"tokenURI","inputs":[{"name":"tokenId","type":"uint256","internalType":"uint256"}],"outputs":[{"name":"","type":"string","internalType":"string"}],"stateMutability":"view"},{"type":"function","name":"transferFrom","inputs":[{"name":"from","type":"address","internalType":"address"},{"name":"to","type":"address","internalType":"address"},{"name":"tokenId","type":"uint256","internalType":"uint256"}],"outputs":[],"stateMutability":"nonpayable"},{"type":"function","name":"upgradeToAndCall","inputs":[{"name":"newImplementation","type":"address","internalType":"address"},{"name":"data","type":"bytes","internalType":"bytes"}],"outputs":[],"stateMutability":"payable"},{"type":"event","name":"Approval","inputs":[{"name":"owner","type":"address","indexed":true,"internalType":"address"},{"name":"approved","type":"address","indexed":true,"internalType":"address"},{"name":"tokenId","type":"uint256","indexed":true,"internalType":"uint256"}],"anonymous":false},{"type":"event","name":"ApprovalForAll","inputs":[{"name":"owner","type":"address","indexed":true,"internalType":"address"},{"name":"operator","type":"address","indexed":true,"internalType":"address"},{"name":"approved","type":"bool","indexed":false,"internalType":"bool"}],"anonymous":false},{"type":"event","name":"BatchMetadataUpdate","inputs":[{"name":"_fromTokenId","type":"uint256","indexed":false,"internalType":"uint256"},{"name":"_toTokenId","type":"uint256","indexed":false,"internalType":"uint256"}],"anonymous":false},{"type":"event","name":"Initialized","inputs":[{"name":"version","type":"uint64","indexed":false,"internalType":"uint64"}],"anonymous":false},{"type":"event","name":"MetadataUpdate","inputs":[{"name":"_tokenId","type":"uint256","indexed":false,"internalType":"uint256"}],"anonymous":false},{"type":"event","name":"RoleAdminChanged","inputs":[{"name":"role","type":"bytes32","indexed":true,"internalType":"bytes32"},{"name":"previousAdminRole","type":"bytes32","indexed":true,"internalType":"bytes32"},{"name":"newAdminRole","type":"bytes32","indexed":true,"internalType":"bytes32"}],"anonymous":false},{"type":"event","name":"RoleGranted","inputs":[{"name":"role","type":"bytes32","indexed":true,"internalType":"bytes32"},{"name":"account","type":"address","indexed":true,"internalType":"address"},{"name":"sender","type":"address","indexed":true,"internalType":"address"}],"anonymous":false},{"type":"event","name":"RoleRevoked","inputs":[{"name":"role","type":"bytes32","indexed":true,"internalType":"bytes32"},{"name":"account","type":"address","indexed":true,"internalType":"address"},{"name":"sender","type":"address","indexed":true,"internalType":"address"}],"anonymous":false},{"type":"event","name":"Transfer","inputs":[{"name":"from","type":"address","indexed":true,"internalType":"address"},{"name":"to","type":"address","indexed":true,"internalType":"address"},{"name":"tokenId","type":"uint256","indexed":true,"internalType":"uint256"}],"anonymous":false},{"type":"event","name":"Upgraded","inputs":[{"name":"implementation","type":"address","indexed":true,"internalType":"address"}],"anonymous":false},{"type":"error","name":"AccessControlBadConfirmation","inputs":[]},{"type":"error","name":"AccessControlUnauthorizedAccount","inputs":[{"name":"account","type":"address","internalType":"address"},{"name":"neededRole","type":"bytes32","internalType":"bytes32"}]},{"type":"error","name":"AddressEmptyCode","inputs":[{"name":"target","type":"address","internalType":"address"}]},{"type":"error","name":"ERC1967InvalidImplementation","inputs":[{"name":"implementation","type":"address","internalType":"address"}]},{"type":"error","name":"ERC1967NonPayable","inputs":[]},{"type":"error","name":"ERC721IncorrectOwner","inputs":[{"name":"sender","type":"address","internalType":"address"},{"name":"tokenId","type":"uint256","internalType":"uint256"},{"name":"owner","type":"address","internalType":"address"}]},{"type":"error","name":"ERC721InsufficientApproval","inputs":[{"name":"operator","type":"address","internalType":"address"},{"name":"tokenId","type":"uint256","internalType":"uint256"}]},{"type":"error","name":"ERC721InvalidApprover","inputs":[{"name":"approver","type":"address","internalType":"address"}]},{"type":"error","name":"ERC721InvalidOperator","inputs":[{"name":"operator","type":"address","internalType":"address"}]},{"type":"error","name":"ERC721InvalidOwner","inputs":[{"name":"owner","type":"address","internalType":"address"}]},{"type":"error","name":"ERC721InvalidReceiver","inputs":[{"name":"receiver","type":"address","internalType":"address"}]},{"type":"error","name":"ERC721InvalidSender","inputs":[{"name":"sender","type":"address","internalType":"address"}]},{"type":"error","name":"ERC721NonexistentToken","inputs":[{"name":"tokenId","type":"uint256","internalType":"uint256"}]},{"type":"error","name":"FailedInnerCall","inputs":[]},{"type":"error","name":"InvalidInitialization","inputs":[]},{"type":"error","name":"NotInitializing","inputs":[]},{"type":"error","name":"UUPSUnauthorizedCallContext","inputs":[]},{"type":"error","name":"UUPSUnsupportedProxiableUUID","inputs":[{"name":"slot","type":"bytes32","internalType":"bytes32"}]}],"bytecode":{"object":"0x60a060405230608052348015601357600080fd5b5060805161223961003d60003960008181610e7201528181610e9b0152610ffe01526122396000f3fe6080604052600436106101815760003560e01c80636352211e116100d1578063a22cb4651161008a578063c87b56dd11610064578063c87b56dd1461047c578063d204c45e1461049c578063d547741f146104bc578063e985e9c5146104dc57600080fd5b8063a22cb4651461040b578063ad3cb1cc1461042b578063b88d4fde1461045c57600080fd5b80636352211e1461034d57806370a082311461036d57806375b238fc1461038d57806391d14854146103c157806395d89b41146103e1578063a217fddf146103f657600080fd5b8063248a9ca31161013e57806342842e0e1161011857806342842e0e146102e557806342966c68146103055780634f1ef2861461032557806352d1902d1461033857600080fd5b8063248a9ca3146102775780632f2ff15d146102a557806336568abe146102c557600080fd5b806301ffc9a71461018657806306fdde03146101bb578063081812fc146101dd578063095ea7b3146102155780632016a0d21461023757806323b872dd14610257575b600080fd5b34801561019257600080fd5b506101a66101a1366004611b57565b6104fc565b60405190151581526020015b60405180910390f35b3480156101c757600080fd5b506101d061050d565b6040516101b29190611bc4565b3480156101e957600080fd5b506101fd6101f8366004611bd7565b6105b1565b6040516001600160a01b0390911681526020016101b2565b34801561022157600080fd5b50610235610230366004611c0c565b6105c6565b005b34801561024357600080fd5b50610235610252366004611cfe565b6105d5565b34801561026357600080fd5b50610235610272366004611d88565b61075b565b34801561028357600080fd5b50610297610292366004611bd7565b6107eb565b6040519081526020016101b2565b3480156102b157600080fd5b506102356102c0366004611dc5565b61080d565b3480156102d157600080fd5b506102356102e0366004611dc5565b610829565b3480156102f157600080fd5b50610235610300366004611d88565b610861565b34801561031157600080fd5b50610235610320366004611bd7565b61087c565b610235610333366004611df1565b610888565b34801561034457600080fd5b506102976108a3565b34801561035957600080fd5b506101fd610368366004611bd7565b6108c0565b34801561037957600080fd5b50610297610388366004611e3f565b6108cb565b34801561039957600080fd5b506102977fa49807205ce4d355092ef5a8a18f56e8913cf4a201fbe287825b095693c2177581565b3480156103cd57600080fd5b506101a66103dc366004611dc5565b610927565b3480156103ed57600080fd5b506101d061095f565b34801561040257600080fd5b50610297600081565b34801561041757600080fd5b50610235610426366004611e5a565b61099e565b34801561043757600080fd5b506101d0604051806040016040528060058152602001640352e302e360dc1b81525081565b34801561046857600080fd5b50610235610477366004611e96565b6109a9565b34801561048857600080fd5b506101d0610497366004611bd7565b6109c0565b3480156104a857600080fd5b506102356104b7366004611df1565b6109cb565b3480156104c857600080fd5b506102356104d7366004611dc5565b610b04565b3480156104e857600080fd5b506101a66104f7366004611ee6565b610b20565b600061050782610b6d565b92915050565b6000805160206121a4833981519152805460609190819061052d90611f10565b80601f016020809104026020016040519081016040528092919081815260200182805461055990611f10565b80156105a65780601f1061057b576101008083540402835291602001916105a6565b820191906000526020600020905b81548152906001019060200180831161058957829003601f168201915b505050505091505090565b60006105bc82610b92565b5061050782610bca565b6105d1828233610c04565b5050565b7ff0c57e16840df040f15088dc2f81fe391c3923bec73e23a9662efc9c229c6a008054600160401b810460ff16159067ffffffffffffffff1660008115801561061b5750825b905060008267ffffffffffffffff1660011480156106385750303b155b905081158015610646575080155b156106645760405163f92ee8a960e01b815260040160405180910390fd5b845467ffffffffffffffff19166001178555831561068e57845460ff60401b1916600160401b1785555b6106988787610c11565b6106a0610c23565b6106a8610c23565b6106b0610c23565b6106b8610c23565b6106c360008a610c2d565b506106ee7fa49807205ce4d355092ef5a8a18f56e8913cf4a201fbe287825b095693c217758a610c2d565b50600180546001600160a01b0319166001600160a01b038a16179055831561075057845460ff60401b19168555604051600181527fc7f505b2f371ae2175ee4913f4499e1f2633a7b5936321eed1cdaeb6115181d29060200160405180910390a15b505050505050505050565b6001600160a01b03821661078a57604051633250574960e11b8152600060048201526024015b60405180910390fd5b6000610797838333610cd2565b9050836001600160a01b0316816001600160a01b0316146107e5576040516364283d7b60e01b81526001600160a01b0380861660048301526024820184905282166044820152606401610781565b50505050565b60009081526000805160206121e4833981519152602052604090206001015490565b610816826107eb565b61081f81610dde565b6107e58383610c2d565b6001600160a01b03811633146108525760405163334bd91960e11b815260040160405180910390fd5b61085c8282610deb565b505050565b61085c838383604051806020016040528060008152506109a9565b6105d160008233610cd2565b610890610e67565b61089982610f0c565b6105d18282610f36565b60006108ad610ff3565b506000805160206121c483398151915290565b600061050782610b92565b60006000805160206121a48339815191526001600160a01b038316610906576040516322718ad960e21b815260006004820152602401610781565b6001600160a01b039092166000908152600390920160205250604090205490565b60009182526000805160206121e4833981519152602090815260408084206001600160a01b0393909316845291905290205460ff1690565b7f80bb2b638cc20bc4d0a60d66940f3ab4a00c1d7b313497ca82fb0b4ab007930180546060916000805160206121a48339815191529161052d90611f10565b6105d133838361103c565b6109b484848461075b565b6107e5848484846110ed565b606061050782611216565b60405165185c9d1a5cdd60d21b602082015260260160408051808303601f1901815290829052805160209091012060015463cb510e9760e01b835233600484015290916001600160a01b039091169063cb510e9790602401600060405180830381865afa158015610a40573d6000803e3d6000fd5b505050506040513d6000823e601f3d908101601f19168201604052610a689190810190611f4a565b604051602001610a789190611fb8565b6040516020818303038152906040528051906020012014610adb5760405162461bcd60e51b815260206004820152601760248201527f43616c6c6572206973206e6f7420616e206172746973740000000000000000006044820152606401610781565b600080548180610aea83611fd4565b919050559050610afa838261134b565b61085c8183611365565b610b0d826107eb565b610b1681610dde565b6107e58383610deb565b6001600160a01b0391821660009081527f80bb2b638cc20bc4d0a60d66940f3ab4a00c1d7b313497ca82fb0b4ab00793056020908152604080832093909416825291909152205460ff1690565b60006001600160e01b03198216637965db0b60e01b14806105075750610507826113d8565b600080610b9e836113fd565b90506001600160a01b03811661050757604051637e27328960e01b815260048101849052602401610781565b60009081527f80bb2b638cc20bc4d0a60d66940f3ab4a00c1d7b313497ca82fb0b4ab007930460205260409020546001600160a01b031690565b61085c8383836001611437565b610c1961154d565b6105d18282611596565b610c2b61154d565b565b60006000805160206121e4833981519152610c488484610927565b610cc8576000848152602082815260408083206001600160a01b03871684529091529020805460ff19166001179055610c7e3390565b6001600160a01b0316836001600160a01b0316857f2f8788117e7eff1d82e926ec794901d17c78024a50270940304540a733656f0d60405160405180910390a46001915050610507565b6000915050610507565b60006000805160206121a483398151915281610ced856113fd565b90506001600160a01b03841615610d0957610d098185876115c7565b6001600160a01b03811615610d4957610d26600086600080611437565b6001600160a01b0381166000908152600383016020526040902080546000190190555b6001600160a01b03861615610d7a576001600160a01b03861660009081526003830160205260409020805460010190555b600085815260028301602052604080822080546001600160a01b0319166001600160a01b038a811691821790925591518893918516917fddf252ad1be2c89b69c2b068fc378daa952ba7f163c4a11628f55a4df523b3ef91a49150505b9392505050565b610de8813361162b565b50565b60006000805160206121e4833981519152610e068484610927565b15610cc8576000848152602082815260408083206001600160a01b0387168085529252808320805460ff1916905551339287917ff6391f5c32d9c69d2a47ea670b442974b53935d1edc7fd64eb21e047a839171b9190a46001915050610507565b306001600160a01b037f0000000000000000000000000000000000000000000000000000000000000000161480610eee57507f00000000000000000000000000000000000000000000000000000000000000006001600160a01b0316610ee26000805160206121c4833981519152546001600160a01b031690565b6001600160a01b031614155b15610c2b5760405163703e46dd60e11b815260040160405180910390fd5b7fa49807205ce4d355092ef5a8a18f56e8913cf4a201fbe287825b095693c217756105d181610dde565b816001600160a01b03166352d1902d6040518163ffffffff1660e01b8152600401602060405180830381865afa925050508015610f90575060408051601f3d908101601f19168201909252610f8d91810190611ffb565b60015b610fb857604051634c9c8ce360e01b81526001600160a01b0383166004820152602401610781565b6000805160206121c48339815191528114610fe957604051632a87526960e21b815260048101829052602401610781565b61085c8383611664565b306001600160a01b037f00000000000000000000000000000000000000000000000000000000000000001614610c2b5760405163703e46dd60e11b815260040160405180910390fd5b6000805160206121a48339815191526001600160a01b03831661107d57604051630b61174360e31b81526001600160a01b0384166004820152602401610781565b6001600160a01b038481166000818152600584016020908152604080832094881680845294825291829020805460ff191687151590811790915591519182527f17307eab39ab6107e8899845ad3d59bd9653f200f220920489ca2b5937696c31910160405180910390a350505050565b6001600160a01b0383163b156107e557604051630a85bd0160e11b81526001600160a01b0384169063150b7a029061112f903390889087908790600401612014565b6020604051808303816000875af192505050801561116a575060408051601f3d908101601f1916820190925261116791810190612051565b60015b6111d3573d808015611198576040519150601f19603f3d011682016040523d82523d6000602084013e61119d565b606091505b5080516000036111cb57604051633250574960e11b81526001600160a01b0385166004820152602401610781565b805181602001fd5b6001600160e01b03198116630a85bd0160e11b1461120f57604051633250574960e11b81526001600160a01b0385166004820152602401610781565b5050505050565b60607f0542a41881ee128a365a727b282c86fa859579490b9bb45aab8503648c8e790061124283610b92565b506000838152602082905260408120805461125c90611f10565b80601f016020809104026020016040519081016040528092919081815260200182805461128890611f10565b80156112d55780601f106112aa576101008083540402835291602001916112d5565b820191906000526020600020905b8154815290600101906020018083116112b857829003601f168201915b5050505050905060006112f360408051602081019091526000815290565b9050805160000361130657509392505050565b81511561133957808260405160200161132092919061206e565b6040516020818303038152906040529350505050919050565b611342856116ba565b95945050505050565b6105d182826040518060200160405280600081525061172e565b60008281527f0542a41881ee128a365a727b282c86fa859579490b9bb45aab8503648c8e79006020819052604090912061139f83826120e4565b506040518381527ff8e1a15aba9398e019f0b49df1a4fde98ee17ae345cb5f6b5e2c27f5033e8ce79060200160405180910390a1505050565b60006001600160e01b03198216632483248360e11b1480610507575061050782611745565b60009081527f80bb2b638cc20bc4d0a60d66940f3ab4a00c1d7b313497ca82fb0b4ab007930260205260409020546001600160a01b031690565b6000805160206121a4833981519152818061145a57506001600160a01b03831615155b1561151c57600061146a85610b92565b90506001600160a01b038416158015906114965750836001600160a01b0316816001600160a01b031614155b80156114a957506114a78185610b20565b155b156114d25760405163a9fbf51f60e01b81526001600160a01b0385166004820152602401610781565b821561151a5784866001600160a01b0316826001600160a01b03167f8c5be1e5ebec7d5bd14f71427d1e84f3dd0314c0f7b2291e5b200ac8c7c3b92560405160405180910390a45b505b600093845260040160205250506040902080546001600160a01b0319166001600160a01b0392909216919091179055565b7ff0c57e16840df040f15088dc2f81fe391c3923bec73e23a9662efc9c229c6a0054600160401b900460ff16610c2b57604051631afcd79f60e31b815260040160405180910390fd5b61159e61154d565b6000805160206121a4833981519152806115b884826120e4565b50600181016107e583826120e4565b6115d2838383611795565b61085c576001600160a01b03831661160057604051637e27328960e01b815260048101829052602401610781565b60405163177e802f60e01b81526001600160a01b038316600482015260248101829052604401610781565b6116358282610927565b6105d15760405163e2517d3f60e01b81526001600160a01b038216600482015260248101839052604401610781565b61166d826117fb565b6040516001600160a01b038316907fbc7cd75a20ee27fd9adebab32041f755214dbc6bffa90cc0225b39da2e5c2d3b90600090a28051156116b25761085c8282611860565b6105d16118cd565b60606116c582610b92565b5060006116dd60408051602081019091526000815290565b905060008151116116fd5760405180602001604052806000815250610dd7565b80611707846118ec565b60405160200161171892919061206e565b6040516020818303038152906040529392505050565b611738838361197f565b61085c60008484846110ed565b60006001600160e01b031982166380ac58cd60e01b148061177657506001600160e01b03198216635b5e139f60e01b145b8061050757506301ffc9a760e01b6001600160e01b0319831614610507565b60006001600160a01b038316158015906117f35750826001600160a01b0316846001600160a01b031614806117cf57506117cf8484610b20565b806117f35750826001600160a01b03166117e883610bca565b6001600160a01b0316145b949350505050565b806001600160a01b03163b60000361183157604051634c9c8ce360e01b81526001600160a01b0382166004820152602401610781565b6000805160206121c483398151915280546001600160a01b0319166001600160a01b0392909216919091179055565b6060600080846001600160a01b03168460405161187d9190611fb8565b600060405180830381855af49150503d80600081146118b8576040519150601f19603f3d011682016040523d82523d6000602084013e6118bd565b606091505b50915091506113428583836119e4565b3415610c2b5760405163b398979f60e01b815260040160405180910390fd5b606060006118f983611a40565b600101905060008167ffffffffffffffff81111561191957611919611c36565b6040519080825280601f01601f191660200182016040528015611943576020820181803683370190505b5090508181016020015b600019016f181899199a1a9b1b9c1cb0b131b232b360811b600a86061a8153600a850494508461194d57509392505050565b6001600160a01b0382166119a957604051633250574960e11b815260006004820152602401610781565b60006119b783836000610cd2565b90506001600160a01b0381161561085c576040516339e3563760e11b815260006004820152602401610781565b6060826119f9576119f482611b18565b610dd7565b8151158015611a1057506001600160a01b0384163b155b15611a3957604051639996b31560e01b81526001600160a01b0385166004820152602401610781565b5080610dd7565b60008072184f03e93ff9f4daa797ed6e38ed64bf6a1f0160401b8310611a7f5772184f03e93ff9f4daa797ed6e38ed64bf6a1f0160401b830492506040015b6d04ee2d6d415b85acef81000000008310611aab576d04ee2d6d415b85acef8100000000830492506020015b662386f26fc100008310611ac957662386f26fc10000830492506010015b6305f5e1008310611ae1576305f5e100830492506008015b6127108310611af557612710830492506004015b60648310611b07576064830492506002015b600a83106105075760010192915050565b805115611b285780518082602001fd5b604051630a12f52160e11b815260040160405180910390fd5b6001600160e01b031981168114610de857600080fd5b600060208284031215611b6957600080fd5b8135610dd781611b41565b60005b83811015611b8f578181015183820152602001611b77565b50506000910152565b60008151808452611bb0816020860160208601611b74565b601f01601f19169290920160200192915050565b602081526000610dd76020830184611b98565b600060208284031215611be957600080fd5b5035919050565b80356001600160a01b0381168114611c0757600080fd5b919050565b60008060408385031215611c1f57600080fd5b611c2883611bf0565b946020939093013593505050565b634e487b7160e01b600052604160045260246000fd5b604051601f8201601f1916810167ffffffffffffffff81118282101715611c7557611c75611c36565b604052919050565b600067ffffffffffffffff821115611c9757611c97611c36565b50601f01601f191660200190565b600082601f830112611cb657600080fd5b8135602083016000611ccf611cca84611c7d565b611c4c565b9050828152858383011115611ce357600080fd5b82826020830137600092810160200192909252509392505050565b60008060008060808587031215611d1457600080fd5b611d1d85611bf0565b9350611d2b60208601611bf0565b9250604085013567ffffffffffffffff811115611d4757600080fd5b611d5387828801611ca5565b925050606085013567ffffffffffffffff811115611d7057600080fd5b611d7c87828801611ca5565b91505092959194509250565b600080600060608486031215611d9d57600080fd5b611da684611bf0565b9250611db460208501611bf0565b929592945050506040919091013590565b60008060408385031215611dd857600080fd5b82359150611de860208401611bf0565b90509250929050565b60008060408385031215611e0457600080fd5b611e0d83611bf0565b9150602083013567ffffffffffffffff811115611e2957600080fd5b611e3585828601611ca5565b9150509250929050565b600060208284031215611e5157600080fd5b610dd782611bf0565b60008060408385031215611e6d57600080fd5b611e7683611bf0565b915060208301358015158114611e8b57600080fd5b809150509250929050565b60008060008060808587031215611eac57600080fd5b611eb585611bf0565b9350611ec360208601611bf0565b925060408501359150606085013567ffffffffffffffff811115611d7057600080fd5b60008060408385031215611ef957600080fd5b611f0283611bf0565b9150611de860208401611bf0565b600181811c90821680611f2457607f821691505b602082108103611f4457634e487b7160e01b600052602260045260246000fd5b50919050565b600060208284031215611f5c57600080fd5b815167ffffffffffffffff811115611f7357600080fd5b8201601f81018413611f8457600080fd5b8051611f92611cca82611c7d565b818152856020838501011115611fa757600080fd5b611342826020830160208601611b74565b60008251611fca818460208701611b74565b9190910192915050565b600060018201611ff457634e487b7160e01b600052601160045260246000fd5b5060010190565b60006020828403121561200d57600080fd5b5051919050565b6001600160a01b038581168252841660208201526040810183905260806060820181905260009061204790830184611b98565b9695505050505050565b60006020828403121561206357600080fd5b8151610dd781611b41565b60008351612080818460208801611b74565b835190830190612094818360208801611b74565b01949350505050565b601f82111561085c57806000526020600020601f840160051c810160208510156120c45750805b601f840160051c820191505b8181101561120f57600081556001016120d0565b815167ffffffffffffffff8111156120fe576120fe611c36565b6121128161210c8454611f10565b8461209d565b6020601f821160018114612146576000831561212e5750848201515b600019600385901b1c1916600184901b17845561120f565b600084815260208120601f198516915b828110156121765787850151825560209485019460019092019101612156565b50848210156121945786840151600019600387901b60f8161c191681555b50505050600190811b0190555056fe80bb2b638cc20bc4d0a60d66940f3ab4a00c1d7b313497ca82fb0b4ab0079300360894a13ba1a3210667c828492db98dca3e2076cc3735a920a3ca505d382bbc02dd7bc7dec4dceedda775e58dd541e08a116c6c53815c0bd028192f7b626800a2646970667358221220ed9d5100d1edb392cfa38ed6add18a5949ee296ddcf12d26d64dc4e8ceaea70c64736f6c634300081a0033","linkReferences":{}},"methodIdentifiers":{"ADMIN_ROLE()":"75b238fc","DEFAULT_ADMIN_ROLE()":"a217fddf","UPGRADE_INTERFACE_VERSION()":"ad3cb1cc","approve(address,uint256)":"095ea7b3","balanceOf(address)":"70a08231","burn(uint256)":"42966c68","getApproved(uint256)":"081812fc","getRoleAdmin(bytes32)":"248a9ca3","grantRole(bytes32,address)":"2f2ff15d","hasRole(bytes32,address)":"91d14854","initialize(address,address,string,string)":"2016a0d2","isApprovedForAll(address,address)":"e985e9c5","name()":"06fdde03","ownerOf(uint256)":"6352211e","proxiableUUID()":"52d1902d","renounceRole(bytes32,address)":"36568abe","revokeRole(bytes32,address)":"d547741f","safeMint(address,string)":"d204c45e","safeTransferFrom(address,address,uint256)":"42842e0e","safeTransferFrom(address,address,uint256,bytes)":"b88d4fde","setApprovalForAll(address,bool)":"a22cb465","supportsInterface(bytes4)":"01ffc9a7","symbol()":"95d89b41","tokenURI(uint256)":"c87b56dd","transferFrom(address,address,uint256)":"23b872dd","upgradeToAndCall(address,bytes)":"4f1ef286"},"id":1}