{"abi":[{"type":"function","name":"ADMIN_ROLE","inputs":[],"outputs":[{"name":"","type":"bytes32","internalType":"bytes32"}],"stateMutability":"view"},{"type":"function","name":"DEFAULT_ADMIN_ROLE","inputs":[],"outputs":[{"name":"","type":"bytes32","internalType":"bytes32"}],"stateMutability":"view"},{"type":"function","name":"UPGRADE_INTERFACE_VERSION","inputs":[],"outputs":[{"name":"","type":"string","internalType":"string"}],"stateMutability":"view"},{"type":"function","name":"addStaff","inputs":[{"name":"account","type":"address","internalType":"address"},{"name":"role","type":"string","internalType":"string"}],"outputs":[],"stateMutability":"nonpayable"},{"type":"function","name":"getRoleAdmin","inputs":[{"name":"role","type":"bytes32","internalType":"bytes32"}],"outputs":[{"name":"","type":"bytes32","internalType":"bytes32"}],"stateMutability":"view"},{"type":"function","name":"grantRole","inputs":[{"name":"role","type":"bytes32","internalType":"bytes32"},{"name":"account","type":"address","internalType":"address"}],"outputs":[],"stateMutability":"nonpayable"},{"type":"function","name":"hasRole","inputs":[{"name":"role","type":"bytes32","internalType":"bytes32"},{"name":"account","type":"address","internalType":"address"}],"outputs":[{"name":"","type":"bool","internalType":"bool"}],"stateMutability":"view"},{"type":"function","name":"initialize","inputs":[{"name":"admin","type":"address","internalType":"address"}],"outputs":[],"stateMutability":"nonpayable"},{"type":"function","name":"isStaff","inputs":[{"name":"account","type":"address","internalType":"address"}],"outputs":[{"name":"","type":"string","internalType":"string"}],"stateMutability":"view"},{"type":"function","name":"proxiableUUID","inputs":[],"outputs":[{"name":"","type":"bytes32","internalType":"bytes32"}],"stateMutability":"view"},{"type":"function","name":"removeStaff","inputs":[{"name":"account","type":"address","internalType":"address"},{"name":"role","type":"string","internalType":"string"}],"outputs":[],"stateMutability":"nonpayable"},{"type":"function","name":"renounceRole","inputs":[{"name":"role","type":"bytes32","internalType":"bytes32"},{"name":"callerConfirmation","type":"address","internalType":"address"}],"outputs":[],"stateMutability":"nonpayable"},{"type":"function","name":"revokeRole","inputs":[{"name":"role","type":"bytes32","internalType":"bytes32"},{"name":"account","type":"address","internalType":"address"}],"outputs":[],"stateMutability":"nonpayable"},{"type":"function","name":"supportsInterface","inputs":[{"name":"interfaceId","type":"bytes4","internalType":"bytes4"}],"outputs":[{"name":"","type":"bool","internalType":"bool"}],"stateMutability":"view"},{"type":"function","name":"upgradeToAndCall","inputs":[{"name":"newImplementation","type":"address","internalType":"address"},{"name":"data","type":"bytes","internalType":"bytes"}],"outputs":[],"stateMutability":"payable"},{"type":"event","name":"Initialized","inputs":[{"name":"version","type":"uint64","indexed":false,"internalType":"uint64"}],"anonymous":false},{"type":"event","name":"RoleAdminChanged","inputs":[{"name":"role","type":"bytes32","indexed":true,"internalType":"bytes32"},{"name":"previousAdminRole","type":"bytes32","indexed":true,"internalType":"bytes32"},{"name":"newAdminRole","type":"bytes32","indexed":true,"internalType":"bytes32"}],"anonymous":false},{"type":"event","name":"RoleGranted","inputs":[{"name":"role","type":"bytes32","indexed":true,"internalType":"bytes32"},{"name":"account","type":"address","indexed":true,"internalType":"address"},{"name":"sender","type":"address","indexed":true,"internalType":"address"}],"anonymous":false},{"type":"event","name":"RoleRevoked","inputs":[{"name":"role","type":"bytes32","indexed":true,"internalType":"bytes32"},{"name":"account","type":"address","indexed":true,"internalType":"address"},{"name":"sender","type":"address","indexed":true,"internalType":"address"}],"anonymous":false},{"type":"event","name":"Upgraded","inputs":[{"name":"implementation","type":"address","indexed":true,"internalType":"address"}],"anonymous":false},{"type":"error","name":"AccessControlBadConfirmation","inputs":[]},{"type":"error","name":"AccessControlUnauthorizedAccount","inputs":[{"name":"account","type":"address","internalType":"address"},{"name":"neededRole","type":"bytes32","internalType":"bytes32"}]},{"type":"error","name":"AddressEmptyCode","inputs":[{"name":"target","type":"address","internalType":"address"}]},{"type":"error","name":"ERC1967InvalidImplementation","inputs":[{"name":"implementation","type":"address","internalType":"address"}]},{"type":"error","name":"ERC1967NonPayable","inputs":[]},{"type":"error","name":"FailedInnerCall","inputs":[]},{"type":"error","name":"InvalidInitialization","inputs":[]},{"type":"error","name":"NotInitializing","inputs":[]},{"type":"error","name":"UUPSUnauthorizedCallContext","inputs":[]},{"type":"error","name":"UUPSUnsupportedProxiableUUID","inputs":[{"name":"slot","type":"bytes32","internalType":"bytes32"}]}],"bytecode":{"object":"0x60a060405230608052348015601357600080fd5b50608051610f9961003d600039600081816107550152818161077e01526108d60152610f996000f3fe6080604052600436106100e85760003560e01c806379064f681161008a578063c4d66de811610059578063c4d66de81461026f578063cb510e971461028f578063d547741f146102af578063f024ec26146101dc57600080fd5b806379064f68146101dc57806391d14854146101fc578063a217fddf1461021c578063ad3cb1cc1461023157600080fd5b806336568abe116100c657806336568abe146101725780634f1ef2861461019257806352d1902d146101a557806375b238fc146101ba57600080fd5b806301ffc9a7146100ed578063248a9ca3146101225780632f2ff15d14610150575b600080fd5b3480156100f957600080fd5b5061010d610108366004610b98565b6102cf565b60405190151581526020015b60405180910390f35b34801561012e57600080fd5b5061014261013d366004610bc2565b610306565b604051908152602001610119565b34801561015c57600080fd5b5061017061016b366004610bf7565b610328565b005b34801561017e57600080fd5b5061017061018d366004610bf7565b61034a565b6101706101a0366004610cb3565b610382565b3480156101b157600080fd5b506101426103a1565b3480156101c657600080fd5b50610142600080516020610f4483398151915281565b3480156101e857600080fd5b506101706101f7366004610cb3565b6103be565b34801561020857600080fd5b5061010d610217366004610bf7565b6103e0565b34801561022857600080fd5b50610142600081565b34801561023d57600080fd5b50610262604051806040016040528060058152602001640352e302e360dc1b81525081565b6040516101199190610d39565b34801561027b57600080fd5b5061017061028a366004610d6c565b610418565b34801561029b57600080fd5b506102626102aa366004610d6c565b610554565b3480156102bb57600080fd5b506101706102ca366004610bf7565b610600565b60006001600160e01b03198216637965db0b60e01b148061030057506301ffc9a760e01b6001600160e01b03198316145b92915050565b6000908152600080516020610f24833981519152602052604090206001015490565b61033182610306565b61033a8161061c565b6103448383610629565b50505050565b6001600160a01b03811633146103735760405163334bd91960e11b815260040160405180910390fd5b61037d82826106ce565b505050565b61038a61074a565b610393826107f1565b61039d8282610809565b5050565b60006103ab6108cb565b50600080516020610f0483398151915290565b600080516020610f448339815191526103d68161061c565b61037d8383610914565b6000918252600080516020610f24833981519152602090815260408084206001600160a01b0393909316845291905290205460ff1690565b7ff0c57e16840df040f15088dc2f81fe391c3923bec73e23a9662efc9c229c6a008054600160401b810460ff16159067ffffffffffffffff1660008115801561045e5750825b905060008267ffffffffffffffff16600114801561047b5750303b155b905081158015610489575080155b156104a75760405163f92ee8a960e01b815260040160405180910390fd5b845467ffffffffffffffff1916600117855583156104d157845460ff60401b1916600160401b1785555b6104d9610936565b6104e1610936565b6104ec600087610629565b50610505600080516020610f4483398151915287610629565b50831561054c57845460ff60401b19168555604051600181527fc7f505b2f371ae2175ee4913f4499e1f2633a7b5936321eed1cdaeb6115181d29060200160405180910390a15b505050505050565b6001600160a01b038116600090815260208190526040902080546060919061057b90610d87565b80601f01602080910402602001604051908101604052809291908181526020018280546105a790610d87565b80156105f45780601f106105c9576101008083540402835291602001916105f4565b820191906000526020600020905b8154815290600101906020018083116105d757829003601f168201915b50505050509050919050565b61060982610306565b6106128161061c565b61034483836106ce565b610626813361093e565b50565b6000600080516020610f2483398151915261064484846103e0565b6106c4576000848152602082815260408083206001600160a01b03871684529091529020805460ff1916600117905561067a3390565b6001600160a01b0316836001600160a01b0316857f2f8788117e7eff1d82e926ec794901d17c78024a50270940304540a733656f0d60405160405180910390a46001915050610300565b6000915050610300565b6000600080516020610f248339815191526106e984846103e0565b156106c4576000848152602082815260408083206001600160a01b0387168085529252808320805460ff1916905551339287917ff6391f5c32d9c69d2a47ea670b442974b53935d1edc7fd64eb21e047a839171b9190a46001915050610300565b306001600160a01b037f00000000000000000000000000000000000000000000000000000000000000001614806107d157507f00000000000000000000000000000000000000000000000000000000000000006001600160a01b03166107c5600080516020610f04833981519152546001600160a01b031690565b6001600160a01b031614155b156107ef5760405163703e46dd60e11b815260040160405180910390fd5b565b600080516020610f4483398151915261039d8161061c565b816001600160a01b03166352d1902d6040518163ffffffff1660e01b8152600401602060405180830381865afa925050508015610863575060408051601f3d908101601f1916820190925261086091810190610dc1565b60015b61089057604051634c9c8ce360e01b81526001600160a01b03831660048201526024015b60405180910390fd5b600080516020610f0483398151915281146108c157604051632a87526960e21b815260048101829052602401610887565b61037d8383610977565b306001600160a01b037f000000000000000000000000000000000000000000000000000000000000000016146107ef5760405163703e46dd60e11b815260040160405180910390fd5b6001600160a01b038216600090815260208190526040902061037d8282610e28565b6107ef6109cd565b61094882826103e0565b61039d5760405163e2517d3f60e01b81526001600160a01b038216600482015260248101839052604401610887565b61098082610a16565b6040516001600160a01b038316907fbc7cd75a20ee27fd9adebab32041f755214dbc6bffa90cc0225b39da2e5c2d3b90600090a28051156109c55761037d8282610a7b565b61039d610af1565b7ff0c57e16840df040f15088dc2f81fe391c3923bec73e23a9662efc9c229c6a0054600160401b900460ff166107ef57604051631afcd79f60e31b815260040160405180910390fd5b806001600160a01b03163b600003610a4c57604051634c9c8ce360e01b81526001600160a01b0382166004820152602401610887565b600080516020610f0483398151915280546001600160a01b0319166001600160a01b0392909216919091179055565b6060600080846001600160a01b031684604051610a989190610ee7565b600060405180830381855af49150503d8060008114610ad3576040519150601f19603f3d011682016040523d82523d6000602084013e610ad8565b606091505b5091509150610ae8858383610b10565b95945050505050565b34156107ef5760405163b398979f60e01b815260040160405180910390fd5b606082610b2557610b2082610b6f565b610b68565b8151158015610b3c57506001600160a01b0384163b155b15610b6557604051639996b31560e01b81526001600160a01b0385166004820152602401610887565b50805b9392505050565b805115610b7f5780518082602001fd5b604051630a12f52160e11b815260040160405180910390fd5b600060208284031215610baa57600080fd5b81356001600160e01b031981168114610b6857600080fd5b600060208284031215610bd457600080fd5b5035919050565b80356001600160a01b0381168114610bf257600080fd5b919050565b60008060408385031215610c0a57600080fd5b82359150610c1a60208401610bdb565b90509250929050565b634e487b7160e01b600052604160045260246000fd5b60008067ffffffffffffffff841115610c5457610c54610c23565b50604051601f19601f85018116603f0116810181811067ffffffffffffffff82111715610c8357610c83610c23565b604052838152905080828401851015610c9b57600080fd5b83836020830137600060208583010152509392505050565b60008060408385031215610cc657600080fd5b610ccf83610bdb565b9150602083013567ffffffffffffffff811115610ceb57600080fd5b8301601f81018513610cfc57600080fd5b610d0b85823560208401610c39565b9150509250929050565b60005b83811015610d30578181015183820152602001610d18565b50506000910152565b6020815260008251806020840152610d58816040850160208701610d15565b601f01601f19169190910160400192915050565b600060208284031215610d7e57600080fd5b610b6882610bdb565b600181811c90821680610d9b57607f821691505b602082108103610dbb57634e487b7160e01b600052602260045260246000fd5b50919050565b600060208284031215610dd357600080fd5b5051919050565b601f82111561037d57806000526020600020601f840160051c81016020851015610e015750805b601f840160051c820191505b81811015610e215760008155600101610e0d565b5050505050565b815167ffffffffffffffff811115610e4257610e42610c23565b610e5681610e508454610d87565b84610dda565b6020601f821160018114610e8a5760008315610e725750848201515b600019600385901b1c1916600184901b178455610e21565b600084815260208120601f198516915b82811015610eba5787850151825560209485019460019092019101610e9a565b5084821015610ed85786840151600019600387901b60f8161c191681555b50505050600190811b01905550565b60008251610ef9818460208701610d15565b919091019291505056fe360894a13ba1a3210667c828492db98dca3e2076cc3735a920a3ca505d382bbc02dd7bc7dec4dceedda775e58dd541e08a116c6c53815c0bd028192f7b626800a49807205ce4d355092ef5a8a18f56e8913cf4a201fbe287825b095693c21775a264697066735822122061ffd6cc29742f169a9751a6a5b4e928ea78e3cb0e594888b3dd0fa7e474f4c664736f6c634300081a0033","linkReferences":{}},"methodIdentifiers":{"ADMIN_ROLE()":"75b238fc","DEFAULT_ADMIN_ROLE()":"a217fddf","UPGRADE_INTERFACE_VERSION()":"ad3cb1cc","addStaff(address,string)":"f024ec26","getRoleAdmin(bytes32)":"248a9ca3","grantRole(bytes32,address)":"2f2ff15d","hasRole(bytes32,address)":"91d14854","initialize(address)":"c4d66de8","isStaff(address)":"cb510e97","proxiableUUID()":"52d1902d","removeStaff(address,string)":"79064f68","renounceRole(bytes32,address)":"36568abe","revokeRole(bytes32,address)":"d547741f","supportsInterface(bytes4)":"01ffc9a7","upgradeToAndCall(address,bytes)":"4f1ef286"},"id":0}